:100000000C9491160C94BB160C94BB160C94BB1656
:100010000C94BB160C94BB160C94BB160C94BB161C
:100020000C94BB160C940E620C94BB160C94BB166D
:100030000C94BB160C942C470C94BB160C94BB165A
:100040000C94BB160C9457A40C94C4610C94BB166E
:100050000C9417A30C940DA30C94BB160C94BB1614
:100060000C94BB160C94BB160C94BB160C94BB16CC
:100070000C94BB160C94BB160C94BB160C94BB16BC
:100080000C94BB160C94BB160C94BB16AEABB1AB68
:10009000A4ABA8ABC8ABC8ABB5ABB9ABBFABC3AB3C
:1000A000A8AFADAFB2AFBCAFEAAFEAAFC6AFCEAFAD
:1000B000D6AFE0AFE9B1A8B0DFB025B2DFB0DFB0B6
:1000C000DFB0DFB0DFB0DFB0DFB0DFB0DFB0DFB0B8
:1000D000DFB0DFB0DFB0DFB0DFB0DFB0DFB0DFB0A8
:1000E000DFB0DFB0DFB0DFB0DFB0DFB0DFB0DFB098
:1000F0001FB2DFB0DFB0DFB0DFB0DFB0DFB0DFB046
:10010000DFB0F8B1DFB0DFB0DFB0DFB0DFB0DFB05D
:10011000DFB0DFB0DFB0DFB03CB2DCB04E414E4903
:100120004E495459494E46CDCCCC3D0AD7233C17B5
:10013000B7D13877CC2B329595E6241FB14F0A0002
:100140000020410000C84200401C4620BCBE4CCAF2
:100150001B0E5AAEC59D74434F4D4D554E494341FC
:1001600054494F4E0044525952554E004552524F39
:10017000525300494E464F004543484F00536C656B
:1001800065702E2E2E00206F6620004D424C2047B9
:10019000323920706F696E742000290A004A206F7E
:1001A0007574206F662072616E67652028302D009F
:1001B000290A0049206F7574206F662072616E678E
:1001C000652028302D004D6573682070726F62695C
:1001D0006E6720646F6E652E0A005374617274201E
:1001E0006D6573682070726F62696E6720776974DD
:1001F0006820224732392053312220666972737495
:100200002E0A004732380A473239205332006861DB
:1002100073206E6F20646174612E0A004D657368EF
:1002200020426564204C6576656C696E67200053DA
:10023000206F7574206F662072616E6765202830AC
:100240002D35292E0A004D65736820706F696E7414
:100250002063616E6E6F74206265207265736F6CCF
:100260007665640A00436C69636B20746F20726565
:1002700073756D652E2E2E004E6F206D6F76652E78
:1002800000456E642066696C65206C6973740A00B1
:10029000426567696E2066696C65206C6973740AD3
:1002A00000286E6F2066696C65290043757272655F
:1002B0006E742066696C653A200053442070726940
:1002C0006E74696E67206279746520004E6F7420C9
:1002D0005344207072696E74696E670A002E0A00BA
:1002E00044656C6574696F6E206661696C65642C29
:1002F0002046696C653A200046696C652064656C2F
:10030000657465643A002569730025696D20256967
:1003100073002569682025696D20256973002569AA
:1003200064202569682025696D2025697300256989
:100330007920256964202569682025696D20256953
:1003400073005072696E742074696D653A20006F95
:10035000666600780173016C0165015701444542EE
:1003600055473A004D31313320530020573A00426F
:10037000656420636F6F6C696E672E2E2E00426578
:10038000642068656174696E672E2E2E006F6B00A5
:10039000456E6465722D33204F46462E004348411A
:1003A0004D4245525F54454D50455241545552457A
:1003B000004D4F54494F4E5F4D4F444553005448F4
:1003C00045524D414C5F50524F54454354494F4E56
:1003D000004155544F5245504F52545F53445F5360
:1003E00054415455530050524F4D50545F53555043
:1003F000504F525400454D455247454E43595F506A
:10040000415253455200434153455F4C494748547C
:100410005F4252494748544E45535300544F474753
:100420004C455F4C494748545300534F465457413D
:1004300052455F504F574552004255494C445F501A
:10044000455243454E54004C4556454C494E475F36
:1004500044415441005A5F50524F42450041555467
:100460004F4C4556454C005052494E545F4A4F42FE
:100470000050524F4752455353004155544F524537
:10048000504F52545F54454D5000564F4C554D45BA
:100490005452494300454550524F4D0042494E4148
:1004A00052595F46494C455F5452414E534645525E
:1004B0000053455249414C5F584F4E5F584F464696
:1004C000004649524D574152455F4E414D453A4DC8
:1004D00061726C696E206275676669782D322E30A4
:1004E0002E7820284769746875622920534F555229
:1004F00043455F434F44455F55524C3A68747470AE
:10050000733A2F2F6769746875622E636F6D2F4D74
:1005100061726C696E4669726D776172652F4D61AB
:10052000726C696E2050524F544F434F4C5F56458A
:100530005253494F4E3A312E30204D414348494E97
:10054000455F545950453A456E6465722D332045D8
:10055000585452554445525F434F554E543A3120FA
:10056000555549443A63656465326132662D3431CC
:1005700061322D343734382D396231322D633535BF
:100580006336326633363766660A002F2F20004DF9
:1005900031343520533C696E6465783E206F757444
:1005A000206F662072616E67652028302D31290A20
:1005B00000205400205200416363656C65726174D1
:1005C000696F6E3A2050005741524E494E472120E4
:1005D0004C6F77205A204A65726B206D6179206CD0
:1005E00065616420746F20756E77616E7465642038
:1005F0007061757365732E0A004F4646004F4E00BA
:10060000205A00205900580020204D61783A2000DF
:10061000205A00205900580020204D696E3A2000D1
:10062000536F667420656E6473746F70733A200044
:1006300020466C6F773A200050726F746563746562
:10064000642050696E0A00496E76616C69642065A9
:10065000787472756465720A0020643A0020693A01
:100660000020703A0064697300656E0043290A0037
:1006700061626C656420286D696E2074656D702000
:1006800000436F6C642065787472756465732061D3
:10069000726520004D65736820706F696E74206309
:1006A000616E6E6F74206265207265736F6C766523
:1006B000640A004D34323120696E636F7272656373
:1006C0007420706172616D65746572207573616705
:1006D000650A00486F6D65202573257325732066B4
:1006E00069727374002066697273740A00486F6DD2
:1006F0006520004F666673657473206170706C6965
:100700006564004572723A20546F6F2066617221F1
:1007100000546F6F206661722066726F6D20726583
:10072000666572656E636520706F696E740A004558
:100730004550524F4D204F4B0A00496E76616C690F
:10074000642065787472756465720A000A4D65618B
:10075000737572656420706F696E74733A0A004F26
:1007600046460A00466164652048656967687420EA
:1007700000426564204C6576656C696E67200046B2
:1007800061696C656420746F20656E61626C6520C0
:10079000426564204C6576656C696E670A004D653C
:1007A000736820426564204C6576656C20646174D2
:1007B000613A0A00496E76616C6964206D65736800
:1007C0002E0A00206E6F7420656E74657265642E4B
:1007D0000A00204500205A00205900204D393220BF
:1007E000580020496E76616C696420657874727572
:1007F0006465722000220A00556E6B6E6F776E2062
:10080000636F6D6D616E643A20220020746F6F20FB
:100810006C6F6E6720657874727573696F6E207087
:10082000726576656E7465640A0020636F6C64207F
:10083000657874727573696F6E2070726576656E17
:100840007465640A0024F4D43050C38E20C2A240E0
:1008500017828B7011127A910D816CD90AA861E10F
:1008600008C7586607615143061E4B5D05C145A781
:10087000041A411104093D9803713931034036DBF4
:100880000265339102D4305402802E1D02632CEE97
:1008900001752AC501B028A001102781018F2564A8
:1008A000012B244B01E0223401AC211F018D200DCE
:1008B00001801FFC00841EED00971DDF00B81CD2D4
:1008C00000E61BC600201BBC00641AB200B219A8C7
:1008D000000A19A0006A189900D117910040178BDF
:1008E00000B516840031167E00B31579003A1573F1
:1008F00000C7146F0058146A00EE13660088136373
:100900000025135E00C7125B006C125700151254CD
:1009100000C111510070114F0021114B00D6104938
:10092000008D1047004610440002104200C00F40E6
:1009300000800F3E00420F3C00060F3B00CB0E38FC
:1009400000930E37005C0E3500270E3400F30D3295
:1009500000C10D3100900D3000600D2E00320D2DC4
:1009600000050D2C00D90C2B00AE0C2900850C299C
:10097000005C0C2700350C27000E0C2600E80B2429
:1009800000C40B2400A00B23007D0B23005A0B2175
:1009900000390B2100180B2000F80A1F00D90A1E8D
:1009A00000BB0A1E009D0A1D00800A1D00630A1C70
:1009B00000470A1B002C0A1B00110A1A00F7091A2B
:1009C00000DD091900C4091900AB091900920917C3
:1009D000007B091800630917004C09160036091638
:1009E00000200916000A091500F5081500E0081492
:1009F00000CC081400B8081400A4081400900813D0
:100A0000007D0812006B08130058081200460812F7
:100A10000034081100230811001208110001081108
:100A200000F0071000E0071000D0071000C007100A
:100A300000B0070F00A107100091070E0083070FF9
:100A40000074070F0065070E0057070E0049070ED8
:100A5000003B070D002E070E0020070D0013070DA9
:100A60000006070D00F9060C00ED060D00E0060C6F
:100A700000D4060C00C8060C00BC060C00B0060C26
:100A800000A4060B0099060C008D060B0082060BD5
:100A90000077060B006C060B0061060A0057060B78
:100AA000004C060A0042060A0038060A002E060A12
:100AB0000024060A001A060A001006090007060AA2
:100AC00000FD050900F4050900EB050900E2050930
:100AD00000D9050900D0050900C7050900BE0509B0
:100AE00000B5050800AD050800A50509009C05082E
:100AF00000940508008C050800840508007C0508A2
:100B000000740508006C050700650508005D050711
:100B100000560508004E0507004705070040050878
:100B20000038050700310507002A050700230507DF
:100B3000001C050600160507000F0507000805063E
:100B40000002050700FB040600F5040700EE04069A
:100B500000E8040600E2040700DB040600D50406F2
:100B600000CF040600C9040600C3040600BD040645
:100B700000B7040600B1040500AC040600A6040694
:100B800000A00405009B04060095040500900406DF
:100B9000008A04050085040500800406007A040527
:100BA0000075040500700405006B0405006604056B
:100BB00000610405005C04050057040500520405AB
:100BC000004D04050048040500430405003E0404EC
:100BD000003A04050035040500300404002C040527
:100BE0000027040400230405001E0404001A040462
:100BF0000016040500110404000D04040009040596
:100C0000000404040000040400FC030400F80304CE
:100C100000F4030400F0030400EC030400E8030400
:100C200000E4030400E0030400DC030400D8030430
:100C300000D4030400D0030400CC030400C8030361
:100C400000C503030024F404D9201BC40C5C0E98D7
:100C500004C4095F0265077101F405F900FB04B3E0
:100C60000048048700C10369005803550003034589
:100C700000BE023A008402310053022A00290225F4
:100C80000004022000E4011C00C8011900AF011794
:100C9000009801140084011300710110006101101B
:100CA0000051010E0043010D0036010B002B010B1A
:100CB0000020010B00150109000C010900030108C7
:100CC00000FB000800F3000800EB000700E400064A
:100CD00000DE000600D8000600D2000600CC0005A9
:100CE00000C7000500C2000500BD000400B90004F3
:100CF00000B5000400B1000400AD000400A9000428
:100D000000A5000300A20003009F0004009B000355
:100D10000098000300950002009300030090000378
:100D2000008D0002008B0003008800020086000294
:100D30000084000300810002007F0002007D0002A9
:100D4000007B0002007900020077000100760002BB
:100D5000007400020072000100710002006F0002C6
:100D6000006D0001006C0002006A000100690002D1
:100D700000670001006600010065000100640002D8
:100D8000006200010061000100600001005F0002DC
:100D9000005D0001005C0001005B0001005A0001E1
:100DA00000590001005800010057000100560001E1
:100DB00000550001005400010053000000530001E1
:100DC000005200010051000100500001004F0001DD
:100DD000004E0000004E0001004D0001004C0001DB
:100DE000004B0000004B0001004A000100490001D7
:100DF00000480000004800010047000100460000D4
:100E000000460001004500000045000100440001CB
:100E100000430000004300010042000000420001C6
:100E2000004100000041000100400001003F0000BF
:100E3000003F0001003E0000003E0001003D0000B8
:100E4000003D0001003C0000003C0000003C0001AF
:100E5000003B0000003B0001003A0000003A0001A6
:100E6000003900000039000100380000003800009F
:100E70000038000100370000003700010036000094
:100E8000003600000036000100350000003500008B
:100E9000003500010034000000340000003400017F
:100EA0000033000000330000003300010032000076
:100EB000003200000032000100310000003100006B
:100EC000003100010030000000300000003000015F
:100ED000002F0000002F0000002F0000002F000155
:100EE000002E0000002E0000002E0001002D00004A
:100EF000002D0000002D0000002D0001002C00003E
:100F0000002C0000002C0000002C0001002B000031
:100F1000002B0000002B0000002B0001002A000025
:100F2000002A0000002A0000002A00010029000019
:100F3000002900000029000000290000002900010C
:100F40000028000000280000002800000028000001
:100F500000280001002700000027000000270000F3
:100F600000270000002700010026000000260000E6
:100F700000260000002600000026000100250000D9
:100F800000250000002500000025000000250000CD
:100F900000250001002400000024000000240000BF
:100FA00000240000002400010023000000230000B2
:100FB00000230000002300000023000000230000A5
:100FC0000023000100220000002200000022000097
:100FD0000022000000220000002200010021000089
:100FE000002100000021000000210000002100007D
:100FF000002100000021000100200000002000006E
:101000000020000000200000002000000020000060
:101010000020000000200001001F0000001F000051
:10102000001F0000001F0000001F0000001F000044
:10103000001F0001001E0000001E0000001E000036
:10104000001E000000043700001E290000511B0094
:10105000005810000010090000CC040000780200C5
:1010600000410100007C3C3E5E2B3D3F2F5B5D3B21
:101070002C2A225C0043616E6E6F74206F70656E67
:101080002073756264697220005344206361726446
:10109000206F6B0A006F70656E526F6F742066610F
:1010A000696C65640A00766F6C756D652E696E6992
:1010B00074206661696C65640A00534420696E6936
:1010C00074206661696C0A004D3234004D32332061
:1010D00025730057726974696E6720746F206669A2
:1010E0006C653A20002E0A006F70656E206661699B
:1010F0006C65642C2046696C653A20002E0A006FEE
:1011000070656E206661696C65642C2046696C654B
:101110003A200046696C652073656C65637465648C
:101120000A002053697A653A200046696C65206F91
:1011300070656E65643A2000667265736800646F5E
:10114000696E67002066696C653A20004E6F7720F3
:1011500000454E4420535542524F5554494E450A7E
:10116000002220706F73002220706172656E743AE5
:101170002200535542524F5554494E452043414C4D
:101180004C207461726765743A2200747279696EDA
:101190006720746F2063616C6C207375622D6763C8
:1011A0006F64652066696C65732077697468207464
:1011B0006F6F206D616E79206C6576656C732E2083
:1011C0004D4158206C6576656C2069733A310A0090
:1011D000022020506C616E6E6572427566666572A3
:1011E00042797465733A20002046726565204D652A
:1011F0006D6F72793A2000436F6D70696C65643A67
:10120000204D617220313520323031390A00207C86
:1012100020417574686F723A202874686973697325
:101220006B65697468622C20456E6465722D332984
:101230000A00323031382D30312D323000204C61EF
:10124000737420557064617465643A200062756738
:101250006669782D322E302E780A004D61726C69E5
:101260006E0020536F6674776172652052657365F6
:10127000740A00205761746368646F672052657355
:1012800065740A002042726F776E206F7574205269
:10129000657365740A002045787465726E616C2010
:1012A00052657365740A00506F77657255700A0055
:1012B00073746172740A006175746F25632E670020
:1012C0006572726F722077726974696E6720746FCD
:1012D0002066696C650A00446F6E652073617669EB
:1012E0006E672066696C652E0A00456E6473746FC4
:1012F000707320256320256320256320256300204B
:101300005A3A0020593A0020583A00656E647374C6
:101310006F7073206869743A2000486F6D696E675A
:10132000206661696C6564006F70656E0054524997
:10133000474745524544003A20007A5F6D696E0088
:10134000795F6D696E00785F6D696E005265706FD0
:101350007274696E6720656E6473746F7020737445
:10136000617475730A00205A3A0020593A002043EC
:101370006F756E7420583A0020453A00205A3A00A2
:1013800020593A00583A0020746F6F206C6F6E67D6
:1013900020657874727573696F6E207072657665FA
:1013A0006E7465640A0020636F6C642065787472E3
:1013B0007573696F6E2070726576656E7465640A08
:1013C000000000000000000000000000000000A07D
:1013D000410000A041000080405761726E696E6755
:1013E0003A20486F6D696E672042756D70204469C0
:1013F0007669736F72203C20310A000202040000FB
:10140000A0400000A0400000004000006B4300002E
:101410006B4300007A43FFFFFF4573746570732FC1
:101420006D6D004573746570732F6D6D005A737424
:101430006570732F6D6D005A73746570732F6D6DC9
:10144000005973746570732F6D6D005973746570F6
:10145000732F6D6D005873746570732F6D6D005828
:1014600073746570732F6D6D00416476616E636592
:10147000642053657474696E677300496E6974699A
:10148000616C697A6520454550524F4D0041647644
:10149000616E6365642053657474696E6773004D93
:1014A00034323800496E697469616C697A65204527
:1014B0004550524F4D0046696C616D656E74005425
:1014C000656D7065726174757265005374657073D3
:1014D0002F6D6D004A65726B00416363656C6572C8
:1014E0006174696F6E0056656C6F6369747900533F
:1014F000657420686F6D65206F6666736574730030
:10150000436F6E66696775726174696F6E005374BC
:101510006F72652073657474696E677300426564E9
:1015200000426564004E6F7A7A6C65004E6F7A7A7D
:101530006C650046616E2073706565640046616E7F
:1015400020737065656400436F6E666967757261CC
:1015500074696F6E004C6F61642073657474696E9A
:10156000677300526573746F7265206661696C738E
:101570006166650053746F72652073657474696E7B
:10158000677300507265686561742041425320633F
:101590006F6E66005072656865617420504C412022
:1015A000636F6E6600416476616E636564205365A7
:1015B0007474696E6773004D61696E0045455052E1
:1015C0004F4D206461746173697A65206572726F32
:1015D000722E0A00290A002062797465733B206329
:1015E000726320002073746F726564207365747475
:1015F000696E677320726574726965766564202808
:1016000000202863616C63756C6174656429210A2C
:101610000020213D2000454550524F4D204352436C
:10162000206D69736D61746368202D202873746F59
:101630007265642920002053697A653A2000496E5A
:101640006465783A2000204D61726C696E3D5636B3
:1016500034290A00454550524F4D20766572736912
:101660006F6E206D69736D61746368202845455005
:10167000524F4D3D0048617264636F64656420445D
:10168000656661756C742053657474696E67732048
:101690004C6F616465640A00F4010000F40100000D
:1016A00064000000881300000000FA430000FA43C1
:1016B0000000A0400000C8410000A0420000A0427D
:1016C0000000C8430000BA42204400204900202006
:1016D0004D33303120500050494420736574746993
:1016E0006E67733A0A00204600204200204800201E
:1016F000204D3134352053004D6174657269616C41
:101700002068656174757020706172616D657465C3
:1017100072733A0A0020590020204732392053338F
:10172000205800205A0020204D3432302053004DE4
:1017300065736820426564204C6576656C696E67E8
:101740003A0A00205A0020590020204D323036201D
:101750005800486F6D65206F66667365743A0A00BD
:10176000204500205A002059002058002054002015
:10177000530020204D32303520420020453C6D6121
:10178000785F655F6A65726B3E0020583C6D6178DA
:101790005F785F6A65726B3E20593C6D61785F7956
:1017A0005F6A65726B3E205A3C6D61785F7A5F6A52
:1017B00065726B3E00416476616E6365643A2042F7
:1017C0003C6D696E5F7365676D656E745F74696D9E
:1017D000655F75733E20533C6D696E5F6665656439
:1017E000726174653E20543C6D696E5F74726176FF
:1017F000656C5F66656564726174653E00205400C7
:1018000020520020204D3230342050004163636567
:101810006C65726174696F6E2028756E6974732FC0
:101820007332293A20503C7072696E745F61636351
:10183000656C3E20523C726574726163745F6163D3
:1018400063656C3E20543C74726176656C5F6163C5
:1018500063656C3E0A00204500205A002059002094
:10186000204D3230312058004D6178696D756D2002
:10187000416363656C65726174696F6E2028756E73
:101880006974732F7332293A0A00204500205A00E8
:1018900020590020204D3230332058004D617869A6
:1018A0006D756D2066656564726174657320287559
:1018B0006E6974732F73293A0A005374657073202C
:1018C00070657220756E69743A0A0020204D3230BE
:1018D000302044300A0020204D3230302044002097
:1018E00044697361626C65640A0046696C616D6588
:1018F0006E742073657474696E67733A0020204DAE
:101900003134392043203B20556E69747320696E51
:101910002043656C736975730A0020286D6D29007A
:101920002020473231202020203B20556E697473DF
:1019300020696E206D6D0023646566696E652044C4
:10194000454641554C545F004B6420004B692000D4
:101950004B702000504944204175746F74756E655A
:101960002066696E697368656421205075742074FF
:101970006865206C617374204B702C204B6920616A
:101980006E64204B6420636F6E7374616E74732099
:1019900066726F6D2062656C6F7720696E746F2060
:1019A000436F6E66696775726174696F6E2E680A3F
:1019B00000504944204175746F74756E65206661EE
:1019C000696C6564212074696D656F75740A0045E2
:1019D0003120544845524D414C2052554E415741BB
:1019E0005900546865726D616C2052756E61776143
:1019F000790045312048656174696E6720666169C8
:101A00006C65640048656174696E67206661696C25
:101A1000656400504944204175746F74756E65208B
:101A20006661696C6564212054656D7065726174CE
:101A300075726520746F6F20686967680A00204BB3
:101A4000643A2000204B693A2000204B703A200075
:101A50000A20436C617373696320504944200A0073
:101A60002054753A2000204B753A2000206D617893
:101A70003A2000206D696E3A200020643A20002050
:101A8000626961733A2000504944204175746F7453
:101A9000756E652073746172740A00504944204168
:101AA00075746F74756E65206661696C656421205C
:101AB00054656D706572617475726520746F6F2006
:101AC000686967680A00504944204175746F7475ED
:101AD0006E65206661696C656421204261642065E1
:101AE00078747275646572206E756D6265720A0035
:101AF0004572723A207574663820666F6E74206E77
:101B00006F7420696E697469616C697A65642E000E
:101B10004572723A207574663820666F6E74206E56
:101B20006F7420696E697469616C697A65642E00EE
:101B30004572723A207574663820666F6E74206E36
:101B40006F7420696E697469616C697A65642E00CE
:101B500000060C00FE07022603BC017FFE08FE08FB
:101B6000FE05080806000040F0C88888987810052F
:101B70000808060000C0F88888888888F8050505E8
:101B80000600012030F8302005080806000020700B
:101B9000F820202020E00509090600FF2070A8A8F1
:101BA000B888887020050606060001E08CEA8C8A59
:101BB0000A0509090600FFF8A88888888888A8F817
:101BC000050A0A0600FE205050505088A8A88870C8
:101BD00003030306000340A040FFFFFFFFFFFFFFDA
:101BE000FFFFFFFFFFFFFFFFFFFFFFFFFFFFFF0004
:101BF00000000605FF010707060200808080808044
:101C00000080030303060105A0A0A0050606060048
:101C10000050F85050F8500509090600FF2070A840
:101C2000A07028A87020050707060000C8C810206B
:101C300040989805070706000040A0A040A89068BB
:101C40000103030602058080800309090601FF20C5
:101C500040408080804040200309090601FF804009
:101C60004020202040408005070706000020A87083
:101C70002070A8200505050600012020F82020027C
:101C800003030601FFC04080050101060003F802BE
:101C90000202060100C0C005070706000008101078
:101CA00020404080050707060000708898A8C88873
:101CB0007003070706010040C040404040E00507B0
:101CC00007060000708808102040F8050707060086
:101CD00000F808103008887005070706000010306B
:101CE0005090F81010050707060000F880F008086B
:101CF0008870050707060000304080F0888870056E
:101D00000707060000F80810102020200507070626
:101D100000007088887088887005070706000070CA
:101D2000888878081060020505060100C0C000C060
:101D3000C00206060601FFC0C000C04080030505C2
:101D40000601012040804020050303060002F80040
:101D5000F8030505060101804020408005070706BD
:101D60000000708810202000200507070600007082
:101D700088B8A8B88070050707060000708888F842
:101D8000888888050707060000F04848704848F032
:101D900005070706000070888080808870050707A7
:101DA000060000F04848484848F0050707060000CC
:101DB000F88080F08080F8050707060000F8808032
:101DC000F080808005070706000070888080988872
:101DD00070050707060000888888F8888888030748
:101DE00007060100E04040404040E00507070600CC
:101DF000003810101010906005070706000088904A
:101E0000A0C0A09088050707060000808080808021
:101E100080F805070706000088D8A8888888880504
:101E200007070600008888C8A8988888050707065D
:101E3000000070888888888870050707060000F011
:101E40008888F080808005070706000070888888F1
:101E5000A89068050707060000F08888F0A0908821
:101E6000050707060000708880700888700507075E
:101E7000060000F82020202020200507070600008B
:101E80008888888888887005070706000088888801
:101E90008850502005070706000088888888A8A871
:101EA00050050707060000888850205088880507DD
:101EB000070600008888502020202005070706001C
:101EC00000F80810204080F80309090601FFE080AF
:101ED000808080808080E005070706000080404009
:101EE000201010080309090601FFE020202020200F
:101EF0002020E005030306000520508805010106A7
:101F000000FEF803030306010580402005050506D1
:101F1000000070087888780507070600008080F0C8
:101F2000888888F0050505060000708080887005A7
:101F300007070600000808788888887805050506E0
:101F400000007088F08070050707060000304840E8
:101F5000E04040400507070600FE70888888780842
:101F6000700507070600008080F0888888880307CE
:101F7000070601004000C0404040E0040909060196
:101F8000FE100030101010109060050707060000CA
:101F900080808890E09088030707060100C04040D9
:101FA000404040E0050505060000D0A8A8A8A80507
:101FB0000505060000B0C8888888050505060000EC
:101FC00070888888700507070600FEF0888888F00A
:101FD00080800507070600FE78888888780808054D
:101FE0000505060000B0C8808080050505060000D4
:101FF00078807008F00507070600002020F82020F0
:1020000020180505050600008888889868050505DC
:10201000060000888888502005050506000088888D
:10202000A8A850050505060000885020508805071F
:10203000070600FE888888502040800505050600B8
:1020400000F8102040F80309090601FF2040404035
:1020500080404040200109090602FF808080808086
:10206000808080800309090601FF804040402040B5
:1020700040408005030306000248A890FF4D6178A8
:102080002054656D703A20313235004D696E205410
:10209000656D703A203500544265643A4550434FAF
:1020A00053203130304B004D61782054656D703ACB
:1020B00020323735004D696E2054656D703A2035F9
:1020C0000054303A204550434F53203130304B00BC
:1020D0005053553A2047656E657269630050726FC0
:1020E000746F636F6C3A20312E3000426175643A30
:1020F00020313135323030004D656C7A692028430B
:102100007265616C69747929004D657368204C654E
:1021100076656C696E670045787472756465727374
:102120003A203100687474703A2F2F6D61726C69B7
:102130006E66772E6F726700456E6465722D330090
:10214000323031382D30312D32300062756766699A
:10215000782D322E302E78004D61726C696E0054ED
:102160006865726D6973746F727300426F61726437
:1021700020496E666F005072696E74657220496EF8
:10218000666F004D61696E005072696E7420616205
:102190006F727465640053746F70207072696E742E
:1021A000004D61696E004D3235004D323400496E8C
:1021B00069742E2053442063617264004D323100F3
:1021C0004368616E67652053442063617264004D0B
:1021D0003231005072696E742066726F6D20534404
:1021E0000041626F7574205072696E7465720043AD
:1021F0006F6E66696775726174696F6E0054656DA4
:102200007065726174757265004D6F74696F6E00F0
:10221000526573756D65207072696E74004E6F2023
:10222000534420636172640054756E650053746F8B
:1022300070207072696E74005061757365207072E1
:10224000696E7400496E666F2073637265656E0017
:1022500046696C2E204469612E0046696C2E20442C
:1022600069612E004F6666004F6E004520696E2042
:102270006D6D5E3300416476616E63656420536505
:102280007474696E6773004D3330332055312045C7
:1022900025692053256900504944204175746F74A5
:1022A000756E6500504944204175746F74756E6594
:1022B000005049442D44005049442D4400504944A5
:1022C0002D49005049442D49005049442D5000509B
:1022D00049442D50002008204661637400200820E6
:1022E00046616374002008204D6178002008204D6D
:1022F0006178002008204D696E002008204D696E2D
:10230000004F6666004F6E004175746F74656D70A6
:1023100000416476616E6365642053657474696E10
:102320006773005654726176206D696E0056547260
:102330006176206D696E00566D696E00566D696E2E
:1023400000566D6178204500566D61782045005635
:102350006D6178205A00566D6178205A00566D6183
:1023600078205900566D6178205900566D617820AB
:102370005800566D6178205800416476616E63653F
:10238000642053657474696E677300416D617820D1
:102390004500416D6178204500416D6178205A000B
:1023A000416D6178205A00416D6178205900416D7E
:1023B0006178205900416D6178205800416D617845
:1023C000205800412D74726176656C00412D747245
:1023D0006176656C00412D726574726163740041B1
:1023E0002D7265747261637400416363656C0041B2
:1023F0006363656C00416476616E63656420536558
:102400007474696E67730056652D6A65726B005649
:10241000652D6A65726B00567A2D6A65726B00567F
:102420007A2D6A65726B0056792D6A65726B00565B
:10243000792D6A65726B0056782D6A65726B00564D
:10244000782D6A65726B00416476616E6365642005
:1024500053657474696E6773005072656865617462
:1024600020504C4120456E6400507265686561746F
:1024700020504C412042656400507265686561746B
:1024800020504C410054656D7065726174757265C1
:1024900000507265686561742041425320456E6446
:1024A0000050726568656174204142532042656442
:1024B0000050726568656174204142530054656D37
:1024C00070657261747572650050726568656174DB
:1024D00020414253005072656865617420504C4140
:1024E00000436F6F6C646F776E0046616E2073708F
:1024F0006565640046616E207370656564004265C1
:102500006400426564004E6F7A7A6C65004E6F7AA3
:102510007A6C65004D61696E004261627973746521
:1025200070205A004261627973746570205A0046C7
:102530006C6F7700466C6F770046616E2073706534
:1025400065640046616E2073706565640042656471
:1025500000426564004E6F7A7A6C65004E6F7A7A3D
:102560006C65005370656564005370656564004D6B
:1025700061696E004572726F722077726974696E5C
:102580006720746F20454550524F4D210A000F15AA
:102590000E1216170E1303021A1401000E0C190D59
:1025A000FF180C040001627573793A20706175732D
:1025B000656420666F7220696E7075740A006275BA
:1025C00073793A2070617573656420666F72207547
:1025D0007365720A00627573793A2070726F636571
:1025E0007373696E670A004B494C4C2063617573C5
:1025F000656420627920746F6F206D75636820694F
:102600006E6163746976652074696D65202D206341
:10261000757272656E7420636F6D6D616E643A20C1
:1026200000506C656173652072657365740050526B
:10263000494E5445522048414C544544004B494C66
:102640004C45442E20005072696E7465722068619A
:102650006C7465642E206B696C6C28292063616C36
:102660006C6564210A006563686F3A004572726F99
:10267000723A00626564002C2073797374656D2072
:1026800073746F7070656421204865617465725F52
:1026900049443A20004265640048656174696E6788
:1026A000206661696C656400453120486561746924
:1026B0006E67206661696C65640048656174696E67
:1026C00067206661696C656400202D20496E766123
:1026D0006C6964206578747275646572206E756DBE
:1026E00062657220210A0070012C0190012701B05F
:1026F000012201C0011D01F0011801100213013077
:10270000020E016002090190020401C002FF0000F4
:1027100003FA004003F5008003F000D003EB002033
:1027200004E6007004E100E004DC004005D700C0CE
:1027300005D2004006CD00D006C8008007C3003097
:1027400008BE00F008B900C009B400B00AAF00B07C
:102750000BAA00D00CA500000EA000500F9B00C0DB
:102760001096005012910000148C00C0158700B024
:10277000178200B0197D00D01B7800001E73004046
:10278000206E0090226900F024640040275F0090D2
:10279000295A00E02B5500102E500020304B00101D
:1027A000324600E033410090353C0010373700706E
:1027B000383200A0392D00B03A2800A03B23006039
:1027C0003C1E00103D1900903D1400103E0F00709B
:1027D0003E0A00C03E0500003F0000403FFBFF8076
:1027E0003FF6FFC03FF1FF453120544845524D416F
:1027F0004C2052554E41574159004265640054687F
:1028000065726D616C2052756E617761790045313A
:10281000204572723A204D415854454D5000426552
:1028200064004D415854454D502074726967676586
:10283000726564004531204572723A204D494E540C
:10284000454D5000426564004D494E54454D502061
:10285000747269676765726564004D38342058206A
:1028600059205A204500202F002042403A002040A5
:102870003A0000002100240027002A000000220066
:10288000250028002B00000020002300260029003E
:102890000202020202020202040404040404040408
:1028A0000303030303030303010101010101010108
:1028B000010204081020408001020408102040801A
:1028C000010204081020408080402010080402010A
:1028D000000000010200090A0000000004030807CC
:1028E00000000000000000000000000000000000E8
:1028F0004D6F766520302E316D6D004D6F76652001
:10290000316D6D004D6F76652031306D6D004D6F0E
:102910007665206178697300486F74656E64207411
:102920006F6F20636F6C64004578747275646572B4
:10293000004D6F7665205A004D6F76652059004D29
:102940006F766520580025753A25303275002530A0
:1029500032753A2530327500257564202530327580
:102960003A25303275002020202020200020202011
:1029700020001FE020102010201010201020201018
:10298000201030300840048003001FE03FF03FF08B
:102990003FF01FE01FE03FF03FF03FF00FC0078027
:1029A00003003FFFF038007030FC3020FC1020782E
:1029B000102030102C00D02E31D02F7BD02F7BD088
:1029C0002E31D02C00D020301020781020FC103078
:1029D000FC303800703FFFF03FFFF0380070318668
:1029E000302387102787902F87D02F03D0203010D7
:1029F0002078102078102030102F03D02F87D02778
:102A000087902387103186303800703FFFF01FFF1A
:102A1000F81FFFF8041040020820020820041040AC
:102A20000820801041001041000820800410400060
:102A300000001FFFF81FFFF84D6F76652058004D0E
:102A40006F76652059004D6F7665205A0045787481
:102A50007275646572004578747275646572004DB4
:102A60006F7665205A004D6F76652059004D6F7660
:102A7000652058004D6F74696F6E00446973616220
:102A80006C65207374657070657273004D38340026
:102A900046616465204865696768740046616465DD
:102AA00020486569676874004F6666004F6E004293
:102AB0006564204C6576656C696E67004C6576656B
:102AC0006C20626564004732380A4732390041752C
:102AD000746F20686F6D6500473238004D6F766502
:102AE0002061786973004D61696E0043616E6E6F9D
:102AF0007420656E746572207375626469723A2021
:102B000000022E2E000152656672657368004D61E9
:102B1000696E0000006B4300006B4300007A4300C5
:102B20000000000000000000000000290A002062F0
:102B3000797465733B206372632000536574746914
:102B40006E67732053746F726564202800220A0038
:102B5000656E7175657565696E672022006F6B0023
:102B6000526573656E643A200053544F505045448B
:102B70002E20005072696E7465722073746F7070CD
:102B800065642064756520746F206572726F72735E
:102B90002E2046697820746865206572726F7220F5
:102BA000616E6420757365204D39393920746F204A
:102BB000726573746172742E202854656D7065722D
:102BC00061747572652069732072657365742E2057
:102BD0005365742069742061667465722072657330
:102BE00074617274696E67290A004E6F20436865CC
:102BF000636B73756D2077697468206C696E6520EE
:102C00006E756D6265722C204C617374204C696E18
:102C1000653A20004E6F20436865636B73756D20C5
:102C200077697468206C696E65206E756D62657277
:102C30002C204C617374204C696E653A20006368E7
:102C400065636B73756D206D69736D617463682C5A
:102C5000204C617374204C696E653A20004C696E9B
:102C600065204E756D626572206973206E6F7420E9
:102C70004C617374204C696E65204E756D6265728F
:102C80002B312C204C617374204C696E653A200006
:102C90004D313130004D3331005344207265616451
:102CA000206572726F720A00446F6E6520707269DF
:102CB0006E74696E672066696C650A0020573A0079
:102CC0004520436F6F6C696E672E2E2E004520489D
:102CD000656174696E672E2E2E00456E6465722DD7
:102CE000332052656164792E005072696E74696E8A
:102CF000672E2E2E005072696E7420706175736598
:102D000064002E0A006F70656E206661696C6564F0
:102D10002C2046696C653A20004361703A00D3DE8E
:102D2000D4D611241FBECFEFD0E4DEBFCDBF12E05A
:102D3000A0E0B1E0E6E5F7ED01E00BBF02C00790CF
:102D40000D92AA34B107D9F722E1AAE4B2E001C09A
:102D50001D92A23FB207E1F716E1C0E9D6E104C037
:102D60002197FE010E9402EBCF38D107C9F70E94DC
:102D7000EED60C949EEB0C9400002F923F924F9253
:102D80005F926F927F928F929F92AF92BF92CF92FB
:102D9000DF92EF92FF920F931F93CF93DF93CDB704
:102DA000DEB7E3970FB6F894DEBF0FBECDBF00913C
:102DB000940C20E6029F800111240C5E144F809138
:102DC000EC0980FF05C00E945D9EC8010E94ECA234
:102DD00010927A02109279028FE380937C02109213
:102DE00072021092710210926D0210926E02109295
:102DF0006F0210927002C8018C01DC012C910196C7
:102E00002032D1F32E34D9F411968C9190ED980F95
:102E10009A3020F08D3211F08B3289F4F80132961D
:102E20009F012F5F3F4F808180538A3010F4F9015A
:102E3000F7CF8F013196D8018C918032D1F3109366
:102E40009204009391047801BFEFEB1AFB0AF8019A
:102E500070806AE270E0C7010E945BEB009731F07E
:102E6000FC01319780818032E1F31182FDE47F160D
:102E700031F024E5721619F037E47312EEC0F70151
:102E800080814FEFE41AF40A8032C9F380538A300C
:102E900008F0E3C070927C0280E090E06AE0319636
:102EA000DF0111972C91022E000C330B20533109B6
:102EB000689FA001699F500D1124C901840F951FBF
:102EC000208120532A3058F390937202809371022C
:102ED000DF0131962C912032D9F35DE475121AC0CE
:102EE0008E31910591F03CF48731910571F08C3170
:102EF000910581F40AC08537910564F08737910503
:102F000024F0803A63E0960729F4B0937A02A09304
:102F10007902A3C0C12CD12C760140E050E0812C75
:102F2000912C54018394FD0131967C9171110DC057
:102F300050937A0240937902C0926D02D0926E0251
:102F4000E0926F02F092700288C07132E9F42DE4D1
:102F500072121AC080329105B9F4C0926D02D092FB
:102F60006E02E0926F02F0927002F0937A02E093A8
:102F7000790263E270E0CF010E945BEB009709F4F5
:102F80006CC0DC011C9269C071547A3108F042C0F7
:102F90009F01F90160812F5F3F4F6032D1F320ED37
:102FA000260F2A30E8F06E3211F421810CC06D3208
:102FB00011F06B3259F4218130ED320F3A3080F04C
:102FC0002E3221F4228120532A3050F04115510530
:102FD00011F00C943529AF01415051090C94352959
:102FE0009F01A72FB0E01401250104C0220C331C5F
:102FF000441C551C7A95D2F7C228D328E428F5281A
:103000002115310511F0201B01C020E0A65BBD4F4A
:103010002C9304C04115510509F4AD0120812154C0
:103020002A3110F4DF017FCF9F01F901D9016D91A1
:103030006623C1F370ED760F7A3010F49D01F5CF61
:1030400073ED760F7230D0F36B32C1F3F9012F5F5D
:103050003F4F60816032D1F3E5CF21E020937302CE
:1030600080917C028D3409F4F2C3843511F40C9400
:103070001329873411F00C942E29809171029091BC
:1030800072028C31910509F4F1C06CF48430910521
:1030900009F4AEC01CF4029770F1D5C3459711F442
:1030A0000C943029D0C38A35910509F49DC244F4AB
:1030B0008D31910509F4DFC08A9709F44DC3C3C36C
:1030C0008B35910509F494C28C35910509F0BBC389
:1030D00035E6232E31E0332E4DEAE42E4CE0F42E7B
:1030E00028ED34E039A328A351EAC52E5CE0D52EA3
:1030F00000E010E0BCC280915101882311F40C94CF
:10310000302915E6812E11E0912E0AEBE02E0CE01D
:10311000F02E08ED14E081EAA82E8CE0B82E95E799
:10312000C92E92E0D92E712CF40181914F010E9499
:10313000362D882311F10E94BA2CD6012C91211131
:1031400004C020917B02222341F0F80120813181CB
:10315000428153810E9494E80AC0F3E07F1639F05F
:10316000D5012D913D914D915C910E9493E8F7011D
:1031700060837183828393830AC0F8018081918187
:10318000A281B381F70180839183A283B383739477
:10319000F4E0EF0EF11C0C5F1F4F24E0A20EB11CF7
:1031A0003FEFC31AD30A44E07412BECF86E40E94F4
:1031B000362D8823C9F00E94BA2C20E030E0A90106
:1031C0000E9417EA181684F40E94BA2C20E030E01E
:1031D00040E752E40E9417E9609343017093440171
:1031E00080934501909346010E94C4670C94302956
:1031F00080E50E94362D882329F00E946C2C6B01FB
:103200007C0103C0C12CD12C760183E50E94362DB0
:10321000882361F00E94BA2C20E030E04AE754E4B1
:103220000E94B6E40E9490E96B017C010E94984FD5
:1032300080919404811105C060E08DE791E00E94C7
:10324000E3D00E94B861C60ED71EE81EF91E0E9488
:10325000B861DC01CB018C199D09AE09BF09B7FD2E
:1032600002C00C9430290E941B9FF1CF80E00E9485
:103270005D2E0C94302983E50E947245182F86300C
:1032800030F08FE292E00E94379E0C943029833018
:1032900009F424C128F4813039F18230A9F106C043
:1032A000843009F46FC1853009F47CC18CE192E06F
:1032B0000E94379E0E941731882389F08091E8048C
:1032C000882319F08DEF95E002C089EF95E00E9408
:1032D000379E8AE00E94309E0E94902D69C18EE048
:1032E00092E00E94379E64C10E942E2E109201012E
:1032F0001092000183E092E09093860A8093850A01
:103300000E94C1CA0C943029809100019091010162
:1033100097FF06C08AED91E00E94379E0C943029F9
:103320000097A1F4809142018093740219821A825D
:103330001B821C821C8E1D8E1E8E1F8EBE016F5F17
:103340007F4FCE014C960E94C9AB2AC0815063E0EA
:103350000E94ADEA80FF02C0191B912F292F990FFF
:10336000330BF901EE0FFF1FE20FF31FE80FF11D02
:1033700087FDFA95EE0FFF1FEE0FFF1FE652F34F8A
:103380008091E0049091E104A091E204B091E30403
:1033900080839183A283B3838091740280934201DE
:1033A0008091000190910101893091050CF067C076
:1033B000109242019C012F5F3F4F309301012093F7
:1033C000000163E00E94ADEA80FF03C022E0291BF8
:1033D000922F4091E0045091E1046091E2047091D9
:1033E000E3044C8F5D8F6E8F7F8F19821A821B8250
:1033F0001C8254E0850290011124B90162567F4E6F
:103400004B01DB012D913D914D915C91B4E09B020C
:10341000C0011124FC01E655FF4E5F0160817181FE
:1034200082819381DE0111966D01E12CF12C00EA7D
:1034300010E40E945E6B19821A821B821C82B60104
:10344000CE014C960E94C9ABF50180819181A28189
:10345000B3818093D8049093D904A093DA04B093F5
:10346000DB04F40180819181A281B3818093DC042B
:103470009093DD04A093DE04B093DF049BC080E052
:1034800090E0A0EAB0E48093E0049093E104A0937C
:10349000E204B093E30483E491E00E94436B0E9452
:1034A000984F8FEF9FEF909301018093000186EC7E
:1034B00091E00E94379E63E972E084E690E00E940A
:1034C000B6D06AEB72E084E690E00E94B6D081E06C
:1034D0000E945D2E81E00E943E2E6CC089E40E9415
:1034E000362D8823B1F00E94B62C182F833060F05F
:1034F00062E070E083EB91E00E9453A280EB91E0E8
:103500000E94379E0C9430298AE40E94362D811146
:1035100005C08AE40E947C2C0C9430290E94B62CB1
:10352000082F833060F062E070E08DE991E00E9446
:1035300053A28AE991E00E94379E0C9430298AE5D3
:103540000E94362D8823C9F00E94BA2C212F110F1A
:10355000330BF901EE0FFF1FE20FF31FE00FF11D18
:1035600007FDFA95EE0FFF1FEE0FFF1FE652F34F18
:10357000608371838283938333C08AE50E947C2CAD
:103580000C9430298AE50E94362D8823B1F30E94DD
:10359000BA2C6093D60C7093D70C8093D80C909370
:1035A000D90C1EC080E00E943E2E0E942E2E18C014
:1035B0001230B1F460910001709101016930710520
:1035C00014F069E070E08BE891E00E9453A269E09A
:1035D00070E086E891E00E9453A28AE00E94309E4B
:1035E0000E941F6C0C94302910927B020C9430299D
:1035F00020937B020C9430290E94BA2C2B013C01B1
:10360000133049F0F60120813181428153810E94BB
:1036100093E82B013C01A8A1B9A12D913D914D91B9
:103620005C91C301B2010E9493E84B015C012DEB58
:1036300037E346E855EB0E9417EA87FD20C02DEBE3
:1036400037E346E855E3C501B4010E9450E418167B
:10365000B4F01F5FB4E0EB0EF11CE8A1F9A13496C1
:10366000F9A3E8A3F4E0CF0ED11C143039F1D10155
:103670008D911D010E94362D882359F3BDCF133043
:1036800051F44092E4045092E5046092E604709292
:10369000E70401E0DECFA5019401F70160817181AB
:1036A000828193810E9494E8D7016D937D938D93DD
:1036B0009C931397812F0E94A467CBCF002309F41A
:1036C0008FCF20910D0A30910E0A40910F0A509130
:1036D000100A6091E4047091E5048091E6049091F1
:1036E000E7040E94B6E40E941CEA60933E107093C7
:1036F0003F10809340109093411090911C10809146
:103700001D10981719F00E943A4F6ACF0E94984FE7
:1037100080916F00982F927081FF05C080916F009B
:103720008D7F80936F0040913E1050913F106091CB
:1037300040107091411040936F0D5093700D609345
:10374000710D7093720D992309F44ACF80916F0027
:10375000826080936F0044CF80915101882311F4DF
:103760000C94302989E40E94362DF82E882321F00C
:103770000E94B62C182F01C010E08AE40E94362D5A
:10378000082F882319F00E94B62C01C080E0FF208A
:1037900011F0133020F4002341F0833030F086E440
:1037A00092E00E94379E0C94302990E1E8EDF4E01D
:1037B000AAEBBCE001900D929A95E1F7FF2091F001
:1037C00024E01202F0011124E655FF4E40815181A0
:1037D000628173814093BA0C5093BB0C6093BC0C14
:1037E0007093BD0C002391F034E08302F0011124AA
:1037F000E256FF4E80819181A281B3818093BE0CFD
:103800009093BF0CA093C00CB093C10C60E080E516
:103810000E947B2D86E40E94362D882309F4E4CC97
:103820000E94BA2C6B017C0120E030E0A9010E94CB
:1038300017EA18160CF0D8CC20E030E040E752E44C
:10384000C701B601C7CC0E9464450C943029809111
:103850007102909172028237910509F401C70CF050
:10386000F5C08B34910509F4CAC40CF08BC08831C3
:10387000910509F4C4C20CF059C08231910509F4D4
:1038800005C6BCF497FF02C00C9410298230910544
:103890000CF424C2419711F00C94102960E088E7E1
:1038A00092E00E94E3D05E985E9815985E980C9422
:1038B00030298531910509F488C254F5449711F0F7
:1038C0000C94102980E992E00E94379E1092F40A2D
:1038D0008EEF9FE00E940C538BE1EEEFFFE0DE01E4
:1038E000119601900D928A95E1F740E050E0BE01FB
:1038F0006F5F7F4F80E090E00E94925CCE01019666
:103900000E94425481E892E00E94379E0C94302934
:103910008631910509F45DC2479711F00C94102986
:103920008091790290917A02FC0160C28D319105FB
:1039300009F4EBC2C4F48A31910509F485C20CF490
:103940006AC28B31910509F48DC24C9711F00C9429
:10395000102940E060E08091790290917A020E9403
:10396000305E0C9430298F31910509F47AC30CF440
:10397000D3C28032910509F42EC38A9709F41CC47E
:103980000C9410298836910509F456C4ACF582359B
:10399000910509F474C504F58D34910509F448C402
:1039A0000CF431C48135910511F00C9410290E945A
:1039B0008FA40E9415C50E94AA500E94EE9D68EE39
:1039C00073E080E090E00E942B9D60E080E993E04E
:1039D0000E94E3D00C9430298435910509F456C532
:1039E0000CF450C58535910509F483C58C359105D6
:1039F00009F498C50C9410298D36910509F440C43A
:103A0000ACF48A36910509F41BC50CF4E0C48B367E
:103A1000910509F42AC58C36910511F00C941029F2
:103A20001092D912109229010C9430298F369105E9
:103A300009F43CC40CF428C48037910509F476C419
:103A40008137910509F479C40C9410298D3D9105B5
:103A500011F40C9493250CF0BBC08B39910509F43B
:103A6000C9C40CF08BC08737910509F439C60CF036
:103A700075C08537910509F4F8C50CF0FEC583378C
:103A8000910511F00C94102981EC94E00E94379E6E
:103A900060E081EB94E00E94BAD660E08CE994E0AB
:103AA0000E94BAD661E085E994E00E94BAD661E04E
:103AB0008AE894E00E94BAD661E08AE794E00E9426
:103AC000BAD660E081E794E00E94BAD661E087E66A
:103AD00094E00E94BAD660E08DE594E00E94BAD6E8
:103AE00060E085E594E00E94BAD661E087E494E066
:103AF0000E94BAD660E089E394E00E94BAD660E002
:103B00008AE294E00E94BAD660E08CE194E00E94E0
:103B1000BAD660E086E094E00E94BAD660E085EF15
:103B200093E00E94BAD660E086EE93E00E94BAD697
:103B300060E081ED93E00E94BAD661E08EEB93E005
:103B40000E94BAD660E081EB93E00E94BAD660E0B2
:103B50008DE993E00E94BAD60C94302989379105FB
:103B600009F4C9C50CF4BFC58C38910509F405C426
:103B70008139910509F4C6C50C9410298C3C910536
:103B800009F4AAC6ACF4883C910509F416C634F4CD
:103B90008E3B910509F40BC40C941029893C9105C6
:103BA00009F458C68B3C910509F477C60C9410298A
:103BB0008E3C910509F4D1C60CF4BFC6833D910536
:103BC00009F4EEC68C3D910509F4A0C70C941029A8
:103BD000853A41E0940711F40C941A270CF040C088
:103BE0008E3261E0960711F40C94D326DCF4823215
:103BF000A1E09A0711F40C9434263CF4823E91051E
:103C000011F40C94E9250C9410298C32E1E09E0704
:103C100011F40C943F268D32914011F40C945426EB
:103C20000C941029803921E0920711F40C94172785
:103C30004CF48F32914011F00C9410290E94F980BD
:103C40000C9430298A3951E0950709F473C3843AFA
:103C5000914011F00C9410290E9444310C943029A9
:103C6000873F71E0970711F40C94E328ECF4843F4C
:103C7000B1E09B0711F40C94DD283CF48C3A9140A0
:103C800011F40C94EC270C941029853F21E0920745
:103C900011F40C94E028863F914011F00C94102907
:103CA0000E9459740C9430298C3042E0940711F42E
:103CB0000C94FA283CF4883F914011F40C94EA28C3
:103CC0000C941029803A73E0970709F4BAC1873E33
:103CD000934011F40C9402290C941029A0907902BD
:103CE000B0907A0280E50E94362D882359F00E9418
:103CF0006C2C6B017C0111E0672B682B692B31F474
:103D000010E004C010E0C12CD12C760183E50E94A4
:103D1000362D882311F40C9439290E94BA2C20E006
:103D200030E04AE754E40E94B6E40E9490E96B0157
:103D30007C0111110BC0672B682B692B39F4A1147E
:103D4000B10421F0F5018081811102C010E001C0B1
:103D500011E00E94984F112329F061E0C5010E94F3
:103D60001FD105C060E085E692E00E94E3D083E0C9
:103D70008093730281E08093D912C114D104E104CD
:103D8000F104B1F00E94B861C60ED71EE81EF91EFC
:103D90000E94B861DC01CB018C199D09AE09BF09F5
:103DA000B7FF0DC08091D91281110C943E2907C034
:103DB0008091D912882319F00E941B9FF9CF0E948D
:103DC00047D11092D9120C9430290E94755B0C9443
:103DD00030290E94FD5A8091CF11877F8093CF11A7
:103DE0000C943029203209F410823196208121115F
:103DF000F9CF40E061E00E94305E0C9430290E94CF
:103E00003ACA882321F00E940C5B0E94F1C40E94F0
:103E100047D10C9430298091CF1182FF03C08B7F52
:103E20008093CF1180918A0E813089F782E0809350
:103E30008A0E0E94B8616093860E7093870E8093FD
:103E4000880E9093890EE3CF8091CF1183FD02C03D
:103E50000C94302983E50E94362D81110C9442295F
:103E60000C94302983E40E94ED2C882319F18BEA0D
:103E700092E00E94379E8091A80F882391F0BE01A6
:103E80006F5F7F4F85EA9FE00E94D3518E010F5FE5
:103E90001F4FD8018D918D01882339F00E94309EEB
:103EA000F8CF81EA92E00E94379E8AE00E94309E1D
:103EB0000C9430298091CF1182FF21C08AEB92E0CF
:103EC0000E94379E6091CB117091CC118091CD11E1
:103ED0009091CE114AE00E94ACA18FE20E94309EE8
:103EE0006091C7117091C8118091C9119091CA1148
:103EF0004AE00E94ACA10E94E6A20C9430298CEC0E
:103F000092E00E94379E0C9430298091CF118E7FD1
:103F10008093CF110C9430298091CF1183FD02C082
:103F20000C9430290E944D456091790270917A027B
:103F30008091CF1183FD02C00C943029CE014C96A4
:103F40000E94C7D58C01009711F40C9430296C8D18
:103F50007D8D19821C8222E0AC01CE0101960E9467
:103F60002558811102C0F12C14C0CE0101960E9487
:103F700035D58823C1F361E0CE0101960E94B75187
:103F8000009789F325EEFC0120831C820E94C65312
:103F9000F82ECE0101960E944254B801FF2089F00C
:103FA00088EF92E00E94469E8AE00E94309E109226
:103FB000CB111092CC111092CD111092CE110C9405
:103FC000302980EE92E00E94469E8DED92E00E94A4
:103FD000379E0C9430298091CF1182FD0E94984F1A
:103FE0008091CF1183FD02C00C94302960E080E500
:103FF0000E947B2D182F482F61E0809179029091CB
:104000007A020E94305E83E50E94362D882381F07B
:104010000E94822CAB01BC014093CB115093CC1178
:104020006093CD117093CE1185EA9FE00E94CD5030
:104030000E940C5B11110C9430290E94F1C40C9465
:1040400030292091790230917A029091CF119260BB
:104050009093CF1140E060E0C9010E94305E0C9463
:1040600030290E94A2C47B018C0120E831E541E0A7
:1040700050E00E9457E8C9016DE671E00E94BBEA7A
:104080004B015C01C801B70120E13EE040E050E097
:104090000E9457E8CA01B90128E130E040E050E051
:1040A0000E9457E8762E672EC62ED72E2CE3222E9E
:1040B000312C412C512CC801B701A20191010E9461
:1040C00057E8F62EE72ECA01B901A20191010E941C
:1040D00057E8CB018E010F5F1F4F8114910499F0B7
:1040E000EF92FF927F936F936F927F92BF92AF9206
:1040F0009F928F928EE293E09F938F931F930F93E3
:104100000E94E8E313C0A114B104B1F0EF92FF9252
:104110007F936F936F927F92BF92AF928EE193E005
:104120009F938F931F930F930E94E8E30FB6F89429
:10413000DEBF0FBECDBF30C0CD2879F0EF92FF9229
:104140007F936F936F927F9282E193E09F938F931F
:104150001F930F930E94E8E3E9CF892B69F0EF9258
:10416000FF927F936F938AE093E09F938F931F93C7
:104170000F930E94E8E3DACFEF92FF9286E093E09C
:104180009F938F931F930F930E94E8E30F900F90DC
:104190000F900F900F900F9060E0C8010E941FD108
:1041A0000E945D9EB80182E493E00E94469E8AE0F0
:1041B0000E94309E0C94302983E50E94362D88237E
:1041C00011F40C9430290E94922CF82E6FEF7FEF9F
:1041D00080E50E946C2D8C0197FF02C00C94302961
:1041E000E82E60E089E40E947B2D81110C94532914
:1041F000802F0E94F0DB811109C50C9453290E9485
:10420000F1C40C94302980918A0E813011F00C9405
:10421000302982E080938A0E0E94B8616093860EF6
:104220007093870E8093880E9093890E0C9430299A
:104230000E9415C50C9430298091EC0983FF02C0BF
:104240000C9430290E94432D87FF02C00C94302922
:1042500083E50E94362D882379F00E94BA2C0E94B3
:1042600089E98B01CB010E9416590635110524F40A
:104270000E9415C50E9447D10E949F4E0C94302980
:104280000E9442C80C9430298EE40E94362D882367
:1042900011F40C9430290E94822C6093300F70939B
:1042A000310F8093320F9093330FDAC783E50E946A
:1042B000ED2C882329F083E50E9472458093EC0958
:1042C0000E945D9E8DE593E00E94379E8091EC09EF
:1042D000882349F193E5E92E93E0F92E00E010E000
:1042E00020E08091EC0990E0002E02C09595879522
:1042F0000A94E2F780FF0EC0DD24D394D20E22236D
:1043000019F08CE20E94309EF701859194910E94F1
:10431000379E2D2D0F5F1F4F92E0E90EF11C0530E7
:104320001105F9F6C2CD8FE493E0BDCD80E090E0B9
:104330000E94619E0E944F9D93C783E50E94362D87
:10434000882361F00E94922C8093020190E0CD9727
:104350000CF486C78CE38093020182C70E945D9EA5
:104360004091020150E060E070E084E693E00E943A
:1043700019A28AE00E94309E73C78091EC0983FDE8
:104380006FC783E50E94362D882309F469C70E9410
:10439000BA2C0E9489E96337710514F063E770E075
:1043A0007093C10D6093C00D0E948FA359C7809177
:1043B000EC0983FD55C783E50E94362D8AA781113C
:1043C00085C782E50E94362D811180C749C70E94AA
:1043D000432D182F87FD0AC08DE893E00E94379E79
:1043E000812F0E94DEA38AE00E94309E1092730209
:1043F0000C94182C83E50E94362D882309F430C7CD
:104400000E94922C182F90E0CD970CF01CE3109393
:1044100068020E94B8616B017C01212F30E0A8EE98
:10442000B3E00E9484E8C60ED71EE81EF91EC092B3
:104430006402D0926502E0926602F092670210C7B1
:1044400080E50E94724581110BC76FEF70E083E534
:104450000E94A7D68F3F910519F010F08FEF90E0E2
:10446000809311058093B70DFBC680E50E947245CD
:104470008111F6C6109211051092B70DF1C6109277
:104480007802EEC681E080937802EAC683E50E9456
:10449000362D882399F00E94BA2C20E030E04AE7BC
:1044A00054E40E94B6E40E9490E960930301709383
:1044B00004018093050190930601D2C688E50E940D
:1044C000ED2C81110C94F02A89E50E94ED2C8111CC
:1044D0000C94F02A8AE50E94ED2C81110C94F02AAC
:1044E00085E40E94ED2C81110C94F02A0E94AA50C0
:1044F000B7C683E50E94ED2C882309F4B1C60E945B
:10450000BA2C20E030E04AE754E40E94B6E40E946E
:1045100090E96093690270936A0280936B029093B2
:104520006C029EC60E94432D87FD9AC690916D0233
:1045300094FD04C090916F0297FF0AC0B5E6CB2EA0
:10454000B1E0DB2E1DEEE12E19E0F12E10E009C0E6
:1045500090917002937091F7682F81E00E94312C46
:104560007FC6D6018D916D010E94362D882309F4F6
:104570006DC0133009F063C00E94BA2C4B015C017E
:1045800020E030E040EA51E40E9450E487FF4EC052
:10459000A501940160910D0A70910E0A80910F0A95
:1045A0009091100A0E9417E92B013C019B01AC017C
:1045B0006091F5047091F6048091F7049091F804ED
:1045C0000E94B6E46093F5047093F6048093F704B8
:1045D0009093F804A301920160911D0A70911E0A44
:1045E00080911F0A9091200A0E94B6E460931D0AF0
:1045F00070931E0A80931F0A9093200A609105050C
:104600007091060580910705909108050E9455E478
:10461000A30192010E94B6E40E9490E9609305050F
:1046200070930605809307059093080580920D0A04
:1046300090920E0AA0920F0AB092100A07C00E9430
:10464000BA2CF701648B758B868B978B1F5FF4E018
:10465000EF0EF11C143009F084CF0E94164F00C6F3
:104660000E94984F0E941F6CFBC560E08091790208
:1046700090917A020E941FD1F3C5009179021091A6
:104680007A0283E0F12C40E08150E9F0D8019C915E
:10469000292F2B7F2134C1F711962C912133A1F7BB
:1046A000913421F0953421F441E002C0FF24F394C9
:1046B00098012E5F3F4F89012F5F3F4FF801908196
:1046C0009032C9F3E1CF41110E945D9EFF2021F09D
:1046D0008BE895E00E94379EC8010E94ECA2C0C5FD
:1046E0000E94286DBDC581E08093040B8093030B6D
:1046F0000E94436DB5C51092040B1092030B0E94EB
:10470000436DAEC560E070E083E50E946C2D8C01C6
:104710001127023011053CF00E94599E8FE895E068
:104720000E94379E9DC588E40E94362D8823A9F0FB
:104730000E94B62C8A3A91053CF08530F1E09F0743
:104740002CF084E091E002C08AEA90E0F801EE0FDC
:10475000FF1FE05EF24F9183808386E40E94362D36
:10476000882381F00E94B62C97FD07C08F3F9105EA
:1047700029F024F08FEF90E001C080E0F801E65EC0
:10478000F24F808382E40E94362D882309F468C5A5
:104790000E94B62C8530910534F0843791052CF0B9
:1047A00083E790E002C085E090E0000F111FF80160
:1047B000E45EF24F9183808353C50E94432D182FEE
:1047C00087FD4EC584E40E94ED2C882309F43FC088
:1047D0000E94BA2C6B017C0101E020E030E0A901CD
:1047E0000E9450E4811101C000E00093FE0C20E023
:1047F00030E0A901C701B6010E9450E4882339F1D5
:104800000E94BA2C24E01202F0011124ED5FF24F55
:10481000608371838283938320E030E0A9016091FB
:10482000030D7091040D8091050D9091060D0E946D
:1048300050E481110CC080E090E0A0EEBFE38093D3
:10484000030D9093040DA093050DB093060D0E94E7
:104850002B6306C50E94432D87FD02C575E6E72E32
:1048600071E0F72E0DEE19E0D7018D917D010E94C8
:10487000ED2C882349F00E94BA2C0E9490E9F8019F
:1048800060837183828393830C5F1F4FF9E00D3F38
:104890001F0751F70E94CF4EE3C40E94432D87FDAE
:1048A000DFC465E6E62E61E0F62E0DEE19E0D701D5
:1048B0008D917D010E94ED2C882339F00E94BA2C45
:1048C000F80164A375A386A397A30C5F1F4FF9E0BB
:1048D0000D3F1F0761F7C4C480916E0287FDA5C616
:1048E00080916F028E7009F0A0C64091210A50910C
:1048F000220A6091230A7091240A87EB95E00E94B6
:10490000D5A24091250A5091260A6091270A7091FC
:10491000280A84EB95E00E94D5A24091290A509183
:104920002A0A60912B0A70912C0A81EB95E00E9473
:10493000D5A28AE00E94309E93C480916D0282715C
:1049400009F0B9C680916F028C7809F0B4C68091E5
:104950007002837009F0AFC683C445E6C42E41E0FF
:10496000D42E57E0E52E5BE0F52E10E0D6018D91B8
:104970006D010E94ED2C882351F00E94BA2CF701A2
:104980006083718382839383812F0E94A4671F5F5A
:10499000F4E0EF0EF11C133011F40C94F01AE6CF92
:1049A0000E945D9E80E296E00E94379E83E50E9411
:1049B000ED2C882321F00E94A62C80934201809147
:1049C0004201882319F08DEF95E002C089EF95E050
:1049D0000E94379E88E196E00E94379E2091A10CAC
:1049E0003091A20C4091A30C5091A40C60912A012B
:1049F00070912B0180912C0190912D010E9494E8DF
:104A0000AB01BC0186E196E00E94D5A22091A50CE5
:104A10003091A60C4091A70C5091A80C60913201E6
:104A20007091330180913401909135010E9494E896
:104A3000AB01BC0183E196E00E94D5A22091A90CB4
:104A40003091AA0C4091AB0C5091AC0C60913A01A2
:104A500070913B0180913C0190913D010E9494E84E
:104A6000AB01BC0180E196E00E94D5A288E096E00F
:104A70000E94379E2091A10C3091A20C4091A30C72
:104A80005091A40C60912E0170912F018091300102
:104A9000909131010E9494E8AB01BC0186E096E060
:104AA0000E94D5A22091A50C3091A60C4091A70C94
:104AB0005091A80C609136017091370180913801B6
:104AC000909139010E9494E8AB01BC0183E096E02B
:104AD0000E94D5A22091A90C3091AA0C4091AB0C58
:104AE0005091AC0C60913E0170913F01809140016A
:104AF000909141010E9494E8AB01BC0180E096E0F6
:104B00000E94D5A28AE00E94309EAAC383E50E943B
:104B1000362D882309F4A4C30E94B62C9093480133
:104B2000809347019DC30E94432DF82E87FD98C3B3
:104B300083E50E94362D0F2D0F2C000C110B8823BE
:104B400069F10E94B62CF801EE0FFF1FE35BFE4FE8
:104B500091838083000F111F000F111F9801285FA0
:104B60003E4F7901BC01990F880B990B0E9457E4C5
:104B70002AE037ED43E25CE30E94B6E4F801E1503D
:104B8000F34F20813181428153810E94B6E4D701E5
:104B90006D937D938D939C93139762C30E945D9E4A
:104BA00085E40E94309E80E38F0D0E94309E000FAE
:104BB000111FF801E35BFE4F6081718180E396E095
:104BC0000E9453A285E20E94309E8AE00E94309E9D
:104BD00047C380E50E94ED2C882309F441C360E0BF
:104BE00070E080E50E946C2DF82E6FEF7FEF83E57B
:104BF0000E946C2D8C010196039708F031C3F7FCDD
:104C00002FC38F2D0E94F0DB882339F00E94599E1C
:104C100088E396E00E94379E23C30E94984F60E08D
:104C20008F2D0E9445AF0F3FBFEF1B0731F00130C2
:104C3000110571F000E010E00DC08F2D0E94EDAE67
:104C400031E020E0892B09F030E0032F122F02C061
:104C500001E010E08F2D0E94EDAE8017910709F45E
:104C6000FFC20E941B9FF6CF8AE50E94362D81115C
:104C700099C583E50E94362D811194C5F1C264E087
:104C800071E083E50E94A7D68C0168EE73E080E5B1
:104C90000E94A7D68938E3E19E0710F088E893E1E7
:104CA000B8010E94B6D0DCC285E40E947245811131
:104CB00073C080E50E94ED2C882351F00E94BA2C2D
:104CC00060932E0570932F058093300590933105E6
:104CD00089E40E94ED2C882381F00E94BA2C2CEAF2
:104CE00035EC47E25EE30E94B6E4609332057093D0
:104CF0003305809334059093350584E40E94ED2CB0
:104D0000882381F00E94BA2C2CEA35EC47E25EE35E
:104D10000E9417E960933605709337058093380534
:104D2000909339050E945D9E40912E0550912F056C
:104D3000609130057091310581E696E00E94D5A220
:104D40002CEA35EC47E25EE3609132057091330561
:104D500080913405909135050E9417E9AB01BC01A3
:104D60008DE596E00E94D5A22CEA35EC47E25EE3A1
:104D7000609136057091370580913805909139051D
:104D80000E94B6E4AB01BC0189E596E00E94D5A281
:104D90008AE00E94309E64C20E94599E87E496E099
:104DA0000E94379E5DC283E50E94ED2C182F882358
:104DB00071F00E94BA2C0E9489E970930D016093F2
:104DC0000C0121E0672B09F020E02093220580E50B
:104DD0000E94ED2C882359F020910C0130910D0197
:104DE000232B11F00E94A62C8093220539C21111A9
:104DF00037C20E945D9E81E896E00E94379E8091B6
:104E00002205882319F089E696E002C085E696E03F
:104E10000E94379E60910C0170910D0180E796E031
:104E20000E9453A28CE696E00E94379E19C20E940F
:104E3000984F16C288E50E94ED2CD82E89E40E9476
:104E4000ED2CC82E882321F00E94B62CA82E28C055
:104E5000DD2011F10E94BA2C2091A10C3091A20CFE
:104E60004091A30C5091A40C0E9493E820E030E004
:104E700040E251E40E9493E820E030E046E552E44D
:104E80000E9494E82AE13FE149E15CE30E94B6E434
:104E90000E9489E9633018F0AA24AA9401C0A62EC2
:104EA00089E50E94ED2CF82E8AE40E94ED2C182F43
:104EB000882321F00E94B62CB82E28C0FF2011F1C3
:104EC0000E94BA2C2091A50C3091A60C4091A70C01
:104ED0005091A80C0E9493E820E030E040E251E4B9
:104EE0000E9493E820E030E046E552E40E9494E816
:104EF0002AE13FE149E15CE30E94B6E40E9489E9CE
:104F0000633018F0BB24BA9401C0B62E8AE50E9423
:104F1000ED2CE82E811105C081E50E94ED2C082FB3
:104F200001C000E0C11001C010E0212F30E0D1101D
:104F300002C080E001C08F2D280F311D21303105C6
:104F400021F4E11009C0011107C00E94599E83EBB2
:104F500096E00E94379E84C1A7FC02C0B7FE07C03E
:104F60000E94599E84E996E00E94379E79C10E9472
:104F7000BA2CEA2CAA0CFF08AB2DBB0CBB0B0023F0
:104F800091F0F701EE0FFF1FEE0DFF1DEA0FFB1F63
:104F9000EE0FFF1FEE0FFF1FE652F34F208131810E
:104FA0004281538103C020E030E0A9018701000F56
:104FB000111F0E0D1F1D0A0F1B1F000F111F000FC9
:104FC000111F0652134F0E9494E8D8016D937D93F0
:104FD0008D939C93139744C18091B90C182F127034
:104FE000082F0470B82FB170FB2E80FF04C011236E
:104FF00011F0011141C00E945D9E8DEE96E00E946D
:10500000379EF11003C088E50E94309E111103C045
:1050100089E50E94309E011103C08AE50E94309EFE
:1050200085EE96E00E94379E011103C045E352E0F1
:1050300002C041E352E0111103C029E132E002C095
:1050400021E332E0F11003C08BE192E002C081E382
:1050500092E05F934F933F932F939F938F9383EDB2
:1050600096E09F938F931F920E9432450FB6F8945B
:10507000DEBF0FBECDBFF4C001EC13E128ED34E07C
:1050800039A328A3AE014F5F5F4F5A0196E1892EE5
:1050900094E1992E1A01F801659175918591949189
:1050A000A8A1B9A1CD90DD90ED90FD90B9A3A8A3E2
:1050B000A70196010E9493E82B013C01F101608356
:1050C00071838283938320E030E040EA51EC0E94B8
:1050D00017EA87FD0AC020E030E040EA51E4C3014E
:1050E000B2010E9450E418162CF4F40184911816B1
:1050F0000CF493C3D101CD90DD90ED90FD901D0196
:1051000020E030E040EA51ECC701B6010E9417EA06
:1051100087FD0AC020E030E040EA51E4C701B60153
:105120000E9450E41816A4F40E94599E81E197E071
:105130000E94379E61E083E097E00E94E3D00E94E6
:10514000ACB268E270E088EC90E00E94B6D088C013
:105150000C5F1F4FBFEF8B1A9B0AE3E10D3C1E074C
:1051600009F099CF87E0E82E8BE0F82E10E0F501EA
:1051700081919191A191B1915F01F70181939193F7
:10518000A193B1937F01812F0E94A4671F5F133009
:1051900071F70E941F6C60E083EF96E00E94E3D0FD
:1051A00063E972E084E690E00E94B6D06AEB72E0B8
:1051B00084E690E00E94B6D053C00E946EC050C0FA
:1051C0000E94457D4DC061E083E50E947B2D0E94D9
:1051D000657546C081E08093150D0E941678109287
:1051E000150D8823E9F10E945D9E8FE297E00E94F1
:1051F000379E36C08091CF1182FF32C0806280938B
:10520000CF112EC081E0809351011092D70460E04D
:1052100083E50E947B2D811123C00E9458CA20C0C3
:105220000E9464451DC0009171021091720200231A
:10523000B9F00E945D9E84E50E94309EB8017727F8
:10524000072E000C880B990B0E9437A280E20E9467
:10525000309E8AE397E00E94379E02C00E94644518
:10526000109273020E9448CAE3C220E030E00C941E
:10527000F11711110C94A61E0C949F1E0E941B9FE7
:105280000C94C81E0E94822CAB01BC014093CB1130
:105290005093CC116093CD117093CE1185EA9FE0AD
:1052A0000E94CD50DDCF61E0802F0E9445AF6F2D71
:1052B000802F0E9416AF6F2D70E0802F0E9481AF6B
:1052C000F4E0EF12CDCFF0921105CACF0E94BA2CB4
:1052D0000E9489E9633771050CF07FC17093C10D9D
:1052E0006093C00D0E948FA30E94BA2C20E030E092
:1052F00040EA50E40E9417EA181614F40E94F1C420
:105300006091C00D7091C10D072E000C880B990B98
:105310000E9457E42091BC0D3091BD0D4091BE0D0F
:105320005091BF0D0E9417EA18161CF48EE793E007
:1053300002C08FE693E060E00E94E3D081E08093BA
:1053400029011AA21BA21CA21DA21BA61CA61DA6F7
:105350001EA6A1E0AFA718A218AABCE3B9ABECE166
:10536000EAABF6E4FBABC12CD12C00E8E02E8FEBCE
:10537000F82E812C912C54016091C00D7091C10DBB
:10538000072E000C880B990B0E9457E4162F072F4D
:10539000782E692E9601A7010E9450E4882349F1D6
:1053A000C090BC0DD090BD0DE090BE0DF090BF0D33
:1053B000A7019601612F702F872D962D0E9450E432
:1053C000881F8827881F88A32AA52223C1F0A70148
:1053D0009601612F702F872D962D0E9450E487FF34
:1053E0000DC080912901882309F43ACF0E9447D14A
:1053F00037CF1C2D0D2D7E2C6F2C01C018A20E94C2
:10540000B8616B017C01DC01CB014BA55CA56DA5EE
:105410007EA5841B950BA60BB70BB7FD33C0C70148
:10542000B60168517C4F8F4F9F4F6BA77CA78DA70C
:105430009EA780E00E94DEA38BE693E00E94379E49
:1054400081149104A104B104B9F0D501C401805FB5
:10545000984DAF4FBF4FBC01CD016C197D098E092E
:105460009F0928EE33E040E050E00E9457E8CA016F
:10547000B9010E9437A203C08FE30E94309E8AE0E8
:105480000E94309E0E941B9F0E94B8616093340F5F
:105490007093350F8093360F9093370F7091BC0D3A
:1054A0007EA38091BD0D8FA39091BE0D98A7A09172
:1054B000BF0DA9A7272F382F492F5A2F612F702FE3
:1054C000872D962D0E9493E81B012C0120E030E0EF
:1054D000A9010E9417EA87FF04C057FA509457F8B1
:1054E000509481149104A104B104B1F420E030E09F
:1054F00040E85FE3C201B1010E9450E487FF18C099
:10550000BFA546015701BB2399F0E0E18E0EE7E20B
:105510009E1EA11CB11C0CC020E030E040E450E411
:10552000C201B1010E9417EA181614F4460157018E
:10553000F8A1FF23A9F12AA13BA14CA15DA121154E
:1055400031054105510541F0D701C601821B930B7E
:10555000A40BB50BB7FD24C02EA13FA148A559A5AA
:1055600068A979A98AA99BA90E9493E820E030E064
:1055700040EC5FE30E9450E487FD33CFB701A60102
:10558000405A55416F4F7F4F4AA35BA36CA37DA345
:105590005EA158AB6FA169AB78A57AAB89A58BAB3F
:1055A00080912901882309F41CCF81149104A1045E
:1055B000B10431F41FA6C12ED02EE72CF62CDCCE80
:1055C00090E1C91A97E2D90AE108F108C818D90888
:1055D000EA08FB08F7FCEECF04CF63E770E07ECE6D
:1055E0000E94984F88E50E94ED2C882331F05E9A46
:1055F0008091060B8E7F8093060B89E50E94ED2C2F
:10560000882331F05E9A8091060B8D7F8093060B84
:105610008AE50E94ED2C882309F422CE159A809108
:10562000060B8B7F8093060B1BCE83E50E94362DE5
:10563000882391F00E94BA2C6093210A7093220A69
:105640008093230A9093240A6093290A70932A0A6C
:1056500080932B0A90932C0A80E50E94362D882394
:1056600051F00E94BA2C6093210A7093220A809311
:10567000230A9093240A82E50E94362D882351F054
:105680000E94BA2C6093250A7093260A8093270AF9
:105690009093280A84E50E94362D882309F4E0CDF2
:1056A0000E94BA2C6093290A70932A0A80932B0ACD
:1056B00090932C0AD5CD82E40E94ED2C882351F0E2
:1056C0000E946C2C6093FD097093FE098093FF0982
:1056D0009093000A83E50E94ED2C882351F00E94EC
:1056E000BA2C60932D0A70932E0A80932F0A909300
:1056F000300A84E50E94ED2C882351F00E94BA2CD8
:105700006093310A7093320A8093330A9093340A7B
:1057100088E50E94ED2C882351F00E94BA2C6093FA
:10572000E9047093EA048093EB049093EC0489E518
:105730000E94ED2C882351F00E94BA2C6093ED0456
:105740007093EE048093EF049093F0048AE50E9436
:10575000ED2C8823B1F00E94BA2C6093F104709371
:10576000F2048093F3049093F4042DEC3CEC4CECA5
:105770005DE30E9450E4181624F087EC95E00E9447
:10578000379E85E40E94ED2C882309F469CD0E94A0
:10579000BA2C6093F5047093F6048093F704909309
:1057A000F8045ECD0E94BA2C20E030E040E050ECDE
:1057B0000E9450E487FD12C00E94BA2C20E030E025
:1057C00040E050E40E9417EA18161CF00E94BA2C20
:1057D00009C060E070E080E090E404C060E070E048
:1057E00080E090EC2091090A30910A0A40910B0A5E
:1057F00050910C0A0E94B6E40E9489E92091060BA0
:1058000022FF2ECD2091790D30917A0D620F731FFA
:1058100070937A0D6093790D23CDF7FAF094F7F831
:10582000F094D101CD92DD92ED92FC92139762CC6F
:10583000E3960FB6F894DEBF0FBECDBFDF91CF91D8
:105840001F910F91FF90EF90DF90CF90BF90AF909E
:105850009F908F907F906F905F904F903F902F9090
:105860000895882319F00E945D9E03C080E20E9483
:10587000309E4091010A5091020A6091030A709192
:10588000040A8BED97E00E94D5A24091050A509141
:10589000060A6091070A7091080A88ED97E00E9455
:1058A000D5A24091090A50910A0A60910B0A7091A1
:1058B0000C0A85ED97E00E94D5A240910D0A509107
:1058C0000E0A60910F0A7091100A82ED97E00E9413
:1058D000D5A28AE00C94309E80918302909184023C
:1058E000009731F04AE050E060E070E00C947FE215
:1058F00060E070E0CB0108950E94309E83EC97E059
:105900000C94379E8091830290918402009731F02D
:105910004AE050E060E070E00C9451E160E070E03B
:10592000CB0108950E94822C97FD0CC00E94822C0E
:105930006F3F71058105910509F034F40E94822CB6
:10594000862F089580E008958FEF08958091830257
:1059500090918402892B39F00E94922C91E0811160
:1059600003C090E001C091E0892F08950E94822C2D
:10597000CB0108950F931F93CF9380918302909151
:1059800084020097F1F0FC018F01C1912C2F2F7D33
:1059900089F0C53411F0C536B9F7F801108260E01E
:1059A00070E00E94F5DFF801C083562F472F382F93
:1059B000292F0BC060E070E0CF911F910F910C94E4
:1059C000F5DF50E040E030E020E0652F742F832FBA
:1059D000922FCF911F910F91089581548A3108F031
:1059E00042C0E82FF0E040916D0250916E0260914C
:1059F0006F027091700204C0769567955795479530
:105A00008A95D2F7842F817040FF2FC0E65BFD4F4F
:105A10009081992309F1E0919104F0919204E90FAA
:105A2000F11D908120ED290F2A3098F09E3211F45B
:105A300091810CC09D3211F09B3271F4918120ED67
:105A4000290F2A3030F09E3239F4928190539A30E7
:105A500018F42E2F9F2F02C020E090E020938302A5
:105A600090938402089580E0089508950E94ED2C9B
:105A7000882341F081E02091830230918402232B1E
:105A800009F480E00895CF9384E50E94362D8823A1
:105A900001F10E94922CC82F1816E4F40E945D9E1A
:105AA0008DE40E94309E6091710270917202072E07
:105AB000000C880B990B0E9437A26C2FCC0F770B30
:105AC00082EE97E00E9453A28AE00E94309E8FEF00
:105AD00001C080E0CF910895CF93DF93EB010E9446
