:100000000C9440160C946A160C946A160C946A169A
:100010000C946A160C946A160C946A160C946A1660
:100020000C946A160C9490690C946A160C946A16D7
:100030000C946A160C947F6F0C946A160C946A16D2
:100040000C946A160C9416660C9446690C946A1605
:100050000C94CF3A0C946A160C946A160C946A1697
:100060000C946A160C946A160C946A160C946A1610
:100070000C946A160C946A160C946A160C946A1600
:100080000C946A160C946A160C946A16A692A9929D
:100090009C92A092C092C092AD92B192B792BB9244
:1000A000A798AC98B198BB98E998E998C598CD986D
:1000B000D598DF98DBC5A2C4D9C417C6D9C4D9C4A2
:1000C000D9C4D9C4D9C4D9C4D9C4D9C4D9C4D9C448
:1000D000D9C4D9C4D9C4D9C4D9C4D9C4D9C4D9C438
:1000E000D9C4D9C4D9C4D9C4D9C4D9C4D9C4D9C428
:1000F00011C6D9C4D9C4D9C4D9C4D9C4D9C4D9C4DE
:10010000D9C4EAC5D9C4D9C4D9C4D9C4D9C4D9C4F5
:10011000D9C4D9C4D9C4D9C42EC6D6C44E414E49B7
:100120004E495459494E46CDCCCC3D0AD7233C17B5
:10013000B7D13877CC2B329595E6241FB14F0A0002
:100140000020410000C84200401C4620BCBE4CCAF2
:100150001B0E5AAEC59D74434F4D4D554E494341FC
:1001600054494F4E0044525952554E004552524F39
:10017000525300494E464F004543484F00536C656B
:1001800065702E2E2E00206F6620004D424C2047B9
:10019000323920706F696E742000290A0059206F6F
:1001A0007574206F662072616E67652028312D009E
:1001B000290A0058206F7574206F662072616E677F
:1001C000652028312D004D6573682070726F62695B
:1001D0006E6720646F6E652E0A005374617274201E
:1001E0006D6573682070726F62696E6720776974DD
:1001F0006820224732392053312220666972737495
:100200002E0A004732380A473239205332005374DD
:100210006174653A20004D65736820626564206CE6
:100220006576656C696E6720686173206E6F206407
:100230006174612E0A0053206F7574206F662072FE
:10024000616E67652028302D35292E0A004D6573B3
:100250006820706F696E742063616E6E6F742062C7
:1002600065207265736F6C7665640A00436C696320
:100270006B20746F20726573756D652E2E2E004E87
:100280006F206D6F76652E00456E642066696C6523
:10029000206C6973740A00426567696E2066696C38
:1002A00065206C6973740A00286E6F2066696C653E
:1002B00029005344207072696E74696E67206279F8
:1002C000746520004E6F74205344207072696E7400
:1002D000696E670A0043757272656E742066696C98
:1002E000653A200046696C652064656C65746564D8
:1002F0003A0044656C6574696F6E206661696C656F
:10030000642C2046696C653A2000256973002569D4
:100310006D20256973002569682025696D20256990
:100320007300256964202569682025696D20256989
:10033000730025697920256964202569682025696D
:100340006D20256973005072696E742074696D6543
:100350003A2000780173016C01650157016F6666F0
:100360000044454255473A004B494C4C45442E20E9
:10037000004D3131332053006F6B00456E64657260
:100380002D33204F66662E002C20002C2000544870
:1003900045524D414C5F50524F54454354494F4E86
:1003A000004155544F5245504F52545F53445F5390
:1003B000544154555300454D455247454E43595FAE
:1003C00050415253455200434153455F4C494748C1
:1003D000545F4252494748544E45535300544F4787
:1003E000474C455F4C494748545300534F46545778
:1003F0004152455F504F574552004255494C445F6A
:1004000050455243454E54004C4556454C494E4785
:100410005F44415441005A5F50524F42450041559C
:10042000544F4C4556454C005052494E545F4A4F2C
:10043000420050524F4752455353004155544F527A
:1004400045504F52545F54454D5000564F4C554DFA
:10045000455452494300454550524F4D0053455273
:1004600049414C5F584F4E5F584F464600464952EF
:100470004D574152455F4E414D453A4D61726C6951
:100480006E206275676669782D312E312E782028AE
:100490004769746875622920534F555243455F433D
:1004A0004F44455F55524C3A68747470733A2F2F1D
:1004B0006769746875622E636F6D2F4D61726C6928
:1004C0006E4669726D776172652F4D61726C696EEF
:1004D0002050524F544F434F4C5F56455253494F53
:1004E0004E3A312E30204D414348494E455F5459D4
:1004F00050453A456E6465722D3320455854525527
:100500004445525F434F554E543A31205555494466
:100510003A63656465326132662D343161322D345F
:100520003734382D396231322D63353563363266D2
:1005300033363766660A002F2F20004D31343520C0
:10054000533C696E6465783E206F7574206F662039
:1005500072616E67652028302D31290A0020540011
:10056000205200416363656C65726174696F6E3A15
:100570002050005741524E494E4721204C6F772062
:100580005A204A65726B206D6179206C6561642028
:10059000746F20756E77616E746564207061757319
:1005A00065732E0A00205A00205900580020204D63
:1005B00061783A2000205A00205900580020204D30
:1005C000696E3A20004F6E20004F666600536F66DA
:1005D0007420656E6473746F70733A200020466CEB
:1005E0006F773A200000010F150E12FFFFFFFF1674
:1005F000170E13FFFFFFFF03021A14FFFFFFFFFF99
:10060000FFFF0C04FFFFFF01000EFFFFFF0C190DA1
:10061000FF1820643A0020693A0020703A00496EC1
:1006200076616C69642065787472756465720A001D
:1006300043290A0061626C656420286D696E20742C
:10064000656D702000436F6C64206578747275640A
:1006500065732061726520004E6F206361736520B1
:100660006C696768740A004D65736820706F696E05
:10067000742063616E6E6F74206265207265736FA3
:100680006C7665640A004D34323120696E636F7296
:100690007265637420706172616D65746572207536
:1006A000736167650A00454550524F4D204F4B0A14
:1006B000004163746976652045787472756465726B
:1006C0003A2000496E76616C6964206578747275B1
:1006D0006465720A004B494C4C45442E200053542B
:1006E0004F505045442E20005072696E7465722040
:1006F00073746F707065642064756520746F206515
:1007000072726F72732E2046697820746865206556
:1007100072726F7220616E6420757365204D393975
:100720003920746F20726573746172742E2028549E
:10073000656D70657261747572652069732072658C
:100740007365742E20536574206974206166746526
:10075000722072657374617274696E67290A004E43
:100760006F20436865636B73756D207769746820CB
:100770006C696E65206E756D6265722C204C6173BC
:1007800074204C696E653A20004E6F2043686563A3
:100790006B73756D2077697468206C696E65206E67
:1007A000756D6265722C204C617374204C696E65A6
:1007B0003A2000636865636B73756D206D69736DB6
:1007C000617463682C204C617374204C696E653AC7
:1007D00020004C696E65204E756D626572206973EC
:1007E000206E6F74204C617374204C696E65204ECE
:1007F000756D6265722B312C204C617374204C69CD
:100800006E653A20004D313130004D333100534494
:100810002072656164206572726F720A00446F6EA7
:1008200065207072696E74696E672066696C650A0E
:100830000020496E76616C69642065787472756415
:1008400065722000000000000000000000000000B1
:1008500000006B4300006B4300007A43206E6F740E
:1008600020656E74657265642E0A0050726F74653F
:10087000637465642050696E0A0020573A00452071
:10088000436F6F6C696E672E2E2E004520486561A0
:1008900074696E672E2E2E0057726974696E672018
:1008A000746F2066696C653A20006F70656E206613
:1008B00061696C65642C2046696C653A20006F7034
:1008C000656E206661696C65642C2046696C653ACA
:1008D000200046696C652073656C65637465640A05
:1008E000002053697A653A200046696C65206F7074
:1008F000656E65643A20002066696C653A20006484
:100900006F696E67006672657368004E6F772000CE
:10091000454E4420535542524F5554494E450A00C6
:100920002220706F73002220706172656E743A220B
:1009300000535542524F5554494E452043414C4C6B
:10094000207461726765743A22004B494C4C4544EF
:100950002E2000747279696E6720746F2063616C59
:100960006C207375622D67636F64652066696C65C2
:1009700073207769746820746F6F206D616E7920C1
:100980006C6576656C732E204D4158206C657665DC
:100990006C2069733A004572726F723A006F70652D
:1009A0006E206661696C65642C2046696C653A202E
:1009B0000043616E6E6F74206F70656E2073756298
:1009C00064697220006563686F3A004C6576656CF7
:1009D000696E6720446F6E6521004D6F7665205A01
:1009E00000473239205332004E65787420506F69C9
:1009F0006E74002569202F20257500473239205359
:100A0000310047323920533200436C69636B2074E4
:100A10006F20426567696E00486F6D696E67205888
:100A2000595A004732380053746F726520736574E9
:100A300074696E6773004C6F6164207365747469C8
:100A40006E6773004C6576656C20636F726E6572BD
:100A50007300426564205A00426564205A00466172
:100A6000646520486569676874004661646520486C
:100A70006569676874004F6666004F6E20004265C6
:100A800064204C6576656C696E67004C6576656CB4
:100A90002062656400507265706172650050726515
:100AA00068656174204142530050726568656174E5
:100AB00020504C4100436F6F6C646F776E00446947
:100AC0007361626C65207374657070657273004D3C
:100AD000383400426564204C6576656C696E670049
:100AE0004175746F20686F6D6500473238004D6F37
:100AF00076652061786973004D61696E004D6F768F
:100B0000652058004D6F76652059004D6F76652041
:100B10005A004578747275646572004D6F76652071
:100B2000302E316D6D004D6F766520316D6D004D4D
:100B30006F76652031306D6D004D6F766520617880
:100B40006973004578747275646572004D6F7665DF
:100B5000205A004D6F76652059004D6F76652058FC
:100B60000025753A2530327500253032753A25302A
:100B700032750025756420253032753A253032757E
:100B800000202020202020005A0059002020202072
:100B900000580009200000000000000000000000D4
:100BA0000000003FFFF00000000000000000000017
:100BB000000000380070000000000000000000008D
:100BC00000000030FC3000000000000000000000C9
:100BD00000000020FC1000000000000000000000E9
:100BE000000000207810000000000000000000005D
:100BF0000000002030100000000000000000000095
:100C00000000002C00D0F80180000C1FE00000085C
:100C10002080002E31D048008000123FF0000004F8
:100C20001040002F7BD043C38CD0023FF000000463
:100C30001040002F7BD071249267CC3FF000000859
:100C40002080002E31D041249E40021FE000001081
:100C50004100002C00D049249040121FE0000020E9
:100C6000820000203010FBB3CEE00C3FF0000020EB
:100C700082000020781000000000003FF00000100B
:100C800041000020FC1000000000003FF0000008C0
:100C900020800030FC3000000000000FC000000089
:100CA000000000380070000000000007800000FF16
:100CB000FFC0003FFFF0000000000003000000FF45
:100CC000FFC0000000000000000000000000000065
:100CD0000000003FFFF000000000000000000000E6
:100CE000000000380070000000000000000000005C
:100CF000000000338730000000000000000000000A
:100D000000000027879000000000000000000000A5
:100D10000000002F87D0000000000000000000004D
:100D20000000002F87D0000000000000000000003D
:100D30000000002F03D0F80180000C1FE000000825
:100D400020800020301048008000123FF000000496
:100D500010400020781043C38CD0023FF000000404
:100D600010400020781071249267CC3FF0000008FA
:100D700020800020301041249E40021FE00000101F
:100D80004100002F03D049249040121FE0000020B2
:100D90008200002F87D0FBB3CEE00C3FF000002094
:100DA0008200002F87D000000000003FF0000010FC
:100DB00041000027879000000000003FF00000087D
:100DC00020800033873000000000000FC0000000CA
:100DD000000000380070000000000007800000FFE5
:100DE000FFC0003FFFF0000000000003000000FF14
:100DF000FFC00000000020746F6F206C6F6E6720D2
:100E0000657874727573696F6E2070726576656E41
:100E10007465640A0020636F6C6420657874727571
:100E200073696F6E2070726576656E7465640A0012
:100E300070012C0190012701B0012201C0011D01A8
:100E4000F00118011002130130020E0160020901C5
:100E500090020401C002FF000003FA004003F50005
:100E60008003F000D003EB002004E6007004E100F2
:100E7000E004DC004005D700C005D2004006CD00EC
:100E8000D006C8008007C3003008BE00F008B900D3
:100E9000C009B400B00AAF00B00BAA00D00CA50086
:100EA000000EA000500F9B00C01096005012910041
:100EB00000148C00C0158700B0178200B0197D00A7
:100EC000D01B7800001E730040206E009022690045
:100ED000F024640040275F0090295A00E02B550061
:100EE000102E500020304B0010324600E0334100FD
:100EF00090353C001037370070383200A0392D0093
:100F0000B03A2800A03B2300603C1E00103D1900B1
:100F1000903D1400103E0F00703E0A00C03E0500D8
:100F2000003F0000403FFBFF803FF6FFC03FF1FF66
:100F3000453120544845524D414C2052554E415761
:100F400041590042454420544845524D414C20529D
:100F5000554E4157415900546865726D616C20527D
:100F6000756E61776179004531204572723A204D86
:100F7000415854454D50004572723A204D415854E5
:100F8000454D5020424544004D415854454D502058
:100F900074726967676572656400453120457272D5
:100FA0003A204D494E54454D50004572723A204DFD
:100FB000494E54454D5020424544004D494E5445FC
:100FC0004D5020747269676765726564004D3834EE
:100FD00020582059205A204500202F002042403A16
:100FE0000020403A00022020506C616E6E65724213
:100FF000756666657242797465733A2000204672A0
:101000006565204D656D6F72793A2000436F6D7094
:10101000696C65643A204D6172203137203230317D
:10102000390A00207C20417574686F723A20287458
:1010300068697369736B65697468622C20456E64B6
:1010400065722D33290A00323031382D30372D3377
:101050003100204C61737420557064617465643A8A
:1010600020006275676669782D312E312E780A006E
:101070004D61726C696E0020536F667477617265A2
:101080002052657365740A00205761746368646F49
:10109000672052657365740A002042726F776E2074
:1010A0006F75742052657365740A00204578746505
:1010B000726E616C2052657365740A00506F7765BB
:1010C0007255700A0073746172740A006175746FEE
:1010D00025692E67006572726F7220777269746974
:1010E0006E6720746F2066696C650A00456E6473D4
:1010F000746F70732025632025632025632025638A
:1011000000205A3A0020593A0020583A00656E648F
:1011100073746F7073206869743A2000446F6E6551
:1011200020736176696E672066696C652E0A004DD2
:1011300032390024F4D43050C38E20C2A24017822A
:101140008B7011127A910D816CD90AA861E108C7E0
:10115000586607615143061E4B5D05C145A7041A39
:10116000411104093D9803713931034036DB0265B2
:10117000339102D4305402802E1D02632CEE01758F
:101180002AC501B028A001102781018F2564012BF9
:10119000244B01E0223401AC211F018D200D018080
:1011A0001FFC00841EED00971DDF00B81CD200E676
:1011B0001BC600201BBC00641AB200B219A8000AAA
:1011C00019A0006A189900D117910040178B00B53B
:1011D00016840031167E00B31579003A157300C7E6
:1011E000146F0058146A00EE13660088136300251C
:1011F000135E00C7125B006C12570015125400C139
:1012000011510070114F0021114B00D61049008D73
:101210001047004610440002104200C00F400080FA
:101220000F3E00420F3C00060F3B00CB0E380093F0
:101230000E37005C0E3500270E3400F30D3200C16E
:101240000D3100900D3000600D2E00320D2D000587
:101250000D2C00D90C2B00AE0C2900850C29005C4C
:101260000C2700350C27000E0C2600E80B2400C4C8
:101270000B2400A00B23007D0B23005A0B21003907
:101280000B2100180B2000F80A1F00D90A1E00BB12
:101290000A1E009D0A1D00800A1D00630A1C0047EB
:1012A0000A1B002C0A1B00110A1A00F7091A00DD9C
:1012B000091900C4091900AB091900920917007B2C
:1012C000091800630917004C09160036091600209A
:1012D0000916000A091500F5081500E0081400CCED
:1012E000081400B8081400A4081400900813007D26
:1012F0000812006B08130058081200460812003448
:10130000081100230811001208110001081100F053
:10131000071000E0071000D0071000C0071000B051
:10132000070F00A107100091070E0083070F00743C
:10133000070F0065070E0057070E0049070E003B18
:10134000070D002E070E0020070D0013070D0006E5
:10135000070D00F9060C00ED060D00E0060C00D4A8
:10136000060C00C8060C00BC060C00B0060C00A45D
:10137000060B0099060C008D060B0082060B007709
:10138000060B006C060B0061060A0057060B004CAA
:10139000060A0042060A0038060A002E060A002441
:1013A000060A001A060A001006090007060A00FDD0
:1013B000050900F4050900EB050900E2050900D95B
:1013C000050900D0050900C7050900BE050900B5DB
:1013D000050800AD050800A50509009C0508009456
:1013E0000508008C050800840508007C05080074C9
:1013F0000508006C050700650508005D0507005637
:101400000508004E0507004705070040050800389D
:10141000050700310507002A050700230507001C02
:10142000050600160507000F05070008050600025F
:10143000050700FB040600F5040700EE040600E8BB
:10144000040600E2040700DB040600D5040600CF12
:10145000040600C9040600C3040600BD040600B764
:10146000040600B1040500AC040600A6040600A0B2
:101470000405009B04060095040500900406008AFC
:1014800004050085040500800406007A0405007543
:10149000040500700405006B040500660405006186
:1014A0000405005C04050057040500520405004DC6
:1014B00004050048040500430405003E0404003A06
:1014C00004050035040500300404002C0405002741
:1014D000040400230405001E0404001A040400167A
:1014E000040500110404000D0404000904050004AF
:1014F00004040000040400FC030400F8030400F4E6
:10150000030400F0030400EC030400E8030400E417
:10151000030400E0030400DC030400D8030400D447
:10152000030400D0030400CC030400C8030300C577
:1015300003030024F404D9201BC40C5C0E9804C4DB
:10154000095F0265077101F405F900FB04B3004867
:10155000048700C10369005803550003034500BE1A
:10156000023A008402310053022A002902250004B5
:10157000022000E4011C00C8011900AF0117009807
:101580000114008401130071011000610110005169
:10159000010E0043010D0036010B002B010B002052
:1015A000010B00150109000C01090003010800FBF3
:1015B000000800F3000800EB000700E4000600DE6E
:1015C000000600D8000600D2000600CC000500C7C7
:1015D000000500C2000500BD000400B9000400B50C
:1015E000000400B1000400AD000400A9000400A53F
:1015F000000300A20003009F0004009B000300986A
:101600000003009500020093000300900003008D8A
:101610000002008B000300880002008600020084A4
:10162000000300810002007F0002007D0002007BB9
:1016300000020079000200770001007600020074C9
:1016400000020072000100710002006F0002006DD4
:101650000001006C0002006A0001006900020067DE
:1016600000010066000100650001006400020062E4
:1016700000010061000100600001005F0002005DE8
:101680000001005C0001005B0001005A00010059EC
:1016900000010058000100570001005600010055EC
:1016A00000010054000100530000005300010052EB
:1016B00000010051000100500001004F0001004EE8
:1016C0000000004E0001004D0001004C0001004BE5
:1016D0000000004B0001004A0001004900010048E1
:1016E00000000048000100470001004600000046DD
:1016F00000010045000000450001004400010043D6
:1017000000000043000100420000004200010041CF
:1017100000000041000100400001003F0000003FC8
:101720000001003E0000003E0001003D0000003DC1
:101730000001003C0000003C0000003C0001003BB8
:101740000000003B0001003A0000003A00010039AF
:1017500000000039000100380000003800000038A7
:10176000000100370000003700010036000000369D
:101770000000003600010035000000350000003593
:101780000001003400000034000000340001003388
:10179000000000330000003300010032000000327E
:1017A0000000003200010031000000310000003173
:1017B0000001003000000030000000300001002F68
:1017C0000000002F0000002F0000002F0001002E5D
:1017D0000000002E0000002E0001002D0000002D52
:1017E0000000002D0000002D0001002C0000002C46
:1017F0000000002C0000002C0001002B0000002B3A
:101800000000002B0000002B0001002A0000002A2D
:101810000000002A0000002A000100290000002921
:101820000000002900000029000000290001002814
:101830000000002800000028000000280000002808
:1018400000010027000000270000002700000027FB
:1018500000000027000100260000002600000026EE
:1018600000000026000000260001002500000025E1
:1018700000000025000000250000002500000025D4
:1018800000010024000000240000002400000024C7
:1018900000000024000100230000002300000023BA
:1018A00000000023000000230000002300000023AC
:1018B000000100220000002200000022000000229F
:1018C0000000002200000022000100210000002191
:1018D0000000002100000021000000210000002184
:1018E0000000002100010020000000200000002076
:1018F0000000002000000020000000200000002068
:10190000000000200001001F0000001F0000001F59
:101910000000001F0000001F0000001F0000001F4B
:101920000001001E0000001E0000001E0000001E3E
:10193000000000043700001E290000511B00005861
:1019400010000010090000CC0400007802000041E3
:101950000100006265640A002C2073797374656D60
:101960002073746F707065642120486561746572BE
:101970005F49443A20004265642068656174696E7D
:1019800067206661696C65640048656174696E67AB
:10199000206661696C656400453120486561746941
:1019A0006E67206661696C65640048656174696E84
:1019B00067206661696C65640000060900FE070126
:1019C000920321207FFF07FF07FF000000060000B1
:1019D00001070706020080808080800080030202E9
:1019E000060105A0A00507070600005050F850F8B2
:1019F00050500507070600002078A07028F0200549
:101A00000707060000C0C810204098180507070601
:101A100000006090A040A89068020303060104C083
:101A2000408003070706010020408080804020039B
:101A3000070706010080402020204080050505069C
:101A4000000120A870A8200505050600012020F847
:101A500020200203030602FFC040800501010600AA
:101A600003F8020202060200C0C0050505060001D7
:101A700008102040800507070600007088888888C5
:101A8000887003070706010040C040404040E00561
:101A90000707060000708808708080F805070706B1
:101AA0000000F81020100808F005070706000010D5
:101AB000305090F81010050707060000F880F00875
:101AC000088870050707060000708080F08888701D
:101AD000050707060000F80810202020200507074A
:101AE0000600007088887088887005070706000067
:101AF00070888878080870020505060200C0C000DA
:101B0000C0C00206060602FFC0C000C04080040735
:101B10000706000010204080402010050303060047
:101B200002F800F80407070601008040201020405A
:101B300080050707060000708808102000200507B0
:101B40000706000070880868A8A870050707060047
:101B500000708888F8888888050707060000F088E4
:101B600088F08888F005070706000070888080806C
:101B70008870050707060000F08888888888F005C7
:101B80000707060000F88080F08080F80507070648
:101B90000000F88080F08080800507070600007054
:101BA0008880B8888870050707060000888888F84C
:101BB00088888801070706020080808080808080F6
:101BC0000507070600003810101010906005070781
:101BD0000600008890A0C0A09088050707060000B6
:101BE000808080808080F805070706000088D8A8DC
:101BF000888888880507070600008888C8A898880C
:101C0000880507070600007088888888887005079F
:101C100007060000F08888F080808005070706002E
:101C20000070888888A89068050707060000F0887B
:101C300088F0A0908805070706000078808070086B
:101C400008F0050707060000F820202020202005C6
:101C500007070600008888888888887005070706B7
:101C600000008888888888502005070706000088BB
:101C700088888888A85005070706000088885020B3
:101C80005088880507070600008888885020202093
:101C9000050707060000F80810204080F803070732
:101CA000060100E08080808080E0050505060001D7
:101CB0008040201008030707060100E020202020B4
:101CC00020E00503030600042050880501010600FA
:101CD00000F8020202060205804005050506000024
:101CE00070087888780507070600008080B0C888EB
:101CF00088F00505050600007080808870050707DC
:101D00000600000808689888887805050506000020
:101D10007088F880700507070600003048E04040F2
:101D200040400506060600FF7088887808700507A1
:101D3000070600008080B0C888888801070706026F
:101D400000800080808080800308080601FF20005A
:101D500020202020A040040707060000808090A0DB
:101D6000C0A090030707060100C04040404040E08B
:101D7000050505060000D0A8A8A8A80505050600C9
:101D800000B0C88888880505050600007088888826
:101D9000700506060600FFF08888F08080050606BC
:101DA0000600FF788888780808050505060000B059
:101DB000C880808005050506000070807008F0046A
:101DC00007070600004040E040404030050505069A
:101DD00000008888889868050505060000888888BE
:101DE00050200505050600008888A8A850050505AF
:101DF00006000088502050880506060600FF8888E7
:101E000088780870050505060000F8102040F803E2
:101E100007070601002040408040402001070706D8
:101E20000200808080808080800307070601008098
:101E300040402040408005020206000268900000F9
:101E4000000600004578747275646572004D6F7607
:101E500065205A004D6F76652059004D6F766520DC
:101E6000580050726570617265004C6F6164207338
:101E7000657474696E677300526573746F72652060
:101E80006661696C736166650053746F7265207377
:101E9000657474696E67730046696C616D656E7414
:101EA000004D6F74696F6E0054656D70657261747A
:101EB000757265004D61696E004D333033205531C8
:101EC00020452569205325690050494420417574F7
:101ED0006F74756E6500504944204175746F747558
:101EE0006E65005049442D44005049442D44005033
:101EF00049442D49005049442D49005049442D5032
:101F0000005049442D500020082046616374002091
:101F1000082046616374002008204D617800200885
:101F2000204D6178002008204D696E002008204D6A
:101F3000696E004F6666004F6E20004175746F74C5
:101F4000656D700046616E20737065656400466162
:101F50006E207370656564004265640042656400CC
:101F60004E6F7A7A6C65004E6F7A7A6C6500436FBB
:101F70006E74726F6C0020573A0042656420636F84
:101F80006F6C696E672E2E2E004265642068656155
:101F900074696E672E2E2E00205A3A0020593A009E
:101FA00020436F756E7420583A0020453A00205A3D
:101FB0003A0020593A00583A003A004361703A001A
:101FC00023646566696E652044454641554C545FFF
:101FD0004B64200023646566696E65204445464174
:101FE000554C545F4B69200023646566696E65201B
:101FF00044454641554C545F4B70200050494420A5
:102000004175746F74756E652066696E6973686575
:1020100064212050757420746865206C617374208D
:102020004B702C204B6920616E64204B6420636FE1
:102030006E7374616E74732066726F6D2062656C6E
:102040006F7720696E746F20436F6E666967757273
:102050006174696F6E2E680A00504944204175749E
:102060006F74756E65206661696C656421207469A2
:102070006D656F75740A00453120544845524D41D5
:102080004C2052554E4157415900546865726D615C
:102090006C2052756E617761790045312048656129
:1020A00074696E67206661696C6564004865617477
:1020B000696E67206661696C65640050494420411F
:1020C00075746F74756E65206661696C6564212036
:1020D00054656D706572617475726520746F6F20E0
:1020E000686967680A00204B643A2000204B693A0F
:1020F0002000204B703A20000A20436C6173736902
:102100006320504944200A002054753A2000204B97
:10211000753A2000206D61783A2000206D696E3A92
:10212000200020643A200020626961733A20005048
:102130004944204175746F74756E65206661696CE1
:102140006564212054656D706572617475726520D7
:10215000746F6F20686967680A00504944204175B0
:10216000746F74756E652073746172740A005049DF
:1021700044204175746F74756E65206661696C6585
:1021800064212042616420657874727564657220F0
:102190006E756D6265720A004F66660A004661647C
:1021A00065204865696768742000426564204C6555
:1021B00076656C696E6720004661696C65642074A1
:1021C0006F20656E61626C6520426564204C6576A7
:1021D000656C696E670A004D65736820426564200E
:1021E0004C6576656C20646174613A0A00486F6DD5
:1021F000652025732573257320666972737400202A
:1022000066697273740A005A0059005800486F6D6D
:102210006520004F666673657473206170706C6929
:102220006564004572723A20546F6F2066617221B6
:1022300000546F6F206661722066726F6D20726548
:10224000666572656E636520706F696E740A000062
:10225000002100240027002A000000220025002879
:10226000002B0000002000230026002900020202AB
:10227000020202020204040404040404040303032B
:102280000303030303010101010101010101020430
:102290000810204080010204081020408001020440
:1022A0000810204080804020100804020100000037
:1022B000010200090A0000000004030807000000F2
:1022C000000000000000000000000000004D32345B
:1022D000004D323320257300556E6B6E6F776E2084
:1022E000636F6D6D616E643A202200534420636118
:1022F0007264206F6B0A006F70656E526F6F74208E
:102300006661696C65640A00766F6C756D652E692F
:102310006E6974206661696C65640A0053442069C3
:102320006E6974206661696C0A00454550524F4DD4
:10233000206461746173697A65206572726F722EB0
:102340000A00290A002062797465733B2063726376
:10235000200053657474696E67732053746F7265DF
:1023600064202800290A002062797465733B206389
:10237000726320002073746F7265642073657474D7
:10238000696E67732072657472696576656420286A
:1023900000202863616C63756C6174656429210A8F
:1023A0000020213D2000454550524F4D20435243CF
:1023B000206D69736D61746368202D202873746FBC
:1023C0007265642920002053697A653A2000496EBD
:1023D0006465783A2000204D61726C696E3D563517
:1023E00035290A0028454550524F4D3D004545507E
:1023F000524F4D2076657273696F6E206D69736DF3
:10240000617463682000526573656E643A20006FE2
:102410006B0020746F6F206C6F6E6720657874722C
:102420007573696F6E2070726576656E7465640A87
:102430000020636F6C6420657874727573696F6EC9
:102440002070726576656E7465640A0062757379D2
:102450003A2070617573656420666F7220696E70D2
:1024600075740A00627573793A20706175736564DA
:1024700020666F7220757365720A00627573793A0F
:102480002070726F63657373696E670A004B494C05
:102490004C45442E20004B494C4C206361757365BC
:1024A0006420627920746F6F206D75636820696E97
:1024B0006163746976652074696D65202D2063758C
:1024C0007272656E7420636F6D6D616E643A200088
:1024D000506C656173652072657365740050524974
:1024E0004E5445522048414C544544005072696E48
:1024F0007465722068616C7465642E206B696C6C05
:1025000028292063616C6C6564210A00656E717511
:10251000657565696E6720220000000000000000FC
:1025200000000000000000A0410000A04100008069
:1025300040000000005761726E696E673A20486F74
:102540006D696E672042756D702044697669736F9E
:1025500072203C20310A000202040000A04000006A
:10256000A0400000004000006B4300006B430000EF
:102570007A43FFFFFF7C3C3E5E2B3D3F2F5B5D3B84
:102580002C2A225C004261627973746570205A00C3
:102590004261627973746570205A00466C6F7700EF
:1025A000466C6F770046616E207370656564004607
:1025B000616E207370656564004265640042656405
:1025C000004E6F7A7A6C65004E6F7A7A6C650042C5
:1025D0006564205A00426564205A00537065656442
:1025E000005370656564004D61696E0050726568E6
:1025F00065617420504C4120456E640050726568DE
:1026000065617420504C41204265640050726568D9
:1026100065617420504C41005072657061726500B4
:10262000507265686561742041425320456E6400B4
:1026300050726568656174204142532042656400B0
:102640005072656865617420414253005072657034
:10265000617265004261636B004E65787420636F40
:10266000726E657200436F6E74726F6C0046696CB7
:102670002E204469612E0046696C2E204469612E2B
:10268000004F6666004F6E20004520696E206D6D1C
:102690003300436F6E74726F6C0043616E6E6F74C3
:1026A00020656E746572207375626469723A2000E9
:1026B000022E2E000152656672657368004D6169D5
:1026C0006E004D61782054656D703A2031323500CE
:1026D0004D696E2054656D703A2035005442656432
:1026E0003A4550434F53203130304B004D617820F4
:1026F00054656D703A20323735004D696E2054654F
:102700006D703A20350054303A204550434F5320E5
:102710003130304B005053553A2047656E65726931
:10272000630050726F746F636F6C3A20312E30000B
:10273000426175643A20313135323030004D656C7C
:102740007A692028437265616C69747929004D6546
:102750007368204C6576656C696E670045787472A5
:1027600075646572733A203100687474703A2F2F63
:102770006D61726C696E66772E6F726700456E646C
:1027800065722D3300323031382D30372D33310022
:102790006275676669782D312E312E78004D617231
:1027A0006C696E00546865726D6973746F72730042
:1027B000426F61726420496E666F005072696E7478
:1027C000657220496E666F004D61696E00486172E6
:1027D00064636F6465642044656661756C7420533E
:1027E000657474696E6773204C6F616465640A0078
:1027F000F4010000F40100006400000088130000F0
:102800000000FA430000FA430000A0400000C84165
:102810000000A0420000A0420000C8430000BA42ED
:1028200020286D6D290020440020490020204D33D0
:1028300030312050005049442073657474696E67CC
:10284000733A0A0020460020420020480020204D14
:102850003134352053004D6174657269616C2068B4
:10286000656174757020706172616D6574657273F5
:102870003A0A00205A0020590020204732392053BC
:1028800033205800205A0020204D3432302053008D
:102890004D65736820426564204C6576656C696E91
:1028A000673A0A00205A0020590020204D32303665
:1028B000205800486F6D65206F66667365743A0A2C
:1028C00000204500205A00205900205800205400C4
:1028D00020530020204D32303520510020453C6DE2
:1028E00061785F655F6A65726B3E0020583C6D6180
:1028F000785F785F6A65726B3E20593C6D61785FE6
:10290000795F6A65726B3E205A3C6D61785F7A5FD1
:102910006A65726B3E00416476616E6365643A205D
:10292000513C6D696E5F7365676D656E745F746948
:102930006D655F75733E20533C6D696E5F666565BE
:1029400064726174653E20543C6D696E5F7472619F
:1029500076656C5F66656564726174653E002054DF
:102960000020520020204D3230342050004163635B
:10297000656C65726174696F6E2028756E69747319
:102980002F7332293A20503C7072696E745F616314
:1029900063656C3E20523C726574726163745F6162
:1029A0006363656C3E20543C74726176656C5F6154
:1029B0006363656C3E0A00204500205A00205900E0
:1029C00020204D3230312058004D6178696D756D91
:1029D00020416363656C65726174696F6E20287550
:1029E0006E6974732F7332293A0A00204500205A09
:1029F0000020590020204D3230332058004D61789E
:102A0000696D756D206665656472617465732028F3
:102A1000756E6974732F73293A0A00204500205A95
:102A20000020590020204D39322058005374657021
:102A3000732070657220756E69743A0A0020204D0B
:102A40003230302044300A0020204D3230302044D3
:102A5000002044697361626C65640A0046696C61B8
:102A60006D656E742073657474696E67733A0020C7
:102A7000204D3134392043203B20556E697473203A
:102A8000696E2043656C736975730A0020204732B4
:102A900031202020203B0000060900FE000000003D
:102AA0000001090008FE000005080806000040F0CB
:102AB000C88888987810050808060000C0F888883B
:102AC000888888F80505050600012030F8302005C3
:102AD00008080600002070F820202020E0050909E1
:102AE0000600FF2070A8A8B888887020050909068C
:102AF00000FFE080C0B0A82830282805090906009A
:102B0000FFF8A88888888888A8F8050A0A0600FEC1
:102B1000205050505088A8A8887003030306000373
:102B200040A0404572726F722077726974696E6757
:102B300020746F20454550524F4D210A00486F6D5B
:102B4000696E67206661696C656400545249474745
:102B500045524544006F70656E003A20007A5F6D03
:102B6000696E00795F6D696E00785F6D696E005205
:102B700065706F7274696E6720656E6473746F70D0
:102B8000207374617475730A000A4D656173757200
:102B9000656420706F696E74733A0A005A206F661C
:102BA000667365743A20004E756D20582C593A2092
:102BB000332C330A00456E6465722D3320526561F3
:102BC00064792E005072696E74696E672E2E2E0025
:102BD0005072696E7420706175736564005072691B
:102BE0006E742061626F7274656400496E69742E40
:102BF0002053442063617264004D3231004E6F20D7
:102C000053442063617264004368616E67652053BA
:102C1000442063617264004D3231005072696E74F9
:102C20002066726F6D2053440053746F7020707271
:102C3000696E7400526573756D65207072696E748B
:102C40000041626F7574205072696E746572005035
:102C500061757365207072696E7400436F6E747273
:102C60006F6C00507265706172650054756E65001E
:102C7000496E666F2073637265656E00D4D800DF9D
:102C800011241FBECFEFD0E4DEBFCDBF12E0A0E025
:102C9000B1E0ECE9F5ED01E00BBF02C007900D9249
:102CA000A834B107D9F723E1A8E4B2E001C01D922E
:102CB000A636B207E1F716E1CFE3D6E104C02197CB
:102CC000FE010E9419EACE33D107C9F70E94C1D98B
:102CD0000C94C1EA0C9400002F923F924F925F92A5
:102CE0006F927F928F929F92AF92BF92CF92DF921C
:102CF000EF92FF920F931F93CF93DF93CDB7DEB781
:102D0000A5970FB6F894DEBF0FBECDBF21E020938C
:102D1000950D80915F138D3409F450C4843511F4FE
:102D20000C947F29873411F00C94CB2980915D138A
:102D300090915E138D31910509F4F0C084F48430D4
:102D4000910509F4ADC01CF4029768F133C44C97A7
:102D500009F030C480E00E9401330C94CD298A35FB
:102D6000910509F46AC324F48A9709F4E6C222C4DF
:102D70008B35910509F465C38C35910509F01AC4AA
:102D80002CE5222E21E0322E33EAE32E3DE0F32E15
:102D900045EF5BE05DA34CA34BE2C42E46E0D42E8E
:102DA00000E010E08EC380912501882311F40C947B
:102DB000CD298CE5882E81E0982E9FEAE92E9DE0B2
:102DC000F92E05EF1BE02BE2A22E26E0B22E39E40D
:102DD000C32E32E0D32E712CF40181914F010E9459
:102DE0009B32882311F10E946832F6012081211163
:102DF00004C020914D02222341F0F801208131814D
:102E0000428153810E94B7E70AC0F3E07F1639F090
:102E1000F50120813181428153810E94B6E7F7019B
:102E200060837183828393830AC0F80180819181DA
:102E3000A281B381F70180839183A283B3837394CA
:102E4000F4E0EF0EF11C0C5F1F4F24E0A20EB11C4A
:102E50003FEFC31AD30A44E07412BECF86E40E9447
:102E6000E4328823C9F00E94683220E030E0A901F2
:102E70000E943AE9181684F40E94683220E030E09B
:102E800040E752E40E943AE860934701709348019A
:102E90008093490190934A010E94ABA70C94CD29DD
:102EA00080E50E94E432882329F00E9424326B01DD
:102EB0007C0103C0C12CD12C760183E50E94E43251
:102EC000882361F00E94683220E030E04AE754E451
:102ED0000E94D9E30E94B3E86B017C010E940F615C
:102EE0008091B10B811105C060E08DE791E00E94F7
:102EF000ED7C0E943A69C60ED71EE81EF91E0E949C
:102F00003A69DC01CB018C199D09AE09BF09B7FDF7
:102F100002C00C94CD290E94F2A4F1CF83E50E9457
:102F2000E432882399F00E944432182F863080F0D2
:102F3000E6E3F2E084918F010F5F1F4F882311F4C5
:102F40000C94CD290E94F134F801F4CF10E010C0A8
:102F5000833009F452C130F4813081F1823009F4B8
:102F600041C006C0843009F4B6C1853009F4C3C13C
:102F70000E94062E811103C0E6E1F2E013C08091A9
:102F80002A06882319F06AE172E002C06EE172E05D
:102F90008EE092E00E9402D58AE00E94F1340E9405
:102FA00054D0AFC184917F015FEFE51AF50A882301
:102FB00009F4A7C10E94F134F701F4CF0E9407D1B0
:102FC00010920101109200018091200681110AC027
:102FD00083E092E09093A1098093A0090E94B83009
:102FE0000C94CD29809100019091010197FF0EC0B2
:102FF000EAEDF1E084918F010F5F1F4F882311F4F8
:103000000C94CD290E94F134F801F4CF0097A1F47B
:1030100080910E018093480219821A821B821C82C1
:1030200018A219A21AA21BA2BE016F5F7F4FCE0188
:1030300080960E94F8942BC0815063E00E94C4E9FE
:1030400080FF03C022E0291B922F292F990F330BF9
:10305000F901EE0FFF1FE20FF31FE80FF11D87FDCF
:10306000FA95EE0FFF1FEE0FFF1FED5EF14F8091FF
:10307000FD0B9091FE0BA091FF0BB091000C808393
:103080009183A283B3838091480280930E01809143
:10309000000190910101893091050CF067C01092F8
:1030A0000E019C012F5F3F4F3093010120930001DF
:1030B00063E00E94C4E980FF03C022E0291B922F35
:1030C0004091FD0B5091FE0B6091FF0B7091000C35
:1030D00048A359A36AA37BA319821A821B821C826C
:1030E00064E0860290011124F901E55CFC4F4F0178
:1030F0002081318142815381F4E09F02C00111247B
:10310000BC01695B7C4F5B01FB0160817181828145
:103110009381FE0131966F01E12CF12C00EA10E45D
:103120000E94722F19821A821B821C82B601CE0164
:1031300080960E94F894F50180819181A281B381EB
:103140008093F50B9093F60BA093F70BB093F80BCD
:10315000F40180819181A281B3818093F90B9093D6
:10316000FA0BA093FB0BB093FC0B44C080E090E003
:10317000A0EAB0E48093FD0B9093FE0BA093FF0BAD
:10318000B093000C0E941B2F0E940F618FEF9FEFE6
:103190009093010180930001E6ECF1E084918F01AE
:1031A0000F5F1F4F882321F00E94F134F801F6CF02
:1031B00083E992E09A83898304E610E019A308A3C7
:1031C000BE016F5F7F4FCE0180960E94FB3C8AEB71
:1031D00092E09A83898319A308A3BE016F5F7F4F92
:1031E000CE0180960E94FB3C81E00E94013381E089
:1031F0000E94332E1092200686C088E50E94E43299
:103200008823D1F00E9434321FEF160F1330D8F00C
:1032100063E070E083EB91E00E94E9D4E0EBF1E041
:1032200084918F010F5F1F4F882311F40C94CD29D7
:103230000E94F134F801F4CF88E50E94F1340E9435
:10324000C4D80C94CD2989E50E94E4328823D1F0BA
:103250000E9434320FEF060F0330D8F063E070E0C5
:103260008DE991E00E94E9D4EAE9F1E084918F01CF
:103270000F5F1F4F882311F40C94CD290E94F13465
:10328000F801F4CF89E50E94F1340E94C4D80C946F
:10329000CD298AE50E94E4328823B1F00E94683289
:1032A000212F30E0F901EE0FFF1FE20FF31FE00FB7
:1032B000F11DEE0FFF1FEE0FFF1FED5EF14F60835C
:1032C00071838283938335C08AE50E94F1340E9422
:1032D000C4D80C94CD298AE50E94E4328823A1F356
:1032E0000E9468326093220670932306809324061E
:1032F000909325061EC080E00E94332E0E9407D1C5
:1033000018C01230B1F46091000170910101693070
:10331000710514F069E070E08BE891E00E94E9D457
:1033200069E070E086E891E00E94E9D48AE00E94BA
:10333000F1340E94958C0C94CD298091250188232D
:1033400011F40C94CD2989E40E94E432E82E8823FC
:1033500021F00E943432062F01C000E08AE40E946E
:10336000E432F82E882321F00E943432162F01C057
:1033700010E0EE2011F0033020F4FF2081F0133034
:1033800070F0EDE4F2E084918F010F5F1F4F88230E
:1033900011F40C94CD290E94F134F801F4CF0E946D
:1033A000F732EE2091F024E00202F0011124E95BF3
:1033B000FC4F80819181A281B3818093AF0D909366
:1033C000B00DA093B10DB093B20DFF2091F034E099
:1033D0001302F0011124E55CFC4F80819181A281F0
:1033E000B3818093B30D9093B40DA093B50DB093BA
:1033F000B60D80E50E94E432882319F00E9458320D
:1034000003C080E50E949B3286E40E94E432882358
:1034100009F442CD0E9468326B017C0120E030E06B
:10342000A9010E943AE918160CF036CD20E030E0F0
:1034300040E752E4C701B60125CD10924D020C942D
:10344000CD2920934D020C94CD290E9468322B0186
:103450003C01133049F0F6012081318142815381D2
:103460000E94B6E72B013C01ECA1FDA12081318136
:1034700042815381C301B2010E94B6E74B015C0156
:103480002DEB37E346E855EB0E943AE987FD21C072
:103490002DEB37E346E855E3C501B4010E9473E321
:1034A0001816BCF01F5FF4E0EF0EF11C2CA13DA13B
:1034B0002C5F3F4F3DA32CA334E0C30ED11C14302E
:1034C00031F1F10181911F010E94E432882351F30F
:1034D000BCCF133051F44092010C5092020C609218
:1034E000030C7092040C01E0DDCFA5019401F701FB
:1034F00060817181828193810E94B7E7F7016083C7
:10350000718382839383812F0E946430CBCF002309
:1035100009F40FCF20E030E0A9016091010C709117
:10352000020C8091030C9091040C0E94B7E720914B
:10353000690E30916A0E40916B0E50916C0E0E9494
:10354000D9E30E943FE96093370370933803809377
:10355000390390933A0390911503809116039817BD
:1035600019F00E94B160E5CE0E940F6180916F005A
:10357000982F927081FF05C080916F008D7F80939E
:103580006F00409137035091380360913903709177
:103590003A034093D4085093D5086093D6087093AB
:1035A000D708992309F4C5CE80916F00826080937B
:1035B0006F00BFCE0E944A950C94CD2980915D1377
:1035C00090915E138337910509F4D3C10CF0C2C00A
:1035D0008B34910509F41EC50CF067C08831910544
:1035E00009F49AC2ACF58231910509F4A3C6BCF482
:1035F00097FF02C00C947C29823091050CF4BCC169
:10360000419711F00C947C2960E08FE792E00E94D2
:10361000ED7C5E985E9815985E980C94CD29853166
:10362000910509F45EC23CF4449711F00C947C2996
:10363000E7E9F2E018C28631910509F456C24797CE
:1036400011F00C947C29E0915B13F0915C1357C24C
:103650008D31910511F40C94CD29C4F48A31910572
:1036600009F469C20CF461C28B31910509F471C28D
:103670004C9711F00C947C2940E060E080915B1342
:1036800090915C130E94F43F0C94CD298F319105E9
:1036900009F4D5C30CF4F5C28032910509F483C353
:1036A0008A9709F482C40C947C298936910509F41F
:1036B00087C544F58335910509F438C69CF48D34EB
:1036C000910509F4AFC40CF4A9C48135910509F43E
:1036D00007C68235910511F00C947C2910924C029A
:1036E0000C94CD298535910509F459C60CF422C6F0
:1036F0008C35910509F46EC68836910509F496C497
:103700000C947C298E36910509F4BBC49CF48B364D
:10371000910509F4D3C50CF4B3C58C36910509F4B1
:1037200016C58D36910511F00C947C290E946B38DA
:103730000C94CD298037910509F40DC50CF4B4C45F
:103740008137910509F40FC58237910509F4CAC67E
:103750000C947C29823241E0940711F40C940727E1
:103760000CF07EC0883C910511F40C94E723C4F55D
:103770008937910509F4AEC7DCF48637910509F461
:103780005AC734F48537910509F446C70C947C294F
:103790008737910509F49BC78837910511F00C9480
:1037A0007C2981E080931907809318070C94CD2918
:1037B0008139910509F493C734F48C38910509F4E3
:1037C00041C50C947C298B39910509F414C58E3BB5
:1037D000910511F00C947C290E94B9900C94CD298C
:1037E0008E3C910511F40C945F25FCF48B3C910503
:1037F00011F40C9450246CF4893C910511F00C9454
:103800007C297CE5E72E71E0F72E0DE41EE00C9498
:1038100037248C3C910511F40C946B248D3C91055C
:1038200011F40C94E0240C947C298C3D910511F446
:103830000C9463264CF4833D910511F00C947C2983
:10384000E5ECF9E00C9484258D3D910511F40C9480
:103850007026823E910511F40C94DD260C947C298F
:103860008C3A61E0960711F40C9481250CF03FC06E
:103870008336E1E09E0709F478C0ECF48D3221E054
:10388000920711F40C943B273CF48C32914011F4D4
:103890000C9412270C947C298E3251E0950711F478
:1038A0000C94DB278F32914011F00C947C290E94FC
:1038B0000F880C94CD298A3971E0970709F44FC419
:1038C0004CF48039914011F00C947C290E940F61D6
:1038D0000C94CD29843A21E0920711F40C944528E8
:1038E000853A914011F40C9448280C947C29883F27
:1038F00041E0940711F40C943B29ECF4853F61E01E
:10390000960711F40C9429294CF4843F914011F04E
:103910000C947C290E94E79E0C94CD29863FF1E00F
:103920009F0711F40C942C29873F914011F40C94BB
:103930002F290C947C298B3833E0930711F40C94D5
:10394000CD293CF48C30924011F40C945E290C94F7
:103950007C29803A63E0960709F464C2873E93406D
:1039600011F40C9467290C947C29E6E9F9E00C9495
:103970003228EDE6F4E0F5C5A0905B13B0905C133F
:1039800080E50E94E432882359F00E9424326B01C2
:103990007C0111E0672B682B692B31F410E004C027
:1039A00010E0C12CD12C760183E50E94E4328823FB
:1039B00011F40C94D2290E94683220E030E04AE7EA
:1039C00054E40E94D9E30E94B3E86B017C01111119
:1039D0000BC0672B682B692B39F4A114B10421F0BB
:1039E000F5018081811102C010E001C011E00E9448
:1039F0000F61112329F061E0C5010E94297D05C0F6
:103A000060E08CE692E00E94ED7C83E08093950D6F
:103A100081E080935A09C114D104E104F104B1F0AA
:103A20000E943A69C60ED71EE81EF91E0E943A6926
:103A3000DC01CB018C199D09AE09BF09B7FF0DC090
:103A400080915A0981110C94D72907C080915A0995
:103A5000882319F00E94F2A4F9CF0E9424D2109278
:103A60005A090C94CD2984918F010F5F1F4F882331
:103A700021F00E94F134F801F6CF109218068BEC79
:103A800093E00E9400AF8BE1EBECF3E0DE011596D2
:103A900001900D928A95E1F78091C9039091CA0334
:103AA0009C838B838AE691E09A83898340E050E08F
:103AB000BE016F5F7F4F80E090E00E942F3DCE01FE
:103AC00001960E9465A4E8E8F2E084918F010F5FFF
:103AD0001F4F882311F40C94CD290E94F134F80172
:103AE000F4CF0E943C970C94CD291092730310924E
:103AF00074030C94CD29803209F4108231968081B0
:103B00008111F9CF40E061E080915B1390915C13EB
:103B10000E94F43F0C94CD2980917403811120936D
:103B200073030E94F56E0C94CD29109273030E94CA
:103B3000196F0C94CD2980917403882311F40C948F
:103B4000CD2983E50E94E43281110C94DB290C9489
:103B5000CD2983E40E949B32882309F450C0E5ED0F
:103B6000F2E084918F010F5F1F4F882321F00E94A4
:103B7000F134F801F6CF80916605811103C0E8EABF
:103B8000F2E012C0BE016F5F7F4F83E695E00E94B6
:103B9000C7AD8E010F5F1F4FF80181918F01882300
:103BA00049F10E94F134F8CF84918F010F5F1F4FCC
:103BB000882301F10E94F134F801F6CF83E5C82E85
:103BC00083E0D82EE12CF12C20E08091CF0690E00C
:103BD0000E2C02C0959587950A94E2F780FD94C259
:103BE0003FEFE31AF30A42E0C40ED11C55E0E5169C
:103BF000F10459F78AE00E94F1340C94CD298091A8
:103C00007403882339F080917303882319F0E2EB61
:103C1000F2E003C0E4ECF2E028C084918F010F5F72
:103C20001F4F882321F00E94F134F801F6CF6091F4
:103C300014067091150680911606909117064AE0B9
:103C40000E94A0378FE20E94F134609110067091BB
:103C5000110680911206909113064AE00E94A03747
:103C60008AE00E94F1340C94CD2984918F010F5F7A
:103C70001F4F882311F40C94CD290E94F134F801D0
:103C8000F4CF80917403882311F40C94CD2983E63A
:103C900095E00E948BCA83E695E00E94A2AD109247
:103CA00072031092710380917403882311F40C94B1
:103CB000CD2900915B1310915C130E94BC3CB801AC
:103CC000CE0180960E94383F8C01892B11F40C9410
:103CD000CD2968A179A16115710511F06C5F7F4F45
:103CE00019821C8222E0A801CE0101960E9451B3E4
:103CF000811102C0F12C14C0CE0101960E942A3C11
:103D00008823C1F361E0CE0101960E94ABAD00971C
:103D100089F325EEFC0120831C820E9430C8F82E16
:103D2000CE0101960E94F132F11003C0E2EFF2E001
:103D300022C0E4EEF2E084917F012FEFE21AF20A52
:103D4000882321F00E94F134F701F5CFF801819129
:103D50008F01882319F00E94F134F8CF8AE00E9485
:103D6000F134109214061092150610921606109255
:103D700017060C94CD2984917F012FEFE21AF20AE5
:103D8000882321F00E94F134F701F5CFF8018191E9
:103D90008F01882319F00E94F134F8CF8EE20E943F
:103DA000F1340C94CD298091730381110E940F612D
:103DB00080917403882311F40C94CD2980E50E942E
:103DC000E432882319F00E94583203C080E50E9433
:103DD0009B32182F482F61E080915B1390915C1308
:103DE0000E94F43F83E50E94E432882381F00E9420
:103DF0003432AB01BC014093140650931506609316
:103E000016067093170683E695E00E94B8AC809181
:103E10007403882319F081E08093730311110C94CB
:103E2000CD297FCE80915B1390915C1321E020938C
:103E3000720340E060E00E94F43F0C94CD290E94A0
:103E4000A66E7B018C0120E831E541E050E00E9444
:103E50007AE7C9016DE671E00E94D2E94B015C018D
:103E6000C801B70120E13EE040E050E00E947AE75F
:103E7000CA01B90128E130E040E050E00E947AE751
:103E8000762E672EC62ED72E9CE3292E312C412C60
:103E9000512CC801B701A20191010E947AE7F62EC8
:103EA000E72ECA01B901A20191010E947AE7CB0174
:103EB0008E010F5F1F4F8114910499F0EF92FF92D2
:103EC0007F936F936F927F92BF92AF929F928F92E8
:103ED00082E393E09F938F931F930F930E940BE3D2
:103EE00013C0A114B104B1F0EF92FF927F936F93CE
:103EF0006F927F92BF92AF9282E293E09F938F93F3
:103F00001F930F930E940BE30FB6F894DEBF0FBE12
:103F1000CDBF30C0CD2879F0EF92FF927F936F93A1
:103F20006F927F9286E193E09F938F931F930F93FD
:103F30000E940BE3E9CF892B69F0EF92FF927F9308
:103F40006F938EE093E09F938F931F930F930E9444
:103F50000BE3DACFEF92FF928AE093E09F938F9387
:103F60001F930F930E940BE30F900F900F900F90F1
:103F70000F900F9060E0C8010E94297DE5ECF9E008
:103F800084917F019FEFE91AF90A882321F00E94AA
:103F9000F134F701F5CFB80186E493E00E9402D531
:103FA0008AE00E94F1340C94CD2983E50E94E4322A
:103FB000882311F40C94CD290E944432E82E80E528
:103FC0000E94E432882311F40C94CD290E944432DB
:103FD000182F87FF02C00C94CD2989E40E94E43297
:103FE000882341F00E94583281110C94762AE5EE24
:103FF000F5E00BC089E40E949B32F6CF319626E0B3
:10400000E231F20711F40C94762A84911813F6CF5A
:104010000C94102A0E94F56E0C94CD290E94196F01
:104020000C94CD290E942E6F0C94CD2988E690E047
:104030000E940D3881110C94CD298091CF0683FF09
:1040400002C00C94CD2983E50E94E4328823A9F0B4
:104050000E9468320E94ACE8CB010E94887C0E94DA
:10406000683220E030E04AEA52E40E9473E3181616
:1040700024F00E942E6F0E9424D20E944DD50C94F1
:10408000CD298EE40E94E432882311F40C94CD29CA
:104090000E9434326093CE027093CF028093D0029C
:1040A0009093D1020C94CD2983E50E949B32882302
:1040B00059F083E50E94E432882319F00E944432CB
:1040C00001C080E08093CF06E5ECF9E084918F0198
:1040D0000F5F1F4F811103C0E1E6F3E004C00E94AF
:1040E000F134F801F3CF84918F010F5F1F4F8823C4
:1040F00021F00E94F134F801F6CF8091CF068111B2
:104100005DCDEDE5F3E018C0BB24B394B20E2223DD
:1041100019F08CE20E94F134F60185919491FC0132
:1041200084918F010F5F1F4F882321F00E94F1348B
:10413000F801F6CF2B2D54CD84918F010F5F1F4FC7
:10414000882309F457CD0E94F134F801F5CF10927D
:104150001B010C94CD2988E693E00E9481A40E9463
:10416000CE870C94CD2983E50E94E432811103C0EF
:10417000E5ECF9E00DC00E9444328D3320F48093C9
:104180004B010C94CD298CE380934B010C94CD29E9
:1041900084918F010F5F1F4F882321F00E94F1341B
:1041A000F801F6CF40914B0150E060E070E081E70C
:1041B00093E00E94AFD48AE00E94F1340C94CD29A0
:1041C00089E690E00E940D38811111C0E8E7F3E024
:1041D00084918F010F5F1F4F882321F00E94F134DB
:1041E000F801F6CF0E940C648AE00E94F13410922C
:1041F000950D0C948B2A83E50E94E432882311F4F8
:104200000C94CD290E944432182F8D3308F01CE302
:104210001093A20D0E943A696B017C01212F30E0BE
:10422000A8EEB3E00E94A7E7C60ED71EE81EF91E4F
:10423000C0929E0DD0929F0DE092A00DF092A10D24
:104240000C94CD298091CF0683FF02C00C94CD2918
:1042500083E50E94E432882311F40C94CD290E9456
:1042600068320E94ACE86E36710514F06EE670E0BC
:1042700070939D0960939C090E9441670C94CD291D
:1042800080E50E94E432811106C083E50E94E43299
:10429000882361F006C00E94443281110C94CD291C
:1042A000F4CF0E9434326F3F710510F06FEF70E071
:1042B00070939F0960939E090C94CD2980E50E941C
:1042C000E432811106C010929F0910929E090C944D
:1042D000CD290E943432672B11F00C94CD29F3CFF5
:1042E0000E948D670E944C6110929F0910929E0956
:1042F00000E010E062E370E080E090E00E94F2985D
:104300000E94296C0F5F1F4F0331110599F762E37B
:1043100070E080E090E00E94F2980E94296C60E0DA
:104320008BE793E00E94ED7C0C94CD2920934C0206
:104330000C94CD2983E50E94E4328823A1F00E94E9
:10434000683220E030E04AE754E40E94D9E30E945A
:10435000B3E860934C0170934D0180934E019093AC
:104360004F010C94CD2988E50E949B3281110C9459
:10437000EC2989E50E949B3281110C94EC298AE595
:104380000E949B3281110C94EC2985E40E949B329F
:1043900081110C94EC290E944C610C94CD2983E589
:1043A0000E949B32882311F40C94CD290E9468321C
:1043B00020E030E04AE754E40E94D9E30E94B3E8E9
:1043C00060939A0D70939B0D80939C0D90939D0D1F
:1043D0000C94CD291CE5C12E11E0D12E0DE5E02E67
:1043E0000EE0F02E10E0F60181916F010E949B32E9
:1043F000882309F46DC0133009F063C00E9468324D
:104400004B015C0120E030E040EA51E40E9473E39C
:1044100087FF4EC0A50194016091690E70916A0EEC
:1044200080916B0E90916C0E0E943AE82B013C013A
:104430009B01AC016091A2067091A3068091A40635
:104440009091A5060E94D9E36093A2067093A306FB
:104450008093A4069093A506A30192016091BE06E5
:104460007091BF068091C0069091C1060E94D9E369
:104470006093BE067093BF068093C0069093C106FA
:104480006091490E70914A0E80914B0E90914C0EA6
:104490000E9478E3A30192010E94D9E30E94B3E84D
:1044A0006093490E70934A0E80934B0E90934C0E7E
:1044B0008092690E90926A0EA0926B0EB0926C0E72
:1044C00007C00E946832F7016083718382839383FF
:1044D0001F5FF4E0EF0EF11C143009F084CF0E944E
:1044E000B2D65BC70E940F6183E50E94E432882345
:1044F00011F40C9499190E9434326230710511F054
:104500000C9499190E943CAC8BE50E94F1346091A7
:10451000890D70918A0D80918B0D90918C0D42E0E8
:104520000E945A3A40918D0D50918E0D60918F0DE1
:104530007091900D8BE893E00E94CCD44091910D46
:104540005091920D6091930D7091940D88E893E0D5
:104550000E94CCD48DE50E94F1348AE00E94F134AF
:104560001CC784918F010F5F1F4F882321F00E9489
:10457000F134F801F6CF60E08DE594E00E945E8CA6
:1045800061E086E594E00E945E8C61E08BE494E05B
:104590000E945E8C61E08BE394E00E945E8C60E0A0
:1045A00082E394E00E945E8C61E088E294E00E94E5
:1045B0005E8C60E08EE194E00E945E8C60E086E1BB
:1045C00094E00E945E8C61E088E094E00E945E8C42
:1045D00060E08AEF93E00E945E8C60E08BEE93E0F7
:1045E0000E945E8C60E08DED93E00E945E8C60E046
:1045F00087EC93E00E945E8C60E086EB93E00E9483
:104600005E8C60E081EA93E00E945E8C61E08EE85F
:1046100093E00E945E8CC1C680915B1390915C1305
:10462000FC012081222321F060E00E94297DB5C693
:104630000E9424D2B2C600915B1310915C1383E0F8
:10464000D12C40E08150E1F0F8019081292F2B7F9F
:104650002134C1F721812133A9F7913421F0953418
:1046600021F441E002C0DD24D39498012E5F3F4F36
:1046700089012F5F3F4FF80190819032C9F3E2CF5B
:10468000442369F0E5ECF9E084917F012FEFE21A11
:10469000F20A882321F00E94F134F701F5CFDD20E2
:1046A00069F0E7E3F5E084917F013FEFE31AF30A55
:1046B000882321F00E94F134F701F5CFF8018191B0
:1046C0008F01882309F496CA0E94F134F7CF0E9423
:1046D0006FD163C610921907109218075EC683E562
:1046E0000E94E432882319F00E94343202C060E054
:1046F00070E08B01112702301105D4F0E6E9F9E0F2
:1047000084918F010F5F1F4F811103C0EBE3F5E030
:1047100004C00E94F134F801F3CF84918F010F5F40
:104720001F4F882309F439C60E94F134F801F5CFF0
:1047300088E40E94E4328823A9F00E9434326A3A65
:1047400071053CF06530F1E07F072CF064E071E02A
:1047500002C06AEA70E0F801EE0FFF1FE351F24F6A
:104760007183608386E40E94E4328823A9F00E946A
:104770003432F801EE0FFF1FEB50F24F718360836C
:104780006F3F710519F014F06FEF70E077FF02C012
:1047900060E070E07183608382E40E94E4328823E9
:1047A00009F4FBC50E9434326530710534F06F3670
:1047B00071052CF06EE670E002C065E070E0000F5D
:1047C000111FF801EF50F24F71836083E6C588EC4A
:1047D00090E00E940D388111E0C584E40E949B3274
:1047E000882309F441C00E9468326B017C0111E00A
:1047F00020E030E0A9010E9473E3811101C010E0C4
:104800001093010E20E030E0A901C701B6010E941B
:1048100073E3882349F10E946832E091E50624E0C1
:10482000E29FF0011124E350F24F60837183828391
:10483000938320E030E0A9016091FD0D7091FE0DA1
:104840008091FF0D9091000E0E9473E381110CC0C6
:1048500080E090E0A0EEBFE38093FD0D9093FE0D0D
:10486000A093FF0DB093000E0E94075396C5F70169
:1048700081917F010E949B32882349F00E94683217
:104880000E94B3E8F80160837183828393830C5F95
:104890001F4FFEE00D351F0751F70E947DD57DC5E6
:1048A0006CE5E62E61E0F62E02EB16E0F701819151
:1048B0007F010E949B32882339F00E946832F80100
:1048C00060837183828393830C5F1F4FF6E0023C09
:1048D0001F0761F762C583E50E94E4328823A1F0D7
:1048E0000E9468326093AA067093AB068093AC0670
:1048F0009093AD066093A6067093A7068093A806D2
:104900009093A90610E001C011E080E50E94E43216
:10491000882359F00E9468326093AA067093AB0610
:104920008093AC069093AD0610E082E50E94E432DD
:10493000882359F00E9468326093AE067093AF06E8
:104940008093B0069093B10610E084E50E94E432B3
:10495000882359F00E9468326093A6067093A706D8
:104960008093A8069093A90618C5112309F415C5CC
:104970004091AA065091AB066091AC067091AD06CD
:1049800083E695E00E94CCD44091AE065091AF06EC
:104990006091B0067091B10680E695E00E94CCD49B
:1049A0004091A6065091A7066091A8067091A906AD
:1049B0008DE595E00E94CCD48AE00E94F134EDC4EC
:1049C00081E50E949B32882351F00E94243260933B
:1049D000C2067093C3068093C4069093C50683E510
:1049E0000E949B32882351F00E9468326093CA066D
:1049F0007093CB068093CC069093CD0684E50E94FD
:104A00009B32882351F00E9468326093C6067093EF
:104A1000C7068093C8069093C90688E50E949B321A
:104A2000882351F00E94683260939606709397062F
:104A3000809398069093990689E50E949B3288237B
:104A400051F00E94683260939A0670939B0680939F
:104A50009C0690939D068AE50E949B328823F1F084
:104A60000E94683260939E0670939F068093A00612
:104A70009093A1062DEC3CEC4CEC5DE30E9473E3BB
:104A8000181664F0E3E7F5E084918F010F5F1F4F84
:104A9000882321F00E94F134F801F6CF85E40E94CA
:104AA0009B32882309F479C40E9468326093A2067D
:104AB0007093A3068093A4069093A5066EC44CE55C
:104AC000C42E41E0D42E5BE1E52E57E0F52E10E038
:104AD000F60181916F010E949B32882351F00E9460
:104AE0006832F7016083718382839383812F0E94F0
:104AF00064301F5FF4E0EF0EF11C133049F70C94A3
:104B000099190E945F8D49C484918F010F5F1F4FD7
:104B1000882321F00E94F134F801F6CF83E50E944A
:104B20009B32882321F00E94583280930E01EDECD5
:104B3000F5E084918F010F5F1F4F882321F00E94C1
:104B4000F134F801F6CF80910E01882319F0E5ECDD
:104B5000F5E002C0E9ECF5E084918F010F5F1F4F93
:104B6000811103C0EDEBF5E004C00E94F134F801BF
:104B7000F3CF84918F010F5F1F4F882321F00E9494
:104B8000F134F801F6CF20912B0630912C0640919C
:104B90002D0650912E06609137067091380680914F
:104BA000390690913A060E94B7E7AB01BC018BEB46
:104BB00095E00E94CCD420912F0630913006409190
:104BC00031065091320660913B0670913C0680910F
:104BD0003D0690913E060E94B7E7AB01BC0188EB11
:104BE00095E00E94CCD42091330630913406409158
:104BF00035065091360660913F06709140068091CF
:104C00004106909142060E94B7E7AB01BC0185EBDB
:104C100095E00E94CCD4EDEAF5E084918F010F5F1E
:104C20001F4F882321F00E94F134F801F6CF209124
:104C30002B0630912C0640912D0650912E06609146
:104C400002017091030180910401909105010E947D
:104C5000B7E7AB01BC018BEA95E00E94CCD4209170
:104C60002F06309130064091310650913206609106
:104C700006017091070180910801909109010E943D
:104C8000B7E7AB01BC0188EA95E00E94CCD4209143
:104C900033063091340640913506509136066091C6
:104CA0000A0170910B0180910C0190910D010E94FD
:104CB000B7E7AB01BC0185EA95E00E94CCD48AE05D
:104CC0000E94F1346AC383E50E94E432882309F428
:104CD00064C30E94343270935701609356015DC3E0
:104CE0008DED90E00E940D38811157C383E50E943D
:104CF000E432811103C0E5ECF9E039C00091E5062A
:104D000010E00E943432000F111FF801EC5AFE4FE0
:104D1000718360838091E50690E07C01EE0CFF1CBE
:104D2000EE0CFF1C8701005B1E4F880F991FFC01D2
:104D3000EC5AFE4F60817181072E000C880B990B95
:104D40000E947AE32AE037ED43E25CE30E94D9E374
:104D5000F701E751F24F20813181428153810E9456
:104D6000D9E3F801608371838283938316C38491AE
:104D70008F010F5F1F4F882321F00E94F134F8014B
:104D8000F6CF85E40E94F1348091E506805D0E94B3
:104D9000F134E091E506F0E0EE0FFF1FEC5AFE4F14
:104DA000608171818DED95E00E94E9D485E20E94D9
:104DB000F1348AE00E94F134F0C280E50E949B3217
:104DC000882309F4EAC20E9434326B017C0183E536
:104DD0000E94E432882321F00E9434328B0102C009
:104DE0000FEF1FEFC8010196039708F0D6C2D7FC5A
:104DF000D4C22C2DE5EEF5E082E196E03491231744
:104E000009F40EC331968E179F07C1F70CC38AE5CC
:104E10000E94E43281112FC383E50E94E4328111A4
:104E20002AC3BBC283E50E94E432882319F00E94A2
:104E3000343202C064E071E079A368A380E50E9487
:104E4000E432882339F00E9434326938F3E17F0775
:104E500030F402C068EE73E07A83698304C088E8A6
:104E600093E19A838983BE01605E7F4FCE010196F4
:104E70000E94FB3C92C285E40E94E432811110C082
:104E800080E50E949B32882391F00E9468326093F3
:104E9000700970937109809372099093730907C028
:104EA0000E944432882361F3E6E9F9E071C089E4A5
:104EB0000E949B32882381F00E9468322CEA35ECF4
:104EC00047E25EE30E94D9E3609378097093790921
:104ED00080937A0990937B0984E40E949B32882313
:104EE00081F00E9468322CEA35EC47E25EE30E94D2
:104EF0003AE86093740970937509809376099093EA
:104F00007709E5ECF9E084918F010F5F1F4F88234B
:104F100021F00E94F134F801F6CF409170095091D0
:104F2000710960917209709173098AE196E00E949B
:104F3000CCD42CEA35EC47E25EE3609178097091BD
:104F4000790980917A0990917B090E943AE8AB0136
:104F5000BC0186E196E00E94CCD42CEA35EC47E215
:104F60005EE3609174097091750980917609909162
:104F700077090E94D9E3AB01BC0182E196E00E946F
:104F8000CCD48AE00E94F13408C20E94F134F801C6
:104F900084918F010F5F1F4F8111F7CFEEE1F6E093
:104FA00084918F010F5F1F4F882309F4F6C10E947F
:104FB000F134F801F5CF83E50E949B32182F882346
:104FC00071F00E9468320E94ACE870931001609307
:104FD0000F0121E0672B09F020E02093CE0680E549
:104FE0000E949B32882359F020910F0130911001CB
:104FF000232B11F00E9458328093CE06CEC111119E
:10500000CCC1E5ECF9E084918F010F5F1F4F88233D
:1050100021F00E94F134F801F6CF8091CE0688236A
:1050200019F062E272E002C065E272E085E496E0A7
:105030000E9402D560910F017091100184E396E007
:105040000E94E9D4E0E3F6E084918F010F5F1F4FE7
:10505000882309F4A2C10E94F134F801F5CF0E941F
:10506000F134F80184918F010F5F1F4F8111F7CF49
:10507000E8E5F6E084918F010F5F1F4F882309F464
:105080008CC10E94F134F801F5CF0E94EB8E85C1EE
:1050900088E50E949B32D82E89E40E949B32C82E5C
:1050A000882319F00E9434321DC0DD20C1F00E9417
:1050B000683220E030E040E251E40E94B6E720E0B0
:1050C00030E046E552E40E94B7E72AE13FE149E1DA
:1050D0005CE30E94D9E30E94ACE8633018F0AA2494
:1050E000AA9401C0A62E89E50E949B32F82E8AE47C
:1050F0000E949B32182F882319F00E9434321DC061
:10510000FF20C1F00E94683220E030E040E251E42C
:105110000E94B6E720E030E046E552E40E94B7E79F
:105120002AE13FE149E15CE30E94D9E30E94ACE857
:10513000633018F0BB24BA9401C0B62E8AE50E94F1
:105140009B32E82E811105C081E50E949B32082F19
:1051500001C000E0C11001C010E0212F30E0D110EB
:1051600002C080E001C08F2D280F311D2130310594
:1051700021F4E1101CC001111AC0E6E9F9E08491A4
:105180008F010F5F1F4F811103C0E6E8F6E004C0F6
:105190000E94F134F801F3CF84918F010F5F1F4F0C
:1051A000882309F4FAC00E94F134F801F5CFA7FC76
:1051B00002C0B7FE1AC0E6E9F9E084918F010F5FE3
:1051C0001F4F811103C0E7E6F6E004C00E94F134EE
:1051D000F801F3CF84918F010F5F1F4F882309F4EB
:1051E000DCC00E94F134F801F5CF0E946832EA2C4D
:1051F000AA0CFF08AB2DBB0CBB0B002391F0F701F1
:10520000EE0FFF1FEE0DFF1DEA0FFB1FEE0FFF1F3E
:10521000EE0FFF1FED5EF14F2081318142815381FE
:1052200003C020E030E0A9018701000F111F0E0D1F
:105230001F1D0A0F1B1F000F111F000F111F0D5EF6
:10524000114F0E94B7E7F8016083718382839383D3
:10525000A4C00E9430C4A1C00E9414C39EC083E5B4
:105260000E949B32882321F00E94583291E08927C6
:105270000E94C6BE92C02093060E0E944D991092C5
:10528000060E882309F489C0E5ECF9E084918F01CA
:105290000F5F1F4F811103C0E6EAF6E004C00E94D1
:1052A000F134F801F3CF84918F010F5F1F4F8823F2
:1052B00009F473C00E94F134F801F5CF80917303B3
:1052C000882309F46AC081E08093760366C081E098
:1052D000809325011092F40B83E50E94E432882329
:1052E00039F00E945832811158C00E9475AC55C0E7
:1052F00083E50E949B32F7CF0E944A954EC0F09002
:105300005D130E940F6110912A0680E00E94332EE7
:10531000FF2029F1E5ECF9E084918F010F5F1F4F29
:10532000882321F00E94F134F801F6CF84E50E9431
:10533000F1346F2D70E080E090E04AE00E94A037E9
:1053400080E20E94F134E3ECF6E084918F010F5F7C
:105350001F4F882311F10E94F134F801F6CF10920B
:105360004709812F0E94332EE5ECF9E084918F01EB
:105370000F5F1F4F882321F00E94F134F801F6CF10
:105380006091470970E081EB96E00E94E9D48AE0E1
:105390000E94F13402C00E944A951092950D0E941D
:1053A00058ACB9C011110C94F41C0C94ED1C0E9463
:1053B000F2A40C94161D0E943432AB01BC01409340
:1053C000140650931506609316067093170683E62D
:1053D00095E00E94B8ACE1CF0E940F6188E50E9481
:1053E0009B32882331F05E9A80911A078E7F8093DA
:1053F0001A0789E50E949B32882331F05E9A8091DA
:105400001A078D7F80931A078AE50E949B328823B2
:1054100021F2159A80911A078B7F80931A07BDCFCE
:105420000E94A9D8BACF0E940F61BC2C60E08C2DDD
:105430000E9400970F3FFFEF1F0759F48C2D0E9429
:10544000A89631E020E0892B09F030E0032F122FDD
:1054500005C00130110561F401E010E08B2D0E94C0
:10546000A8968017910709F498CF0E94F2A4F6CF6E
:1054700000E010E0F3CF0E94683220E030E040E02E
:1054800050EC0E9473E387FD12C00E94683220E056
:1054900030E040E050E40E943AE918161CF00E9407
:1054A000683209C060E070E080E090E404C060E031
:1054B00070E080E090EC20911A0722FF6ECF0091FF
:1054C000E70D1091E80D2091650E3091660E409128
:1054D000670E5091680E0E94D9E30E94ACE8600FFD
:1054E000711F7093E80D6093E70D57CF61E0812F36
:1054F0000E9400976E2D812F0E94D196F12CB7014A
:10550000812F0E948098143009F047CFF0929F09B4
:10551000E0929E0942CFA5960FB6F894DEBF0FBE6B
:10552000CDBFDF91CF911F910F91FF90EF90DF9052
:10553000CF90BF90AF909F908F907F906F905F9033
:105540004F903F902F90089590912B07E92FF0E016
:10555000E95DF84F80839F5F943018F490932B0798
:1055600002C010922B078091AE088F5F8093AE0827
:105570000895089580E090E008958091870D9091BE
:10558000880D981759F0E92FF0E0E95FF24F80811C
:105590009F5F9F779093880D90E008958FEF9FEF26
:1055A0000895CF93FC0120812B33A9F02091AE0800
:1055B000243088F4C62FBC0180912B07F0E68F9F22
:1055C000C0011124835D984F0E9492EA8C2F0E94A3
:1055D000A42A81E001C080E0CF9108952F923F92EC
:1055E0004F925F926F927F928F929F92AF92BF92F3
:1055F000CF92DF92EF92FF920F931F93CF93DF939F
:1056000000D000D000D0CDB7DEB79A8389830E9446
:105610003A69E981FA81C680D780E084F184C114B7
:10562000D104E104F10409F017C22485222309F40E
:10563000D4C232852150248721E0230F228745855B
:10564000241301C01286E981FA8124E0329FE00D23
:10565000F11D1124C684D784E088F188E981FA819C
:10566000C282D382E482F582DC01CB018C0D9D1DC8
:10567000A11DB11D86839783A087B1878481958101
:10568000892B09F4AAC2FFB7FD83F894E981FA8156
:10569000228033802101612C712C0481158180913D
:1056A00014018B3121F08F3F09F0D3C105C0E5EE25
:1056B000FFE024912E8391C08BE180931401E5EEED
:1056C000FFE084918E838F3F09F4C3C1813009F4D8
:1056D00040C030F1823009F45CC0833009F07DC0F5
:1056E00010929000109291008091910088608093B8
:1056F000910080919100816080939100E8E8F2E24E
:10570000E491F0E0EE0FFF1FE75AFD4D8591949173
:10571000E8EAF2E2E491E0935002F3E0FE83E7C0AE
:1057200014BC15BC84B5826084BD85B5816085BD1F
:10573000E8E8F2E2E491F0E0EE0FFF1FE75AFD4DDA
:1057400085919491E8EAF2E2E491E09352021E829C
:105750003FC2109280001092810080918100886089
:105760008093810080918100816080938100E8E8CE
:10577000F2E2E491F0E0EE0FFF1FE75AFD4D859154
:105780009491E8EAF2E2E491E093510291E09E8381
:10579000AEC01092B0001092B1008091B000826053
:1057A0008093B0008091B10081608093B100E8E8FF
:1057B000F2E2E491F0E0EE0FFF1FE75AFD4D859114
:1057C000949190930B0780930A07E8EAF2E2E49140
:1057D000E0930C07E2E0EE83FBC12E8127FD39C187
:1057E00061E08BE10E9400978E818D7F09F083C07C
:1057F0004801A12CB12C60E072E18AE790E0A5019C
:1058000094010E94FAE929833A834B835C836901FE
:105810007A0181E0C81AD108E108F1089FEFC916A2
:10582000D104E104F10409F008F44EC060E472E42C
:105830008FE090E0A50194010E94FAE969017A01E4
:10584000E1E0CE1AD108E108F108FE81F23009F555
:105850002FEFC216D104E104F10409F008F47FC16E
:1058600060E970ED83E090E0A50194010E94FAE9FF
:1058700069017A0181E0C81AD108E108F1089FEFB7
:10588000C916D104E104F10411F008F0F5C083E079
:1058900027C0EFEFCE16D104E104F104B9F0B0F067
:1058A00068E478EE81E090E0A50194010E94FAE9B5
:1058B00069017A01F1E0CF1AD108E108F1082E81DF
:1058C000222309F44EC117C181E001C082E0FE81AC
:1058D000F11106C095B5987F892B85BD58C085E02C
:1058E0009091B100987F892B8093B10050C061E006
:1058F0008BE10E9400974801A12CB12C60E072E17D
:105900008AE790E0A50194010E94FAE969017A0111
:1059100081E0C81AD108E108F108C114D10491E06E
:10592000E906F10488F068E478EE81E090E0A501F2
:1059300094010E94FAE969017A01E1E0CE1AD108E6
:10594000E108F10883E001C081E0FE81F13071F4EB
:1059500090918100987F892B80938100452846286B
:105960004728C9F42FEF3FEFA90140C02E81233013
:1059700071F490919100987F892B80939100452834
:105980004628472841F42FEF3FEFA90151C0452891
:105990004628472869F0D801AA0FBB1F91010E9431
:1059A000A7E728EE33E040E050E00E947AE703C02A
:1059B0002FEF3FEFA9018E818130C1F08CF481116E
:1059C00048C0C7BC20935B0230935C0240935D02E9
:1059D00050935E0280916E00826080936E0039C0A9
:1059E0009E819230A9F0933019F133C0D092890092
:1059F000C092880020935702309358024093590276
:105A000050935A0280916F00826080936F0021C092
:105A1000C092B30020930D0730930E0740930F07F9
:105A2000509310078091700082608093700011C0C5
:105A3000D0929900C0929800209353023093540260
:105A4000409355025093560280917100826080937A
:105A50007100ED81EFBFC1C0DC01CB018C199D0944
:105A6000AE09BF09B7FDB9C01498E981FA81168261
:105A7000178210861186B1C068E478EE81E090E06C
:105A8000A50194010E94FAE969017A01F1E0CF1AB7
:105A9000D108E108F1082FEFC216D104E104F104A6
:105AA00041F138F164E274EF80E090E0A5019401E7
:105AB0000E94FAE969017A0181E0C81AD108E10877
:105AC000F1089FEFC916D104E104F10409F008F4CC
:105AD00006CF62E17AE780E090E0A50194010E94A0
