:100000000C9486170C94B0170C94B0170C94B0177E
:100010000C94B0170C94B0170C94B0170C94B01744
:100020000C94B0170C945F5C0C94B0170C94B01740
:100030000C94B0170C9476B10C94B0170C94B017C4
:100040000C94B0170C9483CC0C94EE490C94B0171C
:100050000C9406420C94B0170C94B0170C94B01783
:100060000C94B0170C94B0170C94B0170C94B017F4
:100070000C94B0170C94B0170C94B0170C94B017E4
:100080000C94B0170C94B0170C94B017DF48E248EA
:10009000D548D948F948F948E648EA48F048F448CC
:1000A0005D496249674971499F499F497B49834935
:1000B0008B499549084AD73B3BCE016E84BCBFFDB6
:1000C000C12F3D6C74319ABD56833DDA3D00C77F28
:1000D00011BED9E4BB4C3E916BAAAABE00000080C1
:1000E0003F05A84CCDB2D44EB93836A9020C50B950
:1000F000918688083CA6AAAA2ABE000000803F007C
:100100004E414E494E495459494E46CDCCCC3D0AFC
:10011000D7233C17B7D13877CC2B329595E6241FDF
:10012000B14F0A000020410000C84200401C462098
:10013000BCBE4CCA1B0E5AAEC59D7420746F6F2096
:100140006C6F6E6720657874727573696F6E20705E
:10015000726576656E7465640A0020636F6C642056
:10016000657874727573696F6E2070726576656EEE
:100170007465640A0047322F47332062616420703F
:100180006172616D65746572730A00436C69636BBB
:1001900020746F20726573756D652E2E2E004E6F64
:1001A000206D6F76652E00456E642066696C652053
:1001B0006C6973740A00426567696E2066696C65D4
:1001C000206C6973740A00286E6F2066696C65295B
:1001D000005344207072696E74696E67206279748E
:1001E0006520004E6F74205344207072696E7469EC
:1001F0006E670A0043757272656E742066696C657D
:100200003A200046696C652064656C657465643AE3
:100210000044656C6574696F6E206661696C656425
:100220002C2046696C653A20002569730025696DAC
:1002300020256973002569682025696D202569736B
:1002400000256964202569682025696D202569736A
:100250000025697920256964202569682025696D54
:1002600020256973005072696E742074696D653A57
:1002700020004B494C4C45442E20004D3131332059
:1002800053006F6B0020573A0042656420636F6F24
:100290006C696E672E2E2E0042656420686561745D
:1002A000696E672E2E2E00456E6465722D33204FC9
:1002B00066662E002C20002C2000544845524D41EB
:1002C0004C5F50524F54454354494F4E0041555492
:1002D0004F5245504F52545F53445F53544154550D
:1002E0005300454D455247454E43595F5041525387
:1002F000455200434153455F4C494748545F425281
:10030000494748544E45535300544F47474C455F67
:100310004C494748545300534F4654574152455F48
:10032000504F574552004255494C445F5045524347
:10033000454E54004C4556454C494E475F44415448
:1003400041005A5F50524F4245004155544F4C4571
:1003500056454C005052494E545F4A4F420050524D
:100360004F4752455353004155544F5245504F52F9
:10037000545F54454D5000564F4C554D45545249CD
:100380004300454550524F4D0053455249414C5F43
:10039000584F4E5F584F4646004649524D574152BE
:1003A000455F4E414D453A4D61726C696E206275F4
:1003B000676669782D312E312E7820284769746858
:1003C00075622920534F555243455F434F44455F63
:1003D00055524C3A68747470733A2F2F6769746879
:1003E00075622E636F6D2F4D61726C696E46697216
:1003F0006D776172652F4D61726C696E2050524F3E
:10040000544F434F4C5F56455253494F4E3A312E4D
:1004100030204D414348494E455F545950453A4577
:100420006E6465722D332045585452554445525FD1
:10043000434F554E543A3120555549443A6365640B
:1004400065326132662D343161322D343734382DC6
:10045000396231322D63353563363266333637666D
:10046000660A002F2F20004D31343520533C696E31
:100470006465783E206F7574206F662072616E67C8
:10048000652028302D31290A0020540020520041D7
:100490006363656C65726174696F6E3A20500048E1
:1004A0006F6D6520257325732573206669727374DB
:1004B000002066697273740A005A00590058004897
:1004C0006F6D6520004F6666736574732061707090
:1004D0006C696564004572723A20546F6F206661E2
:1004E000722100546F6F206661722066726F6D20FA
:1004F0007265666572656E636520706F696E740AF9
:1005000000205A00205900580020204D61783A20E0
:1005100000205A00205900580020204D696E3A20D2
:10052000004F6E20004F666600536F667420656E44
:100530006473746F70733A200020466C6F773A20B2
:100540000000010F150E12FFFFFFFF16170E13FF1D
:10055000FFFFFF03021A14FFFFFFFFFFFFFF0C0462
:10056000FFFFFF01000EFFFFFF0C190DFF182064B5
:100570003A0020693A0020703A00496E76616C6951
:10058000642065787472756465720A0043290A00F4
:1005900061626C656420286D696E2074656D7020E1
:1005A00000436F6C642065787472756465732061B4
:1005B0007265200023646566696E65204445464186
:1005C000554C545F4B64200023646566696E65205A
:1005D00044454641554C545F4B6920002364656691
:1005E000696E652044454641554C545F4B70200070
:1005F000504944204175746F74756E652066696E4C
:100600006973686564212050757420746865206C76
:10061000617374204B702C204B6920616E64204BF9
:100620006420636F6E7374616E74732066726F6D95
:100630002062656C6F7720696E746F20436F6E6601
:10064000696775726174696F6E2E680A005049445B
:10065000204175746F74756E65206661696C6564A0
:10066000212074696D656F75740A00453120544806
:1006700045524D414C2052554E4157415900546806
:1006800065726D616C2052756E61776179004531DC
:100690002048656174696E67206661696C656400F5
:1006A00048656174696E67206661696C65640050B5
:1006B0004944204175746F74756E65206661696C7C
:1006C0006564212054656D70657261747572652072
:1006D000746F6F20686967680A00204B643A2000D5
:1006E000204B693A2000204B703A20000A20436CCE
:1006F000617373696320504944200A002054753A9D
:100700002000204B753A2000206D61783A200020AF
:100710006D696E3A200020643A200020626961739E
:100720003A2000504944204175746F74756E6520FD
:100730006661696C6564212054656D7065726174D1
:1007400075726520746F6F20686967680A00504988
:1007500044204175746F74756E6520737461727492
:100760000A00504944204175746F74756E652066A7
:1007700061696C65642120426164206578747275DA
:10078000646572206E756D6265720A004E6F20633B
:10079000617365206C696768740A00454550524F63
:1007A0004D204F4B0A00416374697665204578748B
:1007B00072756465723A2000496E76616C696420D6
:1007C00065787472756465720A00434F4D4D554EDD
:1007D00049434154494F4E0044525952554E0045E9
:1007E00052524F525300494E464F004543484F0026
:1007F0004E6F20436865636B73756D20776974680D
:10080000206C696E65206E756D6265722C204C617E
:100810007374204C696E653A20004B494C4C45443A
:100820002E200053544F505045442E2000507269E2
:100830006E7465722073746F707065642064756582
:1008400020746F206572726F72732E204669782053
:10085000746865206572726F7220616E64207573B2
:1008600065204D39393920746F2072657374617257
:10087000742E202854656D706572617475726520E0
:1008800069732072657365742E20536574206974D2
:100890002061667465722072657374617274696E2A
:1008A00067290A004E6F20436865636B73756D207E
:1008B00077697468206C696E65206E756D6265720B
:1008C0002C204C617374204C696E653A200063687B
:1008D00065636B73756D206D69736D617463682CEE
:1008E000204C617374204C696E653A20004C696E2F
:1008F00065204E756D626572206973206E6F74207D
:100900004C617374204C696E65204E756D62657222
:100910002B312C204C617374204C696E653A200099
:100920004D313130004D33310053442072656164E4
:10093000206572726F720A00446F6E652070726972
:100940006E74696E672066696C650A0020496E7670
:10095000616C69642065787472756465722000004A
:10096000000000000000000000000000006B4300D9
:10097000006B4300007A43536C6565702E2E2E0089
:1009800050726F7465637465642050696E0A00204C
:10099000573A004520436F6F6C696E672E2E2E000C
:1009A000452048656174696E672E2E2E00EB07E6C0
:1009B00007DF07D807CA076F6666004445425547F8
:1009C0003A00205A3A0020593A0020436F756E745D
:1009D00020583A0020453A00205A3A0020593A005F
:1009E000583A003A004361703A0070012C019001BE
:1009F0002701B0012201C0011D01F0011801100200
:100A0000130130020E016002090190020401C002CC
:100A1000FF000003FA004003F5008003F000D0035C
:100A2000EB002004E6007004E100E004DC00400577
:100A3000D700C005D2004006CD00D006C800800710
:100A4000C3003008BE00F008B900C009B400B00A05
:100A5000AF00B00BAA00D00CA500000EA000500FF4
:100A60009B00C01096005012910000148C00C0151D
:100A70008700B0178200B0197D00D01B7800001EDF
:100A8000730040206E0090226900F024640040272B
:100A90005F0090295A00E02B5500102E50002030A6
:100AA0004B0010324600E033410090353C001037D7
:100AB000370070383200A0392D00B03A2800A03B32
:100AC0002300603C1E00103D1900903D1400103EB4
:100AD0000F00703E0A00C03E0500003F0000403F8E
:100AE000FBFF803FF6FFC03FF1FF453120457272AA
:100AF0003A204D415854454D50004572723A204DB0
:100B0000415854454D5020424544004D41585445AC
:100B10004D502074726967676572656400453120C5
:100B20004572723A204D494E54454D5000457272FF
:100B30003A204D494E54454D5020424544004D49C0
:100B40004E54454D50207472696767657265640044
:100B50004D383420582059205A204500202F00209D
:100B600042403A0020403A000000210024002700C3
:100B70002A0048617264636F64656420446566613D
:100B8000756C742053657474696E6773204C6F6163
:100B90006465640A00F4010000F4010000640000D0
:100BA00000881300000000FA430000FA430000A090
:100BB000400000C8410000A0420000A0420000C860
:100BC000430000BA4220286D6D29002044002049CE
:100BD0000020204D333031205000504944207365AF
:100BE0007474696E67733A0A002046002042002040
:100BF000480020204D3134352053004D617465721A
:100C000069616C2068656174757020706172616DD6
:100C100065746572733A0A00205A0020590020203A
:100C20004D323036205800486F6D65206F66667310
:100C300065743A0A00204500205A002059002058C7
:100C40000020540020530020204D32303520510028
:100C500020453C6D61785F655F6A65726B3E002080
:100C6000583C6D61785F785F6A65726B3E20593CD5
:100C70006D61785F795F6A65726B3E205A3C6D6189
:100C8000785F7A5F6A65726B3E00416476616E637D
:100C900065643A20513C6D696E5F7365676D656E82
:100CA000745F74696D655F75733E20533C6D696E4A
:100CB0005F66656564726174653E20543C6D696E63
:100CC0005F74726176656C5F666565647261746598
:100CD0003E0020540020520020204D32303420505D
:100CE00000416363656C65726174696F6E2028757D
:100CF0006E6974732F7332293A20503C7072696E9A
:100D0000745F616363656C3E20523C72657472610E
:100D100063745F616363656C3E20543C74726176FA
:100D2000656C5F616363656C3E0A00204500205A74
:100D30000020590020204D3230312058004D61787C
:100D4000696D756D20416363656C65726174696F6F
:100D50006E2028756E6974732F7332293A0A002049
:100D60004500205A0020590020204D3230332058B1
:100D7000004D6178696D756D20666565647261749A
:100D800065732028756E6974732F73293A0A0020E1
:100D90004500205A0020590020204D3932205800AB
:100DA00053746570732070657220756E69743A0AA9
:100DB0000020204D3230302044300A0020204D32B7
:100DC00030302044002044697361626C65640A001D
:100DD00046696C616D656E742073657474696E67C5
:100DE000733A0020204D3134392043203B20556E8A
:100DF00069747320696E2043656C736975730A00AA
:100E00002020473231202020203B00486F6D696E42
:100E100067206661696C65640054524947474552D2
:100E20004544006F70656E003A20007A5F6D696E10
:100E300000795F6D696E00785F6D696E0052657054
:100E40006F7274696E6720656E6473746F7020735F
:100E500074617475730A0000002200250028002BBD
:100E600000000020002300260029000202020202E6
:100E7000020202040404040404040403030303033D
:100E80000303030101010101010101010204081032
:100E90002040800102040810204080010204081054
:100EA0002040808040201008040201000000010260
:100EB00000090A0000000004030807000000000009
:100EC0000000000000000000000000024B494C4CF4
:100ED00045442E2000202D20496E76616C696420E7
:100EE0006578747275646572206E756D62657220C6
:100EF000210A00FFFFFFFFEFFFFFFFFFFFFFFFFFE4
:100F0000FFFFEFEFFFFFFFFFFFFFFFFFFFE7DFFF49
:100F1000FFFFFFFFFFFFFFFFE7DFFFFFFFFFFFFF19
:100F2000FFFFFFE3DFFFFFFFFFFFFFFFFFFFF3CF49
:100F3000FFFFFFFFFFFFFFFFE1E1CFFFFFFFFFFF2D
:100F4000FFFE78000003DDFFFFFFFFFEFF807E0055
:100F500001EEFFFFFFFFFE7DCFFC0000F77FFFFFEC
:100F6000FFFF8E060000007BBFFFFFFFFFC00000F9
:100F700000007DDFFFFFFFFFFC01FE00003EE7FFFA
:100F8000FFFFFFFFFFFC00031F73FFFFFFFFFFFFDB
:100F9000F800018F81FFFFFFFFFFFFE0000083F9F2
:100FA000FFFFFFFFFFFF00FC0000F0FFFFFFFFFF60
:100FB000E00FFFC00000FFFFFFFFFE03FFFFC000C8
:100FC00000FFFFFFFFFFFFFFF9000000FFFFFFFF33
:100FD000FFFFFFFC0007C0FFFFFFFFFFFFFFFF0059
:100FE00007E0FFFFFFFFFFFFFFFFE007F1FFFFFF4D
:100FF000FFFFFFFFFFFC07F9FFFFFFFFFFFFFFFF02
:10100000FF03F9FFFFFFFFFFFFFFFFFF83F9FFFF74
:10101000FFFFFFFFFFFFFFC3FFFFFFFFFFFFFFFF1C
:10102000FFFFE1FFFFFFFFFFFFFFFFFFFFF0BFFF3D
:10103000FFFFFFFFFFFFFFFBF83FFFFFFFFFFFFF8B
:10104000FFFFF9F83FFFFFFFFFFFFFFFFF7EF0FF0D
:10105000FFFFFFFFFFFFFFFF8E03FFFFFFFFFFFF0D
:10106000FFFFFFE01FFFFFFFFFFFFFFFFFFFFFFF8F
:10107000FFFFFFFFFFFFFFFFFFFFFFFFFFFFFFFF80
:10108000FFFFFFFFFFFF7FFFFFFFFF00007FFFFF6E
:10109000F87FFFFFFFFF80007FFFFFE07FFFFFFF84
:1010A000FFC3FCFFFFFFF8FFFFFFFFFFC3FCFFFFD5
:1010B000FFF8FFFFFFFFFF87FDFFFFFFF1FFFFFFCF
:1010C000FFFF87FFFFFFFFF1FFFFFFFFFF0FE7F3CA
:1010D0000FFC23FC3FFFFFFF0FEF8007F003F01E24
:1010E000007FFE1FCF8187C787C70C007FFE001FD0
:1010F000C7C78FC79F0F0CFFFE001F878F1F8F1F53
:101100000F1FFFFC3F9F8F8F1F8E001E3FFFFC7F36
:101110003F0F1E3F1E3FFE3FFFF87FFF1F1C3F1C7F
:101120007FFC7FFFF8FFFF1E1C7E1C7FFC7FFFF013
:10113000FFCE3E3C7E3C7FB8FFFFF0FF9E3C387CFC
:10114000387E78FFFFE1FF3C7C787C783CF1FFFF44
:10115000E1F8387878101801F1FFFF000060203CBA
:10116000007C07807FFFFFFFFFFFFE1FFE1FFFFFCA
:10117000FF1FFFFFFFFFFFFF600000000001FF40B7
:101180000000000000FF8000000000007F83CF000F
:10119000000C303F87FF80000C301F867980000CE8
:1011A000000F8C30C7838C30E78C30CFC7CC31F345
:1011B0008C30DCECEC33B98C30D86C6C33198C305F
:1011C000D06C0C33198C30D86C0C33198C30DC6C2F
:1011D0000E3B198C30CF7C079F198C30C77C038F56
:1011E0001940000000000002600000000000061F1F
:1011F000FFFFFFFFFFF82020506C616E6E657242AA
:10120000756666657242797465733A20002046728D
:101210006565204D656D6F72793A2000436F6D7082
:10122000696C65643A204D6172202035203230317E
:10123000390A00207C20417574686F723A20287446
:1012400068697369736B65697468622C20456E64A4
:1012500065722D33290A00323031382D30372D3365
:101260003100204C61737420557064617465643A78
:1012700020006275676669782D312E312E780A005C
:101280004D61726C696E0020536F66747761726590
:101290002052657365740A00205761746368646F37
:1012A000672052657365740A002042726F776E2062
:1012B0006F75742052657365740A002045787465F3
:1012C000726E616C2052657365740A00506F7765A9
:1012D0007255700A0073746172740A006175746FDC
:1012E00025692E67006572726F7220777269746962
:1012F0006E6720746F2066696C650A00456E6473C2
:10130000746F707320256320256320256320256377
:1013100000205A3A0020593A0020583A00656E647D
:1013200073746F7073206869743A2000446F6E653F
:1013300020736176696E672066696C652E0A004DC0
:1013400032390000060900FE0701920321207FFFC9
:1013500007FF07FF00000006000001070706020064
:1013600080808080800080030202060105A0A00525
:1013700007070600005050F850F8505005070706C0
:1013800000002078A07028F020050707060000C0A4
:10139000C810204098180507070600006090A0407C
:1013A000A89068020303060104C0408003070706F3
:1013B0000100204080808040200307070601008054
:1013C00040202020408005050506000120A870A8C7
:1013D000200505050600012020F820200203030651
:1013E00002FFC04080050101060003F80202020668
:1013F0000200C0C005050506000108102040800558
:101400000707060000708888888888700307070629
:10141000010040C040404040E00507070600007062
:101420008808708080F8050707060000F810201073
:101430000808F005070706000010305090F810105B
:10144000050707060000F880F00808887005070700
:10145000060000708080F08888700507070600008D
:10146000F808102020202005070706000070888853
:10147000708888700507070600007088887808085B
:1014800070020505060200C0C000C0C002060606C4
:1014900002FFC0C000C04080040707060000102003
:1014A0004080402010050303060002F800F80407FE
:1014B0000706010080402010204080050707060035
:1014C00000708808102000200507070600007088BB
:1014D0000868A8A870050707060000708888F888C3
:1014E0008888050707060000F08888F08888F005DE
:1014F000070706000070888080808870050707064F
:101500000000F08888888888F0050707060000F842
:101510008080F08080F8050707060000F88080F0E2
:10152000808080050707060000708880B888887072
:10153000050707060000888888F88888880107075B
:1015400006020080808080808080050707060000FA
:10155000381010101090600507070600008890A052
:10156000C0A09088050707060000808080808080EA
:10157000F805070706000088D8A888888888050726
:10158000070600008888C8A898888805070706000D
:101590000070888888888870050707060000F08832
:1015A00088F080808005070706000070888888A87A
:1015B0009068050707060000F08888F0A09088056D
:1015C0000707060000788080700808F00507070606
:1015D0000000F820202020202005070706000088B2
:1015E00088888888887005070706000088888888AA
:1015F0008850200507070600008888888888A8503A
:1016000005070706000088885020508888050707CE
:101610000600008888885020202005070706000063
:10162000F80810204080F8030707060100E08080DA
:10163000808080E005050506000180402010080339
:101640000707060100E02020202020E00503030614
:101650000004205088050101060000F8020202067D
:1016600002058040050505060000700878887805A9
:1016700007070600008080B0C88888F005050506C9
:101680000000708080887005070706000008086861
:10169000988888780505050600007088F880700530
:1016A00007070600003048E04040404005060606B7
:1016B00000FF7088887808700507070600008080A2
:1016C000B0C88888880107070602008000808080F3
:1016D00080800308080601FF200020202020A04071
:1016E000040707060000808090A0C0A090030707B1
:1016F000060100C04040404040E0050505060000EE
:10170000D0A8A8A8A8050505060000B0C888888844
:101710000505050600007088888870050606060025
:10172000FFF08888F080800506060600FF7888882C
:10173000780808050505060000B0C880808005050A
:101740000506000070807008F004070706000040DE
:1017500040E0404040300505050600008888889834
:1017600068050505060000888888502005050506DF
:1017700000008888A8A850050505060000885020AC
:1017800050880506060600FF8888887808700505D9
:1017900005060000F8102040F803070706010020A6
:1017A0004040804040200107070602008080808082
:1017B0008080800307070601008040402040408071
:1017C0000502020600026890000000060000457352
:1017D000746570732F6D6D004573746570732F6D34
:1017E0006D005A73746570732F6D6D005A73746554
:1017F00070732F6D6D005973746570732F6D6D006C
:101800005973746570732F6D6D00587374657073C0
:101810002F6D6D005873746570732F6D6D004D6F73
:1018200074696F6E0053746570732F6D6D004A6537
:10183000726B00416363656C65726174696F6E0001
:1018400056656C6F6369747900436F6E74726F6C68
:101850000046696C2E204469612E0046696C2E207A
:101860004469612E004F6666004F6E200045206976
:101870006E206D6D3300436F6E74726F6C00436148
:101880006E6E6F7420656E74657220737562646924
:10189000723A2000022E2E0001526566726573684E
:1018A000004D61696E004D61782054656D703A207D
:1018B000313235004D696E2054656D703A20350027
:1018C000544265643A4550434F53203130304B0009
:1018D0004D61782054656D703A20323735004D697E
:1018E0006E2054656D703A20350054303A204550D2
:1018F000434F53203130304B005053553A20476509
:101900006E657269630050726F746F636F6C3A201A
:10191000312E3000426175643A2031313532303039
:10192000004D656C7A692028437265616C69747931
:1019300029004578747275646572733A20310068C5
:101940007474703A2F2F6D61726C696E66772E6FAA
:10195000726700456E6465722D3300323031382D68
:1019600030372D3331006275676669782D312E313D
:101970002E78004D61726C696E00546865726D69F5
:1019800073746F727300426F61726420496E666F88
:10199000005072696E74657220496E666F004D6109
:1019A000696E0025753A2530327500253032753A5A
:1019B000253032750025756420253032753A253082
:1019C000327500202020202020005A0059002020BD
:1019D0002020005800092000000000000000000046
:1019E00000000000003FFFF00000000000000000C9
:1019F000000000000038007000000000000000003F
:101A0000000000000030FC3000000000000000007A
:101A1000000000000020FC1000000000000000009A
:101A2000000000000020781000000000000000000E
:101A30000000000000203010000000000000000046
:101A400000000000002C00D0F80180000C1FE00016
:101A500000082080002E31D048008000123FF000A6
:101A600000041040002F7BD043C38CD0023FF00015
:101A700000041040002F7BD071249267CC3FF0000F
:101A800000082080002E31D041249E40021FE0003B
:101A900000104100002C00D049249040121FE000AB
:101AA0000020820000203010FBB3CEE00C3FF0009D
:101AB000002082000020781000000000003FF000AD
:101AC000001041000020FC1000000000003FF0006A
:101AD000000820800030FC3000000000000FC00033
:101AE00000000000003800700000000000078000C7
:101AF00000FFFFC0003FFFF00000000000030000F7
:101B000000FFFFC000000000000000000000000017
:101B100000000000003FFFF0000000000000000097
:101B2000000000000038007000000000000000000D
:101B300000000000003387300000000000000000BB
:101B40000000000000278790000000000000000057
:101B500000000000002F87D00000000000000000FF
:101B600000000000002F87D00000000000000000EF
:101B700000000000002F03D0F80180000C1FE000DF
:101B8000000820800020301048008000123FF00044
:101B9000000410400020781043C38CD0023FF000B6
:101BA000000410400020781071249267CC3FF000B0
:101BB000000820800020301041249E40021FE000D9
:101BC00000104100002F03D049249040121FE00074
:101BD00000208200002F87D0FBB3CEE00C3FF00046
:101BE00000208200002F87D000000000003FF0009E
:101BF000001041000027879000000000003FF00027
:101C0000000820800033873000000000000FC00073
:101C10000000000000380070000000000007800095
:101C200000FFFFC0003FFFF00000000000030000C5
:101C300000FFFFC000000000456E6465722D332078
:101C400052656164792E005072696E74696E672EF8
:101C50002E2E005072696E74207061757365640079
:101C600000060900FE000000000001090008FE0057
:101C70000005080806000040F0C88888987810051C
:101C80000808060000C0F88888888888F8050505D7
:101C90000600012030F830200508080600002070FA
:101CA000F820202020E00509090600FF2070A8A8E0
:101CB000B8888870200509090600FFE080C0B0A838
:101CC000283028280509090600FFF8A88888888890
:101CD00088A8F8050A0A0600FE205050505088A82F
:101CE000A8887003030306000340A040496E69748E
:101CF00069616C697A6520454550524F4D00436FCC
:101D00006E74726F6C00526573746F7265206661D9
:101D1000696C73616665004C6F61642073657474EF
:101D2000696E677300496E697469616C697A6520D0
:101D3000454550524F4D0053746F72652073657462
:101D400074696E67730046696C616D656E74004DF1
:101D50006F74696F6E0054656D7065726174757231
:101D600065004D61696E004D33303320553120459B
:101D700025692053256900507265686561742041AA
:101D8000425320636F6E660050726568656174200F
:101D9000504C4120636F6E66005049442041757479
:101DA0006F74756E6500504944204175746F747589
:101DB0006E65005049442D44005049442D44005064
:101DC00049442D49005049442D49005049442D5063
:101DD000005049442D5000200820466163740020C3
:101DE000082046616374002008204D6178002008B7
:101DF000204D6178002008204D6178002008204D9A
:101E0000696E002008204D696E002008204D696E23
:101E1000004F6666004F6E20004175746F74656DEB
:101E2000700046616E2073706565640046616E20C7
:101E300073706565640042656400426564004E6FBE
:101E40007A7A6C65004E6F7A7A6C6500436F6E74B7
:101E5000726F6C0053746F72652073657474696E71
:101E600067730042656400426564004E6F7A7A6C65
:101E700065004E6F7A7A6C650046616E20737065FE
:101E800065640046616E2073706565640054656D1D
:101E90007065726174757265005072696E7420614C
:101EA000626F7274656400496E69742E2053442019
:101EB00063617264004D3231004E6F2053442063E1
:101EC000617264004368616E6765205344206361FA
:101ED0007264004D3231005072696E742066726F08
:101EE0006D2053440053746F70207072696E7400DB
:101EF000526573756D65207072696E740041626F12
:101F00007574205072696E746572005061757365E6
:101F1000207072696E7400436F6E74726F6C005043
:101F20007265706172650054756E6500496E666F0A
:101F30002073637265656E004261627973746570C7
:101F4000205A004261627973746570205A00466CB1
:101F50006F7700466C6F770046616E207370656521
:101F6000640046616E2073706565640042656400BC
:101F7000426564004E6F7A7A6C65004E6F7A7A6CB7
:101F800065005370656564005370656564004D615C
:101F9000696E005072656865617420504C4120453F
:101FA0006E64005072656865617420504C41204237
:101FB0006564005072656865617420504C41005042
:101FC0007265706172650050726568656174204168
:101FD000425320456E64005072656865617420410B
:101FE0004253204265640050726568656174204107
:101FF0004253005072657061726500290A002062C8
:10200000797465733B20637263200053657474694F
:102010006E67732053746F726564202800290A006C
:102020002062797465733B206372632000207374AF
:102030006F7265642073657474696E67732072656E
:1020400074726965766564202800202863616C637A
:10205000756C6174656429210A0020213D200045CA
:102060004550524F4D20435243206D69736D61744A
:102070006368202D202873746F7265642920002006
:1020800053697A653A2000496E6465783A200020E9
:102090004D61726C696E3D563535290A00284545FB
:1020A00050524F4D3D00454550524F4D2076657280
:1020B00073696F6E206D69736D6174636820004D84
:1020C0003234004D323320257300556E6B6E6F77BE
:1020D0006E20636F6D6D616E643A20220053442060
:1020E00063617264206F6B0A006F70656E526F6F70
:1020F00074206661696C65640A00766F6C756D6545
:102100002E696E6974206661696C65640A005344C7
:1021100020696E6974206661696C0A0020746F6FB3
:10212000206C6F6E6720657874727573696F6E20AE
:1021300070726576656E7465640A0020636F6C6406
:1021400020657874727573696F6E2070726576653C
:102150006E7465640A007C3C3E5E2B3D3F2F5B5DE8
:102160003B2C2A225C005654726176206D696E0009
:102170005654726176206D696E00565472617620F5
:102180006D696E00566D696E00566D696E00566D14
:10219000696E00566D6178204500566D6178204566
:1021A00000566D6178204500566D6178205A0056C2
:1021B0006D6178205A00566D6178205A00566D6125
:1021C00078205900566D6178205900566D6178204D
:1021D0005900566D6178205800566D61782058007E
:1021E000566D61782058004D6F74696F6E00416DB7
:1021F0006178204500416D6178204500416D61782E
:10220000205A00416D6178205A00416D6178205953
:1022100000416D6178205900416D6178205800417E
:102220006D6178205800412D74726176656C0041B3
:102230002D74726176656C00412D726574726163F4
:102240007400412D7265747261637400416363654B
:102250006C00416363656C004D6F74696F6E00566E
:10226000652D6A65726B0056652D6A65726B005646
:10227000652D6A65726B00567A2D6A65726B005621
:102280007A2D6A65726B0056792D6A65726B0056FD
:10229000792D6A65726B0056792D6A65726B0056EE
:1022A000782D6A65726B0056782D6A65726B0056E0
:1022B000782D6A65726B004D6F74696F6E0024F43F
:1022C000D43050C38E20C2A24017828B7011127A74
:1022D000910D816CD90AA861E108C7586607615160
:1022E00043061E4B5D05C145A7041A411104093D73
:1022F0009803713931034036DB0265339102D430E3
:102300005402802E1D02632CEE01752AC501B028EF
:10231000A001102781018F2564012B244B01E022AD
:102320003401AC211F018D200D01801FFC00841E93
:10233000ED00971DDF00B81CD200E61BC600201B75
:10234000BC00641AB200B219A8000A19A0006A18E9
:102350009900D117910040178B00B51684003116F3
:102360007E00B31579003A157300C7146F00581436
:102370006A00EE1366008813630025135E00C7121F
:102380005B006C12570015125400C11151007011FE
:102390004F0021114B00D61049008D104700461008
:1023A000440002104200C00F4000800F3E00420F68
:1023B0003C00060F3B00CB0E3800930E37005C0E3E
:1023C0003500270E3400F30D3200C10D3100900DA1
:1023D0003000600D2E00320D2D00050D2C00D90CA3
:1023E0002B00AE0C2900850C29005C0C2700350C55
:1023F00027000E0C2600E80B2400C40B2400A00BC1
:1024000023007D0B23005A0B2100390B2100180BF0
:102410002000F80A1F00D90A1E00BB0A1E009D0AF0
:102420001D00800A1D00630A1C00470A1B002C0ABD
:102430001B00110A1A00F7091A00DD091900C40966
:102440001900AB091900920917007B0918006309EC
:1024500017004C09160036091600200916000A0953
:102460001500F5081500E0081400CC081400B808A1
:102470001400A4081400900813007D0812006B08D3
:1024800013005808120046081200340811002308EF
:1024900011001208110001081100F0071000E007F8
:1024A0001000D0071000C0071000B0070F00A107F0
:1024B000100091070E0083070F0074070F006507D7
:1024C0000E0057070E0049070E003B070D002E07B0
:1024D0000E0020070D0013070D0006070D00F9067A
:1024E0000C00ED060D00E0060C00D4060C00C8063A
:1024F0000C00BC060C00B0060C00A4060B009906EC
:102500000C008D060B0082060B0077060B006C0694
:102510000B0061060A0057060B004C060A00420633
:102520000A0038060A002E060A0024060A001A06C7
:102530000A001006090007060A00FD050900F40557
:102540000900EB050900E2050900D9050900D005DD
:102550000900C7050900BE050900B5050800AD055D
:102560000800A50509009C050800940508008C05D5
:102570000800840508007C050800740508006C0547
:102580000700650508005D050700560508004E05B3
:10259000070047050700400508003805070031051A
:1025A00007002A050700230507001C05060016057D
:1025B00007000F0507000805060002050700FB04D9
:1025C0000600F5040700EE040600E8040600E20435
:1025D0000700DB040600D5040600CF040600C9048A
:1025E0000600C3040600BD040600B7040600B104DB
:1025F0000500AC040600A6040600A00405009B0428
:10260000060095040500900406008A040500850470
:102610000500800406007A040500750405007004B6
:1026200005006B04050066040500610405005C04F8
:10263000050057040500520405004D040500480438
:102640000500430405003E0404003A040500350477
:102650000500300404002C040500270404002304B2
:1026600005001E0404001A040400160405001104E9
:1026700004000D040400090405000404040000041F
:102680000400FC030400F8030400F4030400F00356
:102690000400EC030400E8030400E4030400E00386
:1026A0000400DC030400D8030400D4030400D003B6
:1026B0000400CC030400C8030300C503030024F492
:1026C00004D9201BC40C5C0E9804C4095F02650782
:1026D0007101F405F900FB04B30048048700C1034D
:1026E00069005803550003034500BE023A00840206
:1026F000310053022A002902250004022000E401CF
:102700001C00C8011900AF011700980114008401D2
:102710001300710110006101100051010E0043010E
:102720000D0036010B002B010B0020010B001501E1
:1027300009000C01090003010800FB000800F30078
:102740000800EB000700E4000600DE000600D800E9
:102750000600D2000600CC000500C7000500C2003C
:102760000500BD000400B9000400B5000400B1007C
:102770000400AD000400A9000400A5000300A200AD
:1027800003009F0004009B000300980003009500D5
:10279000020093000300900003008D0002008B00F4
:1027A000030088000200860002008400030081000C
:1027B00002007F0002007D0002007B000200790021
:1027C000020077000100760002007400020072002F
:1027D0000100710002006F0002006D0001006C003A
:1027E00002006A0001006900020067000100660043
:1027F0000100650001006400020062000100610048
:102800000100600001005F0002005D0001005C004B
:1028100001005B0001005A0001005900010058004E
:10282000010057000100560001005500010054004E
:10283000010053000000530001005200010051004C
:102840000100500001004F0001004E0000004E004A
:1028500001004D0001004C0001004B0000004B0046
:1028600001004A0001004900010048000000480042
:10287000010047000100460000004600010045003D
:102880000000450001004400010043000000430037
:102890000100420000004200010041000000410030
:1028A0000100400001003F0000003F0001003E0029
:1028B00000003E0001003D0000003D0001003C0022
:1028C00000003C0000003C0001003B0000003B0019
:1028D00001003A0000003A00010039000000390010
:1028E0000100380000003800000038000100370007
:1028F00000003700010036000000360000003600FE
:1029000001003500000035000000350001003400F2
:1029100000003400000034000100330000003300E8
:1029200000003300010032000000320000003200DD
:1029300001003100000031000000310001003000D2
:10294000000030000000300001002F0000002F00C8
:1029500000002F0000002F0001002E0000002E00BC
:1029600000002E0001002D0000002D0000002D00B1
:1029700000002D0001002C0000002C0000002C00A5
:1029800000002C0001002B0000002B0000002B0099
:1029900000002B0001002A0000002A0000002A008D
:1029A00000002A0001002900000029000000290081
:1029B0000000290000002900010028000000280074
:1029C0000000280000002800000028000100270067
:1029D000000027000000270000002700000027005B
:1029E000010026000000260000002600000026004E
:1029F0000000260001002500000025000000250041
:102A00000000250000002500000025000100240032
:102A10000000240000002400000024000000240026
:102A20000100230000002300000023000000230019
:102A3000000023000000230000002300010022000A
:102A400000002200000022000000220000002200FE
:102A500000002200010021000000210000002100F0
:102A600000002100000021000000210000002100E2
:102A700001002000000020000000200000002000D5
:102A800000002000000020000000200000002000C6
:102A900001001F0000001F0000001F0000001F00B9
:102AA00000001F0000001F0000001F0001001E00AA
:102AB00000001E0000001E0000001E000000043781
:102AC00000001E290000511B0000581000001009D2
:102AD0000000CC04000078020000410100005265B3
:102AE00073656E643A20006F6B00627573793A20EB
:102AF00070617573656420666F7220696E7075749D
:102B00000A00627573793A20706175736564206696
:102B10006F7220757365720A00627573793A20705E
:102B2000726F63657373696E670A004B494C4C455D
:102B3000442E20004B494C4C206361757365642022
:102B4000627920746F6F206D75636820696E6163B0
:102B5000746976652074696D65202D2063757272C5
:102B6000656E7420636F6D6D616E643A2000506C09
:102B700065617365207265736574005052494E54E7
:102B800045522048414C544544005072696E74656A
:102B9000722068616C7465642E206B696C6C2829E6
:102BA0002063616C6C6564210A00656E71756575E2
:102BB00065696E6720220000000000000000000030
:102BC0000000000000A0410000A041000080400083
:102BD0000000005761726E696E673A20486F6D6938
:102BE0006E672042756D702044697669736F72203C
:102BF0003C20310A000202040000A0400000A04076
:102C00000000004000006B4300006B4300007A436B
:102C1000FFFFFF4D343238005072656865617420E3
:102C2000504C4100436F6F6C646F776E005072655B
:102C300068656174204142530044697361626C6548
:102C4000207374657070657273004D38340053657D
:102C50007420686F6D65206F6666736574730041DC
:102C600075746F20686F6D6500473238004D6F7660
:102C7000652061786973004D61696E004D6F7665FE
:102C80002058004D6F76652059004D6F7665205AAB
:102C9000004578747275646572004D6F76652030FA
:102CA0002E316D6D004D6F766520316D6D004D6F6D
:102CB00076652031306D6D004D6F766520617869E5
:102CC00073004578747275646572004D6F76652087
:102CD0005A004D6F76652059004D6F76652058007B
:102CE0004578747275646572004D6F7665205A0080
:102CF0004D6F76652059004D6F76652058005072F3
:102D00006570617265004572726F722077726974C6
:102D1000696E6720746F20454550524F4D210A005F
:102D2000454550524F4D206461746173697A652046
:102D30006572726F722E0A006265640A002C20733D
:102D4000797374656D2073746F70706564212048A9
:102D500065617465725F49443A2000426564206889
:102D6000656174696E67206661696C6564004865B9
:102D70006174696E67206661696C65640045312025
:102D800048656174696E67206661696C65640048B6
:102D9000656174696E67206661696C6564004531C0
:102DA00020544845524D414C2052554E41574159AF
:102DB0000042454420544845524D414C2052554E06
:102DC0004157415900546865726D616C2052756EAF
:102DD000617761790057726974696E6720746F203A
:102DE00066696C653A20006F70656E206661696C7B
:102DF00065642C2046696C653A20006F70656E2012
:102E00006661696C65642C2046696C653A200046F1
:102E1000696C652073656C65637465640A00205392
:102E2000697A653A200046696C65206F70656E6549
:102E3000643A20002066696C653A2000646F696E10
:102E400067006672657368004E6F772000454E44D8
:102E500020535542524F5554494E450A0022207086
:102E60006F73002220706172656E743A22005355B0
:102E700042524F5554494E452043414C4C207461B9
:102E8000726765743A22004B494C4C45442E200031
:102E9000747279696E6720746F2063616C6C207343
:102EA00075622D67636F64652066696C6573207752
:102EB00069746820746F6F206D616E79206C65761F
:102EC000656C732E204D4158206C6576656C2069C9
:102ED000733A004572726F723A0043616E6E6F749E
:102EE000206F70656E20737562646972200065637F
:102EF000686F3A006F70656E206661696C65642C5E
:102F00002046696C653A2000F6E0D5E011241FBE2A
:102F1000CFEFD0E4DEBFCDBF12E0A0E0B1E0E2EC45
:102F2000FCED01E00BBF02C007900D92A436B10783
:102F3000D9F723E1A4E6B2E001C01D92A233B207A3
:102F4000E1F717E1C5E8D7E104C02197FE010E942F
:102F5000BFEDC438D107C9F70E9430D90C9454EEA4
:102F60000C9400002F923F924F925F926F927F924B
:102F70008F929F92AF92BF92CF92DF92EF92FF9289
:102F80000F931F93CF93DF93CDB7DEB7C157D1090E
:102F90000FB6F894DEBF0FBECDBF21E02093560FD1
:102FA0008091C70E8D3409F462C4843511F40C94F9
:102FB000CE2D873411F00C94122E8091C50E909175
:102FC000C60E8430910509F4C3C144F497FD4BC487
:102FD000209155018230910524F51EC08A35910556
:102FE00009F483C324F44C9709F4B6C13CC48B356F
:102FF000910509F47EC38C35910509F034C4F6E5DA
:103000002F2EF1E03F2EA4E6CA2EAFE0DA2EE12CFF
:10301000F12C00E010E0AAC321110C94192E0C949D
:10302000142E222311F40C94142E11E0029709F0AF
:1030300010E00E94F43919821A821B821C821D82C0
:103040001E821F82188682E50E948639882309F431
:1030500032C10E940C396B017C0180919E069091D7
:103060009F06A091A006B091A1068EA39FA3A8A73A
:10307000B9A78090A2069090A306A090A406B09055
:10308000A50620918D0630918E0640918F065091B5
:1030900090062AA73BA74CA75DA780919106909127
:1030A0009206A0919306B09194068EA79FA7A8AB15
:1030B000B9AB20E030E0A901C701B6010E943AE6B1
:1030C000882309F40EC12EA13FA148A559A56AA5E0
:1030D0007BA58CA59DA50E943AE681110BC0A50198
:1030E00094016EA57FA588A999A90E943AE6882334
:1030F00009F4F7C020E030E0A901C701B6010E9441
:103100003AE6881F8827881F18130BC020E030E09C
:1031100040E85FE322962CAF3DAF4EAF5FAF229702
:103120000AC080E090E0A0E8BFEB22968CAF9DAF94
:10313000AEAFBFAF22972EA13FA148A559A56AA562
:103140007BA58CA59DA50E946AEA6EAB7FAB88AF7C
:1031500099AFA50194016EA57FA588A999A90E94A0
:103160006AEA6AAF7BAF8CAF9DAF2EA93FA948AD8D
:1031700059ADCA01B9010E94A0E62B013C012AAD5C
:103180003BAD4CAD5DADCA01B9010E94A0E69B010B
:10319000AC01C301B2010E946BEA0E9419ED6AAB57
:1031A0007BAB8CAB9DAB20E030E040E05FE30E9466
:1031B000A0E62B013C01A7019601C701B6010E94C0
:1031C000A0E66B017C01A3019201C301B2010E9440
:1031D000A0E69B01AC01C701B6010E946AEA0E9409
:1031E00019ED9B01AC0122966CAD7DAD8EAD9FAD0E
:1031F00022970E94A0E66B017C012AA53BA54CA565
:103200005DA56EA17FA188A599A50E946BEA20E02B
:1032100030E040E05FE30E94A0E62B013C016AAD94
:103220007BAD8CAD9DAD90582AA93BA94CA95DA959
:103230000E9465EB9B01AC01C701B6010E94A0E6AC
:103240009B01AC01C301B2010E946BEA2EA13FA118
:1032500048A559A50E946AEA69837A838B839C8377
:103260002EA53FA548A959A9C501B4010E946BEA42
:1032700020E030E040E05FE30E94A0E62B013C014B
:103280002AA93BA94CA95DA96EA97FA988AD99ADD2
:103290000E9465EB9B01AC01C701B6010E94A0E64C
:1032A0009B01AC01C301B2010E946BEAA50194012C
:1032B0000E946AEA12C089E40E948639882331F0AC
:1032C0000E940C3969837A838B839C838AE40E94F1
:1032D0008639882331F00E940C396D837E838F8379
:1032E000988720E030E0A90169817A818B819C81F7
:1032F0000E943AE681110BC020E030E0A9016D8107
:103300007E818F8198850E943AE6882339F0612F6B
:10331000CE0101960E94A58D0C94142EE3EDFEE2E1
:1033200084918F010F5F1F4F882321F00E947F3A05
:10333000F801F6CFE5E7F1E084918F010F5F1F4FB1
:10334000882311F40C94142E0E947F3AF801F4CFD4
:103350000E94AF390C94142E80912D048770873011
:1033600071F48FE40E948639882319F00E94FC389A
:1033700003C08FE40E943F3981110C94142E0E94E7
:1033800030538091300190913101A0913201B09180
:10339000330180936B0290936C02A0936D02B09303
:1033A0006E0280912E0190912F0190936A0280937A
:1033B000690284E690E090932F0180932E0111E042
:1033C00010932C0488E50E943F398EA789E50E945E
:1033D0003F39282E8AE50E943F398AAB9EA591117C
:1033E00005C0211005C0382E312605C0211002C0AD
:1033F000312C01C03AA880E1EEE9F6E0ADE8B6E094
:1034000001900D928A95E1F782E50E948639882322
:1034100069F00E940C394B015C0120E030E0A90109
:103420000E943AE6882309F440C006C0812C912C02
:10343000B0EAAB2EB0E4BB2E311006C0AEA5A11190
:1034400003C0222009F426C1809295069092960628
:10345000A0929706B09298062091A6063091A706F2
:103460004091A8065091A906C501B4010E94CBEC79
:103470001816DCF419821A821B821C822091A20683
:103480003091A3064091A4065091A50660919E0636
:1034900070919F068091A0069091A106FE01319641
:1034A0006F01850174010E945C3631100EC0FEA5CB
:1034B000F11103C02110E9C0EDC0211006C080E069
:1034C0000E94E4B83320B1F3E0C01092A20610923B
:1034D000A3061092A4061092A50610929E061092C2
:1034E0009F061092A0061092A1060E94EF37E0E11D
:1034F000FCE224912AAFE4E0FCE285909590A5904F
:10350000B490E8E0FCE2C590D590E590F490A70176
:103510009601C501B4010E94CBEC18162CF4A5014C
:103520009401C701B60104C0A7019601C501B40109
:103530000E9465EB2B013C01E7ECFBE28591959144
:10354000A591B4918EA39FA3A8A7B9A7E3ECFBE232
:1035500025913591459154912AA73BA74CA75DA78A
:103560009C01AD016AA57BA58CA59DA50E943AE6AC
:1035700087FD07C01EA10FA138A53EAB49A54EA3EC
:1035800006C01AA50BA55CA55EAB8DA58EA3A301F5
:103590009201C301B2010E94A0E620E030E040E8C1
:1035A0005FE30E946BEA0E9419ED9B01AC01612F61
:1035B000702F8EA99EA10E94A0E669837A838B83D7
:1035C0009C83E1E1FCE214912091A6063091A706CC
:1035D0004091A8065091A9062EA33FA348A759A73A
:1035E00020E030E040EC5FE3C701B6010E94A0E6B6
:1035F0006B017C01612F110F770B880B990B0E94D7
:1036000041E69B01AC01C701B6010E94A0E62B0177
:103610003C0120E030E040EC5FE3C501B4010E94D2
:10362000A0E66B017C013AAD632F330F770B880B5B
:10363000990B0E9441E69B01AC01C701B6010E94B3
:10364000A0E6AE014F5F5F4F6A01EEA0FFA008A5A4
:1036500019A5A30192010E945C360E94F3561092B4
:10366000A2061092A3061092A4061092A50610922C
:103670009E0610929F061092A0061092A10631108D
:103680001ECFBEA5B1111BCF15CF81E00E94E4B8BB
:10369000311003C05AA9552319F082E00E94E4B802
:1036A0000E94EF3780912B0480932C0480916B0251
:1036B00090916C02A0916D02B0916E0280933001E6
:1036C00090933101A0933201B0933301809169024C
:1036D00090916A0290932F0180932E0183E0809352
:1036E00034010E94DD3E0C94142E109268020C945A
:1036F000142E209368020C94142E0E940C392B0176
:103700003C01133059F0F701E858F04F2081318126
:10371000428153810E946AEA2B013C01F701E25683
:10372000F94F2081318142815381C301B2010E944E
:103730006AEA4B015C012DEB37E346E855EB0E944A
:10374000CBEC87FD1BC02DEB37E346E855E3C50105
:10375000B4010E943AE618168CF01F5FB4E0CB0E5D
:10376000D11CE4E0EE0EF11C143039F1D1018D9141
:103770001D010E948639882381F3BFCF133051F495
:103780004092AA065092AB066092AC067092AD06CB
:1037900001E0E3CFA5019401F6016081718182818E
:1037A00093810E946BEAD6016D937D938D939C93D8
:1037B0001397812F0E943B37D0CF002309F44FC0CD
:1037C00020E030E0A9016091AA067091AB068091DB
:1037D000AC069091AD060E946BEA2091430E3091A9
:1037E000440E4091450E5091460E0E94A0E60E9464
:1037F000D8EC60935E1070935F108093601090938C
:10380000611090913C1080913D10981719F00E9422
:10381000D25225C00E94305380916F0081FB9927BE
:1038200090F981FF05C080916F008D7F80936F00BC
:1038300040915E1050915F10609160107091611026
:103840004093B10F5093B20F6093B30F7093B40FC6
:10385000992329F080916F00826080936F000E940D
:10386000DD3E0C94142E0E9470910C94142E8091C5
:10387000C50E9091C60E8237910509F4B1C60CF0C1
:10388000D7C08B34910509F4ECC40CF066C08831C4
:10389000910509F47BC2A4F58231910509F4D0C5E4
:1038A000BCF497FF02C00C94CB2D823091050CF430
:1038B000AAC1419711F00C94CB2D60E08EE991E004
:1038C0000E9492635E985E9815985E980C94142EF0
:1038D0008531910509F450C23CF4449711F00C94E1
:1038E000CB2DE6EBF1E007C28631910509F448C221
:1038F000479711F00C94CB2D0E9448360C94142E4F
:103900008D31910511F40C94142EC4F48A31910573
:1039100009F44BC20CF443C28B31910509F453C234
:103920004C9711F00C94CB2D40E060E08091C30ED9
:103930009091C40E0E941CD40C94142E8F319105CA
:1039400009F4A0C30CF4B7C28032910509F44EC348
:103950008A9709F43DC40C94CB2D8836910509F45F
:103960008CC4F4F58235910509F461C504F58D34F4
:10397000910509F47EC40CF478C48135910511F0E9
:103980000C94CB2D0E94A6CE0E9447541092600941
:1039900010925F0968EE73E080E090E00E9455515C
:1039A00060E087EA92E00E9492630C94142E8435C2
:1039B000910509F445C50CF43EC58535910509F41A
:1039C00074C58C35910511F00C94CB2D36E5C32EC2
:1039D00031E0D32E47E3E42E4EE0F42E10E080C514
:1039E0008D36910509F4D6C49CF48A36910509F404
:1039F00008C50CF48DC48B36910509F406C58C36C8
:103A0000910511F00C94CB2D109216010C94142EEC
:103A10008F36910509F448C40CF433C480379105FE
:103A200009F446C48137910509F446C40C94CB2DA2
:103A30008D3D910511F40C9451280CF05FC08B3929
:103A4000910509F480C41CF58737910509F4BFC6B8
:103A500074F48537910509F45DC60CF06CC68337A4
:103A6000910511F00C94CB2DE9E9F3E0F7C5893706
:103A7000910509F4B7C60CF4AEC68C38910509F46B
:103A80008DC48139910509F4B3C60C94CB2D8C3CBF
:103A9000910509F4A7C7F4F4883C910509F422C7FD
:103AA00034F48E3B910509F497C40C94CB2D893CDA
:103AB000910509F45FC78B3C910511F00C94CB2D57
:103AC000EFE2EE2EE9E0FE2E06E511E0F4E0DF2E57
:103AD000D00E79C78E3C910511F40C94D72514F4BF
:103AE0000C946A25833D910511F40C9464278C3D58
:103AF000910511F40C9444280C94CB2D8C3AF1E0F0
:103B00009F0711F40C94F9250CF03FC08E3241E070
:103B1000940711F40C94C129DCF48232A1E09A07D5
:103B200011F40C94EA283CF4823E910511F40C94B3
:103B3000BF280C94CB2D8C32E1E09E0711F40C943D
:103B4000F7288D32914011F40C9420290C94CB2D40
:103B5000833621E0920711F40C945D2D3CF48F32F2
:103B6000914011F40C94152A0C94CB2D803951E01E
:103B7000950711F40C94762D8A39914011F00C942C
:103B8000CB2D0E94F9370C94142E883FB1E09B078F
:103B900011F40C948B2DECF4853FF1E09F0711F4A8
:103BA0000C94792D4CF4843F914011F00C94CB2D62
:103BB0000E94E8860C94142E863F41E0940711F48D
:103BC0000C947C2D873F914011F40C947F2D0C9424
:103BD000CB2D8B38A3E09A0711F40C94142E3CF4EF
:103BE0008C30924011F40C94AD2D0C94CB2D803A76
:103BF000F3E09F0709F439C2873E934011F40C9417
:103C0000B62D0C94CB2DA090C30EB090C40E80E5C1
:103C10000E948639882359F00E94C8386B017C01C4
:103C200011E0672B682B692B31F410E004C010E021
:103C3000C12CD12C760183E50E948639882311F4AA
:103C40000C940B2F0E940C3920E030E04AE754E43A
:103C50000E94A0E60E94DEEB6B017C0111110BC0FB
:103C6000672B682B692B39F4A114B10421F0D5011D
:103C70008C91811102C010E001C011E00E9430530C
:103C8000112329F061E0C5010E94CE6305C060E008
:103C90008BE891E00E94926383E08093560F81E06D
:103CA0008093D305C114D104E104F104E9F00E942A
:103CB000E249C60ED71EE81EF91E0E94E249DC0149
:103CC000CB018C199D09AE09BF09B7FD06C00E9442
:103CD000BB6D1092D3050C94142E8091D3058823CC
:103CE000B1F30E9467BAE9CF8091D305882379F3B5
:103CF0000E9467BAF9CF84918F010F5F1F4F88230D
:103D000021F00E947F3AF801F6CF1092271340E08D
:103D100050E0BA018AED90E10E94FEC88BE1EAED25
:103D2000F0E1DE01159601900D928A95E1F7809100
:103D3000D8109091D9109C838B838CE092E09A8369
:103D4000898340E050E0BE016F5F7F4F80E090E0EC
:103D50000E94F1D1CE0101960E94E7B9E7EAF1E0B5
:103D600084918F010F5F1F4F882311F40C94142E40
:103D70000E947F3AF801F4CF0E94D78B0C94142E46
:103D800010928210109283100C94142E8091831044
:103D90008111209382100E9442CE0C94142E109216
:103DA00082100E947CCE0C94142E80918310882364
:103DB00011F40C94142E83E50E94863981110C9421
:103DC000102F0C94142E83E40E943F39882399F11C
:103DD000E4EFF1E084918F010F5F1F4F882321F002
:103DE0000E947F3AF801F6CF80917512882391F0F6
:103DF000BE016F5F7F4F82E792E10E9483A28E0136
:103E00000F5F1F4FF80181918F01882379F00E9485
:103E10007F3AF8CFE7ECF1E084918F010F5F1F4FFD
:103E2000882321F00E947F3AF801F6CF8AE00E94B1
:103E30007F3A0C94142E80918310882371F1809125
:103E40008210882351F1E1EDF1E084918F010F5F41
:103E50001F4F882321F00E947F3AF801F6CF60912E
:103E600023137091241380912513909126134AE017
:103E70000E949E3D8FE20E947F3A60911F137091D5
:103E8000201380912113909122134AE00E949E3DBD
:103E90008AE00E947F3A0C94142EE3EEF1E08491C4
:103EA0008F010F5F1F4F882311F40C94142E0E9472
:103EB0007F3AF801F4CF80918310882311F40C9499
:103EC000142E82E792E10E94BBC882E792E10E9431
:103ED000D3A210928110109280100091C30E109105
:103EE000C40E80918310882311F40C94142E0E9428
:103EF0008BD7B801CE0180960E94D3D68C01892B36
:103F000011F40C94142E68A179A16115710511F0BA
:103F10006C5F7F4F19821C8222E0A801CE010196BE
:103F20000E947DA8811102C0F12C1EC0CE01019615
:103F30000E9441D68823C1F36D857E858F8598893F
:103F400041E00E94A0C6882379F3E98920E2E29F3C
:103F5000F0011124E155F94F309731F385EE80835C
:103F60001C820E9460C6F82ECE0101960E94793A0A
:103F7000FF2011F1E3E0F2E084917F013FEFE31ACB
:103F8000F30A882321F00E947F3AF701F5CFD80188
:103F90008D918D01882319F00E947F3AF8CF8AE035
:103FA0000E947F3A1092231310922413109225132B
:103FB000109226130C94142EE1E1F2E084917F011B
:103FC000BFEFEB1AFB0A882321F00E947F3AF7012A
:103FD000F5CFF80181918F01882319F00E947F3A73
:103FE000F8CF8EE20E947F3A0C94142E80918210BA
:103FF00081110E94305380918310882311F40C9416
:10400000142E80E50E948639882319F00E94FC381E
:1040100003C080E50E943F39182F482F61E080914E
:10402000C30E9091C40E0E941CD483E50E94863971
:10403000882381F00E94D838AB01BC014093231340
:1040400050932413609325137093261382E792E113
:104050000E94FEC880918310882319F081E080932C
:10406000821011110C94142E96CE8091C30E909153
:10407000C40E21E02093811040E060E00E941CD437
:104080000C94142E0E940ECEECE3CE2ED12CE12CFB
:10409000F12CA70196010E942EEA762E672ECA0106
:1040A000B901A70196010E942EEA6B017C01CA01A9
:1040B000B90128E130E040E050E00E942EEA4B01D7
:1040C0005C01C9016DE671E00E9478ED8E010F5F21
:1040D0001F4F6115710599F06F927F92DF92CF9219
:1040E0009F928F929F938F937F936F9381E592E03E
:1040F0009F938F931F930F930E94D1E512C0009757
:10410000B1F06F927F92DF92CF929F928F929F93A6
:104110008F9381E492E09F938F931F930F930E945C
:10412000D1E50FB6F894DEBF0FBECDBF36C0811407
:104130009104A104B10479F06F927F92DF92CF9243
:104140009F928F9285E392E09F938F931F930F939B
:104150000E94D1E5E6CFC114D104E104F10469F075
:104160006F927F92DF92CF928DE292E09F938F9336
:104170001F930F930E94D1E5D4CF6F927F9289E273
:1041800092E09F938F931F930F930E94D1E50F901E
:104190000F900F900F900F900F9060E0C8010E9459
:1041A000CE63EEEEFEE284917F01BFEFEB1AFB0AD5
:1041B000882321F00E947F3AF701F5CFB80185E608
:1041C00092E00E9411528AE00E947F3A0C94142ED1
:1041D00083E50E948639882311F40C94142E0E94E2
:1041E000E838E82E80E50E948639882311F40C9483
:1041F000142E0E94E838182F87FF02C00C94142E4A
:1042000089E40E948639882349F00E94FC38811194
:1042100011C0E1E4F5E08DE28E0F07C089E40E9451
:104220003F39F5CF31968E1729F094911913FACFB3
:104230000C94E53061E0812F0E94FA486E2D812FA9
:104240000E942F5CF12CB701812F0E943649143057
:1042500011F00C94142EF0926009E0925F090C9416
:10426000142E0E9442CE0C94142E0E947CCE0C94EC
:10427000142E0E9491CE0C94142E0E94483E0C9451
:10428000142E8EE40E948639882311F40C94142E87
:104290000E94D8386093F30F7093F40F8093F50F5A
:1042A0009093F60F0C94142E0E94893A0C94142EBD
:1042B00082E792E00E9403BA83E50E948639882350
:1042C00069F00E94E8388D3320F4809344010C9407
:1042D000142E8CE3809344010C94142EEEEEFEE237
:1042E00084918F010F5F1F4F882321F00E947F3A36
:1042F000F801F6CF4091440150E060E070E08BE7B8
:1043000092E00E9491B88AE00E947F3A0C94142EA9
:1043100089E690E00E94063E811111C0E2E8F2E0D9
:1043200084918F010F5F1F4F882321F00E947F3AF5
:10433000F801F6CF0E9410468AE00E947F3A109260
:10434000560F0C94B43283E50E948639882311F409
:104350000C94142E0E94E838182F8D3308F01CE3BB
:104360001093630F0E94E2496B017C01212F30E022
:10437000A8EEB3E00E945BEAC60ED71EE81EF91E47
:10438000C0925F0FD092600FE092610FF092620FC7
:104390000C94142E0E94A83F0C94142E8091360E7B
:1043A00083FF02C00C94142E83E50E948639882373
:1043B00011F40C94142E0E940C390E94D7EB6E3627
:1043C000710514F06EE670E070937D0660937C06D4
:1043D0000E94BBCC0C94142E8091360E83FF02C039
:1043E0000C94142E83E50E9486398EAF81110C94B3
:1043F000212F82E50E94863981110C94212F0C9483
:10440000142E0E9493390C94142E80E50E94863954
:10441000811106C01092600910925F090C94142E4D
:104420000E94D838672B11F00C94142EF3CF109201
:1044300067020C94142E81E0809367020C94142E72
:1044400083E50E9486398823A1F00E940C3920E080
:1044500030E04AE754E40E94A0E60E94DEEB60935D
:1044600045017093460180934701909348010C9455
:10447000142E88E50E943F3981110C94C03089E5E3
:104480000E943F3981110C94C0308AE50E943F3967
:1044900081110C94C03085E40E943F3981110C9445
:1044A000C0300E9447540C94142E83E50E943F397B
:1044B000882311F40C94142E0E940C3920E030E073
:1044C0004AE754E40E94A0E60E94DEEB60935B0F93
:1044D00070935C0F80935D0F90935E0F0C94142E7D
:1044E000D6018D916D010E943F39882309F46DC07A
:1044F000133009F063C00E940C394B015C0120E0CD
:1045000030E040EA51E40E943AE687FF4EC0A50140
:1045100094016091430E7091440E8091450E9091EC
:10452000460E0E9465EB2B013C019B01AC016091A2
:104530000B0970910C0980910D0990910E090E9450
:10454000A0E660930B0970930C0980930D0990937A
:104550000E09A301920160913B0970913C09809181
:104560003D0990913E090E94A0E660933B0970933B
:104570003C0980933D0990933E0960911B0970911D
:104580001C0980911D0990911E090E943FE6A3011C
:1045900092010E94A0E60E94DEEB60931B097093DB
:1045A0001C0980931D0990931E098092430E9092DE
:1045B000440EA092450EB092460E07C00E940C39E0
:1045C000F70160837183828393831F5FF4E0EF0EB2
:1045D000F11C143009F084CF0E941B540C94142E4B
:1045E0000E94305383E50E948639882309F437C935
:1045F0000E94D8386230710509F031C90E9422BD8D
:104600008BE50E947F3A60914A0F70914B0F809129
:104610004C0F90914D0F42E00E94914140914E0FFE
:1046200050914F0F6091500F7091510F87EB92E0B6
:104630000E94AEB84091520F5091530F6091540FA9
:104640007091550F84EB92E00E94AEB88DE50E9408
:104650007F3A8AE00E947F3A0C94142E84918F0155
:104660000F5F1F4F882321F00E947F3AF801F6CF99
:1046700060E089E893E00E94993E61E082E893E07F
:104680000E94993E61E087E793E00E94993E61E0D5
:1046900087E693E00E94993E60E08EE593E00E94F9
:1046A000993E61E084E593E00E94993E60E08AE4EF
:1046B00093E00E94993E60E082E493E00E94993E7C
:1046C00060E084E393E00E94993E60E086E293E03C
:1046D0000E94993E60E087E193E00E94993E60E08D
:1046E00089E093E00E94993E60E083EF92E00E94AF
:1046F000993E60E082EE92E00E94993E60E08DEC8F
:1047000092E00E94993E61E08AEB92E00E94993E1D
:104710000C94142E8091C30E9091C40EDC012C9148
:10472000211104C00E94BB6D0C94142E60E00E9405
:10473000CE630C94142E0091C30E1091C40E83E02E
:10474000D12C40E08150E1F0F8019081292F2B7F9E
:104750002134C1F721812133A9F7913421F0953417
:1047600021F441E002C0DD24D39498012E5F3F4F35
:1047700089012F5F3F4FD8019C919032C9F3E2CF5E
:10478000442369F0EEEEFEE284917F01BFEFEB1A65
:10479000FB0A882321F00E947F3AF701F5CFDD2044
:1047A00069F0E3E6F4E084917F012FEFE21AF20A68
:1047B000882321F00E947F3AF701F5CFD8018D912F
:1047C0008D01882309F432CB0E947F3AF7CF0E94F3
:1047D000CA560C94142E81E080932C0480932B04F1
:1047E0000C94142E10922C0410922B040C94142E62
:1047F00083E50E948639882319F00E94D83802C0C8
:1048000060E070E08B01112702301105D4F0E3ED78
:10481000FEE284918F010F5F1F4F882321F00E94D9
:104820007F3AF801F6CFE7E6F4E084918F010F5F5D
:104830001F4F882311F40C94142E0E947F3AF80124
:10484000F4CF88E40E9486398823A9F00E94D838E2
:104850006A3A71053CF06530B1E07B072CF064E00A
:1048600071E002C06AEA70E0F801EE0FFF1FEA5B38
:10487000F94F7183608386E40E9486398823A9F00A
:104880000E94D838F801EE0FFF1FE65BF94F7183E5
:1048900060836F3F710519F014F06FEF70E077FFE0
:1048A00002C060E070E07183608382E40E94863918
:1048B000882311F40C94142E0E94D83865307105A9
:1048C00034F06F3671052CF06EE670E002C065E0E2
:1048D00070E0000F111FF801EE5BF94F71836083E8
:1048E0000C94142E88EC90E00E94063E81110C94EA
:1048F000142E84E40E943F398823C1F10E940C39B0
:1049000011E020E030E0A9010E943AE6811101C0E7
:1049100010E01093EB05112349F10E940C39E0914E
:10492000F40224E0E29FF0011124E951FA4F608380
:1049300071838283938320E030E0A9016091E705D1
:104940007091E8058091E9059091EA050E943AE6A8
:1049500081110CC080E090E0A0EEBFE38093E705FA
:104960009093E805A093E905B093EA050E94795178
:104970000C94142EADE4EA2EAEE0FA2E06E511E01A
:10498000B4E0DB2ED00ED8018D918D010E943F390D
:10499000882349F00E940C390E94DEEBF701608306
:1049A000718382839383F4E0EF0EF11CD012EBCF7E
:1049B0000E9468520C94142EF4E0EF0EF11CD016F5
:1049C00011F40C94142ED8018D918D010E943F3961
:1049D000882391F30E940C39F701608371838283ED
:1049E0009383EACF83E50E9486398823A1F00E9451
:1049F0000C396093270970932809809329099093B3
:104A00002A096093230970932409809325099093C0
:104A1000260910E001C011E080E50E948639882354
:104A200059F00E940C3960932709709328098093EC
:104A3000290990932A0910E082E50E94863988238B
:104A400059F00E940C3960932B0970932C098093C4
:104A50002D0990932E0910E084E50E948639882361
:104A600061F00E940C3960932309709324098093AC
:104A70002509909326090C94142E112311F40C94FB
:104A8000142E4091270950912809609129097091AD
:104A90002A098FE894E00E94AEB840912B0950910A
:104AA0002C0960912D0970912E098CE894E00E94E8
:104AB000AEB8409123095091240960912509709165
:104AC000260989E894E00E94AEB88AE00E947F3A05
:104AD0000C94142E81E50E943F39882351F00E94E6
:104AE000C8386093430970934409809345099093B3
:104AF000460983E50E943F39882351F00E940C3912
:104B000060935B0970935C0980935D0990935E09E3
:104B100084E50E943F39882351F00E940C3960934C
:104B20005709709358098093590990935A0988E559
:104B30000E943F39882351F00E940C396093FF088E
:104B400070930009809301099093020989E50E94FE
:104B50003F39882351F00E940C3960930309709308
:104B6000040980930509909306098AE50E943F395C
:104B7000882351F00E940C3960930709709308094B
:104B80008093090990930A0985E40E943F3988239C
:104B900011F40C94142E0E940C3960930B0970933D
:104BA0000C0980930D0990930E090C94142E66E560
:104BB000C62E61E0D62E7EE2E72E74E0F72E10E0DE
:104BC000D6018D916D010E943F39882351F00E94DA
:104BD0000C39F7016083718382839383812F0E9454
:104BE0003B371F5FF4E0EF0EF11C133049F70C94D4
:104BF0002F1C1091F005012F0170022711FBFF24DB
:104C0000F0F8F22612FB112710F91227011102C049
:104C1000FF2019F0EEEEFEE215C01111FBCF57EBAD
:104C2000852E5BE2952E2EE936E03FA32EA3AE0142
:104C30004F5F5F4F5A0100E11CE21A0153E0500F31
:104C40005AA77BC084916F012FEFC21AD20A882322
:104C500021F00E947F3AF601F5CFEFEBF4E084916A
:104C60006F013FEFC31AD30A882321F00E947F3AD5
:104C7000F601F5CF002369F0EDEBF4E084916F01CC
:104C80004FEFC41AD40A882321F00E947F3AF6011C
:104C9000F5CFFF2069F0EBEBF4E084916F015FEF5B
:104CA000C51AD50A882321F00E947F3AF601F5CF74
:104CB000111103C0E1EBF4E00DC0E9EBF4E08491E5
:104CC0006F019FEFC91AD90A8823A1F30E947F3A86
:104CD000F601F5CF84916F01AFEFCA1ADA0A882383
:104CE00021F00E947F3AF601F5CF111103C042E690
:104CF00052E002C040E252E0F11003C022E632E08E
:104D000002C022E232E0011103C082E692E002C05A
:104D100084E292E05F934F933F932F939F938F93FF
:104D20008FE994E09F938F931F920E94B5A00FB6D6
:104D3000F894DEBF0FBECDBF77C7F40165917591C2
:104D400085919491AEA1BFA1CD90DD90ED90FD90A5
:104D5000BFA3AEA3A70196010E946AEA2B013C0102
:104D600020E030E040EA51EC0E94CBEC87FD10C01F
:104D700020E030E040EA51E4C301B2010E943AE68B
:104D8000181634F0F10140825182628273820EC0A3
:104D9000F80184911816B4F7F7FAF094F7F8F09444
:104DA000D101CD92DD92ED92FC921397D101CD907D
:104DB000DD90ED90FD901D0120E030E040EA51ECE7
:104DC000C701B6010E94CBEC87FF03C0E3EDFEE212
:104DD0000BC020E030E040EA51E4C701B6010E9478
:104DE0003AE6181674F5F2CF84918F010F5F1F4FCA
:104DF000882321F00E947F3AF801F6CFE3EEF4E039
:104E000084918F010F5F1F4F882321F00E947F3A0A
:104E1000F801F6CF61E085ED94E00E9492630E9474
:104E2000B07488E290E099A388A388EC90E09DA3F9
:104E30008CA3BE01605E7F4FCE0184960E940DD68A
:104E4000F3C6B4E08B0E911C0F5F1F4FEAA5E01371
:104E500074CF4EE2E42E44E0F42E10E0F50181918F
:104E60009191A191B1915F01F70181939193A193E8
:104E7000B1937F01812F0E943B371F5F133071F781
:104E80000E94DD3E60E085EC94E00E94926383E93D
:104E900092E09DA38CA304E610E019A308A3BE0131
:104EA0006C5D7F4FCE0180960E940DD68AEB92E01A
:104EB0009DA38CA319A308A3BE016C5D7F4FCE01F7
:104EC00080960E940DD6B0C6EEEEFEE284918F0170
:104ED0000F5F1F4F882321F00E947F3AF801F6CF21
:104EE00083E50E943F39882321F00E94FC3880939B
:104EF0002D01E9E2F5E084918F010F5F1F4F8823B8
:104F000021F00E947F3AF801F6CF80912D018111A6
:104F100003C0E5E2F5E002C0E1E2F5E084918F0133
:104F20000F5F1F4F882321F00E947F3AF801F6CFD0
:104F3000E9E1F5E084918F010F5F1F4F882321F095
:104F40000E947F3AF801F6CF2091780F3091790FC7
:104F500040917A0F50917B0F6091840F7091850F73
:104F60008091860F9091870F0E946BEAAB01BC0184
:104F700087E195E00E94AEB820917C0F30917D0FC3
:104F800040917E0F50917F0F6091880F7091890F33
:104F900080918A0F90918B0F0E946BEAAB01BC014C
:104FA00084E195E00E94AEB82091800F3091810F8E
:104FB0004091820F5091830F60918C0F70918D0FF3
:104FC00080918E0F90918F0F0E946BEAAB01BC0114
:104FD00081E195E00E94AEB8E9E0F5E084918F01AF
:104FE0000F5F1F4F882321F00E947F3AF801F6CF10
:104FF0002091780F3091790F40917A0F50917B0F6B
:105000006091490170914A0180914B0190914C014E
:105010000E946BEAAB01BC0187E095E00E94AEB84C
:1050200020917C0F30917D0F40917E0F50917F0F2A
:1050300060914D0170914E0180914F01909150010E
:105040000E946BEAAB01BC0184E095E00E94AEB81F
:105050002091800F3091810F4091820F5091830FEA
:1050600060915101709152018091530190915401CE
:105070000E946BEAAB01BC0181E095E00E94AEB8F2
:105080008AE00E947F3AD0C583E50E948639882352
:1050900009F4CAC50E94D83870932F0160932E017D
:1050A000C3C58DED90E00E94063E8111BDC583E52C
:1050B0000E9486398823D9F10091F40210E00E9401
:1050C000D838000F111FF801EA5DFE4F718360832D
:1050D0008091F40290E08C01000F111F000F111F4E
:1050E00098012B5C3E4F7901880F991FFC01EA5D06
:1050F000FE4F60817181072E000C880B990B0E9476
:1051000041E62AE037ED43E25CE30E94A0E6F801C5
:10511000E45AF94F20813181428153810E94A0E6F7
:10512000D7016D937D938D939C9313977DC5EEEE80
:10513000FEE284918F010F5F1F4F882321F00E94B0
:105140007F3AF801F6CF85E40E947F3A8091F4021D
:10515000805D0E947F3AE091F402F0E0EE0FFF1FC5
:10516000EA5DFE4F6081718189E395E00E94CBB8D2
:1051700085E20E947F3A8AE00E947F3A55C580E529
:105180000E943F39882309F44FC50E94D8386B012B
:105190007C0183E50E948639882321F00E94D8385B
:1051A0008B0102C00FEF1FEFC8010196039708F0B3
:1051B0003BC5D7FC39C59C2DE1E4F5E08DE28E0FAF
:1051C0002491921711F40C94E53031968E13F8CF98
:1051D0000C94E8308AE50E94863981110C941031D4
:1051E00083E50E94863981110C9410311DC583E539
:1051F0000E948639882319F00E94D83802C064E0E2
:1052000071E079A368A380E50E948639882339F08C
:105210000E94D8386938B3E17B0730F402C068EEE9
:1052200073E07A83698304C088E893E19A83898371
:10523000BE01605E7F4FCE0101960E940DD6F4C480
:1052400085E40E948639811110C080E50E943F39B3
:10525000882391F00E940C396093350670933606CE
:10526000809337069093380607C00E94E838882359
:1052700061F3E3EDFEE26EC089E40E943F398823CA
:1052800081F00E940C392CEA35EC47E25EE30E9483
:10529000A0E660933D0670933E0680933F06909390
:1052A000400684E40E943F39882381F00E940C3933
:1052B0002CEA35EC47E25EE30E9465EB6093390629
:1052C00070933A0680933B0690933C06EEEEFEE226
:1052D00084918F010F5F1F4F882321F00E947F3A36
:1052E000F801F6CF409135065091360660913706A9
:1052F0007091380686E795E00E94AEB82CEA35EC4E
:1053000047E25EE360913D0670913E0680913F0664
:10531000909140060E9465EBAB01BC0182E795E0ED
:105320000E94AEB82CEA35EC47E25EE360913906A4
:1053300070913A0680913B0690913C060E94A0E64F
:10534000AB01BC018EE695E00E94AEB88AE00E94F7
:105350007F3A6AC484918F010F5F1F4F882321F029
:105360000E947F3AF801F6CFEAE7F5E084918F01D9
:105370000F5F1F4F882309F457C40E947F3AF8013A
:10538000F5CF83E50E943F39182F882371F00E94E2
:105390000C390E94D7EB70933A016093390121E0F8
:1053A000672B09F020E02093610980E50E943F39D6
:1053B000882359F02091390130913A01232B11F0C3
:1053C0000E94FC38809361092FC411112DC4EEEEA8
:1053D000FEE284918F010F5F1F4F882321F00E940E
:1053E0007F3AF801F6CF80916109811103C069E22B
:1053F00072E002C066E272E081EA95E00E9411521A
:105400006091390170913A0180E995E00E94CBB832
:10541000ECE8F5E084918F010F5F1F4F882309F4BA
:1054200003C40E947F3AF801F5CF85E40E948639D3
:10543000882321F00E94D8387B0102C0E12CF12C96
:1054400083E40E948639882331F00E94D83866961A
:105450006FAF669704C0E5E06696EFAF669785E5A7
:105460000E948639882319F00E94FC3803C085E524
:105470000E943F39A2968FAFA297F7FC07C0812CFC
:10548000912CF6E1AF2EF3E4BF2E06C0812C912CB7
:10549000ECE8AE2EE2E4BE2E83E50E948639882336
:1054A00021F00E940C394B015C01E114F10411F46C
:1054B0001092F4020E94E2492B013C01EE2069F0B7
:1054C000E2E6F7E084918F010F5F1F4F882309F414
:1054D000ABC30E947F3AF801F5CFC501B4010E9429
:1054E000D7EB072E000C880B990B0E9441E66EA7A4
:1054F0007AAB8EAB9AAF60912B0170912C016F50FB
:105500007109072E000C880B990B0E9441E69B0144
:10551000AC016EA57AA98EA99AAD0E94CBEC1816A3
:105520006CF4E3E2F7E084918F010F5F1F4F882353
:1055300009F47AC30E947F3AF801F5CFEEE4F7E070
:1055400084917F012FEFE21AF20A882321F00E9452
:105550007F3AF701F5CFD301C201805E914BAF4F87
:10556000BF4FAE968CAF9DAFAEAFBFAFAE970E94B0
:10557000A6CE8FE78093F20281E0809316016D96AC
:105580004CAE5DAE6EAE7FAE6D97A6964CAE5DAE88
:105590006EAE7FAEA69769961FAE6997AA961CAEAF
:1055A0001DAE1EAE1FAEAA9723961FAE239790E4A2
:1055B00027969FAF2797ACE12896AFAF2897B6E420
:1055C0002996BFAF29972A961FAE2A972B961FAE12
:1055D0002B972C961FAE2C972D961FAE2D97659668
:1055E0001CAE1DAE1EAE1FAE659761961CAE1DAE05
:1055F0001EAE1FAE6197C12CD12C76012FE730E093
:1056000040E050E02AA73BA74CA75DA77FE7872E85
:10561000912CA12CB12CA1961CAE1DAE1EAE1FAEBE
:10562000A19731E068963FAF68971FAE1EAE10E0BD
:10563000212C312C00E066964FAD6697042E000CAD
:10564000550B67965FAF4EAF679780911601882321
:1056500009F4F1C00E94E2496EA37FA388A799A72D
:105660008091F102882309F4CAC00E94EDCD109107
:105670006209209063093090640900916509212F27
:10568000322D432D502F2A966FAD2A972B967FAD42
:105690002B972C968FAD2C972D969FAD2D970E9412
:1056A0003AE687FF0CC02A961FAF2A972B962FAE9B
:1056B0002B972C963FAE2C972D960FAF2D97212F21
:1056C000322D432D502F23966FAD239727967FAD14
:1056D000279728968FAD289729969FAD29970E94E6
:1056E000CBEC181664F423961FAF239727962FAEA2
:1056F000279728963FAE289729960FAF2997689647
:105700005FAD68972EA53AA94EA9552309F458C054
:105710005AAD612F722D832D902F0E94CBEC18165D
:105720000CF06DC08EA19FA1A8A5B9A584199509FB
:10573000A609B709E2968CAF9DAFAEAFBFAFE297B7
:1057400088589341A109B109B7FD59C0D501C401D9
:105750002AA53BA54CA55DA5821B930BA40BB50BFD
:10576000B595A795979587958093F202E2968CADB3
:105770009DADAEADBFADE297A1968CAF9DAFAEAF84
:10578000BFAFA1979EA52A969FAF2A97AAA92B964D
:10579000AFAF2B97BEA92C96BFAF2C97EAAD2D9635
:1057A000EFAF2D972EA13FA148A559A56D962CAF1F
:1057B0003DAF4EAF5FAF6D9768961FAE68971FC045
:1057C0005AAD612F722D832D902F0E943AE687FFEC
:1057D00016C08EA19FA1A8A5B9A56D962CAD3DAD13
:1057E0004EAD5FAD6D97821B930BA40BB50BAC0157
:1057F000BD01485853416109710977FF4CC520E04C
:1058000030E040EA51E46EA57AA98EA99AAD0E94D3
:105810006BEA9B01AC01612F722D832D902F0E94AA
:10582000CBEC18167CF4EFEAF6E084918F010F5F61
:105830001F4F811103C00E94A6CEF6C10E947F3A7D
:10584000F801F3CF8EA19FA1A8A5B9A5A6962CAD6E
:105850003DAD4EAD5FADA697821B930BA40BB50B70
:10586000B7FD90C00E9410468AE00E947F3A8EA148
:105870009FA1A8A5B9A58053984FAF4FBF4FA6963B
:105880008CAF9DAFAEAFBFAFA69769969FAD69973E
:1058900091115DC0AA962CAD3DAD4EAD5FADAA97FE
:1058A000612F722D832D902F0E94CBEC1816D4F50A
:1058B00020E030E040E050E4612F722D832D902FE6
:1058C0000E946BEAAA966CAF7DAF8EAF9FAFAA978E
:1058D0002EA13FA148A559A5205E314B4F4F5F4FE8
:1058E000AE962CAF3DAF4EAF5FAFAE9720E030E04D
:1058F00040EC50E46EA57AA98EA99AAD0E946AEA9E
:105900009B01AC0181E069968FAF6997612F722D81
:10591000832D902F0E94CBEC1816A4F169961FAE30
:10592000699730C08EA19FA1A8A5B9A5AE962CAD50
:105930003DAD4EAD5FADAE97821B930BA40BB50B87
:10594000B7FD20C04EE856E060EA76E018C020E0DF
:1059500030E040EA51E46EA57AA98EA99AAD0E9482
:105960006AEA9B01AC01612F722D832D902F0E945A
:105970003AE687FF07C04BE656E06EE776E080E048
:105980000E94DDCE8EA19FA1A8A5B9A5880F991F61
:10599000AA1FBB1F6D962CAD3DAD4EAD5FAD6D9793
:1059A000821B930BA40BB50B84199509A609B709A3
:1059B00081389F44A241B10568F0EDE4F6E084919E
:1059C0008F010F5F1F4F882309F435CF0E947F3A64
:1059D000F801F5CF4EAD5FAD67968EAD9FAD679781
:1059E000841795070CF066C0E0EFF5E084918F0115
:1059F0000F5F1F4F882321F00E947F3AF801F6CFF6
:105A0000B701A6018CED95E00E94AEB88AE00E9435
:105A10007F3A61964CAD5DAD6EAD7FAD619788EC20
:105A200095E00E94AEB88AE00E947F3A65964CAD40
:105A30005DAD6EAD7FAD659784EB95E00E94AEB82D
:105A40008AE00E947F3AA2969FADA297992309F41B
:105A5000EBC0C0923506D0923606E0923706F0923F
:105A600038062CEA35EC47E25EE361966CAD7DAD1D
:105A70008EAD9FAD61970E94A0E660933D06709346
:105A80003E0680933F06909340062CEA35EC47E2B1
:105A90005EE365966CAD7DAD8EAD9FAD65970E9462
:105AA00065EB6093390670933A0680933B069093BA
:105AB0003C06BAC00E94F763C8CDE3EDFEE28491D4
:105AC0008F010F5F1F4F882321F00E947F3AF8015A
:105AD000F6CFECE8F7E084918F010F5F1F4F88232A
