:100000000C94E3160C940D170C940D170C940D170B
:100010000C940D170C940D170C940D170C940D17D0
:100020000C940D170C940D170C940D170C940D17C0
:100030000C940D170C94CE700C940D170C940D1796
:100040000C940D170C94856A0C94E6D90C940D173A
:100050000C94D6390C940D170C940D170C940D17A5
:100060000C940D170C940D170C940D170C940D1780
:100070000C940D170C940D170C940D170C940D1770
:100080000C9436DB0C940D170C940D179ED065CF95
:100090009CCFDAD09CCF9CCF9CCF9CCF9CCF9CCFC9
:1000A0009CCF9CCF9CCF9CCF9CCF9CCF9CCF9CCFF8
:1000B0009CCF9CCF9CCF9CCF9CCF9CCF9CCF9CCFE8
:1000C0009CCF9CCF9CCF9CCFD4D09CCF9CCF9CCF9F
:1000D0009CCF9CCF9CCF9CCF9CCFADD09CCF9CCFB6
:1000E0009CCF9CCF9CCF9CCF9CCF9CCF9CCF9CCFB8
:1000F000F1D099CF2AD72DD720D724D744D744D7AA
:1001000031D735D73BD73FD755D95AD95FD969D9D8
:1001100097D997D973D97BD983D98DD9084AD73B39
:100120003BCE016E84BCBFFDC12F3D6C74319ABDC6
:1001300056833DDA3D00C77F11BED9E4BB4C3E91EA
:100140006BAAAABE000000803F05A84CCDB2D44ED9
:10015000B93836A9020C50B9918688083CA6AAAADB
:100160002ABE000000803F004E414E494E4954597E
:10017000494E46CDCCCC3D0AD7233C17B7D1387772
:10018000CC2B329595E6241FB14F0A000020410088
:1001900000C84200401C4620BCBE4CCA1B0E5AAED2
:1001A000C59D74434F4D4D554E49434154494F4EA3
:1001B0000044525952554E004552524F5253004935
:1001C0004E464F004543484F0047322F4733206289
:1001D000616420706172616D65746572730A0053A9
:1001E0006C6565702E2E2E00486F6D652058592065
:1001F00066697273740A00486F6D652058592066ED
:100200006972737400205A3A200020593A20004243
:10021000656420583A20004D65736820706F696EE0
:10022000742063616E6E6F74206265207265736FF7
:100230006C7665640A00436C69636B20746F20728E
:100240006573756D652E2E2E004E6F206D6F766571
:100250002E00456E642066696C65206C6973740AB3
:1002600000426567696E2066696C65206C6973740D
:100270000A00286E6F2066696C652900534420705F
:1002800072696E74696E67206279746520004E6FC2
:1002900074205344207072696E74696E670A00435B
:1002A000757272656E742066696C653A2000256906
:1002B000730025696D20256973002569682025690B
:1002C0006D202569730025696420256968202569EA
:1002D0006D202569730025697920256964202569C9
:1002E000682025696D20256973005072696E74203D
:1002F00074696D653A2000C401BF01B801B101A362
:10030000016F66660044454255473A004B494C4CE4
:1003100045442E20004D3131332053006F6B004592
:100320006E6465722D33204F66662E002C20002CE3
:100330002000544845524D414C5F50524F54454364
:1003400054494F4E004155544F5245504F52545FFF
:1003500053445F53544154555300454D455247450E
:100360004E43595F50415253455200434153455FFC
:100370004C494748545F4252494748544E455353AD
:1003800000544F47474C455F4C494748545300532E
:100390004F4654574152455F504F574552004255C2
:1003A000494C445F50455243454E54004C455645D8
:1003B0004C494E475F44415441005A5F50524F42AE
:1003C00045004155544F4C4556454C005052494EFE
:1003D000545F4A4F420050524F47524553530041D9
:1003E00055544F5245504F52545F54454D5000564E
:1003F0004F4C554D455452494300454550524F4D81
:100400000053455249414C5F584F4E5F584F464646
:10041000004649524D574152455F4E414D453A4D78
:1004200061726C696E206275676669782D312E3154
:100430002E7820284769746875622920534F5552D9
:1004400043455F434F44455F55524C3A687474705E
:10045000733A2F2F6769746875622E636F6D2F4D25
:1004600061726C696E4669726D776172652F4D615C
:10047000726C696E2050524F544F434F4C5F56453B
:100480005253494F4E3A312E30204D414348494E48
:10049000455F545950453A456E6465722D33204589
:1004A000585452554445525F434F554E543A3120AB
:1004B000555549443A63656465326132662D34317D
:1004C00061322D343734382D396231322D63353570
:1004D0006336326633363766660A002F2F20004DAA
:1004E00031343520533C696E6465783E206F7574F5
:1004F000206F662072616E67652028302D31290AD1
:1005000000205400205200416363656C6572617481
:10051000696F6E3A20500020466C6F773A200000D9
:10052000010F150E12FFFFFFFF16170E13FFFFFF3F
:10053000FF03021A14FFFFFFFFFFFFFF0C04FFFF82
:10054000FF01000EFFFFFF0C190DFF18206F7574DF
:10055000206F662072616E67650A00536572766F60
:1005600020003A200020536572766F200043290A4C
:100570000061626C656420286D696E2074656D7021
:100580002000436F6C642065787472756465732015
:1005900061726520004E6F2063617365206C69672E
:1005A00068740A00454550524F4D204F4B0A003F9A
:1005B0005A206F7574206F662072616E67652028FF
:1005C0002D323020746F203230290A003A2000503A
:1005D000726F6265205A204F6666736574004163CE
:1005E000746976652045787472756465723A200086
:1005F000496E76616C6964206578747275646572A1
:100600000A004B494C4C45442E200053544F505047
:1006100045442E20005072696E7465722073746FA9
:10062000707065642064756520746F206572726FE8
:1006300072732E2046697820746865206572726F27
:100640007220616E6420757365204D3939392074CC
:100650006F20726573746172742E202854656D70FA
:100660006572617475726520697320726573657453
:100670002E2053657420697420616674657220723F
:10068000657374617274696E67290A004E6F204346
:100690006865636B73756D2077697468206C696E2B
:1006A00065206E756D6265722C204C617374204CF0
:1006B000696E653A20004E6F20436865636B737501
:1006C0006D2077697468206C696E65206E756D6247
:1006D00065722C204C617374204C696E653A200061
:1006E000636865636B73756D206D69736D617463A9
:1006F000682C204C617374204C696E653A20004C64
:10070000696E65204E756D626572206973206E6F2B
:1007100074204C617374204C696E65204E756D6257
:1007200065722B312C204C617374204C696E653AD4
:1007300020004D313130004D33310053442072657B
:100740006164206572726F720A00446F6E6520707A
:1007500072696E74696E672066696C650A0020496B
:100760006E76616C69642065787472756465722058
:100770000000000000000000000000000000006B0E
:100780004300006B4300007A4353544F505045449C
:100790002E20005072696E7465722073746F7070D1
:1007A00065642064756520746F206572726F727362
:1007B0002E2046697820746865206572726F7220F9
:1007C000616E6420757365204D39393920746F204E
:1007D000726573746172742E202854656D70657231
:1007E00061747572652069732072657365742E205B
:1007F0005365742069742061667465722072657334
:1008000074617274696E67290A0053544F502063F3
:10081000616C6C65642062656361757365206F66E9
:1008200020424C546F756368206572726F72202D80
:1008300020726573746172742077697468204D3911
:1008400039390A0042696C696E656172204C6576BF
:10085000656C696E6720477269643A0A00454550C5
:10086000524F4D206461746173697A6520657272BC
:100870006F722E0A00290A002062797465733B208A
:10088000637263200053657474696E6773205374D8
:100890006F726564202800290A00206279746573EC
:1008A0003B2063726320002073746F726564207351
:1008B000657474696E6773207265747269657665B4
:1008C00064202800202863616C63756C6174656422
:1008D00029210A0020213D2000454550524F4D203E
:1008E000435243206D69736D61746368202D202825
:1008F00073746F7265642920002053697A653A2009
:1009000000496E6465783A2000204D61726C696E12
:100910003D563535290A0028454550524F4D3D007A
:10092000454550524F4D2076657273696F6E206D4C
:1009300069736D61746368200048617264636F64F9
:1009400065642044656661756C74205365747469D0
:100950006E6773204C6F616465640A00F4010000E7
:10096000F401000064000000881300000000FA4356
:100970000000FA430000A0400000C8410000A0426F
:100980000000A0420000C8430000BA422020506C82
:10099000616E6E65724275666665724279746573E2
:1009A0003A20002046726565204D656D6F72793A78
:1009B0002000436F6D70696C65643A20417072204D
:1009C000313620323031390A00207C20417574687C
:1009D0006F723A20287468697369736B656974680B
:1009E000622C20456E6465722D33290A0032303145
:1009F000382D30372D333100204C61737420557001
:100A000064617465643A20006275676669782D31A7
:100A10002E312E780A004D61726C696E0020536F82
:100A20006674776172652052657365740A00205799
:100A300061746368646F672052657365740A00208F
:100A400042726F776E206F75742052657365740AF9
:100A5000002045787465726E616C20526573657410
:100A60000A00506F77657255700A00737461727472
:100A70000A006175746F25692E67006572726F7266
:100A80002077726974696E6720746F2066696C657F
:100A90000A00456E6473746F7073202563202563AC
:100AA00020256320256300205A3A0020593A00206F
:100AB000583A00656E6473746F7073206869743A95
:100AC0002000446F6E6520736176696E67206669E9
:100AD0006C652E0A004D32390057726974696E6771
:100AE00020746F2066696C653A20006F70656E2017
:100AF0006661696C65642C2046696C653A20006FFC
:100B000070656E206661696C65642C2046696C6551
:100B10003A200046696C652073656C656374656492
:100B20000A002053697A653A200046696C65206F97
:100B300070656E65643A20002066696C653A200035
:100B4000646F696E67006672657368004E6F772028
:100B500000454E4420535542524F5554494E450A84
:100B6000002220706F73002220706172656E743AEB
:100B70002200535542524F5554494E452043414C53
:100B80004C207461726765743A22004B494C4C45A5
:100B9000442E2000747279696E6720746F2063613F
:100BA0006C6C207375622D67636F64652066696C79
:100BB0006573207769746820746F6F206D616E793A
:100BC000206C6576656C732E204D4158206C6576DF
:100BD000656C2069733A004572726F723A006F70EB
:100BE000656E206661696C65642C2046696C653AA7
:100BF000200043616E6E6F74206F70656E20737598
:100C00006264697220006563686F3A0020746F6FD8
:100C1000206C6F6E6720657874727573696F6E20D3
:100C200070726576656E7465640A0020636F6C642B
:100C300020657874727573696F6E20707265766561
:100C40006E7465640A0025753A25303275002530CA
:100C500032753A253032750025756420253032759D
:100C60003A2530327500202020202020005A0059DB
:100C70000020202020005800092000000000000073
:100C800000000000000000003FFFF0000000000036
:100C900000000000000000003800700000000000AC
:100CA000000000000000000030FC300000000000E8
:100CB000000000000000000020FC10000000000008
:100CC000000000000000000020781000000000007C
:100CD00000000000000000002030100000000000B4
:100CE00000000000000000002C00D0F80180000C83
:100CF0001FE00000082080002E31D0480080001244
:100D00003FF00000041040002F7BD043C38CD00282
:100D10003FF00000041040002F7BD071249267CC7C
:100D20003FF00000082080002E31D041249E400278
:100D30001FE00000104100002C00D0492490401218
:100D40001FE0000020820000203010FBB3CEE00C3A
:100D50003FF000002082000020781000000000001A
:100D60003FF000001041000020FC100000000000D7
:100D70003FF000000820800030FC30000000000040
:100D80000FC00000000000003800700000000000EC
:100D900007800000FFFFC0003FFFF00000000000E0
:100DA00003000000FFFFC000000000000000000082
:100DB00000000000000000003FFFF0000000000005
:100DC000000000000000000038007000000000007B
:100DD0000000000000000000338730000000000029
:100DE00000000000000000002787900000000000C5
:100DF00000000000000000002F87D000000000006D
:100E000000000000000000002F87D000000000005C
:100E100000000000000000002F03D0F80180000C4B
:100E20001FE00000082080002030104800800012E1
:100E30003FF000000410400020781043C38CD00223
:100E40003FF000000410400020781071249267CC1D
:100E50003FF000000820800020301041249E400216
:100E60001FE00000104100002F03D04924904012E1
:100E70001FE00000208200002F87D0FBB3CEE00CE3
:100E80003FF00000208200002F87D000000000000B
:100E90003FF0000010410000278790000000000094
:100EA0003FF0000008208000338730000000000081
:100EB0000FC00000000000003800700000000000BB
:100EC00007800000FFFFC0003FFFF00000000000AF
:100ED00003000000FFFFC00000000070012C019023
:100EE000012701B0012201C0011D01F0011801100C
:100EF00002130130020E016002090190020401C0D8
:100F000002FF000003FA004003F5008003F000D068
:100F100003EB002004E6007004E100E004DC004084
:100F200005D700C005D2004006CD00D006C800801D
:100F300007C3003008BE00F008B900C009B400B013
:100F40000AAF00B00BAA00D00CA500000EA0005004
:100F50000F9B00C01096005012910000148C00C02E
:100F6000158700B0178200B0197D00D01B780000F3
:100F70001E730040206E0090226900F0246400403F
:100F8000275F0090295A00E02B5500102E500020BA
:100F9000304B0010324600E033410090353C0010E9
:100FA00037370070383200A0392D00B03A2800A041
:100FB0003B2300603C1E00103D1900903D140010C2
:100FC0003E0F00703E0A00C03E0500003F0000409A
:100FD0003FFBFF803FF6FFC03FF1FF453120544803
:100FE00045524D414C2052554E41574159004245C2
:100FF0004420544845524D414C2052554E41574192
:101000005900546865726D616C2052756E6177612C
:1010100079004531204572723A204D415854454D72
:1010200050004572723A204D415854454D5020426F
:101030004544004D415854454D50207472696767CE
:1010400065726564004531204572723A204D494E03
:1010500054454D50004572723A204D494E54454D0D
:101060005020424544004D494E54454D5020747225
:1010700069676765726564004D38342058205920CF
:101080005A204500202F002042403A0020403A00DC
:1010900024F4D43050C38E20C2A24017828B70112A
:1010A000127A910D816CD90AA861E108C7586607C8
:1010B000615143061E4B5D05C145A7041A41110449
:1010C000093D9803713931034036DB0265339102E3
:1010D000D4305402802E1D02632CEE01752AC50106
:1010E000B028A001102781018F2564012B244B011A
:1010F000E0223401AC211F018D200D01801FFC0076
:10110000841EED00971DDF00B81CD200E61BC60050
:10111000201BBC00641AB200B219A8000A19A00072
:101120006A189900D117910040178B00B5168400FA
:1011300031167E00B31579003A157300C7146F009D
:1011400058146A00EE1366008813630025135E00CE
:10115000C7125B006C12570015125400C1115100E8
:1011600070114F0021114B00D61049008D1047001F
:101170004610440002104200C00F4000800F3E00A5
:10118000420F3C00060F3B00CB0E3800930E370099
:101190005C0E3500270E3400F30D3200C10D310016
:1011A000900D3000600D2E00320D2D00050D2C002D
:1011B000D90C2B00AE0C2900850C29005C0C2700F3
:1011C000350C27000E0C2600E80B2400C40B24006D
:1011D000A00B23007D0B23005A0B2100390B2100AB
:1011E000180B2000F80A1F00D90A1E00BB0A1E00B7
:1011F0009D0A1D00800A1D00630A1C00470A1B008F
:101200002C0A1B00110A1A00F7091A00DD0919003F
:10121000C4091900AB091900920917007B091800CD
:10122000630917004C09160036091600200916003C
:101230000A091500F5081500E0081400CC08140090
:10124000B8081400A4081400900813007D081200C8
:101250006B081300580812004608120034081100E9
:10126000230811001208110001081100F0071000F6
:10127000E0071000D0071000C0071000B0070F00F3
:10128000A107100091070E0083070F0074070F00DD
:1012900065070E0057070E0049070E003B070D00BB
:1012A0002E070E0020070D0013070D0006070D0086
:1012B000F9060C00ED060D00E0060C00D4060C004B
:1012C000C8060C00BC060C00B0060C00A4060B00FF
:1012D00099060C008D060B0082060B0077060B00AA
:1012E0006C060B0061060A0057060B004C060A004C
:1012F00042060A0038060A002E060A0024060A00E2
:101300001A060A001006090007060A00FD05090072
:10131000F4050900EB050900E2050900D9050900FB
:10132000D0050900C7050900BE050900B50508007C
:10133000AD050800A50509009C05080094050800F6
:101340008C050800840508007C0508007405080069
:101350006C050700650508005D05070056050800D7
:101360004E0507004705070040050800380507003F
:10137000310507002A050700230507001C050600A4
:10138000160507000F0507000805060002050700FF
:10139000FB040600F5040700EE040600E80406005E
:1013A000E2040700DB040600D5040600CF040600B3
:1013B000C9040600C3040600BD040600B704060005
:1013C000B1040500AC040600A6040600A004050054
:1013D0009B04060095040500900406008A0405009D
:1013E00085040500800406007A04050075040500E4
:1013F000700405006B040500660405006104050027
:101400005C04050057040500520405004D04050066
:1014100048040500430405003E0404003A040500A6
:1014200035040500300404002C04050027040400E2
:10143000230405001E0404001A0404001604050019
:10144000110404000D040400090405000404040050
:1014500000040400FC030400F8030400F403040087
:10146000F0030400EC030400E8030400E4030400B8
:10147000E0030400DC030400D8030400D4030400E8
:10148000D0030400CC030400C8030300C503030019
:1014900024F404D9201BC40C5C0E9804C4095F0218
:1014A00065077101F405F900FB04B30048048700E7
:1014B000C10369005803550003034500BE023A000A
:1014C0008402310053022A00290225000402200070
:1014D000E4011C00C8011900AF01170098011400B5
:1014E00084011300710110006101100051010E0010
:1014F00043010D0036010B002B010B0020010B00F6
:10150000150109000C01090003010800FB00080097
:10151000F3000800EB000700E4000600DE00060010
:10152000D8000600D2000600CC000500C700050068
:10153000C2000500BD000400B9000400B5000400AD
:10154000B1000400AD000400A9000400A5000300E0
:10155000A20003009F0004009B000300980003000A
:101560009500020093000300900003008D0002002C
:101570008B00030088000200860002008400030044
:10158000810002007F0002007D0002007B0002005B
:10159000790002007700010076000200740002006A
:1015A00072000100710002006F0002006D00010076
:1015B0006C0002006A00010069000200670001007F
:1015C0006600010065000100640002006200010085
:1015D00061000100600001005F0002005D00010089
:1015E0005C0001005B0001005A000100590001008D
:1015F000580001005700010056000100550001008D
:10160000540001005300000053000100520001008B
:1016100051000100500001004F0001004E00000089
:101620004E0001004D0001004C0001004B00000085
:101630004B0001004A000100490001004800000081
:10164000480001004700010046000000460001007C
:101650004500000045000100440001004300000077
:101660004300010042000000420001004100000070
:1016700041000100400001003F0000003F00010068
:101680003E0000003E0001003D0000003D00010062
:101690003C0000003C0000003C0001003B0000005A
:1016A0003B0001003A0000003A0001003900000050
:1016B0003900010038000000380000003800010047
:1016C000370000003700010036000000360000003F
:1016D0003600010035000000350000003500010033
:1016E000340000003400000034000100330000002A
:1016F000330000003300010032000000320000001F
:101700003200010031000000310000003100010012
:101710003000000030000000300001002F00000009
:101720002F0000002F0000002F0001002E000000FD
:101730002E0000002E0001002D0000002D000000F2
:101740002D0000002D0001002C0000002C000000E6
:101750002C0000002C0001002B0000002B000000DA
:101760002B0000002B0001002A0000002A000000CE
:101770002A0000002A0001002900000029000000C2
:1017800029000000290000002900010028000000B5
:1017900028000000280000002800000028000100A8
:1017A000270000002700000027000000270000009D
:1017B000270001002600000026000000260000008F
:1017C0002600000026000100250000002500000082
:1017D0002500000025000000250000002500010074
:1017E0002400000024000000240000002400000069
:1017F000240001002300000023000000230000005B
:10180000230000002300000023000000230001004B
:101810002200000022000000220000002200000040
:101820002200000022000100210000002100000031
:101830002100000021000000210000002100000024
:101840002100010020000000200000002000000016
:101850002000000020000000200000002000000008
:10186000200001001F0000001F0000001F000000FA
:101870001F0000001F0000001F0000001F000100EB
:101880001E0000001E0000001E0000001E000000E0
:10189000043700001E290000511B000058100000F2
:1018A00010090000CC040000780200004101000093
:1018B0006265640A002C2073797374656D207374FB
:1018C0006F7070656421204865617465725F49447A
:1018D0003A20004265642068656174696E6720661D
:1018E00061696C65640048656174696E6720666152
:1018F000696C65640045312048656174696E6720D4
:101900006661696C65640048656174696E6720662C
:1019100061696C656400546865726D6973746F7297
:101920007300426F61726420496E666F0050726985
:101930006E74657220496E666F004D61696E0000BD
:10194000060900FE0701920321207FFF07FF07FF22
:10195000000000060000010707060200808080806A
:10196000800080030202060105A0A005070706000B
:10197000005050F850F85050050707060000207836
:10198000A07028F020050707060000C0C8102040FE
:1019900098180507070600006090A040A89068020C
:1019A0000303060104C0408003070706010020402E
:1019B000808080402003070706010080402020200F
:1019C000408005050506000120A870A82005050532
:1019D0000600012020F820200203030602FFC04079
:1019E00080050101060003F8020202060200C0C0E1
:1019F00005050506000108102040800507070600C0
:101A0000007088888888887003070706010040C036
:101A100040404040E00507070600007088087080DD
:101A200080F8050707060000F81020100808F005E8
:101A3000070706000010305090F810100507070641
:101A40000000F880F008088870050707060000709D
:101A50008080F0888870050707060000F8081020CD
:101A6000202020050707060000708888708888708D
:101A700005070706000070888878080870020505C9
:101A8000060200C0C000C0C00206060602FFC0C0B9
:101A900000C040800407070600001020408040205E
:101AA00010050303060002F800F80407070601000A
:101AB000804020102040800507070600007088083D
:101AC0001020002005070706000070880868A8A8F5
:101AD00070050707060000708888F8888888050761
:101AE00007060000F08888F08888F00507070600E0
:101AF0000070888080808870050707060000F088E5
:101B000088888888F0050707060000F88080F08044
:101B100080F8050707060000F88080F080808005C7
:101B20000707060000708880B888887005070706D8
:101B30000000888888F888888801070706020080E6
:101B40008080808080800507070600003810101014
:101B50001090600507070600008890A0C0A090883C
:101B6000050707060000808080808080F805070751
:101B700006000088D8A8888888880507070600001E
:101B80008888C8A898888805070706000070888894
:101B900088888870050707060000F08888F0808034
:101BA0008005070706000070888888A890680507E8
:101BB00007060000F08888F0A09088050707060057
:101BC00000788080700808F0050707060000F820FC
:101BD00020202020200507070600008888888888A4
:101BE00088700507070600008888888888502005C7
:101BF00007070600008888888888A8500507070618
:101C00000000888850205088880507070600008853
:101C1000888850202020050707060000F8081020BB
:101C20004080F8030707060100E08080808080E0A4
:101C3000050505060001804020100803070706017E
:101C400000E02020202020E00503030600042050AF
:101C500088050101060000F8020202060205804024
:101C60000505050600007008788878050707060056
:101C7000008080B0C88888F00505050600007080E7
:101C8000808870050707060000080868988888782B
:101C90000505050600007088F88070050707060036
:101CA000003048E0404040400506060600FF7088CE
:101CB000887808700507070600008080B0C888880B
:101CC000880107070602008000808080808003086A
:101CD000080601FF200020202020A040040707065E
:101CE0000000808090A0C0A090030707060100C0FC
:101CF0004040404040E0050505060000D0A8A8A8E7
:101D0000A8050505060000B0C888888805050506F1
:101D1000000070888888700506060600FFF0888835
:101D2000F080800506060600FF7888887808080598
:101D30000505060000B0C880808005050506000086
:101D400070807008F00407070600004040E0404043
:101D50004030050505060000888888986805050557
:101D60000600008888885020050505060000888840
:101D7000A8A85005050506000088502050880506D3
:101D8000060600FF888888780870050505060000AB
:101D9000F8102040F803070706010020404080406B
:101DA0004020010707060200808080808080800339
:101DB00007070601008040402040408005020206DF
:101DC000000268900000000600002028445259528A
:101DD000554E2900473239204175746F20426564A1
:101DE000204C6576656C696E67003F20284C2C524C
:101DF0002C462C4229206F7574206F6620626F7507
:101E00006E64732E0A003F2856296572626F7365EF
:101E1000206C6576656C20697320696D706C6175E6
:101E20007369626C652028302D34292E0A004261C6
:101E300064205A2076616C75650A004E6F206269D5
:101E40006C696E65617220677269640A0046696C2C
:101E5000652064656C657465643A0044656C6574FE
:101E6000696F6E206661696C65642C2046696C65DB
:101E70003A200050726F7465637465642050696E17
:101E80000A0020573A004520436F6F6C696E672E39
:101E90002E2E00452048656174696E672E2E2E0037
:101EA00020573A0042656420636F6F6C696E672E3D
:101EB0002E2E004265642068656174696E672E2E5F
:101EC0002E00205A3A0020593A0020436F756E7454
:101ED00020583A0020453A00205A3A0020593A004A
:101EE000583A003A0A0020286D6D290020204D380C
:101EF0003531205A005A2D50726F6265204F666648
:101F00007365740020440020490020204D33303197
:101F10002050005049442073657474696E67733AA9
:101F20000A0020460020420020480020204D313485
:101F3000352053004D6174657269616C206865617C
:101F400074757020706172616D65746572733A0AA0
:101F500000205A00204A00202047323920572049CB
:101F600000205A0020204D34323020530041757437
:101F70006F20426564204C6576656C696E673A0A2D
:101F800000205A0020590020204D323036205800C1
:101F9000486F6D65206F66667365743A0A00204568
:101FA00000205A00205900205800205400205300DF
:101FB00020204D32303520510020453C6D61785F46
:101FC000655F6A65726B3E0020583C6D61785F7892
:101FD0005F6A65726B3E20593C6D61785F795F6A1C
:101FE00065726B3E205A3C6D61785F7A5F6A6572FC
:101FF0006B3E00416476616E6365643A20513C6DCE
:10200000696E5F7365676D656E745F74696D655F3A
:1020100075733E20533C6D696E5F666565647261E1
:1020200074653E20543C6D696E5F74726176656CB8
:102030005F66656564726174653E002054002052DD
:102040000020204D323034205000416363656C65C0
:10205000726174696F6E2028756E6974732F7332A4
:10206000293A20503C7072696E745F616363656CDD
:102070003E20523C726574726163745F6163636594
:102080006C3E20543C74726176656C5F616363657D
:102090006C3E0A00204500205A0020590020204DA7
:1020A0003230312058004D6178696D756D20416383
:1020B00063656C65726174696F6E2028756E6974F2
:1020C000732F7332293A0A00204500205A00205904
:1020D0000020204D3230332058004D6178696D75F5
:1020E0006D206665656472617465732028756E691C
:1020F00074732F73293A0A00204500205A00205992
:102100000020204D393220580053746570732070C0
:10211000657220756E69743A0A0020204D323030A5
:102120002044300A0020204D32303020440020442A
:10213000697361626C65640A0046696C616D656E05
:10214000742073657474696E67733A0020204D3192
:1021500034392043203B20556E69747320696E200A
:1021600043656C736975730A002020473231202063
:1021700020203B00486F6D696E67206661696C6561
:102180006400545249474745524544006F70656E9C
:10219000003A20007A5F6D696E00795F6D696E00AC
:1021A000785F6D696E005265706F7274696E67203A
:1021B000656E6473746F70207374617475730A0054
:1021C00020746F6F206C6F6E672065787472757302
:1021D000696F6E2070726576656E7465640A0020A2
:1021E000636F6C6420657874727573696F6E2070AC
:1021F000726576656E7465640A00627573793A205B
:1022000070617573656420666F7220696E70757495
:102210000A00627573793A2070617573656420668F
:102220006F7220757365720A00627573793A207057
:10223000726F63657373696E670A004B494C4C4556
:10224000442E20004B494C4C20636175736564201B
:10225000627920746F6F206D75636820696E6163A9
:10226000746976652074696D65202D2063757272BE
:10227000656E7420636F6D6D616E643A2000506C02
:1022800065617365207265736574005052494E54E0
:1022900045522048414C544544005072696E746563
:1022A000722068616C7465642E206B696C6C2829DF
:1022B0002063616C6C6564210A00656E71756575DB
:1022C00065696E6720220000000000000000000029
:1022D0000000000000A0410000A04100008040007C
:1022E0000000005761726E696E673A20486F6D6931
:1022F0006E672042756D702044697669736F722035
:102300003C20310A000202040000A0400000A0406E
:102310000000004000006B4300006B4300007A4364
:10232000FFFFFF3A004361703A005741524E494E59
:102330004721204C6F77205A204A65726B206D61CF
:1023400079206C65616420746F20756E77616E749E
:102350006564207061757365732E0A00205A002031
:102360005900580020204D61783A2000205A002062
:102370005900580020204D696E3A20004F6E200011
:102380004F666600536F667420656E6473746F7079
:10239000733A200020643A0020693A0020703A0025
:1023A000496E76616C6964206578747275646572D3
:1023B0000A0023646566696E652044454641554CB4
:1023C000545F4B64200023646566696E6520444554
:1023D0004641554C545F4B69200023646566696E25
:1023E000652044454641554C545F4B702000504990
:1023F00044204175746F74756E652066696E6973EB
:10240000686564212050757420746865206C617360
:1024100074204B702C204B6920616E64204B64202B
:10242000636F6E7374616E74732066726F6D206279
:10243000656C6F7720696E746F20436F6E66696795
:1024400075726174696F6E2E680A005049442041AC
:1024500075746F74756E65206661696C65642120A2
:1024600074696D656F75740A004531205448455292
:102470004D414C2052554E415741590054686572A8
:102480006D616C2052756E6177617900453120482D
:10249000656174696E67206661696C656400486592
:1024A0006174696E67206661696C656400504944B7
:1024B000204175746F74756E65206661696C656422
:1024C000212054656D706572617475726520746F3A
:1024D0006F20686967680A00204B643A2000204B2F
:1024E000693A2000204B703A20000A20436C617347
:1024F00073696320504944200A002054753A200033
:10250000204B753A2000206D61783A2000206D69DB
:102510006E3A200020643A200020626961733A20FC
:1025200000504944204175746F74756E6520666172
:10253000696C6564212054656D7065726174757293
:102540006520746F6F20686967680A0050494420ED
:102550004175746F74756E652073746172740A00CE
:10256000504944204175746F74756E6520666169C9
:102570006C656421204261642065787472756465BD
:1025800072206E756D6265720A004F66660A0046BB
:10259000616465204865696768742000426564204D
:1025A0004C6576656C696E6720004661696C656490
:1025B00020746F20656E61626C6520426564204CFA
:1025C0006576656C696E670A004D65736820706F8B
:1025D000696E742063616E6E6F742062652072652F
:1025E000736F6C7665640A004D34323120696E6316
:1025F0006F727265637420706172616D657465726B
:102600002075736167650A004F6666736574732091
:102610006170706C696564004572723A20546F6F26
:10262000206661722100546F6F20666172206672AD
:102630006F6D207265666572656E636520706F6987
:102640006E740A004578747275646572004D6F7619
:1026500065205A004D6F76652059004D6F766520D4
:10266000580050726570617265004C6F6164207330
:10267000657474696E677300526573746F72652058
:102680006661696C736166650053746F726520736F
:10269000657474696E677300424C546F75636800AB
:1026A00046696C616D656E74004D6F74696F6E0084
:1026B00054656D7065726174757265004D61696E07
:1026C000004D33303320553120452569205325698D
:1026D00000504944204175746F74756E650050490F
:1026E00044204175746F74756E65005049442D44E3
:1026F000005049442D44005049442D49005049445C
:102700002D49005049442D50005049442D5000207F
:10271000082046616374002008204661637400202D
:1027200008204D6178002008204D617800200820A5
:102730004D696E002008204D696E004F6666004F9F
:102740006E20004175746F74656D700046616E2077
:1027500073706565640046616E2073706565640022
:1027600042656400426564004E6F7A7A6C65004E83
:102770006F7A7A6C6500436F6E74726F6C007C3C8C
:102780003E5E2B3D3F2F5B5D3B2C2A225C004D3291
:1027900034004D323320257300556E6B6E6F776EAB
:1027A00020636F6D6D616E643A20220050726F621B
:1027B000696E67206661696C65640A0050726F62B9
:1027C000696E67206661696C656400205A3A200072
:1027D00020593A200042656420583A200053442092
:1027E00063617264206F6B0A006F70656E526F6F69
:1027F00074206661696C65640A00766F6C756D653E
:102800002E696E6974206661696C65640A005344C0
:1028100020696E6974206661696C0A00486F6D6595
:1028200020257325732573206669727374002066F2
:10283000697273740A005A0059005800486F6D6538
:1028400020005072656865617420504C4120456ECF
:1028500064005072656865617420504C4120426587
:1028600064005072656865617420504C410050727C
:1028700065706172650050726568656174204142DF
:102880005320456E64005072656865617420414252
:10289000532042656400507265686561742041424E
:1028A00053005072657061726500526573657420E3
:1028B000424C546F756368004D32383020503020E0
:1028C0005331363000424C546F7563682053656C49
:1028D000662D54657374004D3238302050302053CB
:1028E0003132300050726568656174204142530096
:1028F0005072656865617420504C4100436F6F6C85
:10290000646F776E0044697361626C6520737465EF
:102910007070657273004D3834004175746F2068B3
:102920006F6D6500473238004D6F766520617869BC
:1029300073004D61696E004D6F76652058004D6FD4
:1029400076652059004D6F7665205A00457874727F
:1029500075646572004D6F766520302E316D6D00A7
:102960004D6F766520316D6D004D6F76652031308D
:102970006D6D004D6F7665206178697300457874E0
:102980007275646572004D6F7665205A004D6F76E2
:10299000652059004D6F7665205800456E6465725C
:1029A0002D332052656164792E005072696E74690E
:1029B0006E672E2E2E005072696E742070617573D2
:1029C00065640053746F7720424C546F75636800E0
:1029D0004D32383020503020533930004465706C0F
:1029E0006F7920424C546F756368004D3238302047
:1029F00050302053313000424C546F75636820537F
:102A0000656C662D54657374004D3238302050303B
:102A1000205331323000526573657420424C546F3C
:102A2000756368004D3238302050302053313630D5
:102A3000004D61696E005072696E742061626F7240
:102A400074656400496E69742E205344206361727A
:102A500064004D3231004E6F205344206361726434
:102A6000004368616E6765205344206361726400AF
:102A70004D3231005072696E742066726F6D205352
:102A8000440053746F70207072696E7400526573E5
:102A9000756D65207072696E740041626F75742087
:102AA0005072696E74657200506175736520707242
:102AB000696E7400436F6E74726F6C005072657053
:102AC0006172650054756E6500496E666F207363B0
:102AD0007265656E004261627973746570205A0098
:102AE0004261627973746570205A00466C6F77009A
:102AF000466C6F770046616E2073706565640046B2
:102B0000616E2073706565640042656400426564AF
:102B1000004E6F7A7A6C65004E6F7A7A6C6500535E
:102B200070656564005370656564004D61696E0091
:102B300050726F6265205A204F666673657400504C
:102B4000726F6265205A204F666673657400436F2A
:102B50006E74726F6C0046696C2E204469612E00A1
:102B600046696C2E204469612E004F6666004F6EE8
:102B700020004520696E206D6D3300436F6E7472C6
:102B80006F6C0043616E6E6F7420656E74657220A9
:102B90007375626469723A2000022E2E000152653C
:102BA0006672657368004D61696E004D61782054EE
:102BB000656D703A20313235004D696E2054656D77
:102BC000703A203500544265643A4550434F5320D3
:102BD0003130304B004D61782054656D703A2032B1
:102BE0003735004D696E2054656D703A20350054BC
:102BF000303A204550434F53203130304B00505332
:102C0000553A2047656E657269630050726F746F44
:102C1000636F6C3A20312E3000426175643A203186
:102C20003135323030004D656C7A69202843726549
:102C3000616C697479290042696C696E6561722002
:102C40004C6576656C696E6700457874727564656D
:102C500072733A203100687474703A2F2F6D61726C
:102C60006C696E66772E6F726700456E6465722DB3
:102C70003300323031382D30372D333100627567F3
:102C80006669782D312E312E78004D61726C696E37
:102C90000000060900FE000000000001090008FE17
:102CA000000005080806000040F0C88888987810E1
:102CB000050808060000C0F88888888888F8050597
:102CC000050600012030F830200508080600002025
:102CD00070F820202020E00509090600FF2070A8D8
:102CE000A8B8888870200509090600FFE080C0B0F8
:102CF000A8283028280509090600FFF8A888888830
:102D00008888A8F8050A0A0600FE2050505050880E
:102D1000A8A8887003030306000340A04045727210
:102D20006F722077726974696E6720746F204545F1
:102D300050524F4D210A0000002100240027002A94
:102D40000000002200250028002B000000200023A6
:102D50000026002900020202020202020204040408
:102D60000404040404030303030303030301010134
:102D70000101010101010204081020408001020448
:102D8000081020408001020408102040808040206C
:102D90001008040201000000010200090A000000FE
:102DA000000403080700000000000000000000000D
:102DB0000000000000526573656E643A20006F6B7E
:102DC00000001CE8D9E911241FBECFEFD0E4DEBF1C
:102DD000CDBF12E0A0E0B1E0E6EDFFEE01E00BBFF9
:102DE00002C007900D92A036B107D9F723E1A0E603
:102DF000B2E001C01D92A63AB207E1F716E1C2EEB9
:102E0000D6E104C02197FE010E944AF7C13ED107D6
:102E1000C9F70E94BFE30C94DEF70C9400002F92D8
:102E20003F924F925F926F927F928F929F92AF925A
:102E3000BF92CF92DF92EF92FF920F931F93CF93A7
:102E4000DF93CDB7DEB7CB56D1090FB6F894DEBF0E
:102E50000FBECDBF21E0209384098091F1128D3403
:102E600011F40C940A20843511F40C94542C8734FA
:102E700011F00C94A02C2090EF123090F0123CE155
:102E80002316310409F42DC69CF454E025163104B0
:102E900044F482E028163104C4F537FE2FC00C94A8
:102EA000062094E02916310409F4DDC50C940620AF
:102EB000AAE22A16310409F404C764F4EDE12E16DF
:102EC000310409F425C6FEE12F16310409F424C6A5
:102ED0000C9406203BE52316310409F4CAC74CE5DF
:102EE0002416310409F4C9C75AE52516310411F036
:102EF0000C940620109264020C94A22C809115016F
:102F000081110C94A72C0C94A22C8091150188237C
:102F100011F40C94A22C0E946B8582E50E947B34F4
:102F2000882309F44CC10E94FF334B015C0120E06F
:102F300030E0A9010E9499EF882309F470C18091C3
:102F4000ED099091EE09A091EF09B091F00988AFD9
:102F500099AFAAAFBBAF2091F1093091F20940912E
:102F6000F3095091F4092CAF3DAF4EAF5FAF8091A4
:102F70009E0990919F09A091A009B091A109249662
:102F80008CAF9DAFAEAFBFAF24972091A209309117
:102F9000A3094091A4095091A5092C962CAF3DAFEF
:102FA0004EAF5FAF2C979C01AD0168AD79AD8AAD96
:102FB0009BAD0E9499EF81110FC02C962CAD3DADB9
:102FC0004EAD5FAD2C976CAD7DAD8EAD9FAD0E94CB
:102FD00099EF882309F423C111E032E0231631046C
:102FE00009F010E020E030E0A901C501B4010E9421
:102FF00099EF881F8827881F181759F080E090E004
:10300000A0E8BFEB64968CAF9DAFAEAFBFAF649747
:103010000AC020E030E040E85FE364962CAF3DAFAB
:103020004EAF5FAF649728AD39AD4AAD5BAD249626
:103030006CAD7DAD8EAD9FAD24970E9403F460967C
:103040006CAF7DAF8EAF9FAF60972CAD3DAD4EADF9
:103050005FAD2C966CAD7DAD8EAD9FAD2C970E9473
:1030600003F46B017C0160962CAD3DAD4EAD5FADC0
:103070006097CA01B9010E94FFEF2B013C01A70133
:103080009601C701B6010E94FFEF9B01AC01C3018D
:10309000B2010E9404F40E94B2F628966CAF7DAF94
:1030A0008EAF9FAF289720E030E040E05FE30E94C2
:1030B000FFEF2B013C01A5019401C501B4010E9461
:1030C000FFEF4B015C01A3019201C301B2010E9419
:1030D000FFEF9B01AC01C501B4010E9403F40E9403
:1030E000B2F664962CAD3DAD4EAD5FAD64970E94D7
:1030F000FFEF4B015C01C701B601905828962CAD3B
:103100003DAD4EAD5FAD28970E94FEF4A501940140
:103110000E94FFEF6B017C0124962CAD3DAD4EADBE
:103120005FAD249768AD79AD8AAD9BAD0E9404F484
:1031300020E030E040E05FE30E94FFEF9B01AC0144
:10314000C701B6010E9404F428AD39AD4AAD5BADAC
:103150000E9403F46B017C012C962CAD3DAD4EAD6D
:103160005FAD2C976CAD7DAD8EAD9FAD0E9404F42C
:1031700020E030E040E05FE30E94FFEF2B013C01E4
:1031800028962CAD3DAD4EAD5FAD289760966CADE9
:103190007DAD8EAD9FAD60970E94FEF4A5019401B8
:1031A0000E94FFEF9B01AC01C301B2010E9404F435
:1031B0002CAD3DAD4EAD5FAD0E9403F414C089E46B
:1031C0000E947B34882329F00E94FF336B017C012D
:1031D00003C0C12CD12C76018AE40E947B34882361
:1031E00009F10E94FF3324966CAF7DAF8EAF9FAF85
:1031F000249720E030E0A901C701B6010E9499EFB1
:1032000081111FC020E030E0A90124966CAD7DAD96
:103210008EAD9FAD24970E9499EF811112C0E7ED0A
:10322000FBE00DC420E030E0A901C701B6010E9417
:1032300099EF8823A1F324961CAE1DAE1EAE1FAEDF
:103240002497D701C601B05888AF99AFAAAFBBAFDA
:1032500024962CAD3DAD4EAD5FAD249750582CAFAC
:103260003DAF4EAF5FAF9C01AD01BC01CD010E94EF
:10327000FFEF4B015C012CAD3DAD4EAD5FADCA0122
:10328000B9010E94FFEF9B01AC01C501B4010E948E
:1032900004F40E94B2F6A0966CAF7DAF8EAF9FAFE4
:1032A000A0978091ED099091EE09A091EF09B0915E
:1032B000F0092C968CAF9DAFAEAFBFAF2C97A70196
:1032C0009601BC01CD010E9404F464966CAF7DAF01
:1032D0008EAF9FAF64972091F1093091F209409130
:1032E000F3095091F40960962CAF3DAF4EAF5FAF3C
:1032F000609724962CAD3DAD4EAD5FAD24976096A2
:103300006CAD7DAD8EAD9FAD60970E9404F4A49628
:103310006CAF7DAF8EAF9FAFA49780919E099091C7
:103320009F09A091A009B091A10968968CAF9DAFAB
:10333000AEAFBFAF689764962CAD3DAD4EAD5FADFF
:103340006497BC01CD010E9403F46B017C012091C4
:10335000A2093091A3094091A4095091A5096C9646
:103360002CAF3DAF4EAF5FAF6C97A4962CAD3DAD8B
:103370004EAD5FADA4976C966CAD7DAD8EAD9FAD3F
:103380006C970E9403F44B015C018091F5099091C8
:10339000F609A091F709B091F809A8968CAF9DAFF6
:1033A000AEAFBFAFA8979C01AD016091A609709127
:1033B000A7098091A8099091A9090E9403F4289671
:1033C0006CAF7DAF8EAF9FAF2897A701960168AD18
:1033D00079AD8AAD9BAD0E94FFEF2B013C01A501A9
:1033E00094016CAD7DAD8EAD9FAD0E94FFEF9B0152
:1033F000AC01C301B2010E9404F42B013C01A50100
:10340000940168AD79AD8AAD9BAD0E94FFEF4B0191
:103410005C01A70196016CAD7DAD8EAD9FAD0E94A4
:10342000FFEF9B01AC01C501B4010E9403F4A301AD
:1034300092010E9483F46B017C0120E030E0A9013D
:103440000E9499EF87FF0AC02BED3FE049EC50E462
:10345000C701B6010E9404F46B017C0192E02916B9
:10346000310451F42BED3FE049EC50E4C701B601C3
:103470000E9403F46B017C0120E030E0A901C70148
:10348000B6010E9499EF811128C068962CAD3DAD20
:103490004EAD5FAD68972C966CAD7DAD8EAD9FAD9A
:1034A0002C970E9499EF811118C06C962CAD3DAD00
:1034B0004EAD5FAD6C9760966CAD7DAD8EAD9FAD42
:1034C00060970E9499EF811108C08BEDC82E8FE0A4
:1034D000D82E89ECE82E80E4F82EA7019601A0965C
:1034E0006CAD7DAD8EAD9FADA0970E94FFEF4B01FF
:1034F0005C0120E030E0A90128966CAD7DAD8EAD79
:103500009FAD28970E9499EF8823E9F0A5019401C7
:10351000C501B4010E94FFEF4B015C0128962CAD60
:103520003DAD4EAD5FAD2897CA01B9010E94FFEFD6
:103530009B01AC01C501B4010E9404F40E94B2F6E3
:103540004B015C010DC020E030E0A901C501B401D0
:103550000E9464F687FF04C0B7FAB094B7F8B0943D
:103560002FE632E143E85AE3C501B4010E9499EF26
:1035700087FF02C00C94A22CC501B4010E94A6F5DD
:103580000E9477F52E967FAF6EAF2E97DB01AB2BA7
:1035900031F4E1E0F0E02E96FFAFEEAF2E974090D1
:1035A000F9095090FA096090FB097090FC092E9679
:1035B0002EAD3FAD2E97B90180E090E00E949EEFC6
:1035C0004B015C019B01AC01C701B6010E94FEF4F6
:1035D0002C966CAF7DAF8EAF9FAF2C97A501940159
:1035E00028966CAD7DAD8EAD9FAD28970E94FEF400
:1035F000A0966CAF7DAF8EAF9FAFA097A301920155
:103600006091AA097091AB098091AC099091AD09C4
:103610000E9403F4A50194010E94FEF4AC966CAFE5
:103620007DAF8EAF9FAFAC972C962CAD3DAD4EAD20
:103630005FAD2C97CA01B9010E94FFEF20E030E096
:1036400040E05FE30E94FFEF9B01AC0160E070E0AF
:1036500080E89FE30E9403F468966CAF7DAF8EAF65
:103660009FAF6897A8968CAD9DADAEADBFADA89746
:1036700089879A87AB87BC874D865E866F86788AF6
:103680006091580170915901072E000C880B990B1D
:103690000E94A0EF209140013091410140914201F0
:1036A000509143010E94FFEF2AE037ED43E25CE3D3
:1036B0000E94FFEF6CAB7DAB8EAB9FAB0E94DAD963
:1036C0009B01AC0128533F4F4F4F5F4F6C962CAF7F
:1036D0003DAF4EAF5FAF6C9748AC59AC6AAC7BACBA
:1036E00022242394312C39E125963FAF25972E963D
:1036F0004EAD5FAD2E974215530509F44CC10E94A3
:10370000786D0E94DAD9DC01CB016C962CAD3DAD11
:103710004EAD5FAD6C97821B930BA40BB50BB7FD41
:1037200010C00E94DAD99B01AC0128533F4F4F4F84
:103730005F4F6C962CAF3DAF4EAF5FAF6C970E9462
:10374000959725963FAD2597315025963FAF259704
:10375000332309F445C02CAD3DAD4EAD5FAD689649
:103760006CAD7DAD8EAD9FAD68970E94FFEF6B0194
:103770007C019201A3012C966CAD7DAD8EAD9FAD09
:103780002C970E94FFEFA70196010E9404F47B0191
:103790008C019201A30168966CAD7DAD8EAD9FAD9D
:1037A00068970E94FFEF4B015C012CAD3DAD4EAD23
:1037B0005FAD2C966CAD7DAD8EAD9FAD2C970E940C
:1037C000FFEF9B01AC01C501B4010E9403F42B0182
:1037D0003C01C701D8018CAF9DAFAEAFBFAF55C0A4
:1037E000B10180E090E00E949EEF2C962CAD3DADA3
:1037F0004EAD5FAD2C970E94FFEF4B015C010E9424
:10380000F9F46B017C01C501B4010E94A4F64B01DF
:103810005C01A701960168AD79AD8AAD9BAD0E94B0
:10382000FFEF2B013C0124962CAD3DAD4EAD5FADBD
:103830002497C501B4010E94FFEFA30192010E94E9
:1038400004F42B013C01A501940168AD79AD8AAD6A
:103850009BAD0E94FFEF4B015C0124962CAD3DAD6A
:103860004EAD5FAD2497C701B6010E94FFEF9B01EB
:10387000AC01C501B4010E9403F46CAF7DAF8EAF03
:103880009FAF49E125964FAF25979201A30164961A
:103890006CAD7DAD8EAD9FAD64970E9404F46983DD
:1038A0007A838B839C832CAD3DAD4EAD5FADA496EA
:1038B0006CAD7DAD8EAD9FADA4970E9404F46D8379
:1038C0007E838F839887A0962CAD3DAD4EAD5FADC6
:1038D000A09769857A858B859C850E9404F4698709
:1038E0007A878B879C87AC962CAD3DAD4EAD5FAD96
:1038F000AC976D857E858F8598890E9404F46D87CD
:103900007E878F87988B80915101882321F0CE018B
:1039100001960E94D495E09026091CA61DA61EA61D
:103920001FA689819A81AB81BC8188A399A3AAA390
:10393000BBA38D819E81AF81B8858CA39DA3AEA3CF
:10394000BFA389859A85AB85BC8588A799A7AAA7B7
:10395000BBA7AE01485D5F4FBE016C5D7F4FCE01DE
:1039600080960E94A35DCE018C966C018E010C5C4A
:103970001F4F9E01235F3F4FAE01485D5F4FBE0169
:103980006C5D7F4F0C970E944E4F882321F09FEF74
:10399000291A390AACCEE090260918AA19AA1AAA3F
:1039A0001BAA80919E0990919F09A091A009B091B6
:1039B000A10988A399A3AAA3BBA38091A20990916E
:1039C000A309A091A409B091A5098CA39DA3AEA3BE
:1039D000BFA38091A6099091A709A091A809B091D1
:1039E000A90988A799A7AAA7BBA7AE01485D5F4F01
:1039F000BE016C5D7F4FCE0180960E94A35DDE010B
:103A0000D0966D018E010C5C1F4F2AEA39E0AE01A1
:103A1000485D5F4FBE016C5D7F4FCE0180960E9476
:103A20004E4F80E1EEE9F9E0ADEEB9E001900D9284
:103A30008A95E1F70C94A22C0E949834F8018491A5
:103A40008F010F5F1F4F8111F7CFE9ECF1E08491F7
:103A50008F010F5F1F4F882311F40C94A22C0E943A
:103A60009834F801F4CF80E50E947B34882329F054
:103A70000E94BB336B017C0103C0C12CD12C7601A9
:103A800083E50E947B34882361F00E94FF3320E0AD
:103A900030E04AE754E40E94FFEF0E9477F56B01A3
:103AA0007C010E94F15C8091170C811105C060E0DF
:103AB0008FED91E00E948F7C0E94DAD9C60ED71E4E
:103AC000E81EF91E0E94DAD9DC01CB018C199D0990
:103AD000AE09BF09B7FD02C00C94A22C0E949597B5
:103AE000F1CF8091DC098770873011F00C94AC2CF9
:103AF0008FE40E947B34882319F00E94EF3303C0C7
:103B00008FE40E94323481110C94A22C0C94AC2CC2
:103B10000E9421870C94A22CC090ED09D090EE0950
:103B2000E090EF09F090F00988E50E947B34811164
:103B300009C020E030E040E252E4C701B6010E9433
:103B400003F402C00E94FF3368A379A38AA39BA356
:103B5000C090F109D090F209E090F309F090F409D7
:103B600089E50E947B34811109C020E030E040E209
:103B700051E4C701B6010E9403F402C00E94FF3362
:103B80009B01AC0169837A838B839C8368A179A1B3
:103B90008AA19BA10E948796882311F40C94A22CE1
:103BA00080E00E943D330E94723085E40E947B34A5
:103BB000882321F00E94EF33182F04C085E40E946F
:103BC000323411E086E50E947B34882321F00E9484
:103BD000CB33262F01C021E0412FBE016F5F7F4F05
:103BE000CE0180960E94E3BA6B017C019B01AC017F
:103BF0000E94F6F681115FC088A099A0AAA0BBA080
:103C000020E030E0A901C501B4010E9499EF87FFCF
:103C100005C027E137EB41E558EB04C027E137EB5E
:103C200041E558E3C501B4010E9404F4AB01BC01B5
:103C30008FE092E00E9418DC89809A80AB80BC8083
:103C400020E030E0A901C501B4010E9499EF87FF8F
:103C500005C027E137EB41E558EB04C027E137EB1E
:103C600041E558E3C501B4010E9404F4AB01BC0175
:103C70008AE092E00E9418DC20E030E0A901C70150
:103C8000B6010E9499EF87FF05C027E137EB41E5B8
:103C900058EB04C027E137EB41E558E3C701B60113
:103CA0000E9404F4AB01BC0185E092E00E9418DCA4
:103CB0008AE00E9498340E9459300E94D9800C9466
:103CC000A22C80911501882311F40C94A22C89E474
:103CD0000E947B34082F882321F00E94CB33E62EEC
:103CE00001C0E12C8AE40E947B34182F882321F044
:103CF0000E94CB33F62E01C0F12C002319F092E084
:103D00009E1528F0112389F0A2E0AF1570F4E7E1C9
:103D1000F2E084918F010F5F1F4F882311F40C9400
:103D2000A22C0E949834F801F4CF0E948E34002314
:103D3000F1F020914F09309150094E2D4203B0010E
:103D4000439F700D11248091D4029091D502680F89
:103D5000791F072E000C880B990B0E94A0EF60932F
:103D60009E0970939F098093A0099093A109112344
:103D7000F1F020915109309152095F2D5203B001A9
:103D8000539F700D11248091D6029091D702680F35
:103D9000791F072E000C880B990B0E94A0EF6093EF
:103DA000A2097093A3098093A4099093A50980E5C3
:103DB0000E947B348823E9F00E94EF338823A9F125
:103DC0000023D9F020E030E040E252E460919E0907
:103DD00070919F098091A0099091A1090E9404F41B
:103DE00060939E0970939F098093A0099093A10905
:103DF00004C080E50E943234E1CF1123B1F020E00D
:103E000030E040E251E46091A2097091A3098091F1
:103E1000A4099091A5090E9404F46093A2097093EB
:103E2000A3098093A4099093A50986E40E947B349A
:103E30008823D9F00E94FF336B017C0120E030E041
:103E4000A9010E9464F6181684F420E030E040E7EF
:103E500052E4C701B6010E94FEF4609340017093E2
:103E6000410180934201909343010E944E9A0C9429
:103E7000A22C209364020C94A22CF7E62F2EF1E0E2
:103E80003F2EA2E9EA2EA9E0FA2E8DEE99E099AF35
:103E900088AFBDEDCB2EB9E0DB2E00E010E0D10104
:103EA0008D911D010E947B34882309F44BC00E9430
:103EB000FF332B013C01133049F0F60120813181A1
:103EC000428153810E9403F42B013C01A8ADB9AD9E
:103ED0002D913D914D915C91C301B2010E9403F47B
:103EE0004B015C012DEB37E346E855EB0E9464F68D
:103EF00087FD0AC02DEB37E346E855E3C501B40161
:103F00000E9499EF1816F4F4133051F44092F90915
:103F10005092FA096092FB097092FC0901E012C00C
:103F2000A5019401F70160817181828193810E94D2
:103F300004F4D7016D937D938D939C931397812FF8
:103F40000E9442321F5FB4E0EB0EF11CE8ADF9AD08
:103F50003496F9AFE8AFF4E0CF0ED11C143009F07D
:103F60009ECF002309F44EC020E030E0A90160910B
:103F7000F9097091FA098091FB099091FC090E945E
:103F800004F42091FA0D3091FB0D4091FC0D5091FD
:103F9000FD0D0E94FFEF0E9471F66093E80470939C
:103FA000E9048093EA049093EB049091C604809115
:103FB000C704981719F00E94935C24C00E94F15C1A
:103FC00080916F00982F927081FF05C080916F00E3
:103FD0008D7F80936F004091E8045091E9046091D7
:103FE000EA047091EB044093AF085093B0086093DB
:103FF000B1087093B208992329F080916F00826014
:1040000080936F000E94D9800C94A22C0E94EBBC7C
:104010000C94A22C8091EF129091F01286379105AA
:1040200009F498C70CF0BFC08C34910509F4ABC4F7
:104030000CF050C08931910509F4B4C21CF58431EB
:10404000910509F4C1C17CF48131910509F436C2AE
:104050002CF4029708F4BBC10C94512C429709F43C
:10406000FEC50C94512C8631910509F474C20CF4F0
:104070006EC28731910509F474C2489709F487C26A
:104080000C94512C8E31910509F442C384F48B3188
:10409000910509F49BC20CF48BC28C31910509F493
:1040A0002DC34D9711F40C94A22C0C94512C8032FA
:1040B000910509F431C30CF47BC38A32910509F4EC
:1040C0002DC48B34910511F00C94512C0E94447036
:1040D0000C94A22C8A36910509F47EC5B4F584357A
:1040E000910509F4BCC5E4F48135910509F4A0C536
:1040F0004CF48D34910511F00C94512C0E947D707C
:104100000C94A22C8235910509F4A6C5833591053E
:1041100011F00C94512C81E0809363020C94A22C3A
:104120008C35910509F4E7C534F48535910509F41A
:10413000C9C50C94512C8836910509F428C48936D8
:10414000910509F4E9C40C94512C8F36910509F4BA
:104150005CC484F48C36910509F4AAC40CF458C5E7
:104160008D36910509F418C58E36910509F43AC4C7
:104170000C94512C8237910509F445C654F48037CC
:10418000910509F498C48137910509F49BC40C94F6
:10419000512C8337910509F414C18537910509F431
:1041A000CAC60C94512C8D3231E0930711F40C9453
:1041B000202B0CF077C08B3C910511F40C94E42873
:1041C000ACF58139910509F41FC784F4883791054E
:1041D00009F40FC70CF40AC78937910509F40FC712
:1041E0008C38910509F4DBC40C94512C8E3B91055D
:1041F00009F4EFC434F48B39910509F4A8C40C9484
:10420000512C883C910509F477C7893C910511F040
:104210000C94512C87E6E82E81E0F82E0EED1DE07F
:104220009EEEC92E9DE0D92E0C94CC288C3D910594
:1042300011F40C949C29B4F48D3C910511F40C9468
:10424000742914F40C94FF288E3C910511F40C94FD
:104250007729833D910511F00C94512C0E94DCA626
:104260000C94A22C883151E0950711F40C94412A4A
:1042700064F48D3D910511F40C94A929823E9105B9
:1042800011F40C94182A0C94512C8232B1E09B0743
:1042900011F40C94EC2A8C32914011F40C94F72A0E
:1042A0000C94512C8C3AF1E09F0711F40C9499294D
:1042B0000CF03FC0813941E0940711F40C94902B2D
:1042C000BCF48F32A1E09A0711F40C94772B14F40C
:1042D0000C94232B8336E1E09E0709F46EC08039ED
:1042E000914011F00C94512C0E94F15C0C94A22C82
:1042F0008A3921E0920709F4E2C364F482399140DB
:1043000011F00C94512C80E00E94A3310E94D980BE
:104310000C94A22C843A51E0950711F40C94962B3E
:10432000853A914011F00C94512C0E94509F0C94AE
:10433000A22C883FB1E09B0711F40C94AB2BECF45A
:10434000853FF1E09F0711F40C94992B4CF4843FC6
:10435000914011F00C94512C0E9400410C94A22C1D
:10436000863F41E0940711F40C949C2B873F9140C9
:1043700011F40C949F2B0C94512C8B38A3E09A07CA
:1043800011F40C94A22C6CF48C30E2E09E0711F432
:104390000C94CE2B8335934011F40C94D72B0C94B2
:1043A000512C803A23E0920709F4F5C1873E9340EF
:1043B00011F40C943C2C0C94512CE7EDFBE00C9484
:1043C0007D2BE1E1F4E05CC5E1E6F2E082C0A09083
:1043D000ED12B090EE1280E50E947B34882359F0F4
:1043E0000E94BB336B017C0111E0672B682B692BAA
:1043F00031F410E004C010E0C12CD12C760183E52B
:104400000E947B34882311F40C948C2E0E94FF337D
:1044100020E030E04AE754E40E94FFEF0E9477F585
:104420006B017C0111110BC0672B682B692B39F4D0
:10443000A114B10421F0D5018C91811102C010E0CA
:1044400001C011E00E94F15C112329F061E0C50177
:104450000E94CB7C05C060E086E392E00E948F7CE6
:1044600083E08093840981E080933909C114D104E9
:10447000E104F104B1F00E94DAD9C60ED71EE81E9D
:10448000F91E0E94DAD9DC01CB018C199D09AE0915
:10449000BF09B7FF0DC08091390981110C94912E8D
:1044A00007C080913909882319F00E949597F9CFA8
:1044B0000E940CC8109239090C94A22C60E089E487
:1044C00092E00E948F7C5E985E9815985E980C949E
:1044D000A22C84918F010F5F1F4F882321F00E942F
:1044E0009834F801F6CF1092D9078CE895E00E9435
:1044F0005AB18BE1ECE8F5E0DE01159601900D92E2
:104500008A95E1F780918A0590918B059C838B8336
:1045100081E092E09A83898340E050E0BE016F5FC2
:104520007F4F80E090E00E94D74ACE0101960E9422
:104530000897E2E5F2E084918F010F5F1F4F882317
:1045400011F40C94A22C0E949834F801F4CF0E942C
:104550000AB90C94A22C10923405109235050C94D3
:10456000A22CE091ED12F091EE128081882329F0C7
:10457000803209F410823196F8CF40E061E08091FA
:10458000ED129091EE120E949C4D0C94A22C809101
:104590003505882319F081E0809334050E9444702A
:1045A0000C94A22C109234050E9468700C94A22CDA
:1045B00080913505882311F40C94A22C83E50E9488
:1045C0007B3481110C94952E0C94A22C83E40E94D0
:1045D0003234882309F450C0EFE9F2E084918F016E
:1045E0000F5F1F4F882321F00E949834F801F6CF07
:1045F00080912707811103C0E2E7F2E012C0BE01FB
:104600006F5F7F4F84E297E00E9421B08E010F5FC1
:104610001F4FF80181918F01882349F10E9498343E
:10462000F8CF84918F010F5F1F4F882301F10E9403
:104630009834F801F6CF77EFC72E72E0D72EE12C31
:10464000F12C20E08091190890E00E2C02C0959585
:1046500087950A94E2F780FD08C23FEFE31AF30A58
:1046600042E0C40ED11C55E0E516F10459F78AE08A
:104670000E9498340C94A22C80913505882339F03F
:1046800080913405882319F0ECE7F2E003C0EEE8EE
:10469000F2E028C084918F010F5F1F4F882321F023
:1046A0000E949834F801F6CF6091D5077091D60733
:1046B0008091D7079091D8074AE00E9404388FE292
:1046C0000E9498346091D1077091D2078091D307EE
:1046D0009091D4074AE00E9404388AE00E949834FE
:1046E0000C94A22C84918F010F5F1F4F882311F42B
:1046F0000C94A22C0E949834F801F4CF40E060E0C2
:104700008091ED129091EE120E949C4D0C94A22C7F
:104710000E949C8B0C94A22C8091340581110E94E4
:10472000F15C80913505882311F40C94A22C80E56E
:104730000E947B34882319F00E94EF3303C080E588
:104740000E943234182F482F61E08091ED12909131
:10475000EE120E949C4D83E50E947B34882381F0F9
:104760000E94CB33AB01BC014093D5075093D607D1
:104770006093D7077093D80784E297E00E9412AF46
:1047800080913505882319F081E08093340511115B
:104790000C94A22C03CF8091ED129091EE1221E0A7
:1047A0002093330540E060E00E949C4D0C94A22CC5
:1047B0000E94F56F7B018C0120E831E541E050E07B
:1047C0000E94A0F3C9016DE671E00E9422F74B013F
:1047D0005C01C801B70120E13EE040E050E00E94EA
:1047E000A0F3CA01B90128E130E040E050E00E94A6
:1047F000A0F3762E672EC62ED72EECE32E2E312C6C
:10480000412C512CC801B701A20191010E94A0F3D3
:10481000F62EE72ECA01B901A20191010E94A0F370
:10482000CB018E010F5F1F4F8114910499F0EF921D
:10483000FF927F936F936F927F92BF92AF929F92FE
:104840008F9286ED92E09F938F931F930F930E9418
:1048500031EF13C0A114B104B1F0EF92FF927F9336
:104860006F936F927F92BF92AF9286EC92E09F938C
:104870008F931F930F930E9431EF0FB6F894DEBF12
:104880000FBECDBF30C0CD2879F0EF92FF927F935D
:104890006F936F927F928AEB92E09F938F931F9317
:1048A0000F930E9431EFE9CF892B69F0EF92FF92CD
:1048B0007F936F9382EB92E09F938F931F930F935D
:1048C0000E9431EFDACFEF92FF928EEA92E09F934F
:1048D0008F931F930F930E9431EF0F900F900F90C3
:1048E0000F900F900F9060E0C8010E94CB7CE6E033
:1048F000FCE084917F01BFEFEB1AFB0A882321F0D3
:104900000E949834F701F5CFB8018AEE92E00E9438
:104910004EDC8AE00E9498340C94A22C83E50E941D
:104920007B34882311F40C94A22C0E94DB33E82EF4
:1049300080E50E947B34882311F40C94A22C0E9401
:10494000DB33182F87FF02C00C94A22C89E40E944D
:104950007B34882341F00E94EF3381110C94312F76
:10496000EFE1F5E00BC089E40E943234F6CF3196D6
:1049700025E0EC34F20711F40C94312F84911813D4
:10498000F6CF0C94CB2E0E9468700C94A22C88E673
:1049900090E00E94713881110C94A22C809119082A
:1049A00083FF02C00C94A22C83E50E947B348823F1
:1049B000A9F00E94FF330E9470F5CB010E942A7C6F
:1049C0000E94FF3320E030E04AEA52E40E9499EF6F
:1049D000181624F00E947D700E940CC80E9469DCA9
:1049E0000C94A22C8EE40E947B34882311F40C9446
:1049F000A22C0E94CB3360937F0470938004809339
:104A00008104909382040C94A22C83E50E9432349A
:104A1000882359F083E50E947B34882319F00E9493
:104A2000DB3301C080E080931908E6E0FCE084916C
:104A30008F010F5F1F4F811103C0E5E0F3E004C059
:104A40000E949834F801F3CF84918F010F5F1F4FBC
:104A5000882321F00E949834F801F6CF809119083C
:104A60008111E9CDE1E0F3E018C0BB24B394B20EAC
:104A7000222319F08CE20E949834F60185919491DA
:104A8000FC0184918F010F5F1F4F882321F00E944A
:104A90009834F801F6CF2B2DE0CD84918F010F5F74
:104AA0001F4F882309F4E3CD0E949834F801F5CF15
:104AB0001092060147C78CE093E00E9424970E9461
:104AC000ADA140C783E50E947B34811103C0E6E0BD
:104AD000FCE00BC00E94DB338D3318F480931B0184
:104AE00031C78CE380931B012DC784918F010F5F29
:104AF0001F4F882321F00E949834F801F6CF40918F
:104B00001B0150E060E070E085E193E00E94FBDB78
:104B10008AE00E94983416C789E690E00E947138B6
:104B2000811111C0ECE1F3E084918F010F5F1F4F01
:104B3000882321F00E949834F801F6CF0E947E6805
:104B40008AE00E949834109284090C94462F83E5E1
:104B50000E947B34882309F4F5C60E94DB33182FAA
:104B60008D3308F01CE3109391090E94DAD96B0190
:104B70007C01212F30E0A8EEB3E00E94F4F3C60ED2
:104B8000D71EE81EF91EC0928D09D0928E09E092C0
:104B90008F09F0929009D6C60E947C83D3C680917B
:104BA000190883FDCFC683E50E947B34882309F46E
:104BB000C9C60E94FF330E9470F56E36710514F06D
:104BC0006EE670E07093B50D6093B40D0E94B06B0B
:104BD000B9C60E94A381B6C680E50E947B348111CC
:104BE00006C083E50E947B34882359F005C00E94EB
:104BF000DB338111A7C6F5CF0E94CB336F3F710520
:104C000010F06FEF70E07093B70D6093B60D9AC619
:104C100080E50E947B34811105C01092B70D10927F
:104C2000B60D90C60E94CB33672B09F08BC6F5CF2B
:104C30000E94FC6B0E942E5D1092B70D1092B60D73
:104C400068EE73E080E090E00E948F7B60E08FE18F
:104C500093E00E948F7C76C61092630273C683E550
:104C60000E947B34882399F00E94FF3320E030E0DB
:104C70004AE754E40E94FFEF0E9477F560931C011D
:104C800070931D0180931E0190931F015BC688E500
:104C90000E94323481110C94A62E89E50E94323490
:104CA00081110C94A62E8AE50E94323481110C9455
:104CB000A62E85E40E94323481110C94A62E0E9407
:104CC0002E5D40C683E50E943234882309F43AC63B
:104CD0000E94FF3320E030E04AE754E40E94FFEFF7
:104CE0000E9477F56093890970938A0980938B09F4
:104CF00090938C0927C657E6C52E51E0D52E6EEE4F
:104D0000E62E6DE0F62E10E0D6018D916D010E9429
:104D10003234882309F46DC0133009F063C00E9457
:104D2000FF334B015C0120E030E040EA51E40E9497
:104D300099EF87FF4EC0A50194016091FA0D709123
:104D4000FB0D8091FC0D9091FD0D0E94FEF42B0156
:104D50003C019B01AC016091EC077091ED078091E3
:104D6000EE079091EF070E94FFEF6093EC077093BE
:104D7000ED078093EE079093EF07A30192016091F6
:104D800008087091090880910A0890910B080E9408
:104D9000FFEF609308087093090880930A089093C6
:104DA0000B086091DA0D7091DB0D8091DC0D909114
:104DB000DD0D0E949EEFA30192010E94FFEF0E9471
:104DC00077F56093DA0D7093DB0D8093DC0D909393
:104DD000DD0D8092FA0D9092FB0DA092FC0DB09229
:104DE000FD0D07C00E94FF33F7016083718382834A
:104DF00093831F5FF4E0EF0EF11C143009F084CFB1
:104E00000E94CEDD9FC50E94F15C83E50E947B3449
:104E1000882309F4F7C80E94CB336230710509F08A
:104E2000F1C80E942E9E8BE50E949834609178090B
:104E30007091790980917A0990917B0942E00E94F2
:104E4000CF3840917C0950917D0960917E09709125
:104E50007F098FE293E00E9418DC40918009509115
:104E6000810960918209709183098CE293E00E942C
:104E700018DC8DE50E9498348AE00E94983462C55F
:104E800084918F010F5F1F4F882321F00E94983477
:104E9000F801F6CF60E081E094E00E943BA861E079
:104EA0008AEF93E00E943BA861E08FEE93E00E94BE
:104EB0003BA861E08FED93E00E943BA860E086EDA7
:104EC00093E00E943BA861E08CEC93E00E943BA839
:104ED00061E082EC93E00E943BA861E08AEB93E002
:104EE0000E943BA861E08CEA93E00E943BA860E04E
:104EF0008EE993E00E943BA860E08FE893E00E9477
:104F00003BA860E081E893E00E943BA860E08BE66C
:104F100093E00E943BA860E08AE593E00E943BA8F2
:104F200060E085E493E00E943BA861E082E393E0C7
:104F30000E943BA807C58091ED129091EE12DC0112
:104F40002C91222321F060E00E94CB7CFBC40E94C4
:104F50000CC8F8C40091ED121091EE1283E0D12C30
:104F600040E08150E1F0F8019081292F2B7F21341E
:104F7000C1F721812133A9F7913421F0953421F42F
:104F800041E002C0DD24D39498012E5F3F4F890198
:104F90002F5F3F4FD8019C919032C9F3E2CF442359
:104FA00069F0E6E0FCE084917F01BFEFEB1AFB0AB9
:104FB000882321F00E949834F701F5CFDD2069F0B5
:104FC000EBEDF4E084917F012FEFE21AF20A8823DF
:104FD00021F00E949834F701F5CFD8018D918D0111
:104FE000882309F444CB0E949834F7CF0E94A98FFC
:104FF000A9C481E08093E6028093E502A3C41092E5
:10500000E6021092E5029EC483E50E947B34882369
:1050100019F00E94CB3302C060E070E08B011127D1
:1050200002301105D4F0E7EDFBE084918F010F5FB2
:105030001F4F811103C0EFEDF4E004C00E949834CB
:10504000F801F3CF84918F010F5F1F4F882309F47C
:1050500079C40E949834F801F5CF88E40E947B342B
:105060008823A9F00E94CB336A3A71053CF0653081
:10507000B1E07B072CF064E071E002C06AEA70E006
:10508000F801EE0FFF1FE55AF24F7183608386E44B
:105090000E947B348823A9F00E94CB33F801EE0FE5
:1050A000FF1FED59F24F718360836F3F710519F057
:1050B00014F06FEF70E077FF02C060E070E0718382
:1050C000608382E40E947B34882309F43BC40E94FD
:1050D000CB336530710534F06F3671052CF06EE618
:1050E00070E002C065E070E0000F111FF801E15AA6
:1050F000F24F7183608326C488EC90E00E9471387F
:10510000811120C484E40E943234882309F441C010
:105110000E94FF336B017C0111E020E030E0A90127
:105120000E9499EF811101C010E010939C0D20E0C6
:1051300030E0A901C701B6010E9499EF882349F127
:105140000E94FF33E091770824E0E29FF0011124F0
:10515000E856F24F608371838283938320E030E0CE
:10516000A9016091980D7091990D80919A0D90917F
:105170009B0D0E9499EF81110CC080E090E0A0EEA1
:10518000BFE38093980D9093990DA0939A0DB093DF
:105190009B0D0E94428CD6C3D7018D917D010E9448
:1051A0003234882349F00E94FF330E9477F5F801DA
:1051B00060837183828393830C5F1F4FC016D10677
:1051C00059F70E9499DCBEC307E6E02E01E0F02EFD
:1051D0000CEF17E0D7018D917D010E9432348823B6
:1051E00039F00E94FF33F8016083718382839383D7
:1051F0000C5F1F4FF8E00C301F0761F7A3C383E576
:105200000E947B348823A1F00E94FF336093F4074F
:105210007093F5078093F6079093F7076093F00774
:105220007093F1078093F2079093F30710E001C0A9
:1052300011E080E50E947B34882359F00E94FF33FF
:105240006093F4077093F5078093F6079093F70740
:1052500010E082E50E947B34882359F00E94FF33DE
:105260006093F8077093F9078093FA079093FB0710
:1052700010E084E50E947B34882359F00E94FF33BC
:105280006093F0077093F1078093F2079093F30710
:1052900059C3112309F456C34091F4075091F507FF
:1052A0006091F6077091F70787E095E00E9418DC9F
:1052B0004091F8075091F9076091FA077091FB0748
:1052C00084E095E00E9418DC4091F0075091F107CE
:1052D0006091F2077091F30781E095E00E9418DC7D
:1052E0008AE00E9498342EC30E94BAA72BC3B7E667
:1052F000CB2EB1E0DB2E18EEE12E12E0F12E10E005
:10530000D6018D916D010E943234882351F00E94A4
:10531000FF33F7016083718382839383812F0E941F
:1053200042321F5FF4E0EF0EF11C133049F70C948A
:1053300002200E944A9E06C383E50E947B34882394
:1053400009F400C30E94CB33709359016093580154
:10535000F9C28DED90E00E9471388111F3C283E5AE
:105360000E947B34811103C0E6E0FCE03BC0009169
:10537000770810E00E94CB33000F111FF801EA5AA2
:10538000FE4F718360838091770890E08C01000F5D
:10539000111F000F111F98012E5A3E4F7901880FDF
:1053A000991FFC01EA5AFE4F60817181072E000CA3
:1053B000880B990B0E94A0EF2AE037ED43E25CE3F3
:1053C0000E94FFEFF801E057F24F208131814281C6
:1053D00053810E94FFEFD7016D937D938D939C9332
:1053E0001397B0C284918F010F5F1F4F882321F064
:1053F0000E949834F801F6CF85E40E949834809199
:105400007708805D0E949834E0917708F0E0EE0F15
:10541000FF1FEA5AFE4F6081718187E195E00E948B
:1054200035DC85E20E9498348AE00E9498348AC272
:1054300080E50E943234882309F484C20E94CB3371
:105440006B017C0183E50E947B34882321F00E945C
:10545000CB338B0102C00FEF1FEFC80101960397FA
:1054600008F070C2D7FC6EC28C2DEFE1F5E094918C
:10547000891709F490C43196B5E0EC34FB07B9F70D
:105480008DC480E50E943234882309F45BC20E94F7
:10549000CB336B017C018B01672B19F0E7EDFBE04F
:1054A0007FC083E50E943234811103C0E6E0FCE056
:1054B00007C00E94CB3381E195E00E9488DA42C2A6
:1054C00084917F012FEFE21AF20A882321F00E94D3
:1054D0009834F701F5CF60E070E085E695E00E9432
:1054E00035DC8091130528E532E06901C81AD1083E
:1054F00087FDD394CC0CDD1CCC0CDD1C0D2C000CDA
:10550000EE08FF088091120528E830E04901881A6A
:10551000910887FD9394880C991C880C991C092C80
:10552000000CAA08BB08809111058F3FB9F090E0EC
:10553000FC01EE0FFF1F8E0F9F1FFC01E451FB4F7C
:105540000181128133E0000F111F3A95E1F744E029
:10555000169507954A95E1F70E5F1F4F98012F5F4B
:105560003F4FC901330FAA0BBB0B9C01AD0128199A
:1055700039094A095B09A4EBB0E00E94E1F3A701F5
:105580009601281939094A095B090E94C2F3B90139
:1055900082E695E00E9435DC8AE00E949834D2C110
:1055A00084918F010F5F1F4F882321F00E94983450
:1055B000F801F6CFB6018BE595E00E9435DCECE40E
:1055C000F5E084918F010F5F1F4F882309F4BAC162
:1055D0000E949834F801F5CF8AE50E947B3481114E
:1055E00005C483E50E947B34811100C4ABC183E50F
:1055F0000E947B34882319F00E94CB3302C064E000
:1056000071E079A368A380E50E947B34882339F098
:105610000E94CB33693833E1730730F402C068EE7F
:1056200073E07A83698304C088E893E19A8389836D
:10563000BE01605E7F4FCE0101960E94A34A82C1E7
:105640000E9439A67FC183E50E943234182F882337
:1056500071F00E94FF330E9470F57093080160930F
:10566000070121E0672B09F020E02093180880E56E
:105670000E943234882359F02091070130910801AB
:10568000232B11F00E94EF33809318085BC1111196
:1056900059C1E6E0FCE084918F010F5F1F4F882322
:1056A00021F00E949834F801F6CF809118088823E1
:1056B00019F061E372E002C064E372E082E895E011
:1056C0000E944EDC609107017091080181E795E02E
:1056D0000E9435DCEDE6F5E084918F010F5F1F4FEE
:1056E000882309F42FC10E949834F801F5CF0E9455
:1056F000EAA128C10E949834F80184918F010F5FBC
:105700001F4F8111F7CFE5E9F5E084918F010F5F1D
:105710001F4F882309F416C10E949834F801F5CF71
:1057200081E00E94A3310E94D9800CC10E94E89FB1
:1057300009C10E94F24006C10E94213A03C183E5DB
:105740000E943234882321F00E94EF3391E08927B0
:105750000E94DD8FF7C02093D9020E94423B109235
:10576000D902882309F4EEC0E6E0FCE084918F01C1
:105770000F5F1F4F811103C0E4EAF5E004C00E94EF
:105780009834F801F3CF84918F010F5F1F4F882366
:1057900009F4D8C00E949834F801F5CF80913405FF
:1057A000882309F4CFC081E080933705CBC08AE518
:1057B0000E947B34811103C0E6E0FCE03BC00E9404
:1057C000FF336B017C0120E030E040EA51EC0E94A5
:1057D00064F687FD0AC020E030E040EA51E4C701EA
:1057E000B6010E9499EF18161CF4E7EDFBE00CC01F
:1057F000C092E909D092EA09E092EB09F092EC0933
:10580000A1C00E949834F80184918F010F5F1F4F4F
:105810008111F7CFEFEAF5E084918F010F5F1F4F01
:10582000882309F48FC00E949834F801F5CF0E94B4
:105830009834F80184918F010F5F1F4F8111F7CFCA
:10584000EFECF5E084918F010F5F1F4F882321F06B
:105850000E949834F801F6CF4091E9095091EA0985
:105860006091EB097091EC098CEC95E00E9418DCDA
:105870008AE00E94983466C081E0809315011092FE
:105880005A0C83E50E947B34882339F00E94EF3361
:10589000811158C00E947BE055C083E50E943234DC
:1058A000F7CF0E94EBBC4EC0F090EF120E94F15C6B
:1058B0001091050A80E00E943D33FF2029F1E6E0C7
:1058C000FCE084918F010F5F1F4F882321F00E941D
:1058D0009834F801F6CF84E50E9498346F2D70E07B
:1058E00080E090E04AE00E94043880E20E94983410
:1058F000E0EFF5E084918F010F5F1F4F882311F1D6
:105900000E949834F801F6CF10922609812F0E9448
:105910003D33E6E0FCE084918F010F5F1F4F882349
:1059200021F00E949834F801F6CF6091260970E0CA
:105930008EED95E00E9435DC8AE00E94983402C02A
:105940000E94EBBC109284090E945EE09FC20E94FC
:105950006B850E944E9AF6CF0E94F15C4091050A39
:1059600029964FAF299780E00E943D3380EA90E06E
:105970000E944E3080E00E949F340E94723011E0FD
:105980001093E60288E50E943234282E89E50E94B1
:105990003234382E8AE50E943234A82E211005C0F8
:1059A000311005C0BA2CB12605C0311002C0B12C8F
:1059B00001C0BA2C0E948E3482E50E947B34882379
:1059C00061F00E94FF336B017C0120E030E0A9010F
:1059D0000E9499EF882379F106C0C12CD12C10EADE
:1059E000E12E10E4F12EB11005C0211003C03320C8
:1059F00009F41AC1C092A609D092A709E092A80999
:105A0000F092A909A70196016091F5097091F60934
:105A10008091F7099091F8090E9499EF87FF0BC0D8
:105A200019821A821B821C82BE016F5F7F4F86EA39
:105A300099E00E948431B1100DC0211003C03110D3
:105A4000EEC0F2C0311006C080E00E948094BB20FE
:105A5000B1F3E5C01092F1091092F2091092F30926
:105A60001092F4091092ED091092EE091092EF09CC
:105A70001092F0090E94F632E0E2F3E2B49125962A
:105A8000BFAF2597E4E1F3E2C590D590E590F4909F
:105A9000E8E1F3E24590559065907490A701960176
:105AA000C301B2010E9499EF87FF05C0A7019601CB
:105AB000C301B20104C0A3019201C701B6010E9453
:105AC000FEF424966CAF7DAF8EAF9FAF2497E7EDC9
:105AD000F2E2259135914591549128AF39AF4AAF03
