:100000000C9405170C942F170C942F170C942F1782
:100010000C942F170C942F170C942F170C942F1748
:100020000C942F170C94D8510C942F170C942F1755
:100030000C942F170C94A93F0C942F170C942F1786
:100040000C942F170C94C0A90C948E510C942F175C
:100050000C944FC20C9445C20C942F170C942F177C
:100060000C942F170C942F170C942F170C942F17F8
:100070000C942F170C942F170C942F170C942F17E8
:100080000C942F170C942F170C942F176FB672B671
:1000900065B669B689B689B676B67AB680B684B6DC
:1000A000BCBBC1BBC6BBD0BBFEBBFEBBDABBE2BBAD
:1000B000EABBF4BB48C407C33EC384C43EC33EC3CB
:1000C0003EC33EC33EC33EC33EC33EC33EC33EC328
:1000D0003EC33EC33EC33EC33EC33EC33EC33EC318
:1000E0003EC33EC33EC33EC33EC33EC33EC33EC308
:1000F0007EC43EC33EC33EC33EC33EC33EC33EC3B7
:100100003EC357C43EC33EC33EC33EC33EC33EC3CD
:100110003EC33EC33EC33EC39BC43BC305A84CCDB8
:10012000B2D44EB93836A9020C50B9918688083C31
:10013000A6AAAA2ABE000000803F4E414E494E4961
:100140005459494E46CDCCCC3D0AD7233C17B7D1A4
:100150003877CC2B329595E6241FB14F0A0000204A
:10016000410000C84200401C4620BCBE4CCA1B0EC9
:100170005AAEC59D74434F4D4D554E494341544968
:100180004F4E0044525952554E004552524F525311
:1001900000494E464F004543484F00536C6565701B
:1001A0002E2E2E00206F6620004D424C2047323903
:1001B00020706F696E742000290A004A206F7574E0
:1001C000206F662072616E67652028302D00290A35
:1001D0000049206F7574206F662072616E6765201C
:1001E00028302D004D6573682070726F62696E67EC
:1001F00020646F6E652E0A005374617274206D6501
:1002000073682070726F62696E6720776974682006
:1002100022473239205331222066697273742E0AC4
:10022000004732380A473239205332006861732060
:100230006E6F20646174612E0A004D657368204200
:100240006564204C6576656C696E67200053206F8D
:100250007574206F662072616E67652028302D35B9
:10026000292E0A004D65736820706F696E742063D3
:10027000616E6E6F74206265207265736F6C766557
:10028000640A00436C69636B20746F207265737538
:100290006D652E2E2E004E6F206D6F76652E0045FB
:1002A0006E642066696C65206C6973740A0042652F
:1002B00067696E2066696C65206C6973740A002832
:1002C0006E6F2066696C65290043757272656E7485
:1002D0002066696C653A20005344207072696E7420
:1002E000696E67206279746520004E6F74205344F4
:1002F000207072696E74696E670A002E0A00446588
:100300006C6574696F6E206661696C65642C20464B
:10031000696C653A200046696C652064656C65749B
:1003200065643A002569730025696D2025697300AD
:100330002569682025696D20256973002569642079
:100340002569682025696D20256973002569792054
:10035000256964202569682025696D202569730059
:100360005072696E742074696D653A20006F66661C
:1003700000960191018A0183017501444542554768
:100380003A004D31313320530020573A0042656422
:1003900020636F6F6C696E672E2E2E00426564209D
:1003A00068656174696E672E2E2E006F6B00456E56
:1003B0006465722D33204F46462E004348414D421E
:1003C00045525F54454D5045524154555245004D9C
:1003D0004F54494F4E5F4D4F44455300544845528A
:1003E0004D414C5F50524F54454354494F4E00418C
:1003F00055544F5245504F52545F53445F535441EC
:100400005455530050524F4D50545F535550504F18
:10041000525400454D455247454E43595F50415255
:1004200053455200434153455F4C494748545F424E
:1004300052494748544E45535300544F47474C4543
:100440005F4C494748545300534F46545741524517
:100450005F504F574552004255494C445F504552FA
:1004600043454E54004C4556454C494E475F444128
:100470005441005A5F50524F4245004155544F4C31
:100480004556454C005052494E545F4A4F42005029
:10049000524F4752455353004155544F5245504FC8
:1004A00052545F54454D5000564F4C554D45545293
:1004B000494300454550524F4D0042494E41525923
:1004C0005F46494C455F5452414E53464552005396
:1004D000455249414C5F584F4E5F584F4646004683
:1004E00049524D574152455F4E414D453A4D61721B
:1004F0006C696E206275676669782D322E302E78B1
:1005000020284769746875622920534F5552434526
:100510005F434F44455F55524C3A68747470733A68
:100520002F2F6769746875622E636F6D2F4D61722E
:100530006C696E4669726D776172652F4D61726C80
:10054000696E2050524F544F434F4C5F56455253A3
:10055000494F4E3A312E30204D414348494E455F78
:10056000545950453A456E6465722D3320455854B0
:1005700052554445525F434F554E543A31205555DC
:1005800049443A63656465326132662D34316132C3
:100590002D343734382D396231322D633535633699
:1005A000326633363766660A002F2F20004D31340D
:1005B0003520533C696E6465783E206F7574206FFA
:1005C000662072616E67652028302D31290A00206F
:1005D0005400205200416363656C65726174696FF9
:1005E0006E3A2050005741524E494E4721204C6FE1
:1005F00077205A204A65726B206D6179206C6561A5
:100600006420746F20756E77616E7465642070610C
:10061000757365732E0A004F4646004F4E00205AF0
:1006200000205900580020204D61783A2000205ABF
:1006300000205900580020204D696E3A2000536F69
:10064000667420656E6473746F70733A2000204680
:100650006C6F773A200050726F7465637465642024
:1006600050696E0A00496E76616C69642065787421
:1006700072756465720A0020643A0020693A0020AD
:10068000703A0064697300656E0043290A00616274
:100690006C656420286D696E2074656D7020004360
:1006A0006F6C64206578747275646573206172651F
:1006B00020004D65736820706F696E742063616EF1
:1006C0006E6F74206265207265736F6C7665640A64
:1006D000004D34323120696E636F7272656374202D
:1006E000706172616D657465722075736167650A0A
:1006F000004F666673657473206170706C69656421
:10070000004572723A20546F6F2066617221005466
:100710006F6F206661722066726F6D20726566650C
:1007200072656E636520706F696E740A004545508E
:10073000524F4D204F4B0A00496E76616C69642020
:1007400065787472756465720A000A4D6561737527
:1007500072656420706F696E74733A0A004F464682
:100760000A00466164652048656967687420004234
:100770006564204C6576656C696E6720004661692A
:100780006C656420746F20656E61626C65204265E3
:1007900064204C6576656C696E670A004D65736808
:1007A00020426564204C6576656C20646174613A12
:1007B0000A00496E76616C6964206D6573682E0A63
:1007C00000206E6F7420656E74657265642E0A0079
:1007D000204500205A00205900204D393220580071
:1007E00020496E76616C6964206578747275646501
:1007F00072200043616E6E6F74206F70656E20739F
:100800007562646972200053442063617264206FD2
:100810006B0A006F70656E526F6F74206661696C51
:1008200065640A00766F6C756D652E696E6974205B
:100830006661696C65640A00534420696E697420BE
:100840006661696C0A004D3234004D3233202573E5
:100850000057726974696E6720746F2066696C65F1
:100860003A20002E0A006F70656E206661696C6523
:10087000642C2046696C653A20002E0A006F706572
:100880006E206661696C65642C2046696C653A204F
:100890000046696C652073656C65637465640A0065
:1008A0002053697A653A200046696C65206F70654F
:1008B0006E65643A2000667265736800646F696EE5
:1008C00067002066696C653A20004E6F772000450E
:1008D0004E4420535542524F5554494E450A00222A
:1008E00020706F73002220706172656E743A22006E
:1008F000535542524F5554494E452043414C4C208C
:100900007461726765743A2200747279696E672047
:10091000746F2063616C6C207375622D67636F6404
:10092000652066696C6573207769746820746F6FE1
:10093000206D616E79206C6576656C732E204D415B
:1009400058206C6576656C2069733A310A0024F48E
:10095000D43050C38E20C2A24017828B7011127AFD
:10096000910D816CD90AA861E108C75866076151E9
:1009700043061E4B5D05C145A7041A411104093DFC
:100980009803713931034036DB0265339102D4306C
:100990005402802E1D02632CEE01752AC501B02879
:1009A000A001102781018F2564012B244B01E02237
:1009B0003401AC211F018D200D01801FFC00841E1D
:1009C000ED00971DDF00B81CD200E61BC600201BFF
:1009D000BC00641AB200B219A8000A19A0006A1873
:1009E0009900D117910040178B00B516840031167D
:1009F0007E00B31579003A157300C7146F005814C0
:100A00006A00EE1366008813630025135E00C712A8
:100A10005B006C12570015125400C1115100701187
:100A20004F0021114B00D61049008D104700461091
:100A3000440002104200C00F4000800F3E00420FF1
:100A40003C00060F3B00CB0E3800930E37005C0EC7
:100A50003500270E3400F30D3200C10D3100900D2A
:100A60003000600D2E00320D2D00050D2C00D90C2C
:100A70002B00AE0C2900850C29005C0C2700350CDE
:100A800027000E0C2600E80B2400C40B2400A00B4A
:100A900023007D0B23005A0B2100390B2100180B7A
:100AA0002000F80A1F00D90A1E00BB0A1E009D0A7A
:100AB0001D00800A1D00630A1C00470A1B002C0A47
:100AC0001B00110A1A00F7091A00DD091900C409F0
:100AD0001900AB091900920917007B091800630976
:100AE00017004C09160036091600200916000A09DD
:100AF0001500F5081500E0081400CC081400B8082B
:100B00001400A4081400900813007D0812006B085C
:100B10001300580812004608120034081100230878
:100B200011001208110001081100F0071000E00781
:100B30001000D0071000C0071000B0070F00A10779
:100B4000100091070E0083070F0074070F00650760
:100B50000E0057070E0049070E003B070D002E0739
:100B60000E0020070D0013070D0006070D00F90603
:100B70000C00ED060D00E0060C00D4060C00C806C3
:100B80000C00BC060C00B0060C00A4060B00990675
:100B90000C008D060B0082060B0077060B006C061E
:100BA0000B0061060A0057060B004C060A004206BD
:100BB0000A0038060A002E060A0024060A001A0651
:100BC0000A001006090007060A00FD050900F405E1
:100BD0000900EB050900E2050900D9050900D00567
:100BE0000900C7050900BE050900B5050800AD05E7
:100BF0000800A50509009C050800940508008C055F
:100C00000800840508007C050800740508006C05D0
:100C10000700650508005D050700560508004E053C
:100C200007004705070040050800380507003105A3
:100C300007002A050700230507001C050600160506
:100C400007000F0507000805060002050700FB0462
:100C50000600F5040700EE040600E8040600E204BE
:100C60000700DB040600D5040600CF040600C90413
:100C70000600C3040600BD040600B7040600B10464
:100C80000500AC040600A6040600A00405009B04B1
:100C9000060095040500900406008A0405008504FA
:100CA0000500800406007A04050075040500700440
:100CB00005006B04050066040500610405005C0482
:100CC000050057040500520405004D0405004804C2
:100CD0000500430405003E0404003A040500350401
:100CE0000500300404002C0405002704040023043C
:100CF00005001E0404001A04040016040500110473
:100D000004000D04040009040500040404000004A8
:100D10000400FC030400F8030400F4030400F003DF
:100D20000400EC030400E8030400E4030400E0030F
:100D30000400DC030400D8030400D4030400D0033F
:100D40000400CC030400C8030300C503030024F41B
:100D500004D9201BC40C5C0E9804C4095F0265070B
:100D60007101F405F900FB04B30048048700C103D6
:100D700069005803550003034500BE023A0084028F
:100D8000310053022A002902250004022000E40158
:100D90001C00C8011900AF0117009801140084015C
:100DA0001300710110006101100051010E00430198
:100DB0000D0036010B002B010B0020010B0015016B
:100DC00009000C01090003010800FB000800F30002
:100DD0000800EB000700E4000600DE000600D80073
:100DE0000600D2000600CC000500C7000500C200C6
:100DF0000500BD000400B9000400B5000400B10006
:100E00000400AD000400A9000400A5000300A20036
:100E100003009F0004009B0003009800030095005E
:100E2000020093000300900003008D0002008B007D
:100E30000300880002008600020084000300810095
:100E400002007F0002007D0002007B0002007900AA
:100E500002007700010076000200740002007200B8
:100E60000100710002006F0002006D0001006C00C3
:100E700002006A00010069000200670001006600CC
:100E800001006500010064000200620001006100D1
:100E90000100600001005F0002005D0001005C00D5
:100EA00001005B0001005A000100590001005800D8
:100EB00001005700010056000100550001005400D8
:100EC00001005300000053000100520001005100D6
:100ED0000100500001004F0001004E0000004E00D4
:100EE00001004D0001004C0001004B0000004B00D0
:100EF00001004A00010049000100480000004800CC
:100F000001004700010046000000460001004500C6
:100F100000004500010044000100430000004300C0
:100F200001004200000042000100410000004100B9
:100F30000100400001003F0000003F0001003E00B2
:100F400000003E0001003D0000003D0001003C00AB
:100F500000003C0000003C0001003B0000003B00A2
:100F600001003A0000003A00010039000000390099
:100F70000100380000003800000038000100370090
:100F80000000370001003600000036000000360087
:100F9000010035000000350000003500010034007C
:100FA0000000340000003400010033000000330072
:100FB0000000330001003200000032000000320067
:100FC000010031000000310000003100010030005C
:100FD000000030000000300001002F0000002F0052
:100FE00000002F0000002F0001002E0000002E0046
:100FF00000002E0001002D0000002D0000002D003B
:1010000000002D0001002C0000002C0000002C002E
:1010100000002C0001002B0000002B0000002B0022
:1010200000002B0001002A0000002A0000002A0016
:1010300000002A000100290000002900000029000A
:1010400000002900000029000100280000002800FD
:1010500000002800000028000000280001002700F0
:1010600000002700000027000000270000002700E4
:1010700001002600000026000000260000002600D7
:1010800000002600010025000000250000002500CA
:1010900000002500000025000000250001002400BC
:1010A00000002400000024000000240000002400B0
:1010B00001002300000023000000230000002300A3
:1010C0000000230000002300000023000100220094
:1010D0000000220000002200000022000000220088
:1010E000000022000100210000002100000021007A
:1010F000000021000000210000002100000021006C
:10110000010020000000200000002000000020005E
:10111000000020000000200000002000000020004F
:1011200001001F0000001F0000001F0000001F0042
:1011300000001F0000001F0000001F0001001E0033
:1011400000001E0000001E0000001E00000004370A
:1011500000001E290000511B00005810000010095B
:101160000000CC0400007802000041010000466944
:101170006C2E204469612E0046696C2E2044696102
:101180002E004F6666004F6E004520696E206D6D23
:101190005E3300416476616E6365642053657474E8
:1011A000696E6773004D3330332055312045256912
:1011B0002053256900504944204175746F74756E41
:1011C0006500504944204175746F74756E65005018
:1011D00049442D44005049442D44005049442D4970
:1011E000005049442D49005049442D500050494475
:1011F0002D500020082046616374002008204661BD
:101200006374002008204D6178002008204D61782B
:10121000002008204D696E002008204D696E004FA7
:101220006666004F6E004175746F74656D700041A5
:101230006476616E6365642053657474696E677368
:1012400000021FFFFFFFFFFFFF600000000001FF23
:10125000400000000000FF8000000000007F83CFFE
:1012600000000C303F87FF80000C301F8679800023
:101270000C000F8C30C7838C30E78C30CFC7CC315B
:10128000F38C30DCECEC33B98C30D86C6C33198CCB
:1012900030D06C0C33198C30D86C0C33198C30DC9A
:1012A0006C0E3B198C30CF7C079F198C30C77C03A8
:1012B0008F194000000000000260000000000006DE
:1012C0001FFFFFFFFFFFF82020506C616E6E6572FC
:1012D00042756666657242797465733A20002046ED
:1012E000726565204D656D6F72793A2000436F6DB0
:1012F00070696C65643A2041707220313020323060
:1013000031390A00207C20417574686F723A2028B8
:101310007468697369736B65697468622C20456EC3
:101320006465722D33290A00323031382D30312D69
:10133000323000204C6173742055706461746564B0
:101340003A20006275676669782D322E302E780A51
:10135000004D61726C696E0020536F667477617224
:10136000652052657365740A002057617463686470
:101370006F672052657365740A002042726F776E42
:10138000206F75742052657365740A002045787467
:1013900065726E616C2052657365740A00506F77D8
:1013A000657255700A0073746172740A0061757415
:1013B0006F25632E67006572726F72207772697491
:1013C000696E6720746F2066696C650A00446F6EF1
:1013D0006520736176696E672066696C652E0A0008
:1013E000456E6473746F7073202563202563202518
:1013F0006320256300205A3A0020593A0020583AC9
:1014000000656E6473746F7073206869743A2000AD
:101410004732385859004573746570732F6D6D00ED
:101420004573746570732F6D6D005A7374657073B6
:101430002F6D6D005A73746570732F6D6D00597345
:10144000746570732F6D6D005973746570732F6DB3
:101450006D005873746570732F6D6D0058737465EB
:1014600070732F6D6D00416476616E636564205307
:10147000657474696E677300496E697469616C693B
:101480007A6520454550524F4D00416476616E6348
:1014900065642053657474696E6773004D34323827
:1014A00000496E697469616C697A652045455052DE
:1014B0004F4D0046696C616D656E740054656D70CA
:1014C000657261747572650053746570732F6D6D0C
:1014D000004A65726B00416363656C657261746993
:1014E0006F6E0056656C6F63697479005365742084
:1014F000686F6D65206F66667365747300436F6E09
:1015000066696775726174696F6E0053746F726596
:101510002073657474696E67730042656400426588
:1015200064004E6F7A7A6C65004E6F7A7A6C650053
:1015300046616E2073706565640046616E2073704D
:1015400065656400436F6E66696775726174696F83
:101550006E004C6F61642073657474696E6773000C
:10156000526573746F7265206661696C736166653C
:101570000053746F72652073657474696E677300CD
:10158000507265686561742041425320636F6E66D6
:10159000005072656865617420504C4120636F6E25
:1015A0006600416476616E63656420536574746996
:1015B0006E6773004D61696E007C3C3E5E2B3D3F63
:1015C0002F5B5D3B2C2A225C006F70656E005452CD
:1015D00049474745524544003A20007A5F6D696E9D
:1015E00000795F6D696E00785F6D696E005265709D
:1015F0006F7274696E6720656E6473746F702073A8
:1016000074617475730A00205A3A0020593A002018
:10161000436F756E7420583A0020453A00205A3ABC
:101620000020593A00583A0020746F6F206C6F6E9A
:101630006720657874727573696F6E207072657655
:10164000656E7465640A0020636F6C64206578744D
:10165000727573696F6E2070726576656E746564FD
:101660000A00000000000000000000000000000070
:10167000A0410000A041000080405761726E696E79
:10168000673A20486F6D696E672042756D7020441F
:10169000697669736F72203C20310A0002020400EF
:1016A00000A0400000A0400000004000006B43008C
:1016B000006B4300007A43FFFFFF5072656865616D
:1016C0007420504C4120456E64005072656865611D
:1016D0007420504C41204265640050726568656119
:1016E0007420504C410054656D7065726174757260
:1016F0006500507265686561742041425320456EF3
:1017000064005072656865617420414253204265EF
:1017100064005072656865617420414253005465ED
:101720006D7065726174757265005072656865618F
:101730007420414253005072656865617420504CBA
:101740004100436F6F6C646F776E0046616E20736B
:10175000706565640046616E207370656564004263
:10176000656400426564004E6F7A7A6C65004E6F66
:101770007A7A6C65004D61696E00426162797374BA
:101780006570205A004261627973746570205A0056
:10179000466C6F7700466C6F770046616E20737001
:1017A0006565640046616E2073706565640042651E
:1017B0006400426564004E6F7A7A6C65004E6F7A01
:1017C0007A6C6500537065656400537065656400EC
:1017D0004D61696E00486F6D652025732573257313
:1017E000206669727374002066697273740A004817
:1017F0006F6D652000220A00556E6B6E6F776E204C
:10180000636F6D6D616E643A20220020746F6F20EB
:101810006C6F6E6720657874727573696F6E207077
:10182000726576656E7465640A0020636F6C64206F
:10183000657874727573696F6E2070726576656E07
:101840007465640A00454550524F4D2064617461CF
:1018500073697A65206572726F722E0A00290A0018
:101860002062797465733B20637263200020737477
:101870006F7265642073657474696E677320726536
:1018800074726965766564202800202863616C6342
:10189000756C6174656429210A0020213D20004592
:1018A0004550524F4D20435243206D69736D617412
:1018B0006368202D202873746F72656429200020CE
:1018C00053697A653A2000496E6465783A200020B1
:1018D0004D61726C696E3D563634290A004545509B
:1018E000524F4D2076657273696F6E206D69736D0E
:1018F000617463682028454550524F4D3D00486152
:101900007264636F6465642044656661756C7420FD
:1019100053657474696E6773204C6F616465640A03
:1019200000F4010000F401000064000000881300CE
:10193000000000FA430000FA430000A0400000C885
:10194000410000A0420000A0420000C8430000BACD
:101950004220440020490020204D333031205000E7
:101960005049442073657474696E67733A0A0020A5
:10197000460020420020480020204D3134352053BD
:10198000004D6174657269616C2068656174757081
:1019900020706172616D65746572733A0A00205936
:1019A000002020473239205333205800205A00208D
:1019B000204D3432302053004D65736820426564F9
:1019C000204C6576656C696E673A0A00205A0020E3
:1019D000590020204D323036205800486F6D652068
:1019E0006F66667365743A0A00204500205A00202D
:1019F000590020580020540020530020204D323040
:101A00003520420020453C6D61785F655F6A6572F4
:101A10006B3E0020583C6D61785F785F6A65726B41
:101A20003E20593C6D61785F795F6A65726B3E203C
:101A30005A3C6D61785F7A5F6A65726B3E00416403
:101A400076616E6365643A20423C6D696E5F7365D2
:101A5000676D656E745F74696D655F75733E205365
:101A60003C6D696E5F66656564726174653E2054A5
:101A70003C6D696E5F74726176656C5F6665656406
:101A8000726174653E0020540020520020204D32C7
:101A90003034205000416363656C65726174696F16
:101AA0006E2028756E6974732F7332293A20503C6A
:101AB0007072696E745F616363656C3E20523C7244
:101AC0006574726163745F616363656C3E20543C4E
:101AD00074726176656C5F616363656C3E0A0020B9
:101AE0004500205A0020590020204D323031205826
:101AF000004D6178696D756D20416363656C657239
:101B00006174696F6E2028756E6974732F73322942
:101B10003A0A00204500205A0020590020204D326A
:101B200030332058004D6178696D756D20666565AC
:101B30006472617465732028756E6974732F7329DC
:101B40003A0A0053746570732070657220756E696F
:101B5000743A0A0020204D3230302044300A0020F0
:101B6000204D3230302044002044697361626C653E
:101B7000640A0046696C616D656E742073657474E7
:101B8000696E67733A0020204D3134392043203B81
:101B900020556E69747320696E2043656C73697596
:101BA000730A0020286D6D29002020473231202043
:101BB00020203B20556E69747320696E206D6D0086
:101BC000486F6D696E67206661696C65640000002E
:101BD0006B4300006B4300007A43000000000000EC
:101BE000000000000000290A002062797465733B40
:101BF00020637263200053657474696E67732053A9
:101C0000746F7265642028004D61782054656D7092
:101C10003A20313235004D696E2054656D703A209E
:101C20003500544265643A4550434F5320313030BB
:101C30004B004D61782054656D703A203237350085
:101C40004D696E2054656D703A20350054303A204D
:101C50004550434F53203130304B005053553A20BC
:101C600047656E657269630050726F746F636F6C65
:101C70003A20312E3000426175643A2031313532DC
:101C80003030004D656C7A692028437265616C695B
:101C9000747929004D657368204C6576656C696EB2
:101CA00067004578747275646572733A2031006814
:101CB0007474703A2F2F6D61726C696E66772E6F37
:101CC000726700456E6465722D3300323031382DF5
:101CD00030312D3230006275676669782D322E30D2
:101CE0002E78004D61726C696E00546865726D6982
:101CF00073746F727300426F61726420496E666F15
:101D0000005072696E74657220496E666F004D6195
:101D1000696E005072696E742061626F72746564DE
:101D20000053746F70207072696E74004D61696E3B
:101D3000004D3235004D323400496E69742E205307
:101D4000442063617264004D3231004368616E6704
:101D5000652053442063617264004D32310050723B
:101D6000696E742066726F6D2053440041626F7516
:101D700074205072696E74657200436F6E66696795
:101D800075726174696F6E0054656D70657261740F
:101D9000757265004D6F74696F6E00526573756D75
:101DA00065207072696E74004E6F20534420636129
:101DB00072640054756E650053746F7020707269A0
:101DC0006E74005061757365207072696E7400499D
:101DD0006E666F2073637265656E00236465666965
:101DE0006E652044454641554C545F004B642000CD
:101DF0004B6920004B702000504944204175746F9E
:101E000074756E652066696E69736865642120501B
:101E1000757420746865206C617374204B702C207D
:101E20004B6920616E64204B6420636F6E73746134
:101E30006E74732066726F6D2062656C6F772069B7
:101E40006E746F20436F6E66696775726174696F37
:101E50006E2E680A00504944204175746F74756E87
:101E600065206661696C6564212074696D656F75B4
:101E7000740A00453120544845524D414C2052557A
:101E80004E4157415900546865726D616C2052751E
:101E90006E617761790045312048656174696E67CC
:101EA000206661696C65640048656174696E6720CD
:101EB0006661696C656400504944204175746F74B3
:101EC000756E65206661696C6564212054656D706E
:101ED0006572617475726520746F6F2068696768D8
:101EE0000A00204B643A2000204B693A2000204B26
:101EF000703A20000A20436C617373696320504973
:101F000044200A002054753A2000204B753A2000E6
:101F1000206D61783A2000206D696E3A20002064BF
:101F20003A200020626961733A2000504944204100
:101F300075746F74756E652073746172740A0050E5
:101F40004944204175746F74756E65206661696CD3
:101F50006564212054656D706572617475726520C9
:101F6000746F6F20686967680A00504944204175A2
:101F7000746F74756E65206661696C6564212042BA
:101F80006164206578747275646572206E756D6227
:101F900065720A004572723A207574663820666F61
:101FA0006E74206E6F7420696E697469616C697AF1
:101FB00065642E004572723A207574663820666F2B
:101FC0006E74206E6F7420696E697469616C697AD1
:101FD00065642E004572723A207574663820666F0B
:101FE0006E74206E6F7420696E697469616C697AB1
:101FF00065642E0000060C00FE07022603BC017F6C
:10200000FE08FE08FE05080806000040F0C88888A3
:10201000987810050808060000C0F8888888888825
:10202000F80505050600012030F8302005080806EF
:1020300000002070F820202020E00509090600FF9C
:102040002070A8A8B888887020050606060001E060
:102050008CEA8C8A0A0509090600FFF8A888888896
:102060008888A8F8050A0A0600FE205050505088BB
:10207000A8A8887003030306000340A040FFFFFFE9
:10208000FFFFFFFFFFFFFFFFFFFFFFFFFFFFFFFF60
:10209000FFFFFF0000000605FF01070706020080A2
:1020A000808080800080030303060105A0A0A005B6
:1020B000060606000050F85050F8500509090600C1
:1020C000FF2070A8A07028A8702005070706000050
:1020D000C8C8102040989805070706000040A0A037
:1020E00040A8906801030306020580808003090967
:1020F0000601FF20404080808040402003090906FF
:1021000001FF804040202020404080050707060056
:102110000020A8702070A8200505050600012020D9
:10212000F820200203030601FFC0408005010106DC
:102130000003F8020202060100C0C00507070600FE
:102140000008101020404080050707060000708836
:1021500098A8C8887003070706010040C0404040A7
:1021600040E0050707060000708808102040F805C9
:102170000707060000F808103008887005070706F2
:10218000000010305090F81010050707060000F806
:1021900080F008088870050707060000304080F0CE
:1021A000888870050707060000F808101020202016
:1021B0000507070600007088887088887005070783
:1021C0000600007088887808106002050506010086
:1021D000C0C000C0C00206060601FFC0C000C0406B
:1021E0008003050506010120408040200503030609
:1021F0000002F800F8030505060101804020408038
:10220000050707060000708810202000200507073A
:102210000600007088B8A8B880700507070600009F
:10222000708888F8888888050707060000F0484805
:10223000704848F005070706000070888080808895
:1022400070050707060000F04848484848F00507B1
:1022500007060000F88080F08080F8050707060078
:1022600000F88080F08080800507070600007088F5
:102270008080988870050707060000888888F8889D
:102280008888030707060100E04040404040E00521
:1022900007070600003810101010906005070706A9
:1022A00000008890A0C0A090880507070600008065
:1022B0008080808080F805070706000088D8A888FD
:1022C0008888880507070600008888C8A898888835
:1022D000050707060000708888888888700507074A
:1022E000060000F08888F08080800507070600005F
:1022F00070888888A89068050707060000F088881D
:10230000F0A0908805070706000070888070088894
:1023100070050707060000F8202020202020050770
:1023200007060000888888888888700507070600E7
:102330000088888888505020050707060000888894
:102340008888A8A8500507070600008888502050F4
:10235000888805070706000088885020202020056F
:102360000707060000F80810204080F80309090656
:1023700001FFE080808080808080E0050707060004
:1023800000804040201010080309090601FFE020EA
:10239000202020202020E00503030600052050888F
:1023A0000501010600FEF803030306010580402035
:1023B00005050506000070087888780507070600FF
:1023C000008080F0888888F0050505060000708090
:1023D00080887005070706000008087888888878D4
:1023E0000505050600007088F080700507070600E7
:1023F00000304840E04040400507070600FE708876
:1024000088887808700507070600008080F08888B3
:1024100088880307070601004000C0404040E004F0
:1024200009090601FE100030101010109060050719
:102430000706000080808890E09088030707060167
:1024400000C04040404040E0050505060000D0A81F
:10245000A8A8A8050505060000B0C8888888050555
:102460000506000070888888700507070600FEF0E2
:10247000888888F080800507070600FE78888888AD
:10248000780808050505060000B0C88080800505AD
:102490000506000078807008F00507070600002098
:1024A00020F8202020180505050600008888889857
:1024B0006805050506000088888850200505050682
:1024C00000008888A8A8500505050600008850204F
:1024D00050880507070600FE888888502040800540
:1024E0000505060000F8102040F80309090601FF61
:1024F0002040404080404040200109090602FF8002
:1025000080808080808080800309090601FF8040F0
:102510004040204040408005030306000248A89048
:10252000FF5654726176206D696E00565472617662
:10253000206D696E00566D696E00566D696E0056AD
:102540006D6178204500566D6178204500566D61BB
:1025500078205A00566D6178205A00566D617820B7
:102560005900566D6178205900566D6178205800E9
:10257000566D6178205800416476616E6365642011
:1025800053657474696E677300416D61782045000E
:10259000416D6178204500416D6178205A00416DA0
:1025A0006178205A00416D6178205900416D617851
:1025B000205900416D6178205800416D61782058A4
:1025C00000412D74726176656C00412D74726176E4
:1025D000656C00412D7265747261637400412D72E7
:1025E00065747261637400416363656C0041636389
:1025F000656C00416476616E636564205365747434
:10260000696E67730056652D6A65726B0056652D9D
:102610006A65726B00567A2D6A65726B00567A2D68
:102620006A65726B0056792D6A65726B0056792D5A
:102630006A65726B0056782D6A65726B0056782D4C
:102640006A65726B00416476616E636564205365F0
:102650007474696E677300626564002C207379730B
:1026600074656D2073746F707065642120486561B6
:102670007465725F49443A200042656400486561B0
:1026800074696E67206661696C6564004531204835
:10269000656174696E67206661696C656400486590
:1026A0006174696E67206661696C656400202D2025
:1026B000496E76616C6964206578747275646572C0
:1026C000206E756D62657220210A0070012C0190E8
:1026D000012701B0012201C0011D01F00118011004
:1026E00002130130020E016002090190020401C0D0
:1026F00002FF000003FA004003F5008003F000D061
:1027000003EB002004E6007004E100E004DC00407C
:1027100005D700C005D2004006CD00D006C8008015
:1027200007C3003008BE00F008B900C009B400B00B
:102730000AAF00B00BAA00D00CA500000EA00050FC
:102740000F9B00C01096005012910000148C00C026
:10275000158700B0178200B0197D00D01B780000EB
:102760001E730040206E0090226900F02464004037
:10277000275F0090295A00E02B5500102E500020B2
:10278000304B0010324600E033410090353C0010E1
:1027900037370070383200A0392D00B03A2800A039
:1027A0003B2300603C1E00103D1900903D140010BA
:1027B0003E0F00703E0A00C03E0500003F00004092
:1027C0003FFBFF803FF6FFC03FF1FF4531205448FB
:1027D00045524D414C2052554E415741590042659A
:1027E0006400546865726D616C2052756E6177612A
:1027F00079004531204572723A204D415854454D7B
:102800005000426564004D415854454D502074724B
:1028100069676765726564004531204572723A20C8
:102820004D494E54454D5000426564004D494E544B
:10283000454D5020747269676765726564004D3854
:102840003420582059205A204500202F0020424093
:102850003A0020403A004D6F76652058004D6F7663
:10286000652059004D6F7665205A00457874727561
:10287000646572004578747275646572004D6F7698
:1028800065205A004D6F76652059004D6F766520A2
:1028900058004D6F74696F6E0044697361626C65B6
:1028A000207374657070657273004D383400466132
:1028B00064652048656967687400466164652048FE
:1028C0006569676874004F6666004F6E0042656414
:1028D000204C6576656C696E67004C6576656C208A
:1028E000626564004732380A473239004175746FB7
:1028F00020686F6D6500473238004D6F7665206146
:10290000786973004D61696E003F005374617274A1
:10291000207072696E74200043616E63656C0050B4
:1029200072696E740043616E6E6F7420656E7465BB
:1029300072207375626469723A2000022E2E0001C3
:1029400052656672657368004D61696E0000002112
:1029500000240027002A0000002200250028002B68
:1029600000000020002300260029000202020202CB
:102970000202020404040404040404030303030322
:102980000303030101010101010101010204081017
:102990002040800102040810204080010204081039
:1029A0002040808040201008040201000000010245
:1029B00000090A00000000040308070000000000EE
:1029C00000000000000000000000004D6F76652050
:1029D000302E316D6D004D6F766520316D6D004D7F
:1029E0006F76652031306D6D004D6F7665206178B2
:1029F000697300486F74656E6420746F6F20636F35
:102A00006C64004578747275646572004D6F76650C
:102A1000205A004D6F76652059004D6F766520581D
:102A2000004572726F722077726974696E672074E4
:102A30006F20454550524F4D210A000F150E1216BA
:102A4000170E1303021A1401000E0C190DFF180CB7
:102A5000040001627573793A2070617573656420B2
:102A6000666F7220696E7075740A00627573793AC8
:102A70002070617573656420666F7220757365726E
:102A80000A00627573793A2070726F6365737369B7
:102A90006E670A004B494C4C206361757365642076
:102AA000627920746F6F206D75636820696E616351
:102AB000746976652074696D65202D206375727266
:102AC000656E7420636F6D6D616E643A2000506CAA
:102AD00065617365207265736574005052494E5488
:102AE00045522048414C544544004B494C4C4544C8
:102AF0002E20005072696E7465722068616C746576
:102B0000642E206B696C6C28292063616C6C656491
:102B1000210A006563686F3A004572726F723A006D
:102B200025753A2530327500253032753A25303218
:102B3000750025756420253032753A2530327500D0
:102B40002020202020200020202020001FE0201016
:102B500020102010102010202010201030300840AD
:102B6000048003001FE03FF03FF03FF01FE01FE054
:102B70003FF03FF03FF00FC0078003003FFFF03809
:102B8000007030FC3020FC102078102030102C0019
:102B9000D02E31D02F7BD02F7BD02E31D02C00D017
:102BA00020301020781020FC1030FC303800703FAE
:102BB000FFF03FFFF0380070318630238710278701
:102BC000902F87D02F03D02030102078102078103D
:102BD0002030102F03D02F87D027879023871031E4
:102BE00086303800703FFFF01FFFF81FFFF8041019
:102BF00040020820020820041040082080104100F4
:102C00001041000820800410400000001FFFF81F42
:102C1000FFF8F80180000C480080001243C38CD0FC
:102C20000271249267CC41249E40024924904012B4
:102C3000FBB3CEE00C220A00656E7175657565699F
:102C40006E672022006F6B00526573656E643A20D8
:102C50000053544F505045442E20005072696E74FA
:102C600065722073746F707065642064756520747C
:102C70006F206572726F72732E20466978207468B7
:102C800065206572726F7220616E642075736520B5
:102C90004D39393920746F20726573746172742EE6
:102CA000202854656D706572617475726520697352
:102CB0002072657365742E205365742069742061D9
:102CC000667465722072657374617274696E6729C7
:102CD0000A004E6F20436865636B73756D207769DA
:102CE0007468206C696E65206E756D6265722C204B
:102CF0004C617374204C696E653A20004E6F20431E
:102D00006865636B73756D2077697468206C696E94
:102D100065206E756D6265722C204C617374204C59
:102D2000696E653A2000636865636B73756D206D2D
:102D300069736D617463682C204C617374204C69F5
:102D40006E653A20004C696E65204E756D62657245
:102D5000206973206E6F74204C617374204C696E0F
:102D600065204E756D6265722B312C204C61737439
:102D7000204C696E653A20004D313130004D3331C1
:102D80000053442072656164206572726F720A009C
:102D9000446F6E65207072696E74696E6720666933
:102DA0006C650A0020573A004520436F6F6C696ECE
:102DB000672E2E2E00452048656174696E672E2EA1
:102DC0002E00456E6465722D332052656164792E44
:102DD000005072696E74696E672E2E2E00507269F3
:102DE0006E7420706175736564002E0A006F7065E3
:102DF0006E206661696C65642C2046696C653A20BA
:102E0000004361703A00A0E379DC11241FBECFEFCC
:102E1000D0E4DEBFCDBF12E0A0E0B1E0EEEFF1EE16
:102E200001E00BBF02C007900D92AC36B107D9F795
:102E300023E1ACE6B2E001C01D92A531B207E1F793
:102E400017E1C4E0D7E104C02197FE010E9456F0CB
:102E5000C330D107C9F70E949CDC0C94F2F00C94AB
:102E600000002F923F924F925F926F927F928F92CB
:102E70009F92AF92BF92CF92DF92EF92FF920F9309
:102E80001F93CF93DF93CDB7DEB7E5970FB6F894D6
:102E9000DEBF0FBECDBF00910F0520E6029F80016F
:102EA000112401571C4F8091ED0A80FF05C00E943C
:102EB000A0BDC8010E9424C210929C0210929B02E5
:102EC0008FE380939E0210929402109293021092CC
:102ED0008F02109290021092910210929202C801F9
:102EE0008C01DC012C9101962032D1F32E34D9F4DF
:102EF00011968C9190ED980F9A3020F08D3211F050
:102F00008B3289F4F80132969F012F5F3F4F808109
:102F100080538A3010F4F901F7CF8F013196D80130
:102F20008C918032D1F31093930500939205780130
:102F3000BFEFEB1AFB0AF80170806AE270E0C7018C
:102F40000E94AFF0009731F0FC0131978081803210
:102F5000E1F31182FDE47F1631F024E5721619F0D9
:102F600037E47312EEC0F70180814FEFE41AF40AE0
:102F70008032C9F380538A3008F0E3C070929E0219
:102F800080E090E06AE03196DF0111972C91022EEB
:102F9000000C330B20533109689FA001699F500D2D
:102FA0001124C901840F951F208120532A3058F322
:102FB0009093940280939302DF0131962C912032FA
:102FC000D9F35DE475121AC08E31910591F03CF48D
:102FD0008731910571F08C31910581F40AC08537F4
:102FE000910564F08737910524F0803A63E09607F5
:102FF00029F4B0939C02A0939B02A3C0C12CD12CB6
:10300000760140E050E0812C912C54018394FD0125
:1030100031967C9171110DC050939C0240939B029C
:10302000C0928F02D0929002E0929102F0929202AE
:1030300088C07132E9F42DE472121AC08032910511
:10304000B9F4C0928F02D0929002E0929102F09275
:103050009202F0939C02E0939B0263E270E0CF0146
:103060000E94AFF0009709F46CC0DC011C9269C0AB
:1030700071547A3108F042C09F01F90160812F5FDD
:103080003F4F6032D1F320ED260F2A30E8F06E3248
:1030900011F421810CC06D3211F06B3259F4218191
:1030A00030ED320F3A3080F02E3221F4228120535D
:1030B0002A3050F04115510511F00C949729AF01B9
:1030C000415051090C9497299F01A72FB0E014019A
:1030D000250104C0220C331C441C551C7A95D2F7E0
:1030E000C228D328E428F5282115310511F0201B2A
:1030F00001C020E0A459BD4F2C9304C041155105D7
:1031000009F4AD01208121542A3110F4DF017FCF71
:103110009F01F901D9016D916623C1F370ED760F1E
:103120007A3010F49D01F5CF73ED760F7230D0F345
:103130006B32C1F3F9012F5F3F4F60816032D1F3F1
:10314000E5CF21E02093950280919E028D3409F411
:103150002CC4843511F40C947529873411F00C9427
:10316000902980919302909194028C31910509F4F9
:103170002BC18CF48430910509F4B2C01CF4029781
:1031800090F10FC48C30910509F4E8C0459711F413
:103190000C94922906C48A35910509F4D3C244F4EB
:1031A0008D31910509F415C18A9709F483C3F9C3D8
:1031B0008B35910509F4CAC28C35910509F0F1C32C
:1031C00035E6232E31E0332E48E2E42E45E0F42E9E
:1031D00029ED35E03BA32AA35CE1C52E55E0D52EB1
:1031E00000E010E0F2C280915101882311F40C94A8
:1031F000922915E6812E11E0912E04E3E02E05E0E0
:10320000F02E09ED15E08CE1A82E85E0B82E97E9A7
:10321000C92E92E0D92E712CF40181914F010E94A8
:10322000A22D882311F10E94262DD6012C91211167
:1032300004C020919D02222341F0F80120813181B8
:10324000428153810E9461ED0AC0F3E07F1639F09C
:10325000D5012D913D914D915C910E9460EDF7015A
:1032600060837183828393830AC0F8018081918196
:10327000A281B381F70180839183A283B383739486
:10328000F4E0EF0EF11C0C5F1F4F24E0A20EB11C06
:103290003FEFC31AD30A44E07412BECF86E40E9403
:1032A000A22D8823C9F00E94262D20E030E0A9013C
:1032B0000E9428EF181684F40E94262D20E030E0AA
:1032C00040E752E40E94E9ED60933E0170933F01B4
:1032D00080934001909341010E943D660C94922995
:1032E00080E50E94A22D882329F00E94D82C6B0132
:1032F0007C0103C0C12CD12C760183E50E94A22D54
:10330000882361F00E94262D20E030E04AE754E453
:103310000E9483E90E9462EE6B017C010E941548C5
:1033200080919505811105C060E08BE991E00E94D4
:1033300073D60E948251C60ED71EE81EF91E0E9447
:103340008251DC01CB018C199D09AE09BF09B7FD83
:1033500002C00C9492290E9453BEF1CF0E944E816C
:1033600081110C94922960E070E080E50E94D82DD4
:1033700089A36CE070E083E50E94D82D88A363E008
:1033800070E084E50E94D82D8C8F82E50E94A22DEA
:10339000882319F00E94262D04C060E070E080EDC3
:1033A00090E469837A838B839C839E01245E3F4FE4
:1033B000AE014F5F5F4FBE01605E7F4FCE018196D1
:1033C0000E94718F0C94922980E00E94DC2E0C9454
:1033D000922983E50E94A981182F863030F08DE470
:1033E00092E00E947ABD0C949229833009F424C1A2
:1033F00028F4813039F18230A9F106C0843009F413
:103400006FC1853009F47CC18AE392E00E947ABDE5
:103410000E947C31882389F08091E905882319F086
:103420008BE196E002C087E196E00E947ABD8AE0D7
:103430000E9473BD0E940F2E69C18CE292E00E942F
:103440007ABD64C10E94AD2E10920101109200015C
:1034500081E292E090938E0380938D030E9480D04E
:103460000C949229809100019091010197FF06C070
:1034700088EF91E00E947ABD0C9492290097A1F404
:1034800080913D018093960219821A821B821C82D0
:103490001C8E1D8E1E8E1F8EBE016F5F7F4FCE0154
:1034A0004C960E94E5B72AC0815063E00E9401F06B
:1034B00080FF02C0191B912F292F990F330BF9019F
:1034C000EE0FFF1FE20FF31FE80FF11D87FDFA95C6
:1034D000EE0FFF1FEE0FFF1FEC5AFA4F8091E10530
:1034E0009091E205A091E305B091E405808391837A
:1034F000A283B3838091960280933D018091000165
:1035000090910101893091050CF067C010923D0146
:103510009C012F5F3F4F309301012093000163E036
:103520000E9401F080FF03C022E0291B922F4091EE
:10353000E1055091E2056091E3057091E4054C8F3F
:103540005D8F6E8F7F8F19821A821B821C8254E0DE
:10355000850290011124B9016F537F4E4B01DB01AD
:103560002D913D914D915C91B4E09B02C0011124DD
:10357000FC01E353FF4E5F01608171818281938181
:10358000DE0111966D01E12CF12C00EA10E40E949D
:10359000D76919821A821B821C82B601CE014C9611
:1035A0000E94E5B7F50180819181A281B38180936A
:1035B000D9059093DA05A093DB05B093DC05F401FF
:1035C00080819181A281B3818093DD059093DE0596
:1035D000A093DF05B093E0059BC080E090E0A0EAF7
:1035E000B0E48093E1059093E205A093E305B093E6
:1035F000E4058EE391E00E94BC690E9415488FEFBC
:103600009FEF909301018093000184EE91E00E946E
:103610007ABD63E972E084E690E00E9446D66AEBE8
:1036200072E084E690E00E9446D681E00E94DC2EA3
:1036300081E00E94BD2E6CC089E40E94A22D8823E7
:10364000B1F00E94222D182F833060F062E070E00C
:1036500081ED91E00E948BC18EEC91E00E947ABDD9
:103660000C9492298AE40E94A22D811105C08AE45B
:103670000E94E82C0C9492290E94222D082F83305E
:1036800060F062E070E08BEB91E00E948BC188EB10
:1036900091E00E947ABD0C9492298AE50E94A22DA5
:1036A0008823C9F00E94262D212F110F330BF90119
:1036B000EE0FFF1FE20FF31FE00FF11D07FDFA955C
:1036C000EE0FFF1FEE0FFF1FEC5AFA4F608371835E
:1036D0008283938333C08AE50E94E82C0C9492295C
:1036E0008AE50E94A22D8823B1F30E94262D6093C3
:1036F00050057093510580935205909353051EC059
:1037000080E00E94BD2E0E94AD2E18C01230B1F490
:1037100060910001709101016930710514F069E058
:1037200070E089EA91E00E948BC169E070E084EA70
:1037300091E00E948BC18AE00E9473BD0E948B6B56
:103740000C94922910929D020C94922920939D0230
:103750000C9492290E94262D2B013C01133049F034
:10376000F60120813181428153810E9460ED2B015D
:103770003C01AAA1BBA12D913D914D915C91C3014A
:10378000B2010E9460ED4B015C012DEB37E346E88E
:1037900055EB0E9428EF87FD20C02DEB37E346E86C
:1037A00055E3C501B4010E941DE91816B4F01F5F6E
:1037B000B4E0EB0EF11CEAA1FBA13496FBA3EAA353
:1037C000F4E0CF0ED11C143039F1D1018D911D01DF
:1037D0000E94A22D882359F3BDCF133051F440929B
:1037E000E5055092E6056092E7057092E80501E074
:1037F000DECFA5019401F7016081718182819381FF
:103800000E9461EDD7016D937D938D939C931397E7
:10381000812F0E941D66CBCF002309F48FCF20910A
:103820000E0B30910F0B4091100B5091110B6091CA
:10383000E5057091E6058091E7059091E8050E9405
:1038400083E90E942DEF6093611070936210809362
:1038500063109093641090913F10809140109817DE
:1038600019F00E94B7476ACF0E94154880916F00F7
:10387000982F927081FF05C080916F008D7F80939B
:103880006F004091611050916210609163107091CF
:1038900064104093900B5093910B6093920B709334
:1038A000930B992309F44ACF80916F008260809333
:1038B0006F0044CF80915101882311F40C94922918
:1038C00089E40E94A22DF82E882321F00E94222D47
:1038D000182F01C010E08AE40E94A22D082F88232F
:1038E00019F00E94222D01C080E0FF2011F013305A
:1038F00020F4002341F0833030F084E692E00E940F
:103900007ABD0C94922990E1E9EDF5E0A4E3B5E0ED
:1039100001900D929A95E1F7FF2091F024E01202B8
:10392000F0011124E353FF4E408151816281738184
:1039300040933405509335056093360570933705F1
:10394000002391F034E08302F0011124EF53FF4E85
:1039500080819181A281B38180933805909339054C
:10396000A0933A05B0933B0560E080E50E94FA2DF4
:1039700086E40E94A22D882309F4AECC0E94262D55
:103980006B017C0120E030E0A9010E9428EF1816AD
:103990000CF0A2CC20E030E040E752E4C701B601D1
:1039A00091CC0E9440810C94922980919302909135
:1039B00094028237910509F401C70CF0F5C08B34ED
:1039C000910509F4CAC40CF08BC08831910509F443
:1039D000C4C20CF059C08231910509F405C6BCF48B
:1039E00097FF02C00C947229823091050CF424C216
:1039F000419711F00C94722960E086E992E00E94F0
:103A000073D65E985E9815985E980C9492298531CD
:103A1000910509F488C254F5449711F00C94722969
:103A20008EEA92E00E947ABD1092160381E290E144
:103A30000E949B5A8BE1E1E2F0E1DE0111960190D8
:103A40000D928A95E1F740E050E0BE016F5F7F4F35
:103A500080E090E00E944A3BCE0101960E94465CC5
:103A60008FE992E00E947ABD0C94922986319105EB
:103A700009F45DC2479711F00C94722980919B0262
:103A800090919C02FC0160C28D31910509F4EBC25A
:103A9000C4F48A31910509F485C20CF46AC28B31F1
:103AA000910509F48DC24C9711F00C94722940E0F5
:103AB00060E080919B0290919C020E94E83C0C94F3
:103AC00092298F31910509F47AC30CF4D3C2803264
:103AD000910509F42EC38A9709F41CC40C94722929
:103AE0008836910509F454C4ACF58235910509F482
:103AF00074C504F58D34910509F447C40CF431C440
:103B00008135910511F00C9472290E9458AA0E94E7
:103B10005C8F0E9427490E9431BD68EE73E080E00F
:103B200090E00E946EBC60E08EEA93E00E9473D643
:103B30000C9492298435910509F456C50CF450C5AE
:103B40008535910509F483C58C35910509F498C52F
:103B50000C9472298D36910509F439C4ACF48A3677
:103B6000910509F412C50CF4D7C48B36910509F4FC
:103B70002AC58C36910511F00C9472291092FC1212
:103B8000109224010C9492298F36910509F433C4C4
:103B90000CF420C48037910509F46DC48137910578
:103BA00009F470C40C9472298D3D910511F40C94A4
:103BB00041260CF0BBC08B39910509F4C0C40CF050
:103BC0008BC08737910509F439C60CF075C085376D
:103BD000910509F4F8C50CF0FEC58337910511F085
:103BE0000C9472298FED94E00E947ABD60E08FEC16
:103BF00094E00E945FDC60E08AEB94E00E945FDC6E
:103C000061E083EB94E00E945FDC61E088EA94E08D
:103C10000E945FDC61E088E994E00E945FDC60E084
:103C20008FE894E00E945FDC61E085E894E00E9408
:103C30005FDC60E08BE794E00E945FDC60E083E79C
:103C400094E00E945FDC61E085E694E00E945FDC26
:103C500060E087E594E00E945FDC60E088E494E047
:103C60000E945FDC60E08AE394E00E945FDC60E039
:103C700084E294E00E945FDC60E083E194E00E94D3
:103C80005FDC60E084E094E00E945FDC60E08FEE47
:103C900093E00E945FDC61E08CED93E00E945FDCCA
:103CA00060E08FEC93E00E945FDC60E08BEB93E0E0
:103CB0000E945FDC0C9492298937910509F4C9C5EB
:103CC0000CF4BFC58C38910509F4FCC3813991050A
:103CD00009F4C6C50C9472298C3C910509F4AAC656
:103CE000ACF4883C910509F416C634F48E3B91057A
:103CF00009F402C40C947229893C910509F458C650
:103D00008B3C910509F477C60C9472298E3C910581
:103D100009F4D1C60CF4BFC6833D910509F4EEC683
:103D20008C3D910509F4A0C70C947229853A41E0B5
:103D3000940711F40C94C8270CF040C08E3261E057
:103D4000960711F40C948127DCF48232A1E09A07E3
:103D500011F40C94E2263CF4823E910511F40C948B
:103D600097260C9472298C32E1E09E0711F40C9492
:103D7000ED268D32914011F40C9402270C94722997
:103D8000803921E0920711F40C94C5274CF48F324E
:103D9000914011F00C9472290E94709E0C9492290B
:103DA0008A3951E0950709F46AC3843A914011F0C9
:103DB0000C9472290E94A9310C949229873F71E0DA
:103DC000970711F40C944529ECF4843FB1E09B076C
:103DD00011F40C943F293CF48C3A914011F40C946A
:103DE0009A280C947229853F21E0920711F40C94D3
:103DF0004229863F914011F00C9472290E94BB81A8
:103E00000C9492298C3042E0940711F40C945C29B4
:103E10003CF4883F914011F40C944C290C94722985
:103E2000803A73E0970709F4BAC1873E934011F4D2
:103E30000C9464290C947229A0909B02B0909C026F
:103E400080E50E94A22D882359F00E94D82C6B0196
:103E50007C0111E0672B682B692B31F410E004C062
:103E600010E0C12CD12C760183E50E94A22D88237D
:103E700011F40C949B290E94262D20E030E04AE7A3
:103E800054E40E9483E90E9462EE6B017C011111EF
:103E90000BC0672B682B692B39F4A114B10421F0F6
:103EA000F5018081811102C010E001C011E00E9483
:103EB0001548112329F061E0C5010E94AFD605C065
:103EC00060E083E892E00E9473D683E080939502DD
:103ED00081E08093FC12C114D104E104F104B1F03B
:103EE0000E948251C60ED71EE81EF91E0E94825102
:103EF000DC01CB018C199D09AE09BF09B7FF0DC0CC
:103F00008091FC1281110C94A02907C08091FC12B1
:103F1000882319F00E9453BEF9CF0E94D7D6109281
:103F2000FC120C9492290E942D3A0C9492290E9422
:103F3000B5398091F211877F8093F2110C94922908
:103F4000203209F41082319620812111F9CF40E00E
:103F500061E00E94E83C0C9492290E94F9CF8823EA
:103F600021F00E94C4390E94388F0E94D7D60C9449
:103F700092298091F21182FF03C08B7F8093F2110E
:103F800080914E0B813089F782E080934E0B0E9426
:103F9000825160934A0B70934B0B80934C0B909320
:103FA0004D0BE3CF8091F21183FD02C00C94922956
:103FB00083E50E94A22D81110C94A4290C949229CE
:103FC00083E40E94592D882319F189EC92E00E9424
:103FD0007ABD8091CB0F882391F0BE016F5F7F4F38
:103FE00088EC9FE00E944C5C8E010F5F1F4FD80150
:103FF0008D918D01882339F00E9473BDF8CF8FEB2E
:1040000092E00E947ABD8AE00E9473BD0C949229CE
:104010008091F21182FF21C088ED92E00E947ABD6A
:104020006091EE117091EF118091F0119091F1116A
:104030004AE00E94E4C08FE20E9473BD6091EA11E1
:104040007091EB118091EC119091ED114AE00E947A
:10405000E4C00E941EC20C9492298AEE92E00E9453
:104060007ABD0C9492298091F2118E7F8093F21187
:104070000C9492298091F21183FD02C00C94922934
:104080000E94298160919B0270919C028091F211A3
:1040900083FD02C00C949229CE014C960E947FDBD6
:1040A0008C01009711F40C9492296C8D7D8D1982EE
:1040B0001C8222E0AC01CE0101960E94F35F8111C7
:1040C00002C0F12C14C0CE0101960E94EDDA8823C3
:1040D000C1F361E0CE0101960E94EE5B009789F387
:1040E00025EEFC0120831C820E940B5BF82ECE0182
:1040F00001960E94465CB801FF2089F086E193E0BA
:104100000E9489BD8AE00E9473BD1092EE11109248
:10411000EF111092F0111092F1110C9492298EEF80
:1041200092E00E9489BD8BEF92E00E947ABD0C94D0
:1041300092298091F21182FD0E9415488091F2111E
:1041400083FD02C00C94922960E080E50E94FA2D64
:10415000182F482F61E080919B0290919C020E9451
:10416000E83C83E50E94A22D882381F00E94EE2C7A
:10417000AB01BC014093EE115093EF116093F0112D
:104180007093F11188EC9FE00E94AC580E94C439F2
:1041900011110C9492290E94388F0C94922920912D
:1041A0009B0230919C029091F21192609093F211D7
:1041B00040E060E0C9010E94E83C0C9492290E9412
:1041C000E98E7B018C0120E831E541E050E00E945E
:1041D00024EDC9016DE671E00E940FF04B015C0116
:1041E000C801B70120E13EE040E050E00E9424ED2C
:1041F000CA01B90128E130E040E050E00E9424ED1E
:10420000762E672EC62ED72E2CE3222E312C412C53
:10421000512CC801B701A20191010E9424EDF62E94
:10422000E72ECA01B901A20191010E9424EDCB0140
:104230008E010F5F1F4F8114910499F0EF92FF924E
:104240007F936F936F927F92BF92AF929F928F9264
:104250008CE493E09F938F931F930F930E94B5E894
:1042600013C0A114B104B1F0EF92FF927F936F934A
:104270006F927F92BF92AF928CE393E09F938F9364
:104280001F930F930E94B5E80FB6F894DEBF0FBEE0
:10429000CDBF30C0CD2879F0EF92FF927F936F931E
:1042A0006F927F9280E393E09F938F931F930F937E
:1042B0000E94B5E8E9CF892B69F0EF92FF927F93D6
:1042C0006F9388E293E09F938F931F930F930E94C5
:1042D000B5E8DACFEF92FF9284E293E09F938F9359
:1042E0001F930F930E94B5E80F900F900F900F90BF
:1042F0000F900F9060E0C8010E94AFD60E94A0BD51
:10430000B80180E693E00E9489BD8AE00E9473BDF7
:104310000C94922983E50E94A22D882311F40C9419
:1043200092290E94FE2CF82E6FEF7FEF80E50E940D
:10433000EB2D8C0197FF02C00C949229E82E60E0CF
:1043400089E40E94FA2D81110C94B529802F0E94D6
:104350007BE3811109C50C94B5290E94388F0C9418
:10436000922980914E0B813011F00C94922982E0B9
:1043700080934E0B0E94825160934A0B70934B0BBB
:1043800080934C0B90934D0BCDC70E945C8FCAC796
:104390008091ED0A83FDC6C70E94AF2D87FDC2C77D
:1043A00083E50E94A22D882379F00E94262D0E9489
:1043B0005BEE8B01CB010E9447AA0635110524F460
:1043C0000E945C8F0E94D7D60E941C47ABC70E94F8
:1043D00001CEA8C78EE40E94A22D882309F4A2C7AB
:1043E0000E94EE2C6093530F7093540F8093550FDF
:1043F0009093560F97C783E50E94592D882329F083
:1044000083E50E94A9818093ED0A0E94A0BD8BE7FD
:1044100093E00E947ABD8091ED0A882349F191E7EB
:10442000E92E93E0F92E00E010E020E08091ED0A03
:1044300090E0002E02C0959587950A94E2F780FFE0
:104440000EC0DD24D394D20E222319F08CE20E94F8
:1044500073BDF701859194910E947ABD2D2D0F5F58
:104460001F4F92E0E90EF11C05301105F9F6CBCD96
:104470008DE693E0C6CD80E090E00E94A4BD0E944E
:1044800092BC50C783E50E94A22D882361F00E9450
:10449000FE2C8093020190E0CD970CF443C78CE38F
:1044A000809302013FC70E94A0BD4091020150E0ED
:1044B00060E070E082E893E00E9451C18AE00E94CF
:1044C00073BD30C78091ED0A83FD2CC783E50E9440
:1044D000A22D882309F426C70E94262D0E945BEE98
:1044E0006337710514F063E770E07093E70B609336
:1044F000E60B0E94AEA816C78091ED0A83FD12C795
:1045000083E50E94A22D8CA7811142C782E50E94FB
:10451000A22D81113DC706C70E94AF2D182F87FD20
:104520000AC08BEA93E00E947ABD812F0E9447A9BE
:104530008AE00E9473BD109295020C94842C83E54E
:104540000E94A22D882309F4EDC60E94FE2C182F8C
:1045500090E0CD970CF01CE310938A020E948251E8
:104560006B017C01212F30E0A8EEB3E00E9451EDF9
:10457000C60ED71EE81EF91EC0928602D092870290
:10458000E0928802F0928902CDC680E50E94A9815E
:104590008111C8C681E40E94592D882321F06091C1
:1045A000120670E002C06FEF70E083E50E94D82D24
:1045B0008F3F910519F010F08FEF90E08093120675
:1045C0008093DD0BAFC680E50E94A9818111AAC648
:1045D000109212061092DD0BA5C610929A02A2C686
:1045E00081E080939A029EC683E50E94A22D8823D3
:1045F00099F00E94262D20E030E04AE754E40E9422
:1046000083E90E9462EE609303017093040180933A
:1046100005019093060186C688E50E94592D8111F7
:104620000C94522B89E50E94592D81110C94522B28
:104630008AE50E94592D81110C94522B85E40E9429
:10464000592D81110C94522B0E9427496BC683E58A
:104650000E94592D882309F465C60E94262D20E06A
:1046600030E04AE754E40E9483E90E9462EE6093DE
:104670008B0270938C0280938D0290938E0252C6AF
:104680000E94AF2D87FD4EC690918F0294FD04C00D
:104690009091910297FF0AC0B5E6CB2EB1E0DB2ED8
:1046A0001EEEE12E1AE0F12E10E009C09091920268
:1046B000937091F7682F81E00E949D2C33C6D6013C
:1046C0008D916D010E94A22D882309F46DC01330D5
:1046D00009F063C00E94262D4B015C0120E030E010
:1046E00040EA51E40E941DE987FF4EC0A5019401F4
:1046F00060910E0B70910F0B8091100B9091110B2C
:104700000E94E9ED2B013C019B01AC016091F60593
:104710007091F7058091F8059091F9050E9483E961
:104720006093F6057093F7058093F8059093F9056B
:10473000A301920160911E0B70911F0B8091200BC1
:104740009091210B0E9483E960931E0B70931F0BC5
:104750008093200B9093210B6091060670910706C1
:1047600080910806909109060E9422E9A301920116
:104770000E9483E90E9462EE60930606709307062A
:10478000809308069093090680920E0B90920F0B6F
:10479000A092100BB092110B07C00E94262DF701BA
:1047A000648B758B868B978B1F5FF4E0EF0EF11C8B
:1047B000143009F084CF0E949347B4C50E94154875
:1047C0000E948B6BAFC560E080919B0290919C0230
:1047D0000E94AFD6A7C500919B0210919C0283E076
:1047E000F12C40E08150E9F0D8019C91292F2B7FDA
:1047F0002134C1F711962C912133A1F7913421F086
:10480000953421F441E002C0FF24F39498012E5F17
:104810003F4F89012F5F3F4FF80190819032C9F3DC
:10482000E1CF41110E94A0BDFF2021F089EA95E06F
:104830000E947ABDC8010E9424C274C50E94946C73
:1048400071C581E080937D0380937C030E94AF6CEF
:1048500069C510927D0310927C030E94AF6C62C503
:1048600060E070E083E50E94EB2D8C01112702309F
:1048700011053CF00E949CBD8DEA95E00E947ABD36
:1048800051C588E40E94A22D8823A9F00E94222D00
:104890008A3A91053CF08530F1E09F072CF084E0E6
:1048A00091E002C08AEA90E0F801EE0FFF1FEA5B98
:1048B000F44F9183808386E40E94A22D882381F0A7
:1048C0000E94222D97FD07C08F3F910529F024F00B
:1048D0008FEF90E001C080E0F801E05CF44F80834E
:1048E00082E40E94A22D882309F41CC50E94222D77
:1048F0008530910534F0843791052CF083E790E002
:1049000002C085E090E0000F111FF801EE5BF44F4C
:104910009183808307C50E94AF2D182F87FD02C5A4
:1049200084E40E94592D882309F43FC00E94262D5B
:104930006B017C0101E020E030E0A9010E941DE94B
:10494000811101C000E00093780520E030E0A9016A
:10495000C701B6010E941DE9882339F10E94262D66
:1049600024E01202F0011124E358FA4F60837183AE
:104970008283938320E030E0A90160917D057091EE
:104980007E0580917F05909180050E941DE981112F
:104990000CC080E090E0A0EEBFE380937D05909393
:1049A0007E05A0937F05B09380050E94E460BAC4A1
:1049B0000E94AF2D87FDB6C475E6E72E71E0F72E95
:1049C0000EEE1AE0D7018D917D010E94592D8823AA
:1049D00049F00E94262D0E9462EEF80160837183E7
:1049E000828393830C5F1F4FFAE00E3F1F0751F73E
:1049F0000E944C4797C40E94AF2D87FD93C465E683
:104A0000E62E61E0F62E0EEE1AE0D7018D917D01C3
:104A10000E94592D882339F00E94262DF80164A3A5
:104A200075A386A397A30C5F1F4FFAE00E3F1F07E5
:104A300061F778C48091900287FD59C680919102F8
:104A40008E7009F054C64091220B5091230B609157
:104A5000240B7091250B85ED95E00E940DC24091CD
:104A6000260B5091270B6091280B7091290B82ED3A
:104A700095E00E940DC240912A0B50912B0B609142
:104A80002C0B70912D0B8FEC95E00E940DC28AE0EB
:104A90000E9473BD47C480918F02827109F06DC678
:104AA000809191028C7809F068C68091920283709F
:104AB00009F063C637C445E6C42E41E0D42E50E861
:104AC000E52E53E0F52E10E0D6018D916D010E9488
:104AD000592D882351F00E94262DF70160837183A0
:104AE00082839383812F0E941D661F5FF4E0EF0E87
:104AF000F11C133011F40C949E1BE6CF0E94A0BD54
:104B00008EE396E00E947ABD83E50E94592D8823AA
:104B100021F00E94122D80933D0180913D01882358
:104B200019F08BE196E002C087E196E00E947ABD21
:104B300086E396E00E947ABD20911C0530911D0508
:104B400040911E0550911F0560912501709126012D
:104B500080912701909128010E9461EDAB01BC0179
:104B600084E396E00E940DC220912005309121053A
:104B7000409122055091230560912D0170912E01E5
:104B800080912F01909130010E9461EDAB01BC0139
:104B900081E396E00E940DC2209124053091250505
:104BA000409126055091270560913501709136019D
:104BB00080913701909138010E9461EDAB01BC01F9
:104BC0008EE296E00E940DC286E296E00E947ABDD7
:104BD00020911C0530911D0540911E0550911F0527
:104BE0006091290170912A0180912B0190912C01F3
:104BF0000E9461EDAB01BC0184E296E00E940DC20F
:104C000020912005309121054091220550912305E6
:104C100060913101709132018091330190913401A2
:104C20000E9461EDAB01BC0181E296E00E940DC2E1
:104C300020912405309125054091260550912705A6
:104C40006091390170913A0180913B0190913C0152
:104C50000E9461EDAB01BC018EE196E00E940DC2A5
:104C60008AE00E9473BD5EC383E50E94A22D882363
:104C700009F458C30E94222D90934301809342016E
:104C800051C30E94AF2DF82E87FD4CC383E50E94CF
:104C9000A22D0F2D0F2C000C110B882369F10E94FF
:104CA000222DF801EE0FFF1FE85BFE4F91838083FA
:104CB000000F111F000F111F9801255B3E4F790156
:104CC000BC01990F880B990B0E9424E92AE037ED6B
:104CD00043E25CE30E9483E9F801E758FA4F208140
:104CE0003181428153810E9483E9D7016D937D9385
:104CF0008D939C93139716C30E94A0BD85E40E94D8
:104D000073BD80E38F0D0E9473BD000F111FF8016A
:104D1000E85BFE4F608171818EE496E00E948BC15A
:104D200085E20E9473BD8AE00E9473BDFBC280E5EC
:104D30000E94592D882309F4F5C260E070E080E5F7
:104D40000E94EB2DF82E6FEF7FEF83E50E94EB2D95
:104D50008C010196039708F0E5C2F7FCE3C28F2DA2
:104D60000E947BE3882339F00E949CBD86E596E093
:104D70000E947ABDD7C20E94154860E08F2D0E9424
:104D800059BB0F3FBFEF1B0731F00130110571F028
:104D900000E010E00DC08F2D0E9401BB31E020E04B
:104DA000892B09F030E0032F122F02C001E010E040
:104DB0008F2D0E9401BB8017910709F4B3C20E9496
:104DC00053BEF6CF8AE50E94A22D81114DC583E521
:104DD0000E94A22D811148C5A5C264E071E083E55F
:104DE0000E94D82D8C0168EE73E080E50E94D82DDA
:104DF0008938E3E19E0710F088E893E1B8010E944A
:104E000046D690C285E40E94A981811173C080E5D5
:104E10000E94592D882351F00E94262D60932F0661
:104E200070933006809331069093320689E40E9495
:104E3000592D882381F00E94262D2CEA35EC47E27B
:104E40005EE30E9483E96093330670933406809397
:104E500035069093360684E40E94592D882381F00C
:104E60000E94262D2CEA35EC47E25EE30E94E9ED34
:104E700060933706709338068093390690933A060C
:104E80000E94A0BD40912F065091300660913106DE
:104E9000709132068FE796E00E940DC22CEA35EC45
:104EA00047E25EE3609133067091340680913506E7
:104EB000909136060E94E9EDAB01BC018BE796E0CC
:104EC0000E940DC22CEA35EC47E25EE360913706A2
:104ED000709138068091390690913A060E9483E9D4
:104EE000AB01BC0187E796E00E940DC28AE00E94F8
:104EF00073BD18C20E949CBD85E696E00E947ABDF3
:104F000011C283E50E94592D182F882371F00E9449
:104F1000262D0E945BEE7093500160934F0121E0BB
:104F2000672B09F020E02093230680E50E94592D8D
:104F3000882359F020914F0130915001232B11F01B
:104F40000E94122D80932306EDC11111EBC10E9426
:104F5000A0BD8FE996E00E947ABD80912306882348
:104F600019F087E896E002C083E896E00E947ABDD7
:104F700060914F01709150018EE896E00E948BC1C4
:104F80008AE896E00E947ABDCDC10E941548CAC148
:104F900088E50E94592DD82E89E40E94592DC82EEB
:104FA000882321F00E94222DA82E28C0DD2011F197
:104FB0000E94262D20911C0530911D0540911E0553
:104FC00050911F050E9460ED20E030E040E251E486
:104FD0000E9460ED20E030E046E552E40E9461ED81
:104FE0002AE13FE149E15CE30E9483E90E945BEE34
:104FF000633018F0AA24AA9401C0A62E89E50E9465
:10500000592DF82E8AE40E94592D182F882321F05B
:105010000E94222DB82E28C0FF2011F10E94262DBB
:1050200020912005309121054091220550912305C2
:105030000E9460ED20E030E040E251E40E9460ED2B
:1050400020E030E046E552E40E9461ED2AE13FE1D4
:1050500049E15CE30E9483E90E945BEE633018F053
:10506000BB24BA9401C0B62E8AE50E94592DE82EC1
:10507000811105C081E50E94592D082F01C000E073
:10508000C11001C010E0212F30E0D11002C080E03B
:1050900001C08F2D280F311D2130310521F4E11081
:1050A00009C0011107C00E949CBD81ED96E00E94DD
:1050B0007ABD38C1A7FC02C0B7FE07C00E949CBDE4
:1050C00082EB96E00E947ABD2DC10E94262DEA2C2B
:1050D000AA0CFF08AB2DBB0CBB0B002391F0F70112
:1050E000EE0FFF1FEE0DFF1DEA0FFB1FEE0FFF1F60
:1050F000EE0FFF1FEC5AFA4F20813181428153811C
:1051000003C020E030E0A9018701000F111F0E0D40
:105110001F1D0A0F1B1F000F111F000F111F0C5A1C
:105120001A4F0E9461EDD8016D937D938D939C93EE
:105130001397F8C00E944E818111F4C002E616E177
:10514000E9EDF5E0FBA3EAA39E012F5F3F4F590174
:1051500097EB892E96E1992E1901F80165917591C9
:1051600085919491AAA1BBA1CD90DD90ED90FD9089
:10517000BBA3AAA3A70196010E9460ED2B013C01ED
:10518000F101608371838283938320E030E040EA01
:1051900051EC0E9428EF87FD0AC020E030E040EA91
:1051A00051E4C301B2010E941DE918162CF4F40168
:1051B000849118160CF49DC3D101CD90DD90ED9033
:1051C000FD901D0120E030E040EA51ECC701B6013E
:1051D0000E9428EF87FD0AC020E030E040EA51E459
:1051E000C701B6010E941DE91816A4F40E949CBDD7
:1051F0008FE097E00E947ABD61E081E097E00E9435
:1052000073D60E9410C568E270E088EC90E00E94BE
:1052100046D688C00C5F1F4FBFEF8B1A9B0AE6E192
:105220000E361E0709F099CF80E8E82E83E0F82EAD
:1052300010E0F50181919191A191B1915F01F70188
:1052400081939193A193B1937F01812F0E941D6659
:105250001F5F133071F70E948B6B60E081EF96E067
:105260000E9473D663E972E084E690E00E9446D61D
:105270006AEB72E084E690E00E9446D653C00E943A
:10528000B58A50C00E94A78A4DC061E083E50E94A4
:10529000FA2D0E94C78246C081E080933B0B0E949A
:1052A000788510923B0B8823E9F10E94A0BD8DE226
:1052B00097E00E947ABD36C08091F21182FF32C021
:1052C00080628093F2112EC081E080935101109290
:1052D000D80560E083E50E94FA2D811123C00E9469
:1052E00017D020C00E9440811DC0009193021091F0
:1052F00094020023B9F00E94A0BD84E50E9473BD12
:10530000B8017727072E000C880B990B0E946FC1FC
:1053100080E20E9473BD88E397E00E947ABD02C0DC
:105320000E944081109295020E9407D0EDC220E0B9
:1053300030E00C94651811110C94541F0C944D1FFF
:105340000E9453BE0C94761F0E94EE2CAB01BC0150
:105350004093EE115093EF116093F0117093F1119F
:1053600088EC9FE00E94AC58DDCF61E0802F0E9466
:1053700059BB6F2D802F0E942ABB6F2D70E0802FAC
:105380000E9495BBF4E0EF12CDCFF0921206CACF87
:105390000E94262D0E945BEE633771050CF07FC1E1
:1053A0007093E70B6093E60B0E94AEA80E94262D37
:1053B00020E030E040EA50E40E9428EF181614F490
:1053C0000E94388F6091E60B7091E70B072E000C5E
:1053D000880B990B0E9424E92091E20B3091E30B9A
:1053E0004091E40B5091E50B0E9428EF18161CF435
:1053F0008CE993E002C08DE893E060E00E9473D6F0
:1054000081E0809324011CA21DA21EA21FA21DA642
:105410001EA61FA618AAA1E0A9AB1AA21AAABCE34D
:10542000BBABECE1ECABF6E4FDABC12CD12C00E85E
:10543000E02E8FEBF82E812C912C54016091E60B1D
:105440007091E70B072E000C880B990B0E9424E942
:10545000162F072F782E692E9601A7010E941DE9AD
:10546000882349F1C090E20BD090E30BE090E40B6D
:10547000F090E50BA7019601612F702F872D962DD7
:105480000E941DE9881F8827881F8AA32CA5222334
:10549000C1F0A7019601612F702F872D962D0E94D4
:1054A0001DE987FF0DC080912401882309F43ACFBC
:1054B0000E94D7D637CF1C2D0D2D7E2C6F2C01C00E
:1054C0001AA20E9482516B017C01DC01CB014DA527
:1054D0005EA56FA578A9841B950BA60BB70BB7FD2E
:1054E00033C0C701B60168517C4F8F4F9F4F6DA7E6
:1054F0007EA78FA798AB80E00E9447A989E893E038
:105500000E947ABD81149104A104B104B9F0D501BF
:10551000C401805F984DAF4FBF4FBC01CD016C19E6
:105520007D098E099F0928EE33E040E050E00E949B
:1055300024EDCA01B9010E946FC103C08FE30E942C
:1055400073BD8AE00E9473BD0E9453BE0E948251C7
:105550006093570F7093580F8093590F90935A0F81
:105560007091E20B78A78091E30B89A79091E40BEF
:105570009AA7A091E50BABA7272F382F492F5A2FB9
:10558000612F702F872D962D0E9460ED1B012C013D
:1055900020E030E0A9010E9428EF87FF04C057FAFD
:1055A000509457F8509481149104A104B104B1F4BB
:1055B00020E030E040E85FE3C201B1010E941DE954
:1055C00087FF18C0B9A946015701BB2399F0E0E154
:1055D0008E0EE7E29E1EA11CB11C0CC020E030E044
:1055E00040E450E4C201B1010E9428EF181614F4FF
:1055F00046015701FAA1FF23A9F12CA13DA14EA11B
:105600005FA1211531054105510541F0D701C601C2
:10561000821B930BA40BB50BB7FD24C028A539A59D
:105620004AA55BA56AA97BA98CA99DA90E9460EDEA
:1056300020E030E040EC5FE30E941DE987FD33CFBE
:10564000B701A601405A55416F4F7F4F4CA35DA350
:105650006EA37FA358A55AAB69A56BAB7AA57CABAB
:105660008BA58DAB80912401882309F41CCF811474
:105670009104A104B10431F419AAC12ED02EE72C53
:10568000F62CDCCE90E1C91A97E2D90AE108F108BC
:10569000C818D908EA08FB08F7FCEECF04CF63E787
:1056A00070E07ECE0E94154888E50E94592D88231F
:1056B00031F05E9A80917F038E7F80937F0389E52E
:1056C0000E94592D882331F05E9A80917F038D7F4F
:1056D00080937F038AE50E94592D882309F422CE06
:1056E000159A80917F038B7F80937F031BCE83E588
:1056F0000E94A22D882391F00E94262D6093220BF8
:105700007093230B8093240B9093250B60932A0BAB
:1057100070932B0B80932C0B90932D0B80E50E94A4
:10572000A22D882351F00E94262D6093220B7093A6
:10573000230B8093240B9093250B82E50E94A22DCE
:10574000882351F00E94262D6093260B7093270B1F
:105750008093280B9093290B84E50E94A22D882327
:1057600009F4E0CD0E94262D60932A0B70932B0B39
:1057700080932C0B90932D0BD5CD82E40E94592D54
:10578000882351F00E94D82C6093FE0A7093FF0A80
:105790008093000B9093010B83E50E94592D882381
:1057A00051F00E94262D60932E0B70932F0B809347
:1057B000300B9093310B84E50E94592D882351F0D2
:1057C0000E94262D6093320B7093330B8093340B21
:1057D0009093350B88E50E94592D882351F00E9443
:1057E000262D6093EA057093EB058093EC0590936A
:1057F000ED0589E50E94592D882351F00E94262D40
:105800006093EE057093EF058093F0059093F1059A
:105810008AE50E94592D8823B1F00E94262D6093BD
:10582000F2057093F3058093F4059093F5052DEC44
:105830003CEC4CEC5DE30E941DE9181624F085EE6B
:1058400095E00E947ABD85E40E94592D882309F4D1
:1058500069CD0E94262D6093F6057093F70580931D
:10586000F8059093F9055ECD0E94262D20E030E0EA
:1058700040E050EC0E941DE987FD12C00E94262DD9
:1058800020E030E040E050E40E9428EF18161CF0C1
:105890000E94262D09C060E070E080E090E404C022
:1058A00060E070E080E090EC20910A0B30910B0BEF
:1058B00040910C0B50910D0B0E9483E90E945BEE0E
:1058C00020917F0322FF2ECD20918E0530918F05F0
:1058D000260F371F30938F0520938E052091960B4E
:1058E0003091970B620F731F7093970B6093960B19
:1058F00019CDF7FAF094F7F8F094D101CD92DD923A
:10590000ED92FC92139758CCE5960FB6F894DEBF53
:105910000FBECDBFDF91CF911F910F91FF90EF9000
:10592000DF90CF90BF90AF909F908F907F906F90BF
:105930005F904F903F902F900895882319F00E9418
:10594000A0BD03C080E20E9473BD4091020B509144
:10595000030B6091040B7091050B89ED97E00E9499
:105960000DC24091060B5091070B6091080B70918E
:10597000090B86ED97E00E940DC240910A0B5091F1
:105980000B0B60910C0B70910D0B83ED97E00E9457
:105990000DC240910E0B50910F0B6091100B709146
:1059A000110B80ED97E00E940DC28AE00C9473BD4C
:1059B0008091A5029091A602009731F04AE050E054
:1059C00060E070E00C944CE760E070E0CB0108957B
:1059D0000E9473BD81EC97E00C947ABD8091A50282
:1059E0009091A602009731F04AE050E060E070E04C
:1059F0000C941EE660E070E0CB0108950E94EE2C4E
:105A000097FD0CC00E94EE2C6F3F7105810591053A
:105A100009F034F40E94EE2C862F089580E008955A
:105A20008FEF08958091A5029091A602892B39F0FD
:105A30000E94FE2C91E0811103C090E001C091E032
:105A4000892F08950E94EE2CCB0108950F931F9388
:105A5000CF938091A5029091A6020097F1F0FC01EE
:105A60008F01C1912C2F2F7D89F0C53411F0C536DF
:105A7000B9F7F801108260E070E00E94C2E4F8011A
:105A8000C083562F472F382F292F0BC060E070E0BE
:105A9000CF911F910F910C94C2E450E040E030E0B0
:105AA00020E0652F742F832F922FCF911F910F919C
:105AB000089581548A3108F042C0E82FF0E0409107
:105AC0008F0250919002609191027091920204C0F5
:105AD00076956795579547958A95D2F7842F81706B
