:100000000C9461170C948B170C948B170C948B1712
:100010000C948B170C948B170C948B170C948B17D8
:100020000C948B170C94B0410C948B170C948B1779
:100030000C948B170C94A6A70C948B170C948B170D
:100040000C948B170C948F990C942CC60C948B17D2
:100050000C9449400C948B170C948B170C948B17B1
:100060000C948B170C948B170C948B170C948B1788
:100070000C948B170C948B170C948B170C948B1778
:100080000C948B170C948B170C948B173CC43FC4A7
:1000900032C436C456C456C443C447C44DC451C404
:1000A0009BC5A0C5A5C5AFC5DDC5DDC5B9C5C1C565
:1000B000C9C5D3C54E414E494E495459494E46CD06
:1000C000CCCC3D0AD7233C17B7D13877CC2B32950F
:1000D00095E6241FB14F0A000020410000C84200ED
:1000E000401C4620BCBE4CCA1B0E5AAEC59D744374
:1000F0004F4D4D554E49434154494F4E004452597E
:1001000052554E004552524F525300494E464F00F1
:100110004543484F00536C6565702E2E2E00206FAE
:100120006620004D424C2047323920706F696E7452
:100130002000290A0059206F7574206F66207261B3
:100140006E67652028312D00290A0058206F7574CC
:10015000206F662072616E67652028312D004D6525
:1001600073682070726F62696E6720646F6E652EAF
:100170000A005374617274206D6573682070726F29
:1001800062696E672077697468202247323920538C
:1001900031222066697273742E0A004732380A478A
:1001A00032392053320053746174653A20004D6532
:1001B000736820626564206C6576656C696E672083
:1001C000686173206E6F20646174612E0A00532091
:1001D0006F7574206F662072616E67652028302D00
:1001E00035292E0A004D65736820706F696E742082
:1001F00063616E6E6F74206265207265736F6C76DA
:1002000065640A004E6F206D6F76652E00456E6442
:100210002066696C65206C6973740A0042656769C1
:100220006E2066696C65206C6973740A00256973B9
:100230000025696D20256973002569682025696D91
:100240002025697300256964202569682025696D6A
:10025000202569730025697920256964202569684E
:100260002025696D20256973005072696E742074B1
:10027000696D653A200010010B010401FD00EF00DB
:100280006F66660044454255473A004B494C4C4521
:10029000442E20004D3131332053006F6B00205726
:1002A0003A004520436F6F6C696E672E2E2E004515
:1002B0002048656174696E672E2E2E0020573A0023
:1002C00042656420636F6F6C696E672E2E2E00424C
:1002D00065642068656174696E672E2E2E00456E18
:1002E0006465722D33204F66662E002F2F20004D3F
:1002F00031343520533C696E6465783E206F7574E7
:10030000206F662072616E67652028302D31290AC2
:1003100000205400205200416363656C6572617473
:10032000696F6E3A2050005741524E494E47212086
:100330004C6F77205A204A65726B206D6179206C72
:1003400065616420746F20756E77616E74656420DA
:100350007061757365732E0A00486F6D6520257393
:100360002573257320666972737400206669727341
:10037000740A005A0059005800486F6D6520004FFC
:10038000666673657473206170706C69656400459E
:1003900072723A20546F6F206661722100546F6F41
:1003A000206661722066726F6D2072656665726587
:1003B0006E636520706F696E740A00205A002059C0
:1003C00000580020204D61783A2000205A00205922
:1003D00000580020204D696E3A20004F6E20004FDB
:1003E000666600536F667420656E6473746F707315
:1003F0003A200020466C6F773A200000010F150E5E
:1004000012FFFFFFFF16170E13FFFFFFFF03021A75
:1004100014FFFFFFFFFFFFFF0C04FFFFFF01000EB3
:10042000FFFFFF0C190DFF1843290A0061626C657C
:100430006420286D696E2074656D702000436F6CB8
:10044000642065787472756465732061726520003C
:1004500023646566696E652044454641554C545F8A
:100460004B64200023646566696E652044454641FF
:10047000554C545F4B69200023646566696E6520A6
:1004800044454641554C545F4B7020005049442030
:100490004175746F74756E652066696E6973686501
:1004A00064212050757420746865206C6173742019
:1004B0004B702C204B6920616E64204B6420636F6D
:1004C0006E7374616E74732066726F6D2062656CFA
:1004D0006F7720696E746F20436F6E6669677572FF
:1004E0006174696F6E2E680A00504944204175742A
:1004F0006F74756E65206661696C6564212074692E
:100500006D656F75740A00453120544845524D4160
:100510004C2052554E4157415900546865726D61E7
:100520006C2052756E6177617900453120486561B4
:1005300074696E67206661696C6564004865617402
:10054000696E67206661696C6564005049442041AA
:1005500075746F74756E65206661696C65642120C1
:1005600054656D706572617475726520746F6F206B
:10057000686967680A00204B643A2000204B693A9A
:100580002000204B703A20000A20436C617373698D
:100590006320504944200A002054753A2000204B23
:1005A000753A2000206D61783A2000206D696E3A1E
:1005B000200020643A200020626961733A200050D4
:1005C0004944204175746F74756E65206661696C6D
:1005D0006564212054656D70657261747572652063
:1005E000746F6F20686967680A005049442041753C
:1005F000746F74756E652073746172740A0050496B
:1006000044204175746F74756E65206661696C6510
:10061000642120426164206578747275646572207B
:100620006E756D6265720A004E6F2063617365209E
:100630006C696768740A004F66660A004661646503
:10064000204865696768742000426564204C6576BF
:10065000656C696E6720004661696C656420746F23
:1006600020656E61626C6520426564204C6576652C
:100670006C696E670A004D65736820426564204CA2
:100680006576656C20646174613A0A004D65736833
:1006900020706F696E742063616E6E6F7420626586
:1006A000207265736F6C7665640A004D34323120B8
:1006B000696E636F727265637420706172616D65DB
:1006C0007465722075736167650A004163746976A9
:1006D000652045787472756465723A2000496E76BB
:1006E000616C69642065787472756465720A004E85
:1006F0006F20436865636B73756D2077697468203C
:100700006C696E65206E756D6265722C204C61732C
:1007100074204C696E653A20004B494C4C45442E80
:10072000200053544F505045442E20005072696EA3
:100730007465722073746F707065642064756520D1
:10074000746F206572726F72732E20466978207400
:100750006865206572726F7220616E6420757365C2
:10076000204D39393920746F207265737461727449
:100770002E202854656D70657261747572652069EC
:10078000732072657365742E20536574206974201C
:1007900061667465722072657374617274696E67E4
:1007A000290A004E6F20436865636B73756D20776F
:1007B000697468206C696E65206E756D6265722C57
:1007C000204C617374204C696E653A200063686543
:1007D000636B73756D206D69736D617463682C2034
:1007E0004C617374204C696E653A20004C696E65EB
:1007F000204E756D626572206973206E6F74204C97
:10080000617374204C696E65204E756D6265722B44
:10081000312C204C617374204C696E653A20004D78
:10082000313130004D333100534420726561642012
:100830006572726F720A00446F6E65207072696E25
:1008400074696E672066696C650A0020496E76617E
:100850006C696420657874727564657220000000AC
:100860000000000000000000000000006B430000DA
:100870006B4300007A43206E6F7420656E7465725E
:1008800065642E0A00024B494C4C45442E20002042
:100890002D20496E76616C69642065787472756488
:1008A0006572206E756D62657220210A00202050ED
:1008B0006C616E6E657242756666657242797465CA
:1008C000733A20002046726565204D656D6F727920
:1008D0003A2000436F6D70696C65643A204D617217
:1008E00020203820323031390A00207C20417574B4
:1008F000686F723A20287468697369736B656974EC
:1009000068622C20456E6465722D33290A003230EE
:1009100031382D30372D333100204C617374205520
:100920007064617465643A20006275676669782D49
:10093000312E312E780A004D61726C696E002053A1
:100940006F6674776172652052657365740A002062
:100950005761746368646F672052657365740A0039
:100960002042726F776E206F7574205265736574C4
:100970000A002045787465726E616C20526573655B
:10098000740A00506F77657255700A007374617253
:10099000740A006175746F25692E67006572726F45
:1009A000722077726974696E6720746F2066696C53
:1009B000650A00456E6473746F707320256320258B
:1009C0006320256320256300205A3A0020593A000D
:1009D00020583A00656E6473746F70732068697490
:1009E0003A2000446F6E6520736176696E672066F9
:1009F000696C652E0A004D3239004D3234004D329B
:100A00003320257300556E6B6E6F776E20636F6DAC
:100A10006D616E643A202200534420636172642049
:100A20006F6B0A006F70656E526F6F74206661693C
:100A30006C65640A00766F6C756D652E696E6974FD
:100A4000206661696C65640A00534420696E6974AC
:100A5000206661696C0A0057726974696E67207458
:100A60006F2066696C653A20006F70656E20666164
:100A7000696C65642C2046696C653A20006F70656E
:100A80006E206661696C65642C2046696C653A204D
:100A90000046696C652073656C65637465640A0063
:100AA0002053697A653A200046696C65206F70654D
:100AB0006E65643A20002066696C653A2000646FB8
:100AC000696E67006672657368004E6F7720004537
:100AD0004E4420535542524F5554494E450A002228
:100AE00020706F73002220706172656E743A22006C
:100AF000535542524F5554494E452043414C4C208A
:100B00007461726765743A22004B494C4C45442E1F
:100B10002000747279696E6720746F2063616C6C59
:100B2000207375622D67636F64652066696C6573F9
:100B3000207769746820746F6F206D616E79206C06
:100B40006576656C732E204D4158206C6576656C1A
:100B50002069733A004572726F723A0043616E6E9B
:100B60006F74206F70656E20737562646972200007
:100B70006563686F3A0025753A2530327500253077
:100B800032753A253032750025756420253032756E
:100B90003A2530327500202020202020005A0059AC
:100BA0000020202020005800092000000000000044
:100BB00000000000000000003FFFF0000000000007
:100BC000000000000000000038007000000000007D
:100BD000000000000000000030FC300000000000B9
:100BE000000000000000000020FC100000000000D9
:100BF000000000000000000020781000000000004D
:100C00000000000000000000203010000000000084
:100C100000000000000000002C00D0F80180000C53
:100C20001FE00000082080002E31D0480080001214
:100C30003FF00000041040002F7BD043C38CD00253
:100C40003FF00000041040002F7BD071249267CC4D
:100C50003FF00000082080002E31D041249E400249
:100C60001FE00000104100002C00D04924904012E9
:100C70001FE0000020820000203010FBB3CEE00C0B
:100C80003FF00000208200002078100000000000EB
:100C90003FF000001041000020FC100000000000A8
:100CA0003FF000000820800030FC30000000000011
:100CB0000FC00000000000003800700000000000BD
:100CC00007800000FFFFC0003FFFF00000000000B1
:100CD00003000000FFFFC000000000000000000053
:100CE00000000000000000003FFFF00000000000D6
:100CF000000000000000000038007000000000004C
:100D000000000000000000003387300000000000F9
:100D10000000000000000000278790000000000095
:100D200000000000000000002F87D000000000003D
:100D300000000000000000002F87D000000000002D
:100D400000000000000000002F03D0F80180000C1C
:100D50001FE00000082080002030104800800012B2
:100D60003FF000000410400020781043C38CD002F4
:100D70003FF000000410400020781071249267CCEE
:100D80003FF000000820800020301041249E4002E7
:100D90001FE00000104100002F03D04924904012B2
:100DA0001FE00000208200002F87D0FBB3CEE00CB4
:100DB0003FF00000208200002F87D00000000000DC
:100DC0003FF0000010410000278790000000000065
:100DD0003FF0000008208000338730000000000052
:100DE0000FC000000000000038007000000000008C
:100DF00007800000FFFFC0003FFFF0000000000080
:100E000003000000FFFFC00000000000060900FE14
:100E1000000000000001090008FE000005080806A7
:100E2000000040F0C888889878100508080600007F
:100E3000C0F88888888888F80505050600012030F4
:100E4000F830200508080600002070F82020202037
:100E5000E00509090600FF2070A8A8B8888870205E
:100E60000509090600FFE080C0B0A8283028280541
:100E700009090600FFF8A88888888888A8F8050A64
:100E80000A0600FE205050505088A8A8887003031E
:100E90000306000340A0407C3C3E5E2B3D3F2F5BA1
:100EA0005D3B2C2A225C004572726F72207772695A
:100EB00074696E6720746F20454550524F4D210A6A
:100EC00000454550524F4D206461746173697A65E5
:100ED000206572726F722E0A00290A0020627974EE
:100EE00065733B20637263200053657474696E6799
:100EF000732053746F726564202800290A002062F1
:100F0000797465733B2063726320002073746F7281
:100F100065642073657474696E677320726574729A
:100F20006965766564202800202863616C63756CB0
:100F30006174656429210A0020213D200045455047
:100F4000524F4D20435243206D69736D6174636845
:100F5000202D202873746F72656429200020536946
:100F60007A653A2000496E6465783A2000204D6128
:100F7000726C696E3D563535290A00284545505238
:100F80004F4D3D00454550524F4D20766572736977
:100F90006F6E206D69736D6174636820004732382D
:100FA0000053746F72652073657474696E677300A3
:100FB0004C6F61642073657474696E677300426579
:100FC00064205A00426564205A00466164652048E6
:100FD000656967687400466164652048656967688B
:100FE00074004F6666004F6E2000426564204C65B9
:100FF00076656C696E67004C6576656C2062656429
:101000000050726570617265004D34323800507264
:10101000656865617420504C4100436F6F6C646F6C
:10102000776E0050726568656174204142530044D8
:10103000697361626C6520737465707065727300AA
:101040004D38340053657420686F6D65206F666697
:101050007365747300426564204C6576656C696ED7
:1010600067004175746F20686F6D65004732380006
:101070004D6F76652061786973004D61696E004D32
:101080006F76652058004D6F76652059004D6F765C
:1010900065205A004578747275646572004D6F76EC
:1010A0006520302E316D6D004D6F766520316D6D90
:1010B000004D6F76652031306D6D004D6F76652087
:1010C00061786973004578747275646572004D6F5C
:1010D0007665205A004D6F76652059004D6F766514
:1010E0002058004578747275646572004D6F76659E
:1010F000205A004D6F76652059004D6F7665205857
:10110000005072657061726500496E697469616C46
:10111000697A6520454550524F4D00436F6E747299
:101120006F6C00526573746F7265206661696C73D1
:10113000616665004C6F61642073657474696E67E5
:101140007300496E697469616C697A652045455020
:10115000524F4D0053746F72652073657474696EDD
:1011600067730046696C616D656E74004D6F7469DC
:101170006F6E0054656D7065726174757265004DB7
:1011800061696E004D33303320553120452569208B
:10119000532569005072656865617420414253208F
:1011A000636F6E66005072656865617420504C41D3
:1011B00020636F6E6600504944204175746F7475EA
:1011C0006E6500504944204175746F74756E6500FA
:1011D0005049442D44005049442D44005049442D69
:1011E00049005049442D49005049442D5000504970
:1011F000442D5000200820466163740020082046DA
:10120000616374002008204D6178002008204D6142
:1012100078002008204D6178002008204D696E007C
:101220002008204D696E002008204D696E004F6631
:1012300066004F6E20004175746F74656D700046D6
:10124000616E2073706565640046616E2073706521
:1012500065640042656400426564004E6F7A7A6C92
:1012600065004E6F7A7A6C6500436F6E74726F6CB6
:101270000053746F72652073657474696E677300D0
:1012800042656400426564004E6F7A7A6C65004E78
:101290006F7A7A6C650046616E20737065656400D4
:1012A00046616E2073706565640054656D7065728B
:1012B00061747572650070012C0190012701B00105
:1012C0002201C0011D01F0011801100213013002BA
:1012D0000E016002090190020401C002FF00000338
:1012E000FA004003F5008003F000D003EB00200477
:1012F000E6007004E100E004DC004005D700C00512
:10130000D2004006CD00D006C8008007C3003008D8
:10131000BE00F008B900C009B400B00AAF00B00BBD
:10132000AA00D00CA500000EA000500F9B00C0101A
:1013300096005012910000148C00C0158700B01761
:101340008200B0197D00D01B7800001E7300402081
:101350006E0090226900F024640040275F0090290D
:101360005A00E02B5500102E500020304B00103258
:101370004600E033410090353C00103737007038AC
:101380003200A0392D00B03A2800A03B2300603C79
:101390001E00103D1900903D1400103E0F00703EDD
:1013A0000A00C03E0500003F0000403FFBFF803FB9
:1013B000F6FFC03FF1FF202F002042403A002040BE
:1013C0003A0000060900FE0701920321207FFF0773
:1013D000FF07FF000000060000010707060200806B
:1013E000808080800080030202060105A0A005071E
:1013F000070600005050F850F85050050707060047
:10140000002078A07028F020050707060000C0C85B
:1014100010204098180507070600006090A040A81B
:101420009068020303060104C04080030707060119
:101430000020408080804020030707060100804094
:10144000202020408005050506000120A870A82066
:101450000505050600012020F820200203030602EE
:10146000FFC04080050101060003F80202020602E7
:1014700000C0C005050506000108102040800507D2
:1014800007060000708888888888700307070601AF
:101490000040C040404040E005070706000070885B
:1014A00008708080F8050707060000F81020100873
:1014B00008F005070706000010305090F8101005DE
:1014C0000707060000F880F008088870050707067F
:1014D0000000708080F0888870050707060000F81B
:1014E000081020202020050707060000708888705B
:1014F00088887005070706000070888878080870DB
:10150000020505060200C0C000C0C00206060602B1
:10151000FFC0C000C0408004070706000010204044
:1015200080402010050303060002F800F8040707B6
:1015300006010080402010204080050707060000BB
:101540007088081020002005070706000070880832
:1015500068A8A870050707060000708888F88888C2
:1015600088050707060000F08888F08888F00507DE
:1015700007060000708880808088700507070600D5
:1015800000F08888888888F0050707060000F88042
:1015900080F08080F8050707060000F88080F08062
:1015A0008080050707060000708880B8888870056D
:1015B0000707060000888888F888888801070706DA
:1015C0000200808080808080800507070600003848
:1015D0001010101090600507070600008890A0C04A
:1015E000A09088050707060000808080808080F832
:1015F00005070706000088D8A88888888805070797
:101600000600008888C8A898888805070706000093
:1016100070888888888870050707060000F0888829
:10162000F080808005070706000070888888A890F1
:1016300068050707060000F08888F0A09088050775
:1016400007060000788080700808F005070706008C
:1016500000F82020202020200507070600008888A9
:101660008888888870050707060000888888888829
:1016700050200507070600008888888888A850053C
:10168000070706000088885020508888050707064D
:10169000000088888850202020050707060000F8F1
:1016A0000810204080F8030707060100E0808080D2
:1016B0008080E00505050600018040201008030732
:1016C00007060100E02020202020E005030306009B
:1016D00004205088050101060000F80202020602FB
:1016E0000580400505050600007008788878050724
:1016F000070600008080B0C88888F0050505060050
:101700000070808088700507070600000808689848
:101710008888780505050600007088F88070050740
:10172000070600003048E04040404005060606003D
:10173000FF7088887808700507070600008080B071
:10174000C8888888010707060200800080808080A2
:10175000800308080601FF200020202020A040046C
:101760000707060000808090A0C0A090030707062E
:101770000100C04040404040E0050505060000D0A3
:10178000A8A8A8A8050505060000B0C8888888058F
:10179000050506000070888888700506060600FFAB
:1017A000F08888F080800506060600FF7888887833
:1017B0000808050505060000B0C8808080050505FD
:1017C00006000070807008F0040707060000404023
:1017D000E04040403005050506000088888898688C
:1017E00005050506000088888850200505050600C7
:1017F000008888A8A85005050506000088502050DC
:10180000880506060600FF888888780870050505A3
:10181000060000F8102040F80307070601002040EA
:1018200040804040200107070602008080808080C1
:10183000808003070706010080404020404080056B
:101840000202060002689000000006000042616289
:101850007973746570205A0042616279737465709F
:10186000205A00466C6F7700466C6F770046616EB9
:101870002073706565640046616E207370656564F1
:101880000042656400426564004E6F7A7A6C6500C0
:101890004E6F7A7A6C6500466164652048656967B9
:1018A0006874004661646520486569676874004231
:1018B0006564205A00426564205A0053706565646F
:1018C000005370656564004D61696E005072656813
:1018D00065617420504C4120456E6400507265680B
:1018E00065617420504C4120426564005072656807
:1018F00065617420504C41005072657061726500E2
:10190000507265686561742041425320456E6400E1
:1019100050726568656174204142532042656400DD
:101920005072656865617420414253005072657061
:10193000617265004C6576656C696E6720446F6EF8
:101940006521004D6F7665205A00473239205332A9
:10195000004E65787420506F696E74002569202FE1
:101960002025750047323920533100473239205342
:101970003200436C69636B20746F20426567696E47
:1019800000486F6D696E672058595A0056652D6A78
:1019900065726B0056652D6A65726B0056652D6A1F
:1019A00065726B00567A2D6A65726B00567A2D6AE5
:1019B00065726B0056792D6A65726B0056792D6AD7
:1019C00065726B0056792D6A65726B0056782D6AC8
:1019D00065726B0056782D6A65726B0056782D6AB9
:1019E00065726B004D6F74696F6E0045737465703E
:1019F000732F6D6D004573746570732F6D6D005A94
:101A000073746570732F6D6D005A73746570732FE6
:101A10006D6D005973746570732F6D6D005973741B
:101A20006570732F6D6D005873746570732F6D6DD5
:101A3000005873746570732F6D6D004D6F74696F0E
:101A40006E0053746570732F6D6D004A65726B0084
:101A5000416363656C65726174696F6E0056656C95
:101A60006F6369747900436F6E74726F6C004669BE
:101A70006C2E204469612E0046696C2E20446961F9
:101A80002E004F6666004F6E20004520696E206D67
:101A90006D3300436F6E74726F6C0043616E6E6FD6
:101AA0007420656E746572207375626469723A2081
:101AB00000022E2E000152656672657368004D614A
:101AC000696E00436C69636B20746F207265737577
:101AD0006D652E2E2E00286E6F2066696C652900BC
:101AE0005344207072696E74696E67206279746500
:101AF00020004E6F74205344207072696E74696EBA
:101B0000670A0043757272656E742066696C653A87
:101B1000200046696C652064656C657465643A00F4
:101B200044656C6574696F6E206661696C65642CD0
:101B30002046696C653A200050726F746563746565
:101B4000642050696E0A00205A3A0020593A002059
:101B5000436F756E7420583A0020453A00205A3A77
:101B60000020593A00583A002C20002C20003A005E
:101B70004361703A00544845524D414C5F50524FBA
:101B800054454354494F4E004155544F5245504FD0
:101B900052545F53445F53544154555300454D458F
:101BA0005247454E43595F504152534552004341BD
:101BB00053455F4C494748545F4252494748544E49
:101BC00045535300544F47474C455F4C4947485491
:101BD0005300534F4654574152455F504F5745525B
:101BE000004255494C445F50455243454E54004CC9
:101BF0004556454C494E475F44415441005A5F5059
:101C0000524F4245004155544F4C4556454C0050AB
:101C100052494E545F4A4F420050524F475245532B
:101C200053004155544F5245504F52545F54454D07
:101C30005000564F4C554D45545249430045455070
:101C4000524F4D0053455249414C5F584F4E5F58DB
:101C50004F4646004649524D574152455F4E414D11
:101C6000453A4D61726C696E206275676669782DC0
:101C7000312E312E782028476974687562292053E7
:101C80004F555243455F434F44455F55524C3A6868
:101C9000747470733A2F2F6769746875622E636F5E
:101CA0006D2F4D61726C696E4669726D77617265F8
:101CB0002F4D61726C696E2050524F544F434F4C00
:101CC0005F56455253494F4E3A312E30204D4143D5
:101CD00048494E455F545950453A456E6465722DEA
:101CE000332045585452554445525F434F554E5446
:101CF0003A3120555549443A63656465326132662C
:101D00002D343161322D343734382D396231322D52
:101D10006335356336326633363766660A002064CB
:101D20003A0020693A0020703A00496E76616C6989
:101D3000642065787472756465720A004545505276
:101D40004F4D204F4B0A006265640A002C207379C6
:101D50007374656D2073746F7070656421204865BD
:101D6000617465725F49443A200042656420686589
:101D70006174696E67206661696C656400486561BD
:101D800074696E67206661696C656400453120483E
:101D9000656174696E67206661696C656400486599
:101DA0006174696E67206661696C65640045312005
:101DB000544845524D414C2052554E4157415900CF
:101DC00042454420544845524D414C2052554E41C5
:101DD00057415900546865726D616C2052756E618F
:101DE000776179004531204572723A204D4158544F
:101DF000454D50004572723A204D415854454D5062
:101E000020424544004D415854454D50207472695C
:101E1000676765726564004531204572723A204DEE
:101E2000494E54454D50004572723A204D494E542A
:101E3000454D5020424544004D494E54454D50209B
:101E4000747269676765726564004D383420582084
:101E500059205A204500627573793A207061757374
:101E6000656420666F7220696E7075740A00627511
:101E700073793A2070617573656420666F7220759E
:101E80007365720A00627573793A2070726F6365C8
:101E90007373696E670A004B494C4C45442E200011
:101EA0004B494C4C206361757365642062792074E2
:101EB0006F6F206D75636820696E61637469766504
:101EC0002074696D65202D2063757272656E7420B3
:101ED000636F6D6D616E643A2000506C656173656F
:101EE000207265736574005052494E544552204823
:101EF000414C544544005072696E746572206861AB
:101F00006C7465642E206B696C6C28292063616C8D
:101F10006C6564210A00656E7175657565696E672B
:101F2000202200000000000000000000000000006F
:101F300000A0410000A041000080400000000057C8
:101F400061726E696E673A20486F6D696E672042F4
:101F5000756D702044697669736F72203C20310A78
:101F6000000202040000A0400000A0400000004069
:101F700000006B4300006B4300007A43FFFFFF2427
:101F8000F4D43050C38E20C2A24017828B7011123D
:101F90007A910D816CD90AA861E108C7586607617A
:101FA0005143061E4B5D05C145A7041A41110409A2
:101FB0003D9803713931034036DB0265339102D419
:101FC000305402802E1D02632CEE01752AC501B02B
:101FD00028A001102781018F2564012B244B01E0EB
:101FE000223401AC211F018D200D01801FFC0084D3
:101FF0001EED00971DDF00B81CD200E61BC60020B6
:102000001BBC00641AB200B219A8000A19A0006A29
:10201000189900D117910040178B00B51684003134
:10202000167E00B31579003A157300C7146F005877
:10203000146A00EE1366008813630025135E00C760
:10204000125B006C12570015125400C11151007040
:10205000114F0021114B00D61049008D104700464A
:1020600010440002104200C00F4000800F3E0042AA
:102070000F3C00060F3B00CB0E3800930E37005C80
:102080000E3500270E3400F30D3200C10D310090E3
:102090000D3000600D2E00320D2D00050D2C00D9E5
:1020A0000C2B00AE0C2900850C29005C0C27003598
:1020B0000C27000E0C2600E80B2400C40B2400A003
:1020C0000B23007D0B23005A0B2100390B21001834
:1020D0000B2000F80A1F00D90A1E00BB0A1E009D33
:1020E0000A1D00800A1D00630A1C00470A1B002C01
:1020F0000A1B00110A1A00F7091A00DD091900C4A9
:10210000091900AB091900920917007B091800632F
:102110000917004C09160036091600200916000A96
:10212000091500F5081500E0081400CC081400B8E3
:10213000081400A4081400900813007D0812006B16
:102140000813005808120046081200340811002332
:102150000811001208110001081100F0071000E03A
:10216000071000D0071000C0071000B0070F00A133
:1021700007100091070E0083070F0074070F00651A
:10218000070E0057070E0049070E003B070D002EF3
:10219000070E0020070D0013070D0006070D00F9BC
:1021A000060C00ED060D00E0060C00D4060C00C87D
:1021B000060C00BC060C00B0060C00A4060B00992F
:1021C000060C008D060B0082060B0077060B006CD8
:1021D000060B0061060A0057060B004C060A004277
:1021E000060A0038060A002E060A0024060A001A0B
:1021F000060A001006090007060A00FD050900F49A
:10220000050900EB050900E2050900D9050900D020
:10221000050900C7050900BE050900B5050800ADA0
:10222000050800A50509009C050800940508008C18
:10223000050800840508007C050800740508006C8A
:10224000050700650508005D050700560508004EF6
:10225000050700470507004005080038050700315D
:102260000507002A050700230507001C05060016C0
:102270000507000F0507000805060002050700FB1B
:10228000040600F5040700EE040600E8040600E278
:10229000040700DB040600D5040600CF040600C9CD
:1022A000040600C3040600BD040600B7040600B11E
:1022B000040500AC040600A6040600A00405009B6B
:1022C00004060095040500900406008A04050085B4
:1022D000040500800406007A0405007504050070FA
:1022E0000405006B04050066040500610405005C3C
:1022F00004050057040500520405004D040500487C
:10230000040500430405003E0404003A04050035BA
:10231000040500300404002C0405002704040023F5
:102320000405001E0404001A04040016040500112C
:102330000404000D04040009040500040404000062
:10234000040400FC030400F8030400F4030400F098
:10235000030400EC030400E8030400E4030400E0C9
:10236000030400DC030400D8030400D4030400D0F9
:10237000030400CC030400C8030300C503030024C6
:10238000F404D9201BC40C5C0E9804C4095F0265D8
:10239000077101F405F900FB04B30048048700C18C
:1023A0000369005803550003034500BE023A008448
:1023B00002310053022A002902250004022000E411
:1023C000011C00C8011900AF011700980114008416
:1023D000011300710110006101100051010E004352
:1023E000010D0036010B002B010B0020010B001525
:1023F0000109000C01090003010800FB000800F3BB
:10240000000800EB000700E4000600DE000600D82C
:10241000000600D2000600CC000500C7000500C27F
:10242000000500BD000400B9000400B5000400B1BF
:10243000000400AD000400A9000400A5000300A2F0
:102440000003009F0004009B000300980003009518
:1024500000020093000300900003008D0002008B37
:10246000000300880002008600020084000300814F
:102470000002007F0002007D0002007B0002007964
:102480000002007700010076000200740002007272
:10249000000100710002006F0002006D0001006C7D
:1024A0000002006A00010069000200670001006686
:1024B000000100650001006400020062000100618B
:1024C000000100600001005F0002005D0001005C8F
:1024D0000001005B0001005A000100590001005892
:1024E0000001005700010056000100550001005492
:1024F0000001005300000053000100520001005190
:10250000000100500001004F0001004E0000004E8D
:102510000001004D0001004C0001004B0000004B89
:102520000001004A00010049000100480000004885
:102530000001004700010046000000460001004580
:10254000000000450001004400010043000000437A
:102550000001004200000042000100410000004173
:10256000000100400001003F0000003F0001003E6C
:102570000000003E0001003D0000003D0001003C65
:102580000000003C0000003C0001003B0000003B5C
:102590000001003A0000003A000100390000003953
:1025A000000100380000003800000038000100374A
:1025B0000000003700010036000000360000003641
:1025C0000001003500000035000000350001003436
:1025D000000000340000003400010033000000332C
:1025E0000000003300010032000000320000003221
:1025F0000001003100000031000000310001003016
:1026000000000030000000300001002F0000002F0B
:102610000000002F0000002F0001002E0000002EFF
:102620000000002E0001002D0000002D0000002DF4
:102630000000002D0001002C0000002C0000002CE8
:102640000000002C0001002B0000002B0000002BDC
:102650000000002B0001002A0000002A0000002AD0
:102660000000002A000100290000002900000029C4
:1026700000000029000000290001002800000028B7
:1026800000000028000000280000002800010027AA
:10269000000000270000002700000027000000279E
:1026A0000001002600000026000000260000002691
:1026B0000000002600010025000000250000002584
:1026C0000000002500000025000000250001002476
:1026D000000000240000002400000024000000246A
:1026E000000100230000002300000023000000235D
:1026F000000000230000002300000023000100224E
:102700000000002200000022000000220000002241
:102710000000002200010021000000210000002133
:102720000000002100000021000000210000002125
:102730000001002000000020000000200000002018
:102740000000002000000020000000200000002009
:102750000001001F0000001F0000001F0000001FFC
:102760000000001F0000001F0000001F0001001EED
:102770000000001E0000001E0000001E00000004FB
:102780003700001E290000511B00005810000010E7
:10279000090000CC04000078020000410100004D57
:1027A00061782054656D703A20313235004D696E84
:1027B0002054656D703A203500544265643A4550A6
:1027C000434F53203130304B004D61782054656DBC
:1027D000703A20323735004D696E2054656D703A7D
:1027E00020350054303A204550434F53203130308B
:1027F0004B005053553A2047656E6572696300502F
:10280000726F746F636F6C3A20312E3000426175C5
:10281000643A20313135323030004D656C7A6920B0
:1028200028437265616C69747929004D657368206D
:102830004C6576656C696E67004578747275646581
:1028400072733A203100687474703A2F2F6D617280
:102850006C696E66772E6F726700456E6465722DC7
:102860003300323031382D30372D33310062756707
:102870006669782D312E312E78004D61726C696E4B
:1028800000546865726D6973746F727300426F6192
:10289000726420496E666F005072696E74657220B2
:1028A000496E666F004D61696E0020746F6F206C19
:1028B0006F6E6720657874727573696F6E207072C1
:1028C0006576656E7465640A0020636F6C642065CC
:1028D0007874727573696F6E2070726576656E7448
:1028E00065640A0000002100240027002A0000007F
:1028F0002200250028002B000000200023002600D5
:102900002900020202020202020204040404040476
:102910000404030303030303030301010101010191
:102920000101010204081020408001020408102067
:1029300040800102040810204080804020100804DC
:102940000201000000010200090A00000000040367
:102950000807000000000000000000000000000068
:1029600000005654726176206D696E005654726193
:1029700076206D696E005654726176206D696E0026
:10298000566D696E00566D696E00566D696E005623
:102990006D6178204500566D6178204500566D6167
:1029A00078204500566D6178205A00566D61782078
:1029B0005A00566D6178205A00566D617820590092
:1029C000566D6178205900566D6178205900566D1A
:1029D0006178205800566D6178205800566D6178F6
:1029E0002058004D6F74696F6E00416D617820450D
:1029F00000416D6178204500416D6178205A0041A9
:102A00006D6178205A00416D6178205900416D61F7
:102A100078205900416D6178205800416D6178201F
:102A20005800412D74726176656C00412D7472619D
:102A300076656C00412D7265747261637400412D7E
:102A40007265747261637400416363656C00416315
:102A500063656C004D6F74696F6E00486F6D696ED1
:102A600067206661696C6564005452494747455266
:102A70004544006F70656E003A20007A5F6D696EA4
:102A800000795F6D696E00785F6D696E00526570E8
:102A90006F7274696E6720656E6473746F702073F3
:102AA00074617475730A000A4D65617375726564AB
:102AB00020706F696E74733A0A005A206F666673ED
:102AC00065743A20004E756D20582C593A20332CED
:102AD000330A0048617264636F646564204465660C
:102AE00061756C742053657474696E6773204C6FE4
:102AF000616465640A00F4010000F40100006400F0
:102B00000000881300000000FA430000FA430000B0
:102B1000A0400000C8410000A0420000A042000008
:102B2000C8430000BA4220286D6D290020440020CF
:102B3000490020204D33303120500050494420734B
:102B4000657474696E67733A0A002046002042007B
:102B500020480020204D3134352053004D617465EC
:102B60007269616C20686561747570207061726152
:102B70006D65746572733A0A00205A00205900206E
:102B800020473239205333205800205A0020204D4E
:102B90003432302053004D65736820426564204C08
:102BA0006576656C696E673A0A00205A0020590004
:102BB00020204D323036205800486F6D65206F66FA
:102BC000667365743A0A00204500205A00205900B7
:102BD00020580020540020530020204D3230352052
:102BE000510020453C6D61785F655F6A65726B3EA0
:102BF0000020583C6D61785F785F6A65726B3E209B
:102C0000593C6D61785F795F6A65726B3E205A3C12
:102C10006D61785F7A5F6A65726B3E0041647661D0
:102C20006E6365643A20513C6D696E5F7365676DD4
:102C3000656E745F74696D655F75733E20533C6D9E
:102C4000696E5F66656564726174653E20543C6DB3
:102C5000696E5F74726176656C5F666565647261EA
:102C600074653E0020540020520020204D32303444
:102C7000205000416363656C65726174696F6E20FA
:102C800028756E6974732F7332293A20503C707224
:102C9000696E745F616363656C3E20523C7265745B
:102CA000726163745F616363656C3E20543C74724F
:102CB0006176656C5F616363656C3E0A0020450068
:102CC000205A0020590020204D3230312058004D2C
:102CD0006178696D756D20416363656C65726174BF
:102CE000696F6E2028756E6974732F7332293A0AE2
:102CF00000204500205A0020590020204D3230335A
:102D00002058004D6178696D756D20666565647247
:102D1000617465732028756E6974732F73293A0A7C
:102D200000204500205A0020590020204D39322033
:102D3000580053746570732070657220756E6974E5
:102D40003A0A0020204D3230302044300A00202042
:102D50004D3230302044002044697361626C6564F8
:102D60000A0046696C616D656E74207365747469E0
:102D70006E67733A0020204D3134392043203B20C8
:102D8000556E69747320696E2043656C7369757341
:102D90000A002020473231202020203B005265735A
:102DA000656E643A20006F6B0020746F6F206C6F4B
:102DB0006E6720657874727573696F6E20707265C6
:102DC00076656E7465640A0020636F6C64206578B4
:102DD00074727573696F6E2070726576656E746556
:102DE000640A006F70656E206661696C65642C20F2
:102DF00046696C653A2000456E6465722D33205239
:102E0000656164792E005072696E74696E672E2E4A
:102E10002E005072696E7420706175736564005085
:102E200072696E742061626F7274656400496E69C4
:102E3000742E2053442063617264004D3231004E81
:102E40006F2053442063617264004368616E67655C
:102E50002053442063617264004D32310050726926
:102E60006E742066726F6D2053440053746F70202F
:102E70007072696E7400526573756D652070726949
:102E80006E740041626F7574205072696E74657261
:102E9000005061757365207072696E7400436F6EC7
:102EA00074726F6C00507265706172650054756E5B
:102EB0006500496E666F2073637265656E00F7ED9D
:102EC000FBEC11241FBECFEFD0E4DEBFCDBF12E07C
:102ED000A0E0B1E0ECEDF5EF01E00BBF02C0079020
:102EE0000D92A035B107D9F723E1A0E5B2E001C00A
:102EF0001D92A238B207E1F717E1C0E6D7E104C09E
:102F00002197FE010E9440FACF35D107C9F70E94F0
:102F1000E6E70C94E1FA0C9400002F923F924F9256
:102F20005F926F927F928F929F92AF92BF92CF9259
:102F3000DF92EF92FF920F931F93CF93DF93CDB762
:102F4000DEB7C756D1090FB6F894DEBF0FBECDBFAE
:102F500021E0209399098091820F8D3409F448C4AF
:102F6000843511F40C94D72E873411F00C94232F50
:102F70008091800F9091810F8D31910509F4EBC004
:102F800084F48430910509F4A8C01CF4029738F148
:102F90002BC44C9709F028C480E00E94743A0C942A
:102FA000252F8A35910509F463C324F48A9709F41F
:102FB000DBC21AC48B35910509F45EC38C359105CB
:102FC00009F012C44CE5242E41E0342E57EAC52EF8
:102FD00059E0D52EE12CF12C00E010E08AC380915D
:102FE0004001882311F40C94252F1CE5812E11E05B
:102FF000912E03EBC02E09E0D02E80E0E82E87E072
:10300000F82E9FE6A92E97E0B92E00E010E0D4013B
:103010008D914D010E94103A882321F10E94DD39E3
:10302000F801EF5AFD4F2081211104C02091550273
:10303000222341F0F70120813181428153810E9496
:10304000DEF70AC00330110539F0D5012D913D910D
:103050004D915C910E94DDF7F6016083718382835C
:1030600093830AC0F70180819181A281B381F60127
:1030700080839183A283B3830F5F1F4FF4E0CF0E51
:10308000D11C24E0E20EF11C34E0A30EB11C04308C
:10309000110509F0BCCF86E40E94573A8823C9F095
:1030A0000E94DD3920E030E0A9010E9461F9181684
:1030B00084F40E94DD3920E030E040E752E40E94D1
:1030C00061F8609358017093590180935A0190936D
:1030D0005B010E9467D90C94252F80E50E94573A26
:1030E000882329F00E9499396B017C0103C0C12C0F
:1030F000D12C760183E50E94573A882361F00E9423
:10310000DD3920E030E04AE754E40E9413F40E94E5
:10311000DAF86B017C010E94E0CE8091BC0681113F
:1031200005C060E085E191E00E9422810E9420C6F6
:10313000C60ED71EE81EF91E0E9420C6DC01CB0178
:103140008C199D09AE09BF09B7FD02C00C94252F4B
:103150000E9493A4F1CF83E50E94573A882311F18E
:103160000E94B939863070F0EEECF1E084918F0165
:103170000F5F1F4F882311F40C94252F0E94663C8B
:10318000F801F4CF833009F458C134F4813071F17F
:10319000823009F43FC006C0843009F4BCC18530D8
:1031A00009F4C9C10E948C35882399F080916E077B
:1031B000811103C06AE272E002C066E272E086EA50
:1031C00091E00E9414AF8AE00E94663C0E9443EDA9
:1031D000C7C1EEEAF1E084918F010F5F1F4F882392
:1031E00009F4BEC10E94663CF801F5CF0E9450D39D
:1031F00010920101109200018091FC0881110AC017
:103200008BE991E09093AC048093AB040E942E383C
:103210000C94252F809100019091010197FF0EC021
:10322000E2E7F1E084918F010F5F1F4F882311F4D3
:103230000C94252F0E94663CF801F4CF0097A1F46E
:1032400080911A018093500219821A821B821C827B
:1032500018A219A21AA21BA2BE016F5F7F4FCE0156
:1032600080960E9463482BC0815063E00E94EBF976
:1032700080FF03C022E0291B922F292F990F330BC7
:10328000F901EE0FFF1FE20FF31FE80FF11D87FD9D
:10329000FA95EE0FFF1FEE0FFF1FEA5CF04F8091D3
:1032A000080790910907A0910A07B0910B07808346
:1032B0009183A283B3838091500280931A018091FD
:1032C000000190910101893091050CF067C01092C6
:1032D0001A019C012F5F3F4F3093010120930001A1
:1032E00063E00E94EBF980FF03C022E0291B922FCC
:1032F000409108075091090760910A0770910B07E8
:1033000048A359A36AA37BA319821A821B821C8239
:1033100044E0840290011124B9016A577F4E4B01A9
:10332000DB012D913D914D915C91B4E09B02C00178
:103330001124FC01EE56FF4E5F0160817181828194
:103340009381DE0111966D01E12CF12C00EA10E46D
:103350000E94FB3619821A821B821C82B601CE01A2
:1033600080960E946348F50180819181A281B3819A
:103370008093000790930107A0930207B09303077F
:10338000F40180819181A281B3818093040790939D
:103390000507A0930607B093070744C080E090E0BC
:1033A000A0EAB0E48093080790930907A0930A0766
:1033B000B0930B070E94A4360E94E0CE8FEF9FEFE0
:1033C0009093010180930001EEE5F1E084918F017B
:1033D0000F5F1F4F882321F00E94663CF801F6CF53
:1033E00083E992E09A83898304E610E019A308A395
:1033F000BE016F5F7F4FCE0180960E9417488AEB17
:1034000092E09A83898319A308A3BE016F5F7F4F5F
:10341000CE0180960E94174881E00E94743A81E0B4
:103420000E94BC351092FC0860910001709101016E
:10343000693071050CF487C084C088E50E94573A52
:103440008823D1F00E94A9391FEF160F1330D8F04E
:1034500063E070E08BE491E00E94FBAEE8E4F1E011
:1034600084918F010F5F1F4F882311F40C94252F37
:103470000E94663CF801F4CF88E50E94663C0E94F9
:1034800066E60C94252F89E50E94573A8823D1F0EF
:103490000E94A9390FEF060F0330D8F063E070E007
:1034A00085E391E00E94FBAEE2E3F1E084918F01BD
:1034B0000F5F1F4F882311F40C94252F0E94663C48
:1034C000F801F4CF89E50E94663C0E9466E60C9400
:1034D000252F8AE50E94573A8823B1F00E94DD39F2
:1034E000212F30E0F901EE0FFF1FE20FF31FE00F75
:1034F000F11DEE0FFF1FEE0FFF1FEA5CF04F608320
:103500007183828393832CC08AE50E94663C0E946B
:1035100066E60C94252F8AE50E94573A8823A1F38A
:103520000E94DD3960936607709367078093680790
:103530009093690715C080E00E94BC350E9450D36B
:103540000FC069E070E083E291E00E94FBAE69E0A9
:1035500070E08EE191E00E94FBAE8AE00E94663C42
:103560000E946A940C94252F80914001882311F4C5
:103570000C94252F89E40E94573AF82E882321F0D5
:103580000E94A939062F01C000E08AE40E94573A40
:10359000E82E882331F00E94A939162FF11004C0BB
:1035A0000AC010E0FF20B1F0033010F40C941D327B
:1035B000E5EEF1E003C01330D8F70CC084918F0121
:1035C0000F5F1F4F882311F40C94252F0E94663C37
:1035D000F801F4CF0E946A3AFF2091F024E0020241
:1035E000F0011124EE56FF4E80819181A281B381BA
:1035F0008093B3099093B409A093B509B093B60929
:10360000EE2091F034E01302F0011124EA57FF4E4E
:1036100080819181A281B3818093B7099093B80989
:10362000A093B909B093BA0980E50E94573A88235C
:1036300019F00E94CD3903C080E50E94103A86E45B
:103640000E94573A882309F444CD0E94DD396B016A
:103650007C0120E030E0A9010E9461F918160CF00D
:1036600038CD20E030E040E752E4C701B60127CD75
:10367000109255020C94252F209355020C94252F5F
:103680000E94DD392B013C01133059F0F701E1595B
:10369000F84F20813181428153810E94DDF72B0157
:1036A0003C01F701E050F94F208131814281538183
:1036B000C301B2010E94DDF74B015C012DEB37E342
:1036C00046E855EB0E9461F987FD1BC02DEB37E3FF
:1036D00046E855E3C501B4010E94ADF318168CF01D
:1036E0001F5FB4E0CB0ED11CE4E0EE0EF11C1430F1
:1036F00039F1D1018D911D010E94573A882381F340
:10370000BFCF133051F440920C0750920D076092D6
:103710000E0770920F0701E0E3CFA5019401F601B7
:1037200060817181828193810E94DEF7D6016D9361
:103730007D938D939C931397812F0E94DA37D0CF7E
:10374000002309F40DCF20E030E0A90160910C07BF
:1037500070910D0780910E0790910F070E94DEF780
:1037600020911E0930911F09409120095091210993
:103770000E9413F40E9466F9609382107093831084
:1037800080938410909385109091601080916110C7
:10379000981719F00E9482CEE3CE0E94E0CE80916D
:1037A0006F0081FB992790F981FF05C080916F0020
:1037B0008D7F80936F0040918210509183106091B3
:1037C000841070918510409342095093430960938F
:1037D000440970934509992309F4C2CE80916F0082
:1037E000826080936F00BCCE0E94E1490C94252F2B
:1037F0008091800F9091810F8337910509F4A0C7C4
:103800000CF0C2C08B34910509F43EC30CF067C0C4
:103810008831910509F426C2ACF58231910509F48D
:103820003BC7BCF497FF02C00C94D42E82309105A4
:103830000CF4B8C1419711F00C94D42E60E084E0F0
:1038400092E00E9422815E985E9815985E980C9492
:10385000252F8531910509F4EAC13CF4449711F014
:103860000C94D42EECE1F2E0A1C18631910509F46B
:10387000E2C1479711F00C94D42EE0917E0FF091A5
:103880007F0FE3C18D31910511F40C94252FC4F401
:103890008A31910509F4F5C10CF4EDC18B31910524
:1038A00009F4F3C14C9711F00C94D42E40E060E081
:1038B00080917E0F90917F0F0E9426460C94252FB9
:1038C0008F31910509F4F1C10CF4E3C18032910507
:1038D00009F4E3C18A9709F48EC20C94D42E893678
:1038E000910509F4D2C344F58335910509F4D0C696
:1038F0009CF48D34910509F4CFC20CF4C9C2813512
:10390000910509F49FC68235910511F00C94D42ECF
:10391000109254020C94252F8535910509F4F1C6B7
:103920000CF4BAC68C35910509F406C788369105A2
:1039300009F4B6C20C94D42E8E36910509F4E9C26E
:1039400084F48B36910509F46BC60CF44BC68C36A7
:10395000910509F462C38D36910509F4D8C30C941E
:10396000D42E8037910509F45CC30CF4E5C281378D
:10397000910509F45EC38237910511F00C94D42EA1
:103980000E9435950C94252F8232F1E09F0711F4A7
:103990000C9409290CF07CC0883C910509F4B2C74D
:1039A000ACF58937910509F42DC7DCF4863791050C
:1039B00009F4D8C634F48537910509F4C5C60C94CA
:1039C000D42E8737910509F419C78837910511F06E
:1039D0000C94D42E81E08093F6028093F5020C942F
:1039E000252F8139910509F413C734F48C389105DA
:1039F00009F430C50C94D42E8B39910509F460C3B9
:103A00008E3B910509F444C50C94D42E8E3C91054F
:103A100011F40C94FA250CF58B3C910511F40C94DF
:103A2000E3247CF4893C910511F00C94D42E32E10E
:103A3000E32E3FE0F32E0CE511E044E0D42ED00E4F
:103A4000A9C78C3C910511F40C9401258D3C91057E
:103A500011F40C9479250C94D42E8C3D910511F41D
:103A60000C9466284CF4833D910511F00C94D42EEF
:103A7000E0E7FBE00C9488278D3D910511F40C9450
:103A80007328823E910511F40C94E0280C94D42EF6
:103A90008C3A41E0940711F40C941C260CF040C0C1
:103AA000833661E0960711F40C94802CECF48D328F
:103AB000A1E09A0711F40C940C294CF48C3291403B
:103AC00011F00C94D42E0E948D930C94252F8E32DD
:103AD000F1E09F0711F40C940F298F32914011F4FB
:103AE0000C9463290C94D42E8A3931E0930709F49D
:103AF0009CC24CF48039914011F00C94D42E0E9459
:103B0000E0CE0C94252F843A61E0960711F40C94D2
:103B1000992C853A914011F40C94E02D0C94D42EFC
:103B2000883FA1E09A0711F40C94C82EFCF4853F5D
:103B3000E1E09E0711F40C94C22E4CF4843F9140B6
:103B400011F00C94D42E0E94CC620C94252F863F49
:103B500031E0930711F40C94C52E873F914011F08A
:103B60000C94D42E0E949D920C94252F8B3853E0F8
:103B7000950711F40C94252F3CF48C30924011F4ED
:103B80000C94CB2E0C94D42E803AA3E09A0709F41F
:103B900088C0873E934011F00C94D42E0E9464920A
:103BA0000C94252F0E94AD970C94252F84918F01A2
:103BB0000F5F1F4F882321F00E94663CF801F6CF6B
:103BC0001092631340E050E0BA0186E191E10E9457
:103BD000E3548BE1E6E1F1E1DE01159601900D92EF
:103BE0008A95E1F780911411909115119C838B8334
:103BF00082E192E09A83898340E050E0BE016F5FEA
:103C00007F4F80E090E00E94FB43CE0101960E942E
:103C100004A4EDE0F2E084918F010F5F1F4F882331
:103C200011F40C94252F0E94663CF801F4CF0E94F9
:103C30009D480C94252F1092BE101092BF100C942A
:103C4000252F803209F41082319680818111F9CFBD
:103C500040E061E080917E0F90917F0F0E942646A8
:103C60000C94252F8091BF1081112093BE100E94CB
:103C70004E9B0C94252F1092BE100E94889B0C9492
:103C8000252F0E9493970C94252F0E940B970C943C
:103C9000252F0E945B960C94252F0E941A960C9457
:103CA000252F0E940F960C94252F0E941A9B3CE30F
:103CB000C32ED12CE12CF12CA70196010E94A1F773
:103CC000762E672ECA01B901A70196010E94A1F7BD
:103CD0006B017C01CA01B90128E130E040E050E00D
:103CE0000E94A1F74B015C01C9016DE671E00E94E1
:103CF000F9F98E010F5F1F4F6115710599F06F92F1
:103D00007F92DF92CF929F928F929F938F937F9318
:103D10006F9385E592E09F938F931F930F930E947B
:103D200044F312C00097B1F06F927F92DF92CF926E
:103D30009F928F929F938F9385E492E09F938F93AE
:103D40001F930F930E9444F30FB6F894DEBF0FBE8B
:103D5000CDBF36C081149104A104B10479F06F92F3
:103D60007F92DF92CF929F928F9289E392E09F930E
:103D70008F931F930F930E9444F3E6CFC114D10495
:103D8000E104F10469F06F927F92DF92CF9281E3B8
:103D900092E09F938F931F930F930E9444F3D4CF8D
:103DA0006F927F928DE292E09F938F931F930F9378
:103DB0000E9444F30F900F900F900F900F900F9070
:103DC00060E0C8010E945E81E0E7FBE084917F0132
:103DD0007FEFE71AF70A882321F00E94663CF7017B
:103DE000F5CFB80189E692E00E9414AF8AE00E9404
:103DF000663C0C94252F83E50E94573A882311F4E2
:103E00000C94252F0E94B939E82E80E50E94573A7C
:103E1000882311F40C94252F0E94B939182F87FF9D
:103E200002C00C94252F89E40E94573A882349F058
:103E30000E94CD39811111C0EBEFF3E08DE28E0FBE
:103E400007C089E40E94103AF5CF31968E1729F009
:103E500094911913FACF0C94513061E0812F0E9494
:103E600038C56E2D812F0E9408C5F12CB701812F16
:103E70000E9474C5143011F00C94252FF092AA04FE
:103E8000E092A9040C94252F0E944E9B0C94252FA0
:103E90000E94889B0C94252F0E949D9B0C94252F9B
:103EA00088E690E00E94763F81110C94252F809146
:103EB000EC0E83FF02C00C94252F83E50E94573A35
:103EC000882319F10E94DD390E94D3F820910B015B
:103ED00030910C012F503109261737070CF4B90126
:103EE0007093A8046093A70480E00E94129A0E9435
:103EF000DD3920E030E04AEA52E40E94ADF31816C2
:103F000024F00E949D9B0E944BE20E94EFEE0C94D5
:103F1000252F8EE40E94573A882311F40C94252F04
:103F20000E94A939609312077093130780931407B6
:103F3000909315070C94252F83E50E94103A88234F
:103F400059F083E50E94573A882319F00E94B93945
:103F500001C080E08093EC0EE0E7FBE084918F01EC
:103F60000F5F1F4F882321F00E94663CF801F6CFB7
:103F7000E4E8F2E084918F010F5F1F4F882321F066
:103F80000E94663CF801F6CF8091EC0E8823A1F1E7
:103F900026E7C22E22E0D22EE12CF12C20E08091E7
:103FA000EC0E90E00E2C02C0959587950A94E2F7EE
:103FB00080FF17C0BB24B394B20E222319F08CE209
:103FC0000E94663CF60125913491F90184918901A2
:103FD0000F5F1F4F882321F00E94663C9801F5CFA8
:103FE0002B2DFFEFEF1AFF0A32E0C30ED11C45E084
:103FF000E416F104A1F60CC0E0E8F2E084918F0130
:104000000F5F1F4F882321F00E94663CF801F6CF16
:104010008AE00E94663C0C94252F109207010C94B4
:10402000252F8BE892E00E9420A40E94A8920C9475
:10403000252F83E50E94573A882369F00E94B939F9
:104040008D3320F4809344010C94252F8CE38093CE
:1040500044010C94252FE0E7FBE084918F010F5F72
:104060001F4F882321F00E94663CF801F6CF409153
:10407000440150E060E070E084E992E00E94C1AE4B
:104080008AE00E94663C0C94252F89E690E00E940D
:10409000763F811111C0EBE9F2E084918F010F5F4F
:1040A0001F4F882321F00E94663CF801F6CF0E9442
:1040B0002E7B8AE00E94663C109299090C9424326F
:1040C00083E50E94573A882311F40C94252F0E940F
:1040D000B939182F8D3308F01CE31093A6090E94FC
:1040E00020C66B017C01212F30E0A8EEB3E00E94D6
:1040F000CEF7C60ED71EE81EF91EC092A209D092B6
:10410000A309E092A409F092A5090C94252F8DE64D
:1041100090E00E94763F81110C94252F8091EC0E47
:1041200083FF02C00C94252F83E50E94573A8EA38B
:10413000811106C082E50E94573A882309F446C0DF
:104140000E94DD390E94D3F820910B0130910C01BF
:104150002F503109261737070CF4B9017093A804C2
:104160006093A70480E00E94129A0E94DD3920E04B
:1041700030E04AEA52E40E94ADF3181614F40C94AD
:104180002A2F0E949D9B0E944BE26091A704709190
:10419000A804072E000C880B990B0E94B4F3209101
:1041A0001C0730911D0740911E0750911F070E9468
:1041B00061F9181614F40C942E2F5EA1511105C04C
:1041C00082EA92E060E00E94228181E0A4968FAFB3
:1041D000A4970E94EFEEA4968FADA497882311F4C4
:1041E0000C94252F81E0809307011EA61FA618AA14
:1041F00019AA1FAA18AE19AE1AAE1AA61BAE6CE306
:104200006CAF7CE17DAF86E48EAFC12CD12C80E811
:10421000E82E9FEBF92E812C912C54016091A7047C
:104220007091A804072E000C880B990B0E94B4F320
:10423000162F072F782E692E262F372F482F592F0C
:10424000B601C7010E94ADF38823C1F020911C077D
:1042500030911D0740911E0750911F07612F702F4D
:10426000872D962D0E94ADF3881F8827881F8AA767
:104270009EA1992339F0882329F0AAC11C2D0D2D68
:104280007E2C6F2C0E9420C66B017C01DC01CB01CF
:104290002FA938AD49AD5AAD821B930BA40BB50BBA
:1042A000B7FD3BC0B701A60148515C4F6F4F7F4F30
:1042B0004FAB58AF69AF7AAF0E942E7BEEE9F2E0C8
:1042C00084912F015FEF451A550A882321F00E943F
:1042D000663CF201F5CF81149104A104B104B9F058
:1042E000D501C401805F984DAF4FBF4FBC01CD01D8
:1042F0006C197D098E099F0928EE33E040E050E0FB
:104300000E94A1F7CA01B9010E94B83F03C08FE320
:104310000E94663C8AE00E94663C0E9493A40E9430
:1043200020C660939A0970939B0980939C0990938F
:104330009D0960911C076AAB70911D077BAB809152
:104340001E078CAB90911F079DAB9B01AC01612FA9
:10435000702F872D962D0E94DDF71B012C0120E088
:1043600030E0A9010E9461F987FF04C057FA509418
:1043700057F8509481149104A104B10459F420E039
:1043800030E040E85FE3C201B1010E94ADF387FF76
:104390000DC00AC020E030E040E450E4C201B101A9
:1043A0000E9461F9181614F446015701AAA5AA2320
:1043B000A9F12EA53FA548A959A921153105410507
:1043C000510541F0D701C601821B930BA40BB50B1D
:1043D000B7FD24C02AA93BA94CA95DA96BAD7CAD52
:1043E0008DAD9EAD0E94DDF720E030E040EC5FE354
:1043F0000E94ADF387FDECC0B701A601405A5541BC
:104400006F4F7F4F4EA75FA768AB79AB5AA95BAFE1
:104410006BA96CAF7CA97DAF8DA98EAF8091070190
:10442000882309F4D5C081149104A104B10429F4AE
:10443000C12ED02EE72CF62CF1CE90E1C91A97E2CE
:10444000D90AE108F108C818D908EA08FB08F7FEFC
:10445000BFC0EECF8091EC0E83FF02C00C94252FDD
:1044600083E50E94573A882311F40C94252F0E946B
:10447000DD390E94D3F86E36710514F06EE670E0F7
:104480007093A6046093A5040E94C7990C94252FED
:104490008091EC0E83FF02C00C94252F83E50E94CF
:1044A000573A8DAB811107C082E50E94573A8823A5
:1044B00011F40C94252F0E94DD390E94D3F86E363A
:1044C000710514F00C9428307093A6046093A50431
:1044D0000E94C7990E94DD3920E030E040EA50E4B4
:1044E0000E9461F9181614F40E944E9B6091A50475
:1044F0007091A604072E000C880B990B0E94B4F350
:1045000020912007309121074091220750912307E5
:104510000E9461F9181614F40C94322F80EC92E08A
:1045200060E00E94228181E0809307018091B308BE
:104530008093B0071AA61BA61CA61DA61FAA18AE1C
:1045400019AE1AAE1EA21BAEACE3ACAFBCE1BDAF60
:10455000E6E4EEAFC12CD12C10E8E12E0FEBF02EEB
:10456000812C912C54016091A5047091A604072E12
:10457000000C880B990B0E94B4F3162F072F782E8E
:10458000692E262F372F482F592FB601C7010E94B9
:10459000ADF3882311F40C94362F2091200730912D
:1045A00021074091220750912307612F702F872DFB
:1045B000962D0E94ADF3881F8827881F8EA3FDA922
:1045C000FF2311F40C943A2F882311F40C943A2F02
:1045D00080910701882311F40C94252F0E944BE24F
:1045E0000C94252F80E50E94573A811106C083E57F
:1045F0000E94573A882361F006C00E94B9398111A0
:104600000C94252FF4CF0E94A9396F3F710510F04B
:104610006FEF70E07093AA046093A9040C94252FA7
:1046200080E50E94573A811106C01092AA041092A8
:10463000A9040C94252F0E94A939672B11F00C9422
:10464000252FF3CF0E94B29B0E94F0CE1092AA04B5
:104650001092A90400E010E062E370E080E090E0D6
:104660000E94E6C50E94C89E0F5F1F4F03311105CF
:1046700099F762E370E080E090E00E94E6C50E9456
:10468000C89E60E08EED92E00E9422810C94252F5E
:10469000209354020C94252F83E50E94573A8823D7
:1046A000A1F00E94DD3920E030E04AE754E40E94A6
:1046B00013F40E94DAF860934501709346018093E9
:1046C0004701909348010C94252F88E50E94103AE9
:1046D00081110C942C3089E50E94103A81110C94C0
:1046E0002C308AE50E94103A81110C942C3085E41C
:1046F0000E94103A81110C942C300E94F0CE0C9440
:10470000252F83E50E94103A882311F40C94252F5D
:104710000E94DD3920E030E04AE754E40E9413F4BF
:104720000E94DAF860939E0970939F098093A00914
:104730009093A1090C94252F0E9471950C94252F1C
:104740000E940B940C94252F80917E0F90917F0FE7
:10475000DC012C91222309F441CF60E00E945E81AC
:104760000C94252F00917E0F10917F0F83E0D12CA8
:1047700040E08150E1F0F8019081292F2B7F213416
:10478000C1F721812133A9F7913421F0953421F427
:1047900041E002C0DD24D39498012E5F3F4F890190
:1047A0002F5F3F4FD8019C919032C9F3E2CF442351
:1047B00069F0E0E7FBE084917F01BFEFEB1AFB0AB1
:1047C000882321F00E94663CF701F5CFDD2069F0D7
:1047D000EBEEF2E084917F012FEFE21AF20A8823D8
:1047E00021F00E94663CF701F5CFD8018D918D0133
:1047F000882309F40DCC0E94663CF7CF0E94B8D301
:104800000C94252F1092F6021092F5020C94252F8D
:1048100083E50E94573A882319F00E94A93902C003
:1048200060E070E08B01112702301105D4F0E5E55E
:10483000FBE084918F010F5F1F4F882321F00E94BE
:10484000663CF801F6CFEFEEF2E084918F010F5F46
:104850001F4F882311F40C94252F0E94663CF80109
:10486000F4CF88E40E94573A8823A9F00E94A9391E
:104870006A3A71053CF06530B1E07B072CF064E0EA
:1048800071E002C06AEA70E0F801EE0FFF1FE25625
:10489000F84F7183608386E40E94573A8823A9F019
:1048A0000E94A939F801EE0FFF1FEE55F84F7183F2
:1048B00060836F3F710519F014F06FEF70E077FFC0
:1048C00002C060E070E07183608382E40E94573A26
:1048D000882311F40C94252F0E94A93965307105A5
:1048E00034F06F3671052CF06EE670E002C065E0C2
:1048F00070E0000F111FF801E656F84F71836083D6
:104900000C94252F88EC90E00E94763F81110C9446
:10491000252F84E40E94103A8823C1F10E94DD39DA
:1049200011E020E030E0A9010E94ADF3811101C047
:1049300010E010932609112349F10E94DD39E0911E
:10494000B00724E0E29FF0011124EE5DF64F608392
:1049500071838283938320E030E0A9016091220972
:104960007091230980912409909125090E94ADF34B
:1049700081110CC080E090E0A0EEBFE3809322099B
:1049800090932309A0932409B09325090E94EACDAE
:104990000C94252FD8018D918D010E94103A882307
:1049A00049F00E94DD390E94DAF8F70160837183D3
:1049B00082839383F4E0EF0EF11CD012EBCF0E94C0
:1049C000AEE40C94252F92E0E92E9FE0F92E0CE541
:1049D00011E024E0D22ED00ED8018D918D010E94DD
:1049E000103A882339F00E94DD39F7016083718322
:1049F00082839383F4E0EF0EF11CD012EDCF0C9480
:104A0000252F83E50E94573A8823A1F00E94DD39C3
:104A100060932A0F70932B0F80932C0F90932D0F80
:104A20006093220F7093230F8093240F9093250F90
:104A300010E001C011E080E50E94573A882359F048
:104A40000E94DD3960932A0F70932B0F80932C0FF7
:104A500090932D0F10E082E50E94573A882359F079
:104A60000E94DD396093260F7093270F8093280FE3
:104A70009093290F10E084E50E94573A882361F053
:104A80000E94DD396093220F7093230F8093240FCF
:104A90009093250F0C94252F112311F40C94252F9E
:104AA00040912A0F50912B0F60912C0F70912D0F78
:104AB00087E193E00E94DEAE4091260F5091270FD0
:104AC0006091280F7091290F84E193E00E94DEAE7F
:104AD0004091220F5091230F6091240F7091250F68
:104AE00081E193E00E94DEAE8AE00E94663C0C9475
:104AF000252F81E50E94103A882351F00E949939B0
:104B00006093E70E7093E80E8093E90E9093EA0E9F
:104B100083E50E94103A882351F00E94DD396093AA
:104B2000FE0E7093FF0E8093000F9093010F84E5AB
:104B30000E94103A882351F00E94DD396093FA0EEA
:104B40007093FB0E8093FC0E9093FD0E88E50E94FF
:104B5000103A882351F00E94DD3960930209709366
:104B60000309809304099093050989E50E94103A8E
:104B7000882351F00E94DD3960930609709307097C
:104B800080930809909309098AE50E94103A8823C6
:104B9000F1F00E94DD3960930A0970930B0980934C
:104BA0000C0990930D092DEC3CEC4CEC5DE30E945C
:104BB000ADF3181664F0E7E2F3E084918F010F5F24
:104BC0001F4F882321F00E94663CF801F6CF85E450
:104BD0000E94103A882311F40C94252F0E94DD398D
:104BE00060930E0970930F09809310099093110937
:104BF0000C94252F0CE5C02E01E0D02E88EFE82E76
:104C000082E0F82E10E0D6018D916D010E94103ADD
:104C1000882351F00E94DD39F7016083718382831C
:104C20009383812F0E94DA371F5FF4E0EF0EF11CAF
:104C3000133049F70C94B01A10916507012F0170D9
:104C4000022711FBFF24F0F8F22612FB112710F9BE
:104C50001227011102C0FF2019F0E0E7FBE014C0A9
:104C60001111FBCF13E2812E1FE1912EA0E0B7E0DE
:104C7000BFA3AEA3FE0131965F010CE71FE11F0148
:104C8000F3E0F00FFAA77CC084916F012FEFC21AF6
:104C9000D20A882321F00E94663CF601F5CFE9E7AD
:104CA000F3E084916F013FEFC31AD30A882321F008
:104CB0000E94663CF601F5CF002369F0E7E7F3E0D8
:104CC00084916F014FEFC41AD40A882321F00E9407
:104CD000663CF601F5CFFF2069F0E5E7F3E084914B
:104CE0006F015FEFC51AD50A882321F00E94663C48
:104CF000F601F5CF111103C0EBE6F3E00DC0E3E7D9
:104D0000F3E084916F016FEFC61AD60A8823A1F3EE
:104D10000E94663CF601F5CF84916F017FEFC71AC0
:104D2000D70A882321F00E94663CF601F5CF1111C5
:104D300003C049E252E002C04EE252E0F11003C06B
:104D400029E232E002C020E332E0011103C089E22F
:104D500092E002C082E392E05F934F933F932F93E0
:104D60009F938F9389E593E09F938F931F920E9467
:104D700082480FB6F894DEBF0FBECDBF0C94252F2E
:104D8000F4016591759185919491AEA1BFA1CD90EB
:104D9000DD90ED90FD90BFA3AEA3A70196010E9408
:104DA000DDF72B013C0120E030E040EA51EC0E94AD
:104DB00061F987FD10C020E030E040EA51E4C30112
:104DC000B2010E94ADF3181634F0F1014082518215
:104DD000628273820DC0F80184911816B4F7F7FA55
:104DE000F094F7F8F094F101C082D182E282F3826C
:104DF000D101CD90DD90ED90FD901D0120E030E0DF
:104E000040EA51ECC701B6010E9461F987FF03C077
:104E1000E5E5FBE00BC020E030E040EA51E4C701EB
:104E2000B6010E94ADF318167CF5F2CF84918F0184
:104E30000F5F1F4F882321F00E94663CF801F6CFD8
:104E4000EDE9F3E084918F010F5F1F4F882321F07C
:104E50000E94663CF801F6CF61E08FE893E00E9483
:104E600022810E94105288E290E099A388A388ECE6
:104E700090E09DA38CA3BE01605E7F4FCE0184961F
:104E80000E9417480C94252FB4E08B0E911C0F5FE5
:104E90001F4FEAA5E01374CFB8EFEB2EB2E0FB2E64
:104EA00010E0F50181919191A191B1915F01F7011C
:104EB00081939193A193B1937F01812F0E94DA375F
:104EC0001F5F133071F70E946A9460E08FE793E0F0
:104ED0000E94228183E992E09DA38CA304E610E066
:104EE00019A308A3BE016C5D7F4FCE0180960E947E
:104EF00017488AEB92E09DA38CA319A308A3BE01D7
:104F00006C5D7F4FCE0180960E9417480C94252F30
:104F100084918F010F5F1F4F882321F00E94663C10
:104F2000F801F6CF83E50E94103A882321F00E9411
:104F3000CD3980931A01E3EEF3E084918F010F5F86
:104F40001F4F882321F00E94663CF801F6CF809124
:104F50001A01811103C0EFEDF3E002C0EBEDF3E0C5
:104F600084918F010F5F1F4F882321F00E94663CC0
:104F7000F801F6CFE3EDF3E084918F010F5F1F4F4F
:104F8000882321F00E94663CF801F6CF20916F073C
:104F900030917007409171075091720760917B07C3
:104FA00070917C0780917D0790917E070E94DEF7CB
:104FB000AB01BC0181ED93E00E94DEAE209173074E
:104FC00030917407409175075091760760917F0783
:104FD0007091800780918107909182070E94DEF78F
:104FE000AB01BC018EEC93E00E94DEAE209177070E
:104FF000309178074091790750917A076091830743
:105000007091840780918507909186070E94DEF752
:10501000AB01BC018BEC93E00E94DEAEE3ECF3E06D
:1050200084918F010F5F1F4F882321F00E94663CFF
:10503000F801F6CF20916F0730917007409171070A
:105040005091720760910E0170910F0180911001D3
:10505000909111010E94DEF7AB01BC0181EC93E05D
:105060000E94DEAE2091730730917407409175075E
:105070005091760760911201709113018091140193
:10508000909115010E94DEF7AB01BC018EEB93E01D
:105090000E94DEAE20917707309178074091790722
:1050A00050917A0760911601709117018091180153
:1050B000909119010E94DEF7AB01BC018BEB93E0EC
:1050C0000E94DEAE8AE00E94663CBFC683E50E9475
:1050D000573A882309F4B9C60E94A93970933F0151
:1050E00060933E01B2C68DED90E00E94763F811143
:1050F000ACC683E50E94573A8823D1F10091B007EE
:1051000010E00E94A939000F111FF801E45CFE4F66
:10511000718360838091B00790E07C01EE0CFF1CEE
:10512000EE0CFF1C8701085C1E4F880F991FFC01C5
:10513000E45CFE4F60817181072E000C880B990B97
:105140000E94B4F32AE037ED43E25CE30E9413F4DB
:10515000F701E850F74F20813181428153810E944D
:1051600013F4D8016D937D938D939C9313976DC623
:10517000E0E7FBE084918F010F5F1F4F882321F050
:105180000E94663CF801F6CF85E40E94663C80915F
:10519000B007805D0E94663CE091B007F0E0EE0F42
:1051A000FF1FE45CFE4F6081718183EF93E00E94FA
:1051B000FBAE85E20E94663C8AE00E94663C45C6E2
:1051C00080E50E94103A882309F43FC60E94A9395D
:1051D0006B017C0183E50E94573A882321F00E94ED
:1051E000A9398B0102C00FEF1FEFC8010196039789
:1051F00008F02BC6D7FC29C69C2DEBEFF3E08DE21F
:105200008E0F2491921709F44CC731968E13F9CF63
:105210004BC70E94C29319C60E94EA9216C683E544
:105220000E94103A182F882371F00E94DD390E94E5
:10523000D3F8709353016093520121E0672B09F07A
:1052400020E02093EB0E80E50E94103A882359F06D
:105250002091520130915301232B11F00E94CD393E
:105260008093EB0EF2C51111F0C5E0E7FBE08491ED
:105270008F010F5F1F4F882321F00E94663CF801C9
:10528000F6CF8091EB0E811103C067E372E002C09C
:1052900064E372E08DE394E00E9414AF60915201E8
:1052A000709153018CE294E00E94FBAEE8E2F4E0DE
:1052B00084918F010F5F1F4F882309F4C6C50E9498
:1052C000663CF801F5CF85E40E94573A882321F027
:1052D0000E94A9397B0102C0E12CF12C83E40E94D9
:1052E000573A882331F00E94A9392B966FAF2B973C
:1052F00004C0B5E02B96BFAF2B9785E50E94573AC7
:10530000882319F00E94CD3903C085E50E94103A28
:1053100067968FAF6797F7FC07C0812C912C56E1F9
:10532000A52E53E4B52E06C0812C912C4CE8A42E5A
:1053300042E4B42E83E50E94573A882321F00E946C
:10534000DD394B015C01E114F10411F41092B00756
:105350000E9420C62B013C01EE2069F0EEEFF5E043
:1053600084918F010F5F1F4F882309F46EC50E943F
:10537000663CF801F5CFC501B4010E94D3F8072EB1
:10538000000C880B990B0E94B4F36EA77AAB8BAB21
:105390009CAB60910B0170910C016F507109072E4D
:1053A000000C880B990B0E94B4F39B01AC016EA515
:1053B0007AA98BA99CA90E9461F918166CF4EFEBED
:1053C000F5E084918F010F5F1F4F882309F43DC5DD
:1053D0000E94663CF801F5CFEAEEF5E084917F018A
:1053E0002FEFE21AF20A882321F00E94663CF701AF
:1053F000F5CFB301A201405E514B6F4F7F4FA39693
:105400004CAF5DAF6EAF7FAFA3970E94B29B8FE7AB
:105410008093AE0781E08093070162964CAE5DAE4B
:105420006EAE7FAE62976B964CAE5DAE6EAE7FAEEB
:105430006B972E961FAE2E976F961CAE1DAE1EAEAE
:105440001FAE6F971FAA50E45BAF6CE16CAF76E4C0
:105450007DAF1EAE1FAE21961FAE219722961FAEC6
:1054600022972A961CAE1DAE1EAE1FAE2A97269618
:105470001CAE1DAE1EAE1FAE2697C12CD12C7601E0
:105480008FE790E0A0E0B0E08AA79BA7ACA7BDA7FC
:105490003FE7832E912CA12CB12C66961CAE1DAE3D
:1054A0001EAE1FAE669791E02D969FAF2D971EAA58
:1054B0001DAA10E0212C312C00E02B96AFAD2B97CC
:1054C0000A2E000CBB0B2C96BFAFAEAF2C97809171
:1054D0000701882309F4D2C00E9420C66EA37FA3CF
:1054E00088A799A780914609882309F4ABC00E9438
:1054F000F99A10911C0720901D0730901E0700910B
:105500001F07212F322D432D502F6EAD7FAD2196D9
:105510008FAD219722969FAD22970E94ADF387FF12
:1055200008C01EAF2FAE21963FAE219722960FAF37
:105530002297212F322D432D502F6FA97BAD8CAD9B
:105540009DAD0E9461F9181624F41FAB2BAE3CAE42
:105550000DAF2D96BFAD2D972EA53AA94BA95CA9ED
:10556000612F722D832D902FBB2309F451C00E940F
:1055700061F918160CF066C02EA13FA148A559A5E7
:105580002419350946095709A8962CAF3DAF4EAFEF
:105590005FAFA897DA01C90188589341A109B10901
:1055A000B7FD50C0D501C4014AA55BA56CA57DA57A
:1055B000841B950BA60BB70BB595A795979587956B
:1055C0008093AE07A8966CAD7DAD8EAD9FADA897CC
:1055D00066966CAF7DAF8EAF9FAF66977EA57EAFB0
:1055E0008AA98FAF9BA921969FAF2197ACA922963C
:1055F000AFAF22972EA13FA148A559A562962CAF27
:105600003DAF4EAF5FAF62972D961FAE2D971AC07C
:105610000E94ADF387FF16C08EA19FA1A8A5B9A5D2
:1056200062964CAD5DAD6EAD7FAD6297841B950B00
:10563000A60BB70BAC01BD01485853416109710974
:1056400077FF5AC520E030E040EA51E46EA57AA920
:105650008BA99CA90E94DEF79B01AC01612F722DE2
:10566000832D902F0E9461F918167CF4EBE4F5E08D
:1056700084918F010F5F1F4F811103C00E94B29B65
:10568000E4C30E94663CF801F3CF8EA19FA1A8A5B8
:10569000B9A56B962CAD3DAD4EAD5FAD6B97821B42
:1056A000930BA40BB50BB7FD90C00E942E7B8AE034
:1056B0000E94663C4EA15FA168A579A54053584F52
:1056C0006F4F7F4F6B964CAF5DAF6EAF7FAF6B97F9
:1056D0002E965FAD2E9751115DC06F962CAD3DADEE
:1056E0004EAD5FAD6F97612F722D832D902F0E946D
:1056F00061F91816D4F520E030E040E050E4612F65
:10570000722D832D902F0E94DEF76F966CAF7DAFC8
:105710008EAF9FAF6F976EA17FA188A599A5605EA0
:10572000714B8F4F9F4FA3966CAF7DAF8EAF9FAFE6
:10573000A39720E030E040EC50E46EA57AA98BA955
:105740009CA90E94DDF79B01AC0171E02E967FAF12
:105750002E97612F722D832D902F0E9461F91816BC
:10576000A4F12E961FAE2E9730C08EA19FA1A8A5A2
:10577000B9A5A3962CAD3DAD4EAD5FADA397821BF1
:10578000930BA40BB50BB7FD20C04AE255E06CE3C8
:1057900075E018C020E030E040EA51E46EA57AA937
:1057A0008BA99CA90E94DDF79B01AC01612F722D92
:1057B000832D902F0E94ADF387FF07C047E055E08F
:1057C0006AE175E080E00E94E99B8EA19FA1A8A5F7
:1057D000B9A5880F991FAA1FBB1F62964CAD5DAD7E
:1057E0006EAD7FAD6297841B950BA60BB70B84192A
:1057F0009509A609B70981389F44A241B10568F00F
:10580000E9EEF4E084918F010F5F1F4F882309F4C4
:1058100035CF0E94663CF801F5CF6DA97EA92C9684
:105820008EAD9FAD2C97861797070CF066C0ECE8FD
:10583000F4E084918F010F5F1F4F882321F00E94B5
:10584000663CF801F6CFB701A60188E794E00E9414
:10585000DEAE8AE00E94663C26964CAD5DAD6EAD34
:105860007FAD269784E694E00E94DEAE8AE00E9437
:10587000663C2A964CAD5DAD6EAD7FAD2A9780E556
:1058800094E00E94DEAE8AE00E94663C67969FAD7F
:105890006797992309F4D9C2C0928D07D0928E07D9
:1058A000E0928F07F09290072CEA35EC47E25EE336
:1058B00026966CAD7DAD8EAD9FAD26970E9413F4FC
:1058C0006093950770939607809397079093980736
:1058D0002CEA35EC47E25EE32A966CAD7DAD8EADE9
:1058E0009FAD2A970E9461F8609391077093920789
:1058F0008093930790939407A8C20E948781E7CD75
:10590000E5E5FBE084918F010F5F1F4F882321F0B5
:105910000E94663CF801F6CFE8E2F6E084918F0140
:105920000F5F1F4F882309F490C20E94663CF80164
:10593000F5CF83E50E94103A882349F00E94CD39C3
:10594000082F811106C080E00E94BC3502C0009182
:105950006E078091000790910107A0910207B09116
:10596000030789839A83AB83BC838091040790915A
:105970000507A0910607B09107078D839E83AF832B
:10598000B8878091080790910907A0910A07B09104
:105990000B0789879A87AB87BC870E948C35882341
:1059A00009F462C083E40E94103A8111EDC45CC026
:1059B000F701AEA1EA0FF11DEE0FFF1FEE0FFF1F63
:1059C000EA5CF04F9080A180B280C380292D3A2DEF
:1059D0004B2D5C2D682D7D2D8AA99BA90E9461F914
:1059E000181624F4892CDA2CBAAACBAA292D3A2D20
:1059F0004B2D5C2DB3018AA59EA50E94ADF387FFB8
:105A000004C0692C7A2CBAA6CEA6BEA1B150BEA302
:105A1000BF3F71F61111C9C493014AA55EA5682D57
:105A20007D2D8AA99BA90E94DEF720E030E040E0AE
:105A30005FE30E9413F4A20191010E94DEF74B0183
:105A40005C012DEB37E346E855EB0E9461F987FDD9
:105A5000B7C42DEB37E346E855E3C501B4010E9416
:105A6000ADF318160CF4ACC486E50E94103A8823F6
:105A700099F00E948C35882379F0E6E7F6E084916E
:105A80007F012FEFE21AF20A882321F00E94663C80
:105A9000F701F5CF0E9443ED8AE50E94103A882372
:105AA00029F00E94DD3940E00E94DD35802F0E9400
:105AB000BC35011103C0E0E7FBE01CC080916E071C
:105AC0008111F9CFE5E5FBE084918F010F5F1F4F56
:105AD000882321F00E94663CF801F6CFE7E5F6E066
